:02000000ff00ff
:080002004c6174746963650030
:17000a00694345637562653220323031342e31322e32373035320077
:16002100506172743a2069434534304858314b2d545131343400fc
:1b003700446174653a204a756e20313920323031352031353a34333a33310072
:0200520000ffad
:040054007eaa997e69
:02005800510055
:02005a0001059e
:03005c00920020ef
:03005f0062014bf0
:0300620072009099
:0300650082000016
:02006800110085
:02006a00010192
:20006c00000000000000000000000000000000000000000000000000000000000000000074
:09008c000000000000000000006b
:2000950000000000000000000000000b000000000000000000000000000000000000000040
:0a00b5000000000000000000000041
:2000bf00000000000000000000000000000000000000000000000000000000000000000021
:0900df00000000400000000000d8
:2000e8000000000000000000000000000000000000000000000000000000000000000000f8
:0a01080000000000000000000000ed
:200112000000000000000000000000000000000000000000000000000000000000000000cd
:09013200000000000004000000c0
:20013b000000000000000000000000000000000000000000000000000000000000000000a4
:0a015b00000000000000000000009a
:200165000000000000040000000000001000000000000040000000001000000000000040d6
:0901850000000000000000000071
:20018e00000000000000000000000000000000000000000000000000000000000000000051
:0a01ae000000000000000000000047
:2001b80000000000000c00000000000030000000000000c00000000030400000000000c0fb
:0901d8000000000000010000001d
:2001e1000000000000000000000000000000000000000000000000000000000000000000fe
:0a02010000000000000000000000f3
:20020b00000000000000000000000000000c000000000000000000000000000000000000c7
:09022b00000000000000000000ca
:200234000000000000000000000000000000c00000000000000000000000000000000000ea
:0a02540000000000000000000000a0
:20025e00000000000000000000000000000000000000000000000000000000000000000080
:09027e0000000000000000000077
:20028700000000000000000000000000000000000000000000000000000000000000000057
:0a02a700000000000000000000004d
:2002b100000000000004000000000000100000000000004000000000100000000000004089
:0902d10000000000000100000023
:2002da00000000000000000000000000000000000000000000000000000000000000000004
:0a02fa0000000000000000000000fa
:200304000000000000000000000000000000000000000000000000000000000000000000d9
:09032400000000000000000000d0
:20032d00000020000000000000000000000000000040000000000000000000000000000050
:0a034d0000000000000000000000a6
:20035700000000000000000000000000000000000000000000000000000000000000000086
:090377000000000000000000007d
:2003800000000000000000000000000000000000000000000000000000000000000000005d
:0a03a0000000000000000000000053
:2003aa00300000000000000000000000000000000000000000000000000000000000000003
:0903ca000000000000000000002a
:2003d3000300200000000000000000000000000000000000000000000000000000000000e7
:0a03f3000000000000000000000000
:2003fd000203000000000000000000000000000000000000000000000000000000000000db
:09041d00000000000000000000d6
:200426000000000000000000000000000000000000000000000000000000000000000000b6
:0a04460000000000000000000000ac
:2004500000000000000000000000000000000000000000000000000000000000000000008c
:0904700000000000000000000083
:20047900000020000000000000000000000000000000000000000000000000000000000043
:0a0499000000000000000000000059
:2004a300000000000000000000000000000000000000000000000000000000000000000039
:0904c30000000000000000000030
:2004cc00000000000000000000000000000000000000000000000000000000000000000010
:0a04ec000000000000000000000006
:2004f6000000000000000000000000000000000000000000000000000000000000000000e6
:09051600000000000000000000dc
:20051f000000000000000000000000000000000000000000000000000000000000000000bc
:0a053f0000000000000000000000b2
:2005490000040000000000000000000000000000000000000000000000000000000000008e
:0905690000000000000000000089
:200572000002800000000000000000000000000000000000000000000000000000000000e7
:0a059200000000000000000000005f
:20059c0000020000000000000000000000000000000000000000000000000000000000003d
:0905bc0000000000000000000036
:2005c5000000200000000000000000000000000000000000000000000000000000000000f6
:0a05e500000000000000000000000c
:2005ef000002000000000000000000000000000000000000000000000000000000000000ea
:09060f00000000000000000000e2
:200618000000000000000000000000000000000000000000000000000000000000000000c2
:0a06380000000000000000000000b8
:20064200000000000000000000000000000000000000000000000000000000000000000098
:090662000000000000000000008f
:20066b0000002000000000000000000000000000000000000000000000000000000000004f
:0a068b000000000000000000000065
:20069500000300000000000000000000000000000000000000000000000000000000000042
:0906b5000000000000000000003c
:2006be0000000000000000000000000000000000000000000000000000000000000000001c
:0a06de000000000000000000000012
:2006e8000000000000000000000000000000000000000000000000000000000000000000f2
:09070800000000000000000000e8
:200711000000200000000000000000000000000000000000000000000000000000000000a8
:0a07310000000000000000000000be
:20073b0000000000000000000000000000000000000000000000000000000000000000009e
:09075b0000000000000000000095
:20076400000000000000000000000000000000000000000000000000000000000000000075
:0a078400000000000000000000006b
:20078e0000000000000000000000000000000000000000000000000000000000000000004b
:0907ae0000000000000000000042
:2007b700000000000000000000000000000000000000000000000000000000000000000022
:0a07d7000000000000000000000018
:2007e1000000000000000000000000000000000000000000000000000000000000000000f8
:09080100000000000000000000ee
:20080a000000000000000000000000000000000000000000000000000000000000000000ce
:0a082a0000000000000000000000c4
:200834000000000000000000000000000000000000000000000000001e10080000258000c9
:090854000000000000000000009b
:20085d0000002000000000000000000000000000004000000000000000290000000000e012
:0a087d000000000000000000000071
:20088700000200000000000000000000000000000000000000000000148f08028000000022
:0908a70000000000000000000048
:2008b00000000000000000000000000000000000000000000000000024000f006000000095
:0a08d000000000000000000000001e
:2008da000000000000000000000000000000000000000000000001e3d48f08090000001096
:0908fa0029582000000000000054
:2009030000000000000000000000000000000000000000000000000078200f00100000001d
:0a0923000294000000000000000034
:20092d000003000000000000000000000000000000000000000a00001e8f0800000d80005b
:09094d00000000000000000000a1
:2009560000000000000000000000000000000000000000000000400000200f0000005000c2
:0a0976000000000000000000000077
:200980000000000000000000000000000000000000000000000000001e8f0810000000068c
:0909a000bc18400000000000003a
:2009a90000002000000000000000000000000000000000000000000000000f0000000000ff
:0a09c90003c0000000000000000061
:2009d300000000000000000000000000000000000000000000000000148f08100000000049
:0909f300000000000000000000fb
:2009fc0000000000000000000000000000000000000000000000002400200f000000000088
:0a0a1c0000000000000000000000d0
:200a26000000000000000000000000000000000000000000000040005c8f0810002000004d
:090a4600000000000000000000a7
:200a4f0000000000000000000000000000000000000000000000000034200f000000000024
:0a0a6f00000000000000000000007d
:200a79000000000000000000000000000000000000000000000a0202ce8f080000200006c4
:090a9900bc1000a00000000000e8
:200aa2000000000000000000000000000000000000000000000040143c000f004001000054
:0a0ac20003c08004000000000000e3
:200acc000000000000000000000000000000000000000000000001405c855000000018126e
:090aec00f9c0000000026f9c003b
:200af5000000200000000000000000000000000000000000000000023c005505000100f335
:0a0b1500efec000000000ff3c00039
:200b1f00000000000000000000000000000000000000000000a002000e85060680000ab734
:090b3f0031408000006df8ca028b
:200b480000000000000000000000000000000000000000000008002400f0550160000009b2
:0a0b6800433c01000002830ca004ce
:200b720000000000000000000000000000000000000000000000000040000001000000bf63
:090b92008c8080000000000000ce
:200b9b0000000000000000000000000000000000000000000000000024000000100000b74f
:0a0bbb0043200100000000000000cc
:200bc50000030000000000000000000000000000000000000000000007eda20000000a036a
:090be50081500000000000000036
:200bee0001000000000000000000000000000000000000000002000003581a004800000b1c
:0a0c0e0000280000000000000000b4
:200c1800000000000000000000000000000000000000000000000040000000000000180064
:090c38000000000000026f9900a9
:200c4100000020000000000000000000000000000000000000000002000000000008f10078
:0a0c61000000000000000ffc60001e
:200c6b00000000000000000000000000000000000000000000000000400000000005010023
:090c8b00000000002062f8cf23f4
:200c9400000000000000000000000000000000000000000000000000300000000000008090
:0a0cb4000000000002442d0c0004b3
:200cbe0000000000000000000000000000000000000000000000020000000000000381038d
:090cde00941040000038000000f1
:200ce70000000000000000000000000000000000000000000000000c000000000000089742
:0a0d0700428000000002c00000005e
:200d1100000000000000000000000000000000000000000000000006800000000005000334
:090d31008150500000600e0f001b
:200d3a0000000000000000000000000000000000000000000000000000000000000008abe6
:0a0d5a000028000000040100f00072
:200d64000001000000000000000000000000000000000000000000000000000000000b0063
:090d8400000000001e0060008068
:200d8d00000020000000000000000000000000000040000000000000000000000000008066
:0a0dad0000000000002000000020fc
:200db700000200000000000000000000000000000000000000a0000020c5040280000e1ae7
:090dd700280010000601e89680d6
:200de00000000000000000000000000000000000000000000008001c0140a001200000a02d
:0a0e0000c28000000b42c2896000ae
:200e0a000000000000000000000000000000000000000000004000038cc5510700801c0040
:090e2a00295000001e01689680a9
:200e33000000000000000000000000000000000000000000000c0014001055013000010ddb
:0a0e530001680000002002a9600001
:200e5d00020300000000000000000000000000000000000000000000000000000000011a55
:090e7d0048000001206c08f0009f
:200e8600000000000000000000000000000000000000000000020034000000000800008985
:0a0ea600ec0000200142000f0000e4
:200eb00000000000000000000000000000000000000000000000006716a50600000000fffb
:090ed000ab40800000001e3c0252
:200ed90000002000000000000000000000000000000000000000002c000050000000000756
:0a0ef9004284000000000003c00066
:200f030000000000000000000000000000000000000000000000000021850604000000001e
:090f230000000000006b78a00042
:200f2c004000000000000000000000000000000000000000000000000140a008000000007c
:0a0f4c000000000000002f0f50000d
:200f560000000000000000000000000000000000000000000000000000000000000008066d
:090f76003c1000000003faf50034
:200f7f00000000000000000000000000000000000000000000000000000000000000010051
:0a0f9f0043c0000000000605001426
:200fa900000000000000000000000000000000000000000000000000000000000005001a09
:090fc900670000002060003c02fa
:200fd20000000000000000000000000000000000000000000000000000000000000050a906
:0a0ff200fcf0000000428003c00084
:200ffc0000000000000000000000000000000000000000000000e94000000000000001dad1
:09101c00e700004e000000000096
:2010250000002000000000000000000000000000000000000000417c00000000002000f9b5
:0a10450078f0000a0000000000002f
:20104f0000000000000000000000000000000000000000000000000005a800000000187e3e
:09106f0028c89a00347800000042
:2010780000000000000000000000000000000000000000000000015c004a00000000f0e0e1
:0a109800028c0080004400000000fc
:2010a200000000000000000000000000000000000000000000000a0040000000002000b311
:0910c200b0808c0000737df70082
:2010cb0000000000000000000000000000000000000000000000013c34000000000500afe0
:0a10eb00c070004000041faff000c9
:2010f50000030000000000000000000000000000000000000000014067e0800000019dbb77
:091115003d4000000607d8050268
:20111e00000000000000000000000000000000000000000000000000375b00000000799313
:0a113e00c28000000002060120003c
:201148000000000000000000000000000000000000000000000000001fe0112000201b3ede
:09116800c000000020040e5060dc
:2011710000002000000000000000000000000000000000000000600001e0002080040089d0
:0a119100f0d0000001c38d0a020037
:20119b000000000000000000000000000000000000000000000e00000000000000011bf614
:0911bb00994080000068ce50400c
:2011c40000000000000000000000000000000000000000000000a000000000000000f089f2
:0a11e4000164000000000005000097
:2011ee0000000000000000000000000000000000000000000004a060000000000321003386
:09120e00cf4000001e6018f04002
:20121700000000000000000000000000000000000000000000002000000000000005008909
:0a123700ff8c000001c7c10f020088
:201241000000000000000000000000000000000000000000000002078000000000819a5a8f
:091261005a40000016735e9d0165
:20126a0000000000000000000000000000000000000000000000003c600000000280080f2f
:0a128a00f6100000000437e7c20070
:201294000000000000000000000000000000000000000000000001c04000000000280136da
:0912b4000cc000000e2bd8330021
:2012bd00000020000000000000000000000000000040000000000002340000000004f0c9be
:0a12dd002f304000002037acc000a5
:2012e70000000000000000000000000000000000000000000000020000000000000d001abe
:091307002940002000796e150058
:2013100000000000000000000000000000000000000000000000001c000000000000700f22
:0a13300043e80004000026dae000a4
:20133a000000000000000000000000000000000000000000000000000eb3300000000abeda
:09135a00a100800026620e480289
:2013630000000000000000000000000000000000000000000000000023fdcc00000010c7a7
:0a138300004800000040350841005a
:20138d00000300000000000000000000000000000000000000000000000000000008001322
:0913ad00f30000000072ec46029e
:2013b600000000000000000000000000000000000000000000000000000000000000100502
:0a13d60020cc010000002707600092
:2013e000000000000000000000000000000000000000000000000000000000000001007f6d
:091400000c00800000745c700215
:2014090000002000000000000000000000000000000000000000000000000000000000079c
:0a142900c3f000000006ac0d000047
:20143300000000000000000000000000000000000000000000000206c0000000000198d365
:091453008cc000001e75ee0f00b4
:20145c00000000000000000000000000000000000000000000000014280000000000000133
:0a147c00af3000000026970f0000bb
:20148600000000000000000000000000000000000000000000000006e4b460001025817e14
:0914a60033000000063bd8f00001
:2014af0000000000000000000000000000000000000000000000000021d8b900028400a73e
:0a14cf00accc000000263700f0004e
:2014d9000000000000000000000000000000000000000000000001600e898020000701d281
:0914f90033c000800073ca9600a4
:2015020000000000000000000000000000000000000000000000000003d09108000008a1b4
:0a152200f00c800000042fa0f00080
:20152c00000000000000000000000000000000000000000000000142859801000008183be3
:09154c0015400000202a4dcc00de
:201555000000200000000000000000000000000000000000000000426e680000000091a904
:0a157500c03c000001400fe330000d
:20157f00000000000000000000000000000000000000000000a001401da0a10280000b126e
:09159f00db0000000001fc0f005c
:2015a80000000000000000000000000000000000000000000008003600100a00200000d9d2
:0a15c8007a4c000000002c0f000018
:2015d20000000000000000000000000000000000000000000004006285c0000010a00a1e76
:0915f200b88080002067488402e3
:2015fb00000000000000000000000000000000000000000000002000435d0200000000000e
:0a161b00c38800000042bf00000079
:20162500000300000000000000000000000000000000000000000062a5a0202000059bbe5d
:09164500e0400000142b7a4d0274
:20164e000000000000000000000000000000000000000000000000346c60000000000083f9
:0a166e007f088000014016071000fd
:2016780000000000000000000000000000000000000000000000e00017a0022000000cff8e
:09169800200000a00026ebe20096
:2016a100000000000000000000000000000000000000000000000000396002018000000ffe
:0a16c100b800000400025fba100038
:2016cb0000000000000000000000000000000000000000000000000681a0c4240005185f74
:0916eb00304080002038ce6c0272
:2016f40000000800000000000000000000000000000000000000000000000c200000d900c9
:0a171400830480000244170930002e
:20171e0000000000000000000000000000000000000000000000004005ca00000027007afb
:09173e0035000000003800000035
:201747000800000000000000000000000000000000000000000000020010a0000000000dbb
:0a176700605c0000000400000000b8
:2017710000000000000000000000000000000000000000000000000005aa502000000a1e11
:09179100a59000002e3a4a331124
:20179a0000000000000000000000000000000000000000000000000002604000000091b04c
:0a17ba008258200000641dacc090ae
:0217c400000023
:0217c60011010f
:0217c80001011d
:2017ca000000000000000000000000000000000000000000000000000000000000000000ff
:0917ea00000000000000000000f6
:2017f3000000000000000000000000000000000000000000000000000000000000000000d6
:0a18130000000000000000000000cb
:20181d000000000000000000000000000000000000000000000000000000000000000000ab
:09183d00000000000000000000a2
:20184600000000000000000000000000000000000000000000000000000000000000000082
:0a1866000000000000000000000078
:20187000000000000000000000000000000000000000000000000000000000000000000058
:091890000000000000000000004f
:2018990000000000000000000000000000000000000000000000000000000000000000002f
:0a18b9000000000000000000000025
:2018c300000000000004000000000000100000000000004000000000100000000000004061
:0918e300000000000001000000fb
:2018ec000000000000000000000000000000000000000000000000000000000000000000dc
:0a190c0000000000000000000000d1
:2019160000000000000c00000000000030000000000000c00000000030000000000000c0c5
:09193600000000000003000000a5
:20193f00000000000000000000000000000000000000000000000000000000000000000088
:0a195f00000000000000000000007e
:2019690000000000000000000000000000000000000000000000000000000000000000005e
:0919890000000000000000000055
:20199200000000000000000000000000000000000000000000000000000000000000000035
:0a19b200000000000000000000002b
:2019bc0000000000000000000000000000000000000000000000000000000000000000000b
:0919dc0000000000000000000002
:2019e5000000000000000000000000000000000000000000000000000000000000000000e2
:0a1a050000000000000000000000d7
:201a0f00000000000004000000000000100000000000004000000000100000000000004013
:091a2f00000000000001000000ad
:201a380000000000000000000000000000000000000000000000000000000000000000008e
:0a1a58000000000000000000000084
:201a6200000000000000000000000000000000000000000000000000000000000000000064
:091a82000000000000000000005b
:201a8b0000000000000000000000000000000000000000000000000000000000000000003b
:0a1aab000000000000000000000031
:201ab500000000000000000000000000000000000000000000000000000000000000000011
:091ad50000000000000000000008
:201ade000000000000000000000000000000000000000000000000000000000000000000e8
:0a1afe0000000000000000000000de
:201b08000000000000000000000000000000000000000000000000000000000000000000bd
:091b2800000000000000000000b4
:201b3100000000000000000000000000000000000000000000000000000000000000000094
:0a1b5100000000000000000000008a
:201b5b00000200000000000000000000000000000000000000000000000000000000000068
:091b7b0000000000000000000061
:201b8400000000000000000000000000000000000000000000000000000000000000000041
:0a1ba4000000000000000000000037
:201bae00000000000000000000000000000000000000000000000000000000000000000017
:091bce000000000000000000000e
:201bd7000000300000000000000000000000000000000000000000000000000000000000be
:0a1bf70000000000000000000000e4
:201c01000000000000000000000000000000000000000000000000000000000000000000c3
:091c2100000000000000000000ba
:201c2a0000000000000000000000000000000000000000000000000000000000000000009a
:0a1c4a000000000000000000000090
:201c5400000000000000000000000000000000000000000000000000000000000000000070
:091c740000000000000000000067
:201c7d00000000000000000000000000000000000000000000000000000000000000000047
:0a1c9d00000000000000000000003d
:201ca70000020000000000000000000000000000000000000000000000000000000000001b
:091cc70000000000000000000014
:201cd0000000000000000000000000000000000000000000000000000000000000000000f4
:0a1cf00000000000000000000000ea
:201cfa000000000000000000000000000000000000000000000000000000000000000000ca
:091d1a00000000000000000000c0
:201d23000000000000000000000000000000000000000000000000000000000000000000a0
:0a1d43000000000000000000000096
:201d4d00000000000000000000000000000000000000000000000000000000000000000076
:091d6d000000000000000000006d
:201d760000000000000000000000000000000000000000000000000000000000000000004d
:0a1d96000000000000000000000043
:201da000000000000000000000000000000000000000000000000000000000000000000023
:091dc0000000000000000000001a
:201dc9000000000000000000000000000000000000000000000000000000000000000000fa
:0a1de90000000000000000000000f0
:201df3000002000000000000000000000000000000000000000000000000000000000000ce
:091e1300000000000000000000c6
:201e1c000000000000000000000000000000000000000000000000000000000000000000a6
:0a1e3c00000000000000000000009c
:201e460000000000000000000000000000000000000000000000000000000000000000007c
:091e660000000000000000000073
:201e6f00000030000000000000000000000000000000000000000000000000000000000023
:0a1e8f000000000000000000000049
:201e9900000000000000000000000000000000000000000000000000000000000000000029
:091eb90000000000000000000020
:201ec200000000000000000000000000000000000000000000000000000000000000000000
:0a1ee20000000000000000000000f6
:201eec000000000000000000000000000000000000000000000000000000000000000000d6
:091f0c00000000000000000000cc
:201f15000000000000000000000000000000000000000000000000000000000000000000ac
:0a1f350000000000000000000000a2
:201f3f0000020000000000000000000000000000040000000000000000000000000000007c
:091f5f0000000000000000000079
:201f6800000000000000000000000000000000000000000000000000000000000000000059
:0a1f8800000000000000000000004f
:201f920000000000000000000000000000000000000000000000000000000000000000002f
:091fb20000000000000000000026
:201fbb00000000000000000000000000000000000000000000000000000000000000000006
:0a1fdb0000000000000000000000fc
:201fe5000000000000000000000000000000000000000000000000000000000000000000dc
:09200500000000000000000000d2
:20200e000000000000000000000000000000000000000000000000000000000000000000b2
:0a202e0000000000000000000000a8
:20203800000000000000000000000000000000000000000000000000000000000000000088
:092058000000000000000000007f
:2020610000000000000000000000000000000000000000000000000000000000000000005f
:0a2081000000000000000000000055
:20208b00000200000000000000000000000000000000000000000000000000000000000033
:0920ab000000000000000000002c
:2020b40000000000000000000000000000000000000000000000000000000000000000000c
:0a20d4000000000000000000000002
:2020de000000000000000000000000000000000000000000000000000000000000000000e2
:0920fe00000000000000000000d9
:20210700000030000000000000000000000000000000000000000000000000000000000088
:0a21270000000000000000000000ae
:2021310000000000000000000000000000000000000000000000000000000000000000008e
:0921510000000000000000000085
:20215a00000000000000000000000000000000000000000000000000000000000000000065
:0a217a00000000000000000000005b
:2021840000000000000000000000000000000000000000000000000000000000000000003b
:0921a40000000000000000000032
:2021ad00000000000000000000000000000000000000000000000000000000000000000012
:0a21cd000000000000000000000008
:2021d7000002000000000000000000000000000000000000000000000000000000000000e6
:0921f700000000000000000000df
:202200000000000000000000000000000000000000000000000000000000000000000000be
:0a22200000000000000000000000b4
:20222a0000000000000000000000000000000000000000000000000000000000000108008b
:09224a00000000000400100f0068
:20225300000000000000000000000000000000000000000000000000000000000000b000bb
:0a22730000000000020000a0f000cf
:20227d00000000000000000000000000000000000000000000000000000000000000000041
:09229d0003c00000000000000075
:2022a600000000000000000000000000000000000000000000000000000000000000000018
:0a22c600603c000000000000000072
:2022d0000000000000000000000000000000000000000000000000000000000000000b00e3
:0922f0000f0000000000000000d6
:2022f9000000000000000000000000000000000000000000000000000000000000000010b5
:0a23190000f0080001c600000000fb
:2023230000020000000000000000000000000000000000000000000000000000000000d3c5
:092343008cc000000000205500d0
:20234c008000000000000000000000000000000000000000000000000000000000000001f0
:0a236c00a7300000000004855000b7
:20237600000000000000000000000000000000000000000000000000000000000000007acd
:09239600ccc000001401cb33009f
:20239f000000300000000000000000000000000000000000000000000000000000000009e5
:0a23bf00a33200000360368cc8044e
:2023c9000000000000000000000000000000000000000000000000000000000000000a02e8
:0923e900a580000000680a9600be
:2023f20000000000000000000000000000000000000000000000000000000000003050a1aa
:0a241200a25a000001675689680411
:20241c00000000000000000000000000000000000000000000000000000000000005080390
:09243c00e580000000000d96008f
:20244500000000000000000000000000000000000000000000000000000000000000501116
:0a246500a65a000000001699680452
:20246f00000200000000000000000000000000000400000000000000000000000000000344
:09248f0040008000000000000282
:20249800000000000000000000000000000000000000000000000000000000000000000024
:0a24b8000402000000068e00080078
:2024c2000000000000000000000000000000000000000000000000000000000000000000fa
:0924e2003fc200000400005a0092
:2024eb00000000000000000000000000000000000000000000000000000000000000018050
:0a250b0003fc400002000405a000dc
:20251500000000000000000000000000000000000000000000000000000000000050000056
:09253500000000000000100f007e
:20253e0000000000000000000000000000000000000000000000000000000000000200007b
:0a255e0000000000000001a0f000e2
:20256800000000000000000000000000000000000000000000000000000000000000000053
:092588000f0000000000003c00ff
:2025910000000000000000000000000000000000000000000000000000000000000000002a
:0a25b10000f0080004000003c02041
:2025bb000002000000000000001000000000000000000000000000000000000000000000ee
:0925db003c000000000020550046
:2025e4000000000000000000000100000000000000000000000000000000000000000000d6
:0a26040023c0000000000485500010
:20260e00000000000000000000000000000000000000000000200000000000000000000884
:09262e003c0000001431e8330007
:2026370000003000000000000000000000000000000000000000000020000000000000a192
:0a26570023c200000006649cc800c6
:2026610000000000000000000000000000000000000000000000000000000000080b000343
:09268100e580000000000a96004b
:20268a000000000000000000000000000000000000000000000000000000000001008001ae
:0a26aa00a65a0000014016896800de
:2026b4000000000000000000000000000000000000000000000000000100f080000000088d
:0926d40003c0000000002896007c
:2026dd00000000000000000000000000000000000000000000000000001a0f00000050055f
:0a26fd00a3c2000001401699680016
:202707000002000000000000000000000000000000000000000000000000000000000d00a3
:09272700000080002c2860000372
:20273000000000000000000000000000000000000000000000000000000000000000001574
:0a2750000002000002029605a80036
:20275a0000000000000000000000000000000000000000000000000000000000000000005f
:09277a0003c000000440000f0040
:20278300000000000000000000000000000000000000000000000000000000000000000036
:0a27a300283c0000020600c0f01000
:2027ad00000000000000000000000000000000000000000000000002000000000000000208
:0927cd008f000001000000000073
:2027d6000000000000000000000000000000000000000000000000000000000000000000e3
:0a27f60000f00000080000000000e1
:202800000000000000000000000000000000000000000000000000020000000000000000b6
:0928200003c000000000003c00b0
:2028290000000000000000000000000000000000000000000000000000000000000000008f
:0a284900283c000000000003c0203e
:202853000002000000000000000000000000000000000000000003c0000000002850000028
:092873003c000000240020550087
:20287c0000000000000000000000000000000000000000000000002e00000000010200000b
:0a289c0023c0000002000485500074
:2028a6000000000000000000000000000000000000000000000002400000000000100000c0
:0928c6003c0000001401e833009d
:2028cf000000300000000000000000000000000000000000000000000000000000000005b4
:0a28ef0023c2000001c0249cc800b1
:2028f900000000000000000000000000000000000000000000000000000000000005000ab0
:092919006580000100000a96002f
:20292200000000000000000000000000000000000000000000000000000000000000500144
:0a294200a65a00000940168968003b
:20294c000000000000000000000000000000000000000000000000003c0010000000180205
:09296c001a40000000002896004a
:20297500000000000000000000000000000000000000000000000000000c0222000050b012
:0a299500265a000001401e99680058
:20299f000002000000000000000000000000000004000000000000002c0af00000000000ec
:0929bf000000800000280a00025b
:2029c80000000000000000000000000000000000000000000000000002da5a0000000005b4
:0a29e8000002000000028010080049
:2029f2000000000000000000000000000000000000000000000000000000000000001d04a4
:092a120003c000002401fc0000d7
:202a1b0000000000000000000000000000000000000000000000000000000000000001900a
:0a2a3b00683c00000200258800003e
:202a4500000000000000000000000000000000000000000000000040000000002840007a4f
:092a650040000000024360ff0084
:202a6e0000000000000000000000000000000000000000000000002000000000010218010c
:0a2a8e00ac2000000142aeaf501072
:202a98000000000000000000000000000000000000000000000000028100a00000000000fb
:092ab80003c000003440003c00a2
:202ac10000000000000000000000000000000000000000000000000005480a00000000009e
:0a2ae100383c000000060003c0208e
:202aeb000002000000000000000000000000000000000000000200000000000000000000c7
:092b0b0000000020022fea330053
:202b1400000000000000000000000000000000000000000000004000000000000030000031
:0a2b3400000000040060148cc000d3
:202b3e000000000000000000000000000000000000000000000002400103f010000d000420
:092b5e000f0000000401693300be
:202b6700000030000000000000000000000000000000000000000026001c3f02000000a0fb
:0a2b870020f0080002062c8cc800a4
:202b910000000000000000000000000000000000000000000000002434a0d000000100005b
:092bb10003c0000014282e960058
:202bba00000000000000000000000000000000000000000000000006617955000000800046
:0a2bda00683c0000036054896800a5
:202be4000000000000000000000000000000000000000000008000200400a08400000a00ff
:092c04002a804000007c099600c2
:202c0d000000000000000000000000000000000000000000000a000600485040000000a11e
:0a2c2d0022a882000002ce99680080
:202c37000002000000000000000000000000000000000000000a00c24000f04000050b0b24
:092c5700e5814001403c200a0225
:202c600080000000000000000000000000000000000000000000402605c8f0c040388007f2
:0a2c8000a65a000028068ea0a80046
:202c8a000000000000000000000000000000000000000000000000400200f0000000800870
:092caa0003c40000a4264b000045
:202cb30000000000000000000000000000000000000000000000002061e8f0c000001801cf
:0a2cd300a3c2020000002cf08000f4
:202cdd000000000000000000000000000000000000000000000000000200f00000000002e3
:092cfd00a58810003e03c0f000a0
:202d06004000000000000000000000000000000000000000000000060168f0c10005000543
:0a2d2600265a01040147978a0000b5
:202d3000002c000000000000000000000000000000000000000000000000f0000000000265
:092d50009a40500000024bff0004
:202d59004000000000000000000000000000000000000000000000000168f0c00000000001
:0a2d7900265a840000002cff7000b1
:202d83000002000000000000000000000000000000000000000004000000f0000010000228
:092da300da404000340020550024
:202dac0000000000000000000000000000000000000000000000000001e8f0c0000000006e
:0a2dcc00225a840000001e8550000a
:202dd600000000000000000000000000000000000000000000000146160050000305000226
:092df600e5824000142a6ea500dc
:202dff00000030000000000000000000000000000000000000000006674850c00000d801e6
:0a2e1f00225a800002005415a8009a
:202e29001000000000000000000000000000000000000000000000020200f00000070a0272
:092e49009a4800200000299600bf
:202e52000300000000000000000000000000000000000000000000006548f0c00000d9b077
:0a2e7200225a0104000604896800da
:202e7c0000000000000000000000000000000000000000000080e0000000f00000000a02da
:092e9c005a42000000002e9600cd
:202ea5000000000000000000000000000000000000000000000a001401c8f0c0000000b0c6
:0a2ec500265ac000016694896800d7
:202ecf0000020000000000000000000000000000040000000008000000b00000000700031b
:092eef0080008000006000000278
:202ef800000000000000000000000000000000000000000000000000006100800000800059
:0a2f18000402000000021600080089
:022f22000000ad
:022f2400110298
:022f26000101a7
:202f2800000000000000000000000000000000000000000000000000000000400000000049
:092f48000001000000000000007f
:202f5100000000000000000000000000000000000000000000000000000000000000000060
:0a2f71000000000000000000000056
:202f7b000000000000000000000000000000000000000000000000000000008000000000b6
:092f9b000002000000000000002b
:202fa40000000000000000000000000000000000000000000000000000000000000000000d
:0a2fc4000000000000000000000003
:202fce00000000000000000000000000000000000000000000000020000000400000400043
:092fee00100100000000000000c9
:202ff7000000000000000000000000000000000000000000000000020000000000000c00ac
:0a3017000a000000000000000000a5
:203021000000000000080000000000002000000000080000000000002000000000000080bf
:0930410000000000000200000084
:20304a00000000000000000000000000000000000000000000000000000000000000000066
:0a306a00000000000000000000005c
:2030740000000000000c00000000000030000000040c00000000000030000000000000c000
:0930940000000000000300000030
:20309d00000000000000000000000000000000000000000000000000000000000000000013
:0a30bd000000000000000000000009
:2030c700000000000000000000000000000000000000000000000030004000000000000079
:0930e700000000000000000000e0
:2030f000000000000000000000000000000000000000000000000000000780040000000035
:0a31100000000000000000000000b5
:20311a00000000000000000000000000000000000000000000000000000400000000000091
:09313a000000000000000000008c
:203143000000000000000000000000000000000000000000000000000003c00800000000a1
:0a3163000000000000000000000062
:20316d00000000000008000000000000200000000008000000000000200000000000008072
:09318d0000000000000200000037
:20319600000000000000000000000000000000000000000000000000000000040000000015
:0a31b600000000000000000000000f
:2031c0000000000000000000000000000000000000000000000000000000000000000000ef
:0931e000000000000000000000e6
:2031e90000002000000000000000000000000000000000000800000000000000000000009e
:0a32090000000000000000000000bb
:2032130000000000000000000000000000000000000000000000000000000000000000009b
:0932330000000000000000000092
:20323c00000000000000000000000000000000000000000000000000000000000000000072
:0a325c000000000000000000000068
:20326600000000000000000000000000000000000000000000000000000000000000000048
:093286000000000000000000003f
:20328f0000000000000000000000000000000000000000000000000000000000000000001f
:0a32af000000000000000000000015
:2032b9000003000000000000000000000000000000000000000000000000000000000000f2
:0932d900000000000000000000ec
:2032e2000000000000000000000000000000000000000000000000000000000000000000cc
:0a33020000000000000000000000c1
:20330c000000000000000000000000000000000000000000000000000000000000000000a1
:09332c0000000000000000000098
:20333500000020000000000000000000000000000000000000000000000000000000000058
:0a335500000000000000000000006e
:20335f0000000000000000000000000000000000000000000000000000000000000000004e
:09337f0000000000000000000045
:20338800000000000000000000000000000000000000000000000000000000000000000025
:0a33a800000000000000000000001b
:2033b2000000000000000000000000000000000000000000000000000000000000000000fb
:0933d200000000000000000000f2
:2033db000000000000000000000000000000000000000000000000000000000000000000d2
:0a33fb0000000000000000000000c8
:203405000000000000000000000000000000000000000000000000000000000000000000a7
:093425000000000000000000009e
:20342e0000000000000000000000000000000000000000000000000000000000000000007e
:0a344e000000000000000000000074
:20345800000000000000000000000000000000000000000000000000000000000000000054
:093478000000000000000000004b
:2034810000002000000000000000000000000000000000000000000000000000000000000b
:0a34a1000000000000000000000021
:2034ab00000000000000000000000000000000000000000000000000000000000000000001
:0934cb00000000000000000000f8
:2034d4000000000000000000000000000000000000000000000000000000000000000000d8
:0a34f40000000000000000000000ce
:2034fe000000000000000000000000000000000000000000000000000000000000000000ae
:09351e00000000000000000000a4
:20352700000000000000000000000000000000000000000000000000000000000000000084
:0a354700000000000000000000007a
:20355100000300000000000000000000000000000000000000000000000000000000000057
:0935710000000000000000000051
:20357a00000000000000000000000000000000000000000000000000000000000000000031
:0a359a000000000000000000000027
:2035a400000000000000000000000000000000000000000000000000000000000000000007
:0935c400000000000000000000fe
:2035cd000000200000000000000000000000000000000000000000000000000000000000be
:0a35ed0000000000000000000000d4
:2035f7000000000000000000000000000000000000000000000000000000000000000000b4
:09361700000000000000000000aa
:2036200000000000000000000000000000000000000000000000000000000000000000008a
:0a3640000000000000000000000080
:20364a00000000000000000000000000000000000000000000000000000000000000000060
:09366a0000000000000000000057
:20367300000000000000000000000000000000000000000000000000000000000000000037
:0a369300000000000000000000002d
:20369d0000000000000000000000000000000000000000000000000000000000000000000d
:0936bd0000000000000000000004
:2036c6000000000000000000000000000000000000000000000000000000000000000000e4
:0a36e60000000000000000000000da
:2036f0000000000000000000000000000000000000000000000000000000000000000000ba
:0937100000000004000e00a000fe
:20371900000020000000000000000000000000000000000008000000000000000000000068
:0a3739000000001000010010000065
:20374300000000000000000000000000000000000000000000000000000000000000000066
:0937630000000005a65a00000058
:20376c0000000000000000000000000000000000000000000000000000000000000000003d
:0a378c00000000001a7c000b000092
:203796000000000000000000000000000000000000000000000000000000000000f03800eb
:0937b60000000005a648500000c7
:2037bf0000000000000000000000000000000000000000000000000000000000000f00805b
:0a37df00000000001a540d800000e5
:2037e9000003000000000000000000000000000000000000000000000000000000000000bd
:0938090068040005a45a00a200a5
:20381200000000000000000000000000000000000000000000000000000000000000000096
:0a383200000000001a740d100000e1
:20383c0000000000000000000000000000000000000000000000000000000000000000006c
:09385c0000000004cc5b00000038
:20386500000020000000000000000000000000000000000000000000000000000000000023
:0a388500000000003335e0000000f1
:20388f000000000000000000000000000000000000000000000000000000400000f0581e73
:0938af0000800002a85878b00066
:2038b80000000000000000000000000000000000000000000000000000000200000f0000df
:0a38d800000000002a80009f00009d
:2038e2000000000000000000000000000000000000000000000000000000000000000000c6
:0939020000000003c0e0780000a1
:20390b0000000000000000000000000000000000000000000000000000000000000000009c
:0a392b00000000003c000f00000047
:20393500000000000000000000000000000000000000000000000000000000000000000072
:0939550000000002a9dd818000e0
:20395e00000000000000000000000000000000000000000000000000000000000000000049
:0a397e000000208103c2d100000008
:203988000000000000000000000000000000000000000000400000000000000001000700d7
:0939a80000000004001c00a00056
:2039b100000020000000000000000000000000000000000002000000000000000400004090
:0a39d10000000010000100100000cb
:2039db000000000000000000000000000000000000000000000000000000000001691780cb
:0939fb0028000005a65a58001826
:203a04000000000000000000000000000000000000000000000000000000000000069d00ff
:0a3a2400001000001a6400000140c9
:203a2e0000000000000000000000000000000000000000000000000000000000016993007b
:093a4e0000000005a6485000002c
:203a57000000000000000000000000000000000000000000000000000000000000069701b1
:0a3a7700400000001a540d8000000a
:203a8100000300000000000000000000000000000000000000000000000000000169178021
:093aa10060000005a45a00a00019
:203aaa000000000000000000000000000000000000000000000000000000000000069f0057
:0a3aca00000000001a740d1b00003c
:203ad4000000000000000000000000000000000000000000000000000000800001331640c8
:093af40060000004cc5b0000003e
:203afd0000002000000000000000000000000000000000000000000000000080000ccf2806
:0a3b1d00040000003335e000000052
:203b27000000000000000000000000000000000000000000000000000000000000aa1706b7
:093b470004000000ce5b78a00030
:203b500000000000000000000000000000000000000000000000000000000000000aa000ab
:0a3b700022400000331ca0100000ea
:203b7a00000000000000000000000000000000000000000000000000000000000000002605
:093b9a0000000100f00000000031
:203ba300000000000000000000000000000000000000000000000000000000000000000200
:0a3bc300600000000f000000000089
:203bcd000000000000000000000000000000000000000000000000000000000000000000d8
:093bed0060000001680101800084
:203bf6000000000000000000000000000000000000000000000000000000000000000000af
:0a3c1600040000002940c00b40002c
:203c20000000000000000000000000000000000000000000000000000000000001000680fd
:093c400028000004000e81a00020
:203c490000002000000000000000000000000000000000000800000000000000040000002f
:0a3c6900000000100001050000003b
:203c7300000000000000000000000000000000000000000000000000000000000169969c95
:093c930000000005a65c500000d1
:203c9c000000000000000000000000000000000000000000000000000000000000069d0065
:0a3cbc00028000001a6400000000fe
:203cc6000000000000000000000000000000000000000000000000000000000001699214ce
:093ce60000000005a6485800008a
:203cef00000000000000000000000000000000000000000000000000000000000006950119
:0a3d0f00400000001a4c0000000004
:203d190000030000000000000000000000000000000000000000000000000000016916a067
:093d390028000005a64850b00066
:203d42000000000000000000000000000000000000000000000000000000000100069d00bd
:0a3d6200434004001a5d009a0010af
:203d6c000000000000000000000000000000000000000000000000000000000001331740ac
:093d8c00000000043c5a00000094
:203d950000002000000000000000000000000000000000000000000000000000000ccd789d
:0a3db5000000000003c00000000041
:203dbf000000000000000000000000000000000000000000000000000000000000aa16061e
:093ddf0000000002a84a00a00047
:203de80000000000000000000000000000000000000000000000000000000000000aa00011
:0a3e0800000000002a81001f0000e6
:203e12000000000000000000000000000000000000000000000000000000000000f0180088
:093e320000000100f00000000096
:203e3b0000000000000000000000000000000000000000000000000000000000000f0080d8
:0a3e5b00000000000f00010000004d
:203e65000000000000000000000000000000000000000000000000000000000000f05800f5
:093e850060000002bd7b0000009a
:203e8e0000000000000000000000000000000000000000000000000000000000000f000005
:0a3eae00000000003fc2c00f00003a
:203eb8000000000000000000000000000000000000000000000040200000000000a51be0ea
:093ed8000000000003ed70000081
:203ee100000020000000000000000000000000000000000000010001c0000000010f00f4db
:0a3f0100400000000985d000000018
:203f0b00000000000000000000000000000000000000000000005a658800000000503b0eb6
:093f2b000000510101ec0010013d
:203f34004000000000000000000000000000000000000000000001a4d0500000000107332d
:0a3f5400c00001000001900e0004ff
:203f5e00000000000000000000000000000000000000000000005a45c000000206625340e7
:093f7e000000010301e000000055
:203f8700c000000000000000000000000000000000000000000001a5c0000000200c19644b
:0a3fa700030000a030020000000c2f
:203fb100000300000000000000000000000000000000000000005a64c0000000000000006f
:093fd10000800000000000010066
:203fda000000000000000000000000000000000000000000000001a4d0000500000000004d
:0a3ffa000000000000000000a0001d
:20400400000000000000000000000000000000000000000000007c0fe80000000000000425
:094024003c0000000000f810004f
:20402d000000200000000000000000000000000000000000000003c3c0900000000000003d
:0a404d000783500000000f0f000071
:20405700000000000000000000000000000000000000000000002a85c019010000000020a0
:094077007c0000083ce0199000f7
:204080000000000000000000000000000000000000000000000002a80001900000000001e4
:0a40a000c781000003c0010e0000fc
:2040aa000000000000000000000000000000000000000000000000000198a00000f0382075
:0940ca0000000012bcfc780000ab
:2040d30000000000000000000000000000000000000000000000000000090400000f0000b1
:0a40f300c3c000002bc200800000d3
:2040fd00000000000000000000000000000000000000000000000000000b00000000000098
:09411d00000000083cc081800490
:204126000000000000000000000000000000000000000000000000000001800000000000f8
:0a4146000000002003c009180080eb
:20415000000000000000000000000000000000000000000000000000050a00000450100ece
:094170002c00000003ff81a000f7
:2041790000002000000000000000000000000000000000000800000000500000000a00a8fc
:0a419900034000241006b9000000e6
:2041a3000000000000000000000000000000000000000000000029b6801a000040043b8084
:0941c300000000025b6a81d000db
:2041cc0000000000000000000000000000000000000000000000000058000000000000a8d3
:0a41ec00000000040dadf308000010
:2041f600000000000000000000000000000000000000000000100046f00000004007778025
:09421600740001030c0939800059
:20421f000000000000000000000000000000000000000000000002001a0000000000f03c37
:0a423f00074000020f00900000008d
:20424900000300000000000000000000000000000000000000100417c00a0000000000005d
:0942690003810023c1cb18e00021
:204272000000000000000000000000000000000000000000000000b0190000000000000063
:0a4292000000000003c2c00020007d
:20429c00000000000000000000000000000000000000000000000000000000000000000002
:0942bc0000000001406c108000bc
:2042c5000000200000000000000000000000000000000000000000000000000000000000b9
:0a42e500024000000824c008000099
:2042ef000000000000000000000000000000000000000000000000000800000000f0536004
:09430f0060000003c07e1980006b
:2043180000000000000000000000000000000000000000000000000000100000000f003333
:0a433800c000000003c3f080000085
:20434200000000000000000000000000000000000000000000003d468800000000007a04d2
:0943620022800100f00879e0005e
:20436b000000000000000000000000000000000000000000000003fc09900000000201385f
:0a438b002780000030c0a9000000e8
:20439500000000000000000000000000000000000000000000000000000000000000000008
:0943b5000400000141ce98100043
:2043be000000000000000000000000000000000000000000000000000000000000000000df
:0a43de0003c000000002d9890000ae
:2043e8000000000000000000000000000000000000000000000000000000000000000000b5
:09440800006000021dfc580000d8
:20441100000020000000000000000000000000000000000000000000000000000000000269
:0a443100c0000000143ce000000091
:20443b00000000000000000000000000000000000000000000000000000c001400cfda0098
:09445b00700050023acf30000459
:2044640000000000000000000000000000000008000000000000000000000000400cbb75b4
:0a44840044000100154ee0000000a6
:20448e000000000000000000000000000000000000000000000000000000000040cf700689
:0944ae006c00000155c900c400b6
:2044b70000000000000000000000000000000000000000000000000000000000000cf001e8
:0a44d700628000002941a0102000bf
:2044e100000300000000000000000000000000000000000000000000001c0001025a0040ff
:0945010060000101a4fa59a000b8
:20450a0000000000000000000000000000000000000000000000000000010000100a5034f2
:0a452a00000000000cc3c0000000f8
:2045340000000000000000000000000000000000000000000001bc0e0000a0000000001ede
:0945540078000000000079c008a5
:20455d000000200000000000000000000000000000000000000403c0000000000000000057
:0a457d002400000000000d100140b2
:20458700000000000000000000000000000000000000000000000000000e000000101f9e39
:0945a7000000001003ea00e0002e
:2045b00000000000000000000000000000000000000000000000000000010000000003ecfb
:0a45d000000700000826d9100000c3
:2045da00000000000000000000000000000000000000000000000007f000000040c01b00af
:0945fa000400000243c970a00096
:204603000000000000000000000000000000000000000000000003e81a0000000008006426
:0a462300024000001bd5d0990000f2
:20462d00000000000000000000000000000000000000000000000000000000004041529efc
:09464d000000000350fa7800009f
:2046560000000000000000000000000000000000000000000000000000f00000000030a87c
:0a467600200100001366e00b0000b5
:02468000000038
:02468200110322
:02468400010132
:204686000000000000000000100000000000004000000000000000000000000000000000c4
:0946a6000000000000000000000b
:2046af000000000000000000000000000000000000000000000000000000000000000000eb
:0a46cf0000000000000000000000e1
:2046d9000000000000000c0020000000000000800000000000000000000000000000000015
:0946f900000000000000000000b8
:20470200000000000000001000000000000000000000000000000000000000000000000087
:0a472200000000000000000000008d
:20472c00000000000c00000010000000000000400000000000000000000000000000000011
:09474c0000000000000000000064
:204755000000000000800000000000030000000000000000000000000000000000000000c1
:0a477500000000000000000000003a
:20477f0000000000000800000000000020000000000800000000000020000000000000804a
:09479f000000000000020000000f
:2047a8000000000000000000000000000000000000000000000000000000000000000000f1
:0a47c80000000000000000000000e7
:2047d20000000000000c00000000000030000000000c00000000000030000000000000c08f
:0947f200000000000003000000bb
:2047fb0000000000000000000000000000000000000000000000000000000000000000009e
:0a481b000000000000000000000093
:20482500000000000c00000000000000000000000000000000000000000000000000000067
:094845000000000000000000006a
:20484e00000000000000000001000000000000000000000000000000000000000000000049
:0a486e000000000000000000000040
:204878000000000000000000000000000078000000000000000000000000000000000000a8
:0948980000000000000000000017
:2048a10000000000000000e002000000000400000000000000000000000000000000000011
:0a48c10000000000000000000000ed
:2048cb000000000000080000000000002000000000080000000000002000000000000080fd
:0948eb00000000000002000000c2
:2048f4000000000000000000010000000000000000000000000000000000000000000000a3
:0a4914000000000000000000000099
:20491e00000000000000000000000000000000000000000000000000000000000000000079
:09493e0000000000000000000070
:20494700000000000000000000000000000000000000000000000000000000000000000050
:0a4967000000000000000000000046
:20497100000000000000000000000000000000000000000000000000000000000000000026
:094991000000000000000000001d
:20499a000000000000000000000000000000000000000000000000000000000000000000fd
:0a49ba0000000000000000000000f3
:2049c400000000000000000000000000000000800000000000000000000000000000000053
:0949e400000000000000000000ca
:2049ed0000000000000000000000000000000010000000000000000000000000000000009a
:0a4a0d00000000000000000000009f
:204a170000020000000000000000000000000000000000000000000000000000000000007d
:094a370000000000000000000076
:204a4000000000000000000000000000000000000000000000000000000000000000000056
:0a4a6000000000000000000000004c
:204a6a0000000000000000000000000000000000000000000000000000000000000000002c
:094a8a0000000000000000000023
:204a93000000300000000000000000000000000000000000000000000000000000000000d3
:0a4ab30000000000000000000000f9
:204abd000000000000000000000000000000000000000000000000000000000000000000d9
:094add00000000000000000000d0
:204ae6000000000000000000000000000000000000000000000000000000000000000000b0
:0a4b060000000000000000000000a5
:204b1000000000000000000000000000000000000000000000000000000000000000000085
:094b30000000000000000000007c
:204b390000000000000000000000000000000000000000000000000000000000000000005c
:0a4b59000000000000000000000052
:204b6300000200000000000000000000000000000000000000000000000000000000000030
:094b830000000000000000000029
:204b8c00000000000000000000000000000000000000000000000000000000000000000009
:0a4bac0000000000000000000000ff
:204bb6000000000000000000000000000000000000000000000000000000000000000000df
:094bd600000000000000000000d6
:204bdf000000000000000000000000000000000000000000000000000000000000000000b6
:0a4bff0000000000000000000000ac
:204c090000000000000000000000000000000000000000000000000000000000000000008b
:094c290000000000000000000082
:204c3200000000000000000000000000000000000000000000000000000000000000000062
:0a4c52000000000000000000000058
:204c5c00000000000000000000000000000000000000000000000000000000000000000038
:094c7c000000000000000000002f
:204c850000000000000000000000000000000000000000000000000000000000000000000f
:0a4ca5000000000000000000000005
:204caf000002000000000000000000000000000000000000000000000000000000000000e3
:094ccf00000000000000000000dc
:204cd8000000000000000000000000000000000000000000000000000000000000000000bc
:0a4cf80000000000000000000000b2
:204d0200000000000000000000000000000000000000000000000000000000000000000091
:094d220000000000000000000088
:204d2b00000030000000000000000000000000000000000000000000000000000000000038
:0a4d4b00000000000000000000005e
:204d550000000000000000000000000000000000000000000000000000000000000000003e
:094d750000000000000000000035
:204d7e00000000000000000000000000000000000000000000000000000000000000000015
:0a4d9e00000000000000000000000b
:204da8000000000000000000000000000000000000000000000000000000000000000000eb
:094dc800000000000000000000e2
:204dd1000000000000000000000000000000000000000000000000000000000000000000c2
:0a4df10000000000000000000000b8
:204dfb00000200000000000000000000000000000000000080000000000000000000000016
:094e1b000000000000000000008e
:204e240000000000000000000000000000000000000000000000000000000000000000006e
:0a4e44000000000000000000000064
:204e4e00000000000000000000000000000000000000000000000000000000000000000044
:094e6e000000000000000000003b
:204e770000000000000000000000000000000000000000000000000000000000000000001b
:0a4e97000000000000000000000011
:204ea1000000000000000000000000000000000000000000000000000000000000000000f1
:094ec100000000000000000000e8
:204eca000000000000000000000000000000000000000000000000000000000000000000c8
:0a4eea0000000000000000000000be
:204ef40000000000000000010000000000000000000000000000000000000000000000009d
:094f140000000000000000000094
:204f1d00000000000000000000000000000000000000000000000000000000000000000074
:0a4f3d00000000000000000000006a
:204f4700000200000000000000000000000000000000000000000000000000000000000048
:094f670000000000000000000041
:204f7000000000000000000000000000000000000000000000000000000000000000000021
:0a4f90000003000000000000000014
:204f9a000000000000000000000000000000000000000000000000000000000000000000f7
:094fba00000000000000000000ee
:204fc30000003000000000000000000000000000000000000000000000000000000000009e
:0a4fe30000000000000000000000c4
:204fed000000000000000000000000000000000000000000000000000000000000000000a4
:09500d000000000000000000009a
:2050160000000000000000000000000000000000000000000000000000000000000000007a
:0a5036000000000000000000000070
:20504000000000000000000000000000000000000000000000000000000000000000000050
:0950600000000000000000000047
:20506900000000000000000000000000000000000000000000000000000000000000000027
:0a508900000000000000000000001d
:205093000002000000000000000000000000000000000000000000000000000000000000fb
:0950b300000000000000000000f4
:2050bc000000000000000000000000000000000000000000000000000000000000000000d4
:0a50dc0000000000000000000000ca
:2050e6000000000000000000000000000000000000000000000000000000000000000000aa
:0951060000000000100c00f00094
:20510f00000000000000000000000000000000000000000000000000000000000000000080
:0a512f00000000100006d18000000f
:20513900000000000000000000000000000000000000000000000000000000000000000056
:0951590000000000036810900042
:2051620000000000000000000000000000000000000000000000000000000000000000002d
:0a51820000000000006de8010000cd
:20518c000000000000000000000000000000000000000000000000000000000000ff0240c2
:0951ac000000000000cb00f0003f
:2051b50000000000000000000000000000000000000000000000000000000000100af5ac1f
:0a51d500000000000226a008000000
:2051df000002000000000000000000000000000000000000000000000000000000000000ae
:0951ff0000000000000000900017
:20520800000000000000000000000000000000000000000000000000000000000000000086
:0a522800000000000000010100007a
:2052320000000000000000020000000000000000000000000000000000000000000000005a
:09525200c0000000000000e000b3
:20525b00000030000000000000000000000000000000000000000000000000000000000003
:0a527b000700000000000118000009
:20528500000000000000000000000000000000000000000000000000000000000000000009
:0952a5000000040080007000000c
:2052ae000000000000000000000000000000000000000000000000000000000000000000e0
:0a52ce0007000010080fa008000000
:2052d8000000000000000000000000000000000000000000000000000000000000000000b6
:0952f80000000000140d00e000ac
:2053010000000000000000000000000000000000000000000000000000000000000000018b
:0a532100e0000000294e80000000ab
:20532b000002000000000000000000000000000000000000800000000000000000000000e0
:09534b000000004283da00c200f8
:20535400000000000000000000000000000000000000000000000000000000000000000039
:0a53740000000000263cf00140009c
:20537e000000000000000000000000000000000000000000000000000000000000f0081cfb
:09539e0020000003c000008000a3
:2053a70000000000000000000000000000000000000000000000000000000000000f038252
:0a53c700004000003c0e0001000051
:2053d1000000000000000000000000000000000000000000000000000000000000000000bc
:0953f10000000000f0cd000000f6
:2053fa00000000000000000000000000000000000000000000000000000000000000000093
:0a541a00000000000f200000000059
:2054240000000000000000000000000000000000000000000000000000000000003c003cf0
:0954440000000000f00000b000bf
:20544d00000000000000000000000000000000000000000000000000000000000403c00276
:0a546d00000000100f000000000016
:205477000000000000000000000000000000000000000000000000000000000000aa040067
:0954970000000002a810d0000082
:2054a00000000000000000000000000000000000000000000000000000000000000aa12021
:0a54c000000000002a84878000002d
:2054ca000000000000000000000000000000008000000000000000000000000000cc1780df
:0954ea0028004003305e00a00020
:2054f300000000000000000000000000000000100000000000000000000000000013392419
:0a551300604000004ce4900100002d
:20551d00000000000000000000000000000000000000000000000000000000800069500035
:09553d0000000001a5400000007f
:20554600000000000000000000000000000000000000000000000000000000040016916832
:0a556600068000005a45a01a00005c
:2055700000000000000000000000000000000000000000000000000000000000006914009e
:0955900000000001a450500000cd
:205599000000000000000000000000000000000000000000000000000000000000169968db
:0a55b900068000005a65881a000001
:2055c300000000000000000000000000000000000000000000000000000000004000041470
:0955e3000000010000105000005e
:2055ec00000000000000000000000000000000000000000000000000000000000010007b14
:0a560c00600000004000cd800000a7
:20561600000000000000000000000000000000000000000000003c02000b000000830b405d
:09563600000000038c0b01800050
:20563f000000000000000000000000000000000000000000000003c06000000004041720e9
:0a565f000000001030dfb11d000054
:20566900000000000000000000000000000000000000000000003c00001f0000008117002e
:0956890000000003e81f00e0002e
:205692000000000000000000000000000000000000000000000023c1c000b0000002482d2d
:0a56b200e00000002bd79701000074
:2056bc000000000000000000000000000000000000000000000000000010000000000000be
:0956dc0024000000282ef000005b
:2056e5000000000000000000000000000000000000000000000000000000a0000000000005
:0a57050000000020294f870e00006d
:20570f00000200000000000000000000000000000000000000002a810d90000010e807c071
:09572f0000000042a8100100c0b6
:205738000000000000000000000000000000000000000000000002a84c51c0000400a53170
:0a575800c00000002a85c01c0000fc
:2057620000000000000000000000000000000000000000000000330da008000000c9100066
:095782000000004330def9900044
:20578b000000300000000000000000000000000000000000000004ce4d181000000c91f0fa
:0a57ab00000000004ce59d1d000009
:2057b500000000000000000000000000000000000000000000001a5c000000000000001c42
:0957d50024000041a7c000b0004f
:2057de000000000000000000000000000000000000000000000005a45e00000000000000a4
:0a57fe00000000005a44c001000042
:20580800000000000000000000000000000000000000000000001a4d0b00000000830b4040
:0958280028000001a550d89000f1
:205831000000000000000000000000000000000000000000000005a65a800000040c37206b
:0a585100000000045a45a100000009
:20585b000002000000000000000000000000000000000000801000000000000000ed1f008f
:09587b0020000100000000000003
:205884000000000000000000000000000000000000000000000004000c000000000b7d2448
:0a58a400628000004000e0000000f8
:2058ae00000000000000000000000000000000000000000000003e80c0100000000c0e0230
:0958ce003800000003eb38a000d3
:2058d700000000000000000000000000000000000000000000000001fb0080000408d7ada5
:0a58f700404000000124ef1f0140b3
:205901000000000000000000000000000000000000000000000017c000000140003f0f7ca4
:0959210000000402c0ef00900038
:20592a0000000000000000000000000000000000000000000000017d68000000040271ac54
:0a594a00060000002a8fc78a000043
:2059540000000000000000000000000000000000000000000000000001100000008e03bcd5
:0959740028020003e83b090000d1
:20597d000000000000000000000000000000000000000000000000000099c0000404d704ce
:0a599d0000000000294cb39c00003c
:2059a7000002000000000000000000000000000000000000000011c20000000000aa041449
:0959c7000002000003cd90a000d5
:2059d00000000000000000000000000000000000000000000001011c4a000000000aa13173
:0a59f000428010000cfec01b0000f6
:2059fa000000000000000000000000000000000000000000000012c1d00a000000f094005c
:095a1a0000000000282e1000001d
:205a23000000300000000000000000000000000000000000000103855d01d000001f03b0aa
:0a5a430000000000141eb7800000f0
:205a4d00000000000000000000000000000000000000000000003f40e00f0000006930141e
:095a6d0000000002fdcf790000e9
:205a76000000000000000000000000000000000000000000000101a4f901a00000169933ee
:0a5a9600668000003f7e979c4000f0
:205aa0000000000000000000000000000000000000000000000026548000040000699002ed
:095ac00000000003c02001e00811
:205ac90000000000000000000000000000000000000000000000019a0001c0000016912991
:0a5ae900468040003c16000f01004b
:205af3000002000000000000000000000000000000000000000000000000004040500800b9
:095b1300000000014049510000ae
:205b1c000000000000000000000000000000000000000000000000000051e008001507789c
:0a5b3c00600000000826e01c0000d5
:205b4600000000000000000000000000000000000000000000000000070b00000000001617
:095b66002d003000000901a0002f
:205b6f00000000000000000000000000000000000000000000000000008000100000000383
:0a5b8f0040000200015c901e0000bf
:205b9900000000000000000000000000000000000000000000003002801000000000002efc
:095bb9002c000000142f900000e4
:205bc200000000000000000000000000000000000000000000010001ea00a0000000000136
:0a5be200c78000003fcfa1180000ab
:205bec0000000000000000000000000000000000000000000000045cb000000000000e0279
:095c0c0028100000001918000026
:205c150000000000000000000000000000000000000000008000008bc00000000401057c1e
:0a5c350066000010005dc98e00003b
:205c3f000002000000000000000000000000000000000000000002810000400000830b00f2
:095c5f003400000001c9500200ec
:205c6800000000000000000000000000000000000000000000000029ea000800040037f8ce
:0a5c8800004000000a3ed00a400070
:205c92000000000000000001000000000000000000000000000012c0b5000000000d5f40be
:095cb20040400003c02c58e00042
:205cbb00000030000000000000000000000000000000000000010385d9000000000025bd55
:0a5cdb00678000102c17b19a00003a
:205ce500000000000000000000000000000000000000000000001d828b0c0002048b0000d8
:095d050020002003083800000012
:205d0e000000000000000000000000000000000000000000000102d9ea0010000428b3b907
:0a5d2e0060000210008fb01c00009e
:205d380000000000000000000000000000000000000000000000265cb0080000000f93c2ad
:095d580000101002902f30e40845
:205d610000000000000000000000000000000000000000000000019a0000100400047bb93b
:0a5d810046800510094ca5800000c3
:205d8b00000200000000000000000000000000000000000080000000000e00000000001454
:095dab0000000001540900800011
:205db4000000000000000000000000000000000000000000000000000000000000000000cf
:0a5dd40000000000001ed5000000d2
:025dde000000c3
:035de00062003f1f
:035de300720080cb
:025de6001100aa
:035de80082000036
:025deb000103b2
:085ded000000000000000000ae
:085df5000000000000000000a6
:085dfd0000000000000000009e
:085e0500000000000000000095
:0261ed000000b0
:0361ef00820080ab
:0261f2000103a7
:0861f4000000000000000000a3
:0861fc0000000000000000009b
:08620400000000000000000092
:08620c0000000000000000008a
:0265f4000000a5
:0265f600110191
:0365f8008200001e
:0265fb0001039a
:0865fd00000000000000000096
:0866050000000000000000008d
:08660d00000000000000000085
:0866150000000000000000007d
:0269fd00000098
:0369ff0082008093
:026a020001038e
:086a040000000000000000008a
:086a0c00000000000000000082
:086a140000000000000000007a
:086a1c00000000000000000072
:026e040000008c
:026e0600110277
:036e080082000005
:026e0b00010381
:086e0d0000000000000000007d
:086e1500000000000000000075
:086e1d0000000000000000006d
:086e2500000000000000000065
:02720d0000007f
:03720f008200807a
:02721200010376
:08721400000000000000000072
:08721c0000000000000000006a
:08722400000000000000000062
:08722c0000000000000000005a
:02761400000074
:0276160011035e
:03761800820000ed
:02761b00010369
:08761d00000000000000000065
:0876250000000000000000005d
:08762d00000000000000000055
:0876350000000000000000004d
:027a1d00000067
:037a1f0082008062
:027a220001035e
:087a240000000000000000005a
:087a2c00000000000000000052
:087a340000000000000000004a
:087a3c00000000000000000042
:027e240000005c
:017e26002239
:027e270057b64c
:027e2900010650
:00000001FF
