:02000000ff00ff
:080002004c6174746963650030
:17000a00694345637562653220323031342e31322e32373035320077
:16002100506172743a2069434534304858314b2d545131343400fc
:1b003700446174653a204a756e20313720323031352031393a34333a3235006d
:0200520000ffad
:040054007eaa997e69
:02005800510055
:02005a0001059e
:03005c00920020ef
:03005f0062014bf0
:0300620072009099
:0300650082000016
:02006800110085
:02006a00010192
:20006c000000000000000000000000800000000000000000000000000000000000000000f4
:09008c000000000000000000006b
:2000950000000000000000000000000d00000000000000000000000000000000000000003e
:0a00b5000000000000000000000041
:2000bf00000000000000000000000000000000000000000000000000000000000000000021
:0900df00000000400000000000d8
:2000e8000000000000000000000000000000000000000000000000000000000000000000f8
:0a01080000000000000000000000ed
:200112000000000000000000000000000000000000000000000000000000000000000000cd
:09013200000000000004000000c0
:20013b000000000000000000000000000000000000000000000000000000000000000000a4
:0a015b00000000000000000000009a
:200165000000000000040000000000001000000000000040000000001000000000000040d6
:0901850000000000000000000071
:20018e00000000000000000000000000000000000000000000000000000000000000000051
:0a01ae000000000000000000000047
:2001b80000000000000c00000000000030000000000000c00000000030400000000000c0fb
:0901d8000000000000010000001d
:2001e1000000000000000000000000000000000000000000000000000000000000000000fe
:0a02010000000000000000100000e3
:20020b00000000000000000000000000000c000000000000000000000000000000000000c7
:09022b00000000000000000000ca
:200234000000000000000000000000000000c00000000000000000000000000000000000ea
:0a02540000000000000000000000a0
:20025e00000000000000000000000000000000000000000000000000000000000000000080
:09027e0000000000000000000077
:20028700000000000000000000000000000000000000000000000000000000000000000057
:0a02a700000000000000000000004d
:2002b100000000000004000000000000100000000000004000000000100000000000004089
:0902d10000000000000100000023
:2002da00000000000000000000000000000000000000000000000000000000000000000004
:0a02fa0000000000000000000000fa
:200304000000000000000000000000000000000000000000000000000000000000000000d9
:09032400000000000000000000d0
:20032d00000020000000000000000000000000000040000000000000000000000000000050
:0a034d0000000000000000000000a6
:20035700000000000000000000000000000000000000000000000000000000000000000086
:090377000000000000000000007d
:2003800000000000000000000000000000000000000000000000000000000000000000005d
:0a03a0000000000000000000000053
:2003aa00300000000000000000000000000000000000000000000000000000000000000003
:0903ca000000000000000000002a
:2003d3000300200000000000000000000000000000000000000000000000000000000000e7
:0a03f3000000000000000000000000
:2003fd000203000000000000000000000000000000000000000000000000000000000000db
:09041d00000000000000000000d6
:200426000000000000000000000000000000000000000000000000000000000000000000b6
:0a04460000000000000000000000ac
:2004500000000000000000000000000000000000000000000000000000000000000000008c
:0904700000000000000000000083
:20047900000020000000000000000000000000000000000000000000000000000000000043
:0a0499000000000000000000000059
:2004a300000000000000000000000000000000000000000000000000000000000000000039
:0904c30000000000000000000030
:2004cc00000000000000000000000000000000000000000000000000000000000000000010
:0a04ec000000000000000000000006
:2004f6000000000000000000000000000000000000000000000000000000000000000000e6
:09051600000000000000000000dc
:20051f000000000000000000000000000000000000000000000000000000000000000000bc
:0a053f0000000000000000000000b2
:2005490000040000000000000000000000000000000000000000000000000000000000008e
:0905690000000000000000000089
:200572000002800000000000000000000000000000000000000000000000000000000000e7
:0a059200000000000000000000005f
:20059c0000020000000000000000000000000000000000000000000000000000000000003d
:0905bc00000000000000e10080d5
:2005c5000000200000000000000000000000000000000000000000000000000000000000f6
:0a05e50000000000000002c000004a
:2005ef000002000000000000000000000000000000000000000000000000000000000000ea
:09060f0000000a00000148f0900f
:200618000000000000000000000000000000000000000000000000000000000000000000c2
:0a0638000000008000000000f080c8
:20064200000000000000000000000000000000000000000000000000000000000000000098
:0906620000000c001639c8f080fc
:20066b0000002000000000000000000000000000000000000000000000000000000000004f
:0a068b000000004000240000f00011
:20069500000300000000000000000000000000000000000000000000000000000000000042
:0906b500000000000001e8f080e3
:2006be0000000000000000000000000000000000000000000000000000000000000000001c
:0a06de000000000000000000f00022
:2006e8000000000000000000000000000000000000000000000000000000000000000000f2
:09070800000000020028c8f08086
:200711000000200000000000000000000000000000000000000000000000000000000000a8
:0a0731000000000000030200f000c9
:20073b0000000000000000000000000000000000000000000000000000000000000000009e
:09075b0000000000003148f080ac
:20076400000000000000000000000000000000000000000000000000000000000000000075
:0a0784000000000001c00200f200b6
:20078e0000000000000000000000000000000000000000000000000000000000000000004b
:0907ae00000000000001e8f080e9
:2007b700000000000000000000000000000000000000000000000000000000000000000022
:0a07d7000000000001400200f000e5
:2007e1000000000000000000000000000000000000000000000000000000000000000000f8
:09080100000000a01461e8f0c140
:20080a000000000000000000000000000000000000000000000000000000000000000000ce
:0a082a000000000400028200f2004a
:200834000000000000000000000000000000000000000000000000000000000000000000a4
:090854000000000e34044850605d
:20085d0000002000000000000000000000000000004000000000000000000000000000001b
:0a087d000000000003e34400a05453
:2008870000020000000000000000000000000000000000000000000000000000000000004f
:0908a70000000a0000000000003e
:2008b000000000000000000000000000000000000000000000000000000000000000000028
:0a08d000000000800000000000009e
:2008da000000000000000000000000000000000000000000000000000000000000000000fe
:0908fa00000004000000000000f1
:200903000000000000000000000000000000000000000000000000000000000000000000d4
:0a0923000000004004000000000086
:20092d000003000000000000000000000000000000000000000000000000000000000000a7
:09094d00000000000000000000a1
:20095600000000000000000000000000000000000000000000000000000000000000000081
:0a0976000000000000000000000077
:20098000000000000000000000000000000000000000000000000000000000000000000057
:0909a0000000000400000000004a
:2009a90000002000000000000000000000000000000000000000000000000000000000000e
:0a09c9000000000000000000000024
:2009d300000000000000000000000000000000000000000000000000000000000000000004
:0909f300000000000000000000fb
:2009fc000000000000000000000000000000000000000000000000000000000000000000db
:0a0a1c0000000000000000000000d0
:200a26000000000000000000000000000000000000000000000000000000000000000000b0
:090a4600000000000000000000a7
:200a4f00000000000000000000000000000000000000000000000000000000000000000087
:0a0a6f0000000000a00000000000dd
:200a790000000000000000000000000000000000000000000000000000000000000000005d
:090a990000000000000000000054
:200aa200000000000000000000000000000000000000000000000000000000000000000034
:0a0ac200000000000000000000002a
:200acc0000000000000000000000000000000000000000000000000000000000000000000a
:090aec0000000080007ada00002d
:200af5000000200000000000000000000000000000000000000000000000000000000000c1
:0a0b15000000000001440500a000ec
:200b1f000000000000000000000000000000000000000000000000000000000000000000b6
:090b3f0000000a002605ca0002ac
:200b480000000000000000000000000000000000000000000000000000000000000000008d
:0a0b6800000000800062670010002a
:200b7200000000000000000000000000000000000000000000000000000000000000000063
:090b92000000000020654e156210
:200b9b0000000000000000000000000000000000000000000000000000000000000000003a
:0a0bbb000000000002460301508014
:200bc50000030000000000000000000000000000000000000000000000000000000000000d
:090be5000000000000025820008d
:200bee000100000000000000000000000000000000000000000000000000000000000000e6
:0a0c0e0000000020034395b0000031
:200c18000000000000000000001000000000000000000000000000000000000001000000ab
:090c3800000000000e006aa0009b
:200c4100000020000000000000010000000000000000000000000000000000000000000072
:0a0c6100000000000020000a00005f
:200c6b00000000000000000000000000000000000000000000000000000000000000000069
:090c8b000000000000004a0a020a
:200c9400000000000000000000000000000000000000000000000000000000000000000040
:0a0cb4000000000000002500800091
:200cbe00000000000000000000000000000000000000000000000000000000000000000016
:090cde00000000000062da0203cc
:200ce7000000000000000000000000000000000000000000000000000000000000000000ed
:0a0d0700000000000403a500000036
:200d11000000000000000000000000000000000000000000000000000000000000000000c2
:090d3100000000000000000000b9
:200d3a00000000000000000000000000000000000000000000000000000000000000000099
:0a0d5a00000000000000000000008f
:200d640000010000000000000000000000000000000000000000000000000000000000006e
:090d84000000000094701a0a003e
:200d8d000000200000000000000000000000000000400000000000000000000000000000e6
:0a0dad000000000000040d005000db
:200db70000020000000000000000000000000000000000000000000000000000000000001a
:090dd70000000a002000fa2002cd
:200de0000000000000000000000000000000000000000000000000000000000000000000f3
:0a0e00000000008000403e000000ea
:200e0a000000000000000000000000000000000000000000000000000000000000000000c8
:090e2a0000000000340348a50299
:200e330000000000000000000000000000000000000000000000000000000000000000009f
:0a0e53000000000002e28d0a10000a
:200e5d00020300000000000000000000000000000000000000000000000000000000000070
:090e7d00000000001e040000004a
:200e8600000000000000000000000000000000000000000000000000000000000800000044
:0a0ea600000000200023c00000003f
:200eb000000000000000000000000000000000000000000000000000000000000000000022
:090ed0000000000000004b42404c
:200ed900800020000000000000000000000000000000000000000000000000000000000059
:0a0ef90000000000004015893014cd
:200f03000000000000000000000000000000000000000000000000000000000000000000ce
:090f2300000000002000000000a5
:200f2c000000000000000000000000000000000000000000000000000000000000000000a5
:0a0f4c000000000003c200000000d6
:200f560000000000000000000000000000000000000000000000000000000000000000007b
:090f760000000000000000000072
:200f7f00000000000000000000000000000000000000000000000000000000000000000052
:0a0f9f000000000000020000000046
:200fa900000000000000000000000000000000000000000000000000000000000000000028
:090fc9000000000000000000001f
:200fd2000000000000000000000000000000000000000000000000000000000000000000ff
:0a0ff20000000000000000000000f5
:200ffc000000000000000000000000000000000000000000000000000000000000080af3d0
:09101c00070000000003d90200e6
:2010250000002000000000000000000000000000000000000000000000000000000011bbbf
:0a104500a4f0000000029eb00000bd
:20104f000000000000000000000000000000000000000000000000000000000280050a03ed
:09106f0082940a002c7afc000bab
:20107800000000000000000000000000000000000000000000000000000000002000d9b3ac
:0a1098000014008001440e002080c7
:2010a2000000000000000000000000000000000000000000000000000000000000000073bb
:0910c20025900000000000000070
:2010cb00000000000000000000000000000000000000000000000000000000000000000005
:0a10eb0082588000000000000000a1
:2010f500000300000000000000000000000000000000000000000000000000000005009e35
:09111500a00000001668fe800035
:20111e00000000000000000000000000000000000000000000000000000000000000d809d0
:0a113e00b800000001c03cd0000022
:20114800000000000000000000000000000000000000000000000000000000000001805aac
:0911680030408000002a7cef6297
:2011710000002000000000000000000000000000000000000000000000000000000000e15d
:0a1191004204000000042e0ff010cd
:20119b0000000000000000000000000000000000000000000000000000000000000001161d
:0911bb004f0000000601de0a00ed
:2011c40000000000000000000000000000000000000000000000000000000000000000d932
:0a11e40020b000000342c100a0008b
:2011ee0000000000000000000000000000000000000000000000000000000000010581005a
:09120e00000000001c0378080038
:201217000000000000000000000000000000000000000000000000000000000000007080c7
:0a123700000000000002c590000056
:20124100000000000000000000000000000000000000000000000000000000000000003b52
:0912610010000000142b7c420275
:20126a00000000000000000000000000000000000000000000000000000000000000000f55
:0a128a00e400000000240d0c101019
:20129400000000000000000000000000000000000000000000000000000000000005001025
:0912b40000200000006cc0008065
:2012bd0000002000000000000000000000000000004000000000000000000000000000a011
:0a12dd002400000000028000002041
:2012e700000000000000000000000000000000000000000000000000000000028000005a0b
:091307003c2000003604c8f0800f
:2013100000000000000000000000000000000000000000000000000000000000200000009d
:0a133000803c200001428200f00022
:20133a00000000000000000000000000000000000000000000000000000000000000195228
:09135a003c3000000000e8f080c6
:201363000000000000000000000000000000000000000000000000000000000000000080ea
:0a138300803c000000000200f000b2
:20138d000003000000000000000000000000000000000000000000000000000000018b525f
:0913ad0014300000000048969085
:2013b600000000000000000000000000000000000000000000000000000000000000018f87
:0a13d60080140000000002f9600816
:2013e000000000000000000000000000000000000000000000000000000000000000007a73
:091400003c300000060448f080b5
:20140900400020000000000000000000000000000000000000000000000000000000000063
:0a142900003c000000224200f00029
:20143300000000000000000000000000000000000000000000000000000000000000005a3f
:091453003c30000c002868f08018
:20145c00000000000000000000000000000000000000000000000000000000000000000070
:0a147c00003c000040040000f010e6
:20148600000000000000000000000000000000000000000000000000000000000000015aeb
:0914a6003c30000000006996a032
:2014af0000000000000000000000000000000000000000000000000000000000000000f02d
:0a14cf00803c0000000200e960000c
:2014d900000000000000000000000000000000000000000000000000000000000008187a59
:0914f9003c300000040068f080a2
:201502000000000000000000000000000000000000000000000000000000000000001000b9
:0a152200803c000000000200f2000f
:20152c0000000000000000000000000000000000000000000000000000000000000000722d
:09154c003c3010002000e89680fc
:20155500400020000000000000000000000000000000000000000000000000000000000016
:0a157500003c3000014002c9604054
:20157f00000000000000000000000000000000000000000000000000000000028000007258
:09159f0014100000000048aa002d
:2015a800400000000000000000000000000000000000000000000000000000002000000fb4
:0a15c800001424000000000aa00037
:2015d2000000000000000000000000000000000000000000000000000000000000050000f4
:0915f200000000000000003c02b2
:2015fb000000000000000000000000000000000000000000000000000000000000000000d0
:0a161b000000000000000003c00002
:201625000003000000000000000000000000000000000000000000000000000000000000a2
:091645000000000000000000009c
:20164e0000000000000000000000000000000000000000000000000000000000000000007c
:0a166e000000000000000000000072
:20167800000000000000000000000000000000000000000000000000000000000000000052
:0916980000000000000000000049
:2016a100000000000000000000000000000000000000000000000000000000000000000029
:0a16c10000000000004000000000df
:2016cb000000000000000000000000000000000000000000000000000000000000000000ff
:0916eb0000000000006000000096
:2016f4000000080000000000000000000000000000000000000000000000000000000000ce
:0a17140000000000000400000000c7
:20171e00000000000000000000000000000000000000000000000000000000000009800022
:09173e00000000000000000000a2
:201747000800000000000000000000000000000000000000000000000000000000001090da
:0a1767000000000000000000000078
:20177100000000000000000000000000000000000000000000000000000000000000000256
:09179100bc100000000000000083
:20179a0000000000000000000000000000000000000000000000000000000000000000002f
:0a17ba0003c0200000000000000042
:0217c400000023
:0217c60011010f
:0217c80001011d
:2017ca000000000000000000000000000000000000000000000000000000000000000000ff
:0917ea00000000000000000000f6
:2017f3000000000000000000000000000000000000000000000000000000000000000000d6
:0a18130000000000000000000000cb
:20181d000000000000000000000000000000000000000000000000000000000000000000ab
:09183d00000000000000000000a2
:20184600000000000000000000000000000000000000000000000000000000000000000082
:0a1866000000000000000000000078
:20187000000000000000000000000000000000000000000000000000000000000000000058
:091890000000000000000000004f
:2018990000000000000000000000000000000000000000000000000000000000000000002f
:0a18b9000000000000000000000025
:2018c300000000000004000000000000100000000000004000000000100000000000004061
:0918e300000000000001000000fb
:2018ec000000000000000000000000000000000000000000000000000000000000000000dc
:0a190c0000000000000000000000d1
:2019160000000000000c00000000000030000000000000c00000000030000000000000c0c5
:09193600000000000003000000a5
:20193f00000000000000000000000000000000000000000000000000000000000000000088
:0a195f00000000000000000000007e
:2019690000000000000000000000000000000000000000000000000000000000000000005e
:0919890000000000000000000055
:20199200000000000000000000000000000000000000000000000000000000000000000035
:0a19b200000000000000000000002b
:2019bc0000000000000000000000000000000000000000000000000000000000000000000b
:0919dc0000000000000000000002
:2019e5000000000000000000000000000000000000000000000000000000000000000000e2
:0a1a050000000000000000000000d7
:201a0f00000000000004000000000000100000000000004000000000100000000000004013
:091a2f00000000000001000000ad
:201a380000000000000000000000000000000000000000000000000000000000000000008e
:0a1a58000000000000000000000084
:201a6200000000000000000000000000000000000000000000000000000000000000000064
:091a82000000000000000000005b
:201a8b0000000000000000000000000000000000000000000000000000000000000000003b
:0a1aab000000000000000000000031
:201ab500000000000000000000000000000000000000000000000000000000000000000011
:091ad50000000000000000000008
:201ade000000000000000000000000000000000000000000000000000000000000000000e8
:0a1afe0000000000000000000000de
:201b08000000000000000000000000000000000000000000000000000000000000000000bd
:091b2800000000000000000000b4
:201b3100000000000000000000000000000000000000000000000000000000000000000094
:0a1b5100000000000000000000008a
:201b5b00000200000000000000000000000000000000000000000000000000000000000068
:091b7b0000000000000000000061
:201b8400000000000000000000000000000000000000000000000000000000000000000041
:0a1ba4000000000000000000000037
:201bae00000000000000000000000000000000000000000000000000000000000000000017
:091bce000000000000000000000e
:201bd7000000300000000000000000000000000000000000000000000000000000000000be
:0a1bf70000000000000000000000e4
:201c01000000000000000000000000000000000000000000000000000000000000000000c3
:091c2100000000000000000000ba
:201c2a0000000000000000000000000000000000000000000000000000000000000000009a
:0a1c4a000000000000000000000090
:201c5400000000000000000000000000000000000000000000000000000000000000000070
:091c740000000000000000000067
:201c7d00000000000000000000000000000000000000000000000000000000000000000047
:0a1c9d00000000000000000000003d
:201ca70000020000000000000000000000000000000000000000000000000000000000001b
:091cc70000000000000000000014
:201cd0000000000000000000000000000000000000000000000000000000000000000000f4
:0a1cf00000000000000000000000ea
:201cfa000000000000000000000000000000000000000000000000000000000000000000ca
:091d1a00000000000000000000c0
:201d23000000000000000000000000000000000000000000000000000000000000000000a0
:0a1d43000000000000000000000096
:201d4d00000000000000000000000000000000000000000000000000000000000000000076
:091d6d000000000000000000006d
:201d760000000000000000000000000000000000000000000000000000000000000000004d
:0a1d96000000000000000000000043
:201da000000000000000000000000000000000000000000000000000000000000000000023
:091dc0000000000000000000001a
:201dc9000000000000000000000000000000000000000000000000000000000000000000fa
:0a1de90000000000000000000000f0
:201df3000002000000000000000000000000000000000000000000000000000000000000ce
:091e1300000000000000000000c6
:201e1c000000000000000000000000000000000000000000000000000000000000000000a6
:0a1e3c00000000000000000000009c
:201e460000000000000000000000000000000000000000000000000000000000000000007c
:091e660000000000000000000073
:201e6f00000030000000000000000000000000000000000000000000000000000000000023
:0a1e8f000000000000000000000049
:201e9900000000000000000000000000000000000000000000000000000000000000000029
:091eb90000000000000000000020
:201ec200000000000000000000000000000000000000000000000000000000000000000000
:0a1ee20000000000000000000000f6
:201eec000000000000000000000000000000000000000000000000000000000000000000d6
:091f0c00000000000000000000cc
:201f15000000000000000000000000000000000000000000000000000000000000000000ac
:0a1f350000000000000000000000a2
:201f3f0000020000000000000000000000000000040000000000000000000000000000007c
:091f5f0000000000000000000079
:201f6800000000000000000000000000000000000000000000000000000000000000000059
:0a1f8800000000000000000000004f
:201f920000000000000000000000000000000000000000000000000000000000000000002f
:091fb20000000000000000000026
:201fbb00000000000000000000000000000000000000000000000000000000000000000006
:0a1fdb0000000000000000000000fc
:201fe5000000000000000000000000000000000000000000000000000000000000000000dc
:09200500000000000000000000d2
:20200e000000000000000000000000000000000000000000000000000000000000000000b2
:0a202e0000000000000000000000a8
:20203800000000000000000000000000000000000000000000000000000000000000000088
:092058000000000000000000007f
:2020610000000000000000000000000000000000000000000000000000000000000000005f
:0a2081000000000000000000000055
:20208b00000200000000000000000000000000000000000000000000000000000000000033
:0920ab000000000000000000002c
:2020b40000000000000000000000000000000000000000000000000000000000000000000c
:0a20d4000000000000000000000002
:2020de000000000000000000000000000000000000000000000000000000000000000000e2
:0920fe00000000000000000000d9
:20210700000030000000000000000000000000000000000000000000000000000000000088
:0a21270000000000000000000000ae
:2021310000000000000000000000000000000000000000000000000000000000000000008e
:0921510000000000000000000085
:20215a00000000000000000000000000000000000000000000000000000000000000000065
:0a217a00000000000000000000005b
:2021840000000000000000000000000000000000000000000000000000000000000000003b
:0921a40000000000000000000032
:2021ad00000000000000000000000000000000000000000000000000000000000000000012
:0a21cd000000000000000000000008
:2021d7000002000000000000000000000000000000000000000000000000000000000000e6
:0921f700000000000000000000df
:202200000000000000000000000000000000000000000000000000000000000000000000be
:0a22200000000000000000000000b4
:20222a00000000000000000000000000000000000000000000000000000000000000000094
:09224a000000000000000000008b
:2022530000000000000000000000000000000000000000000000000000000000000000006b
:0a2273000000000000000000000061
:20227d00000000000000000000000000000000000000000000000000000000000000000041
:09229d0000000000000000000038
:2022a600000000000000000000000000000000000000000000000000000000000000000018
:0a22c600000000000000000000000e
:2022d0000000000000000000000000000000000000000000000000000000000000000000ee
:0922f000000000000000000000e5
:2022f9000000000000000000000000000000000000000000000000000000000000000000c5
:0a23190000000000000000000000ba
:20232300000200000000000000000000000000000000000000000000000000000000000098
:0923430000000000000000000091
:20234c00000000000000000000000000000000000000000000000000000000000000000071
:0a236c000000000000000000000067
:20237600000000000000000000000000000000000000000000000000000000000000000047
:092396000000000000000000003e
:20239f000000300000000000000000000000000000000000000000000000000000000000ee
:0a23bf000000000000000000000014
:2023c9000000000000000000000000000000000000000000000000000000000000000000f4
:0923e900000000000000000000eb
:2023f2000000000000000000000000000000000000000000000000000000000000000000cb
:0a24120000000000000000000000c0
:20241c000000000000000000000000000000000000000000000000000000000000000000a0
:09243c0000000000000000000097
:20244500000000000000000000000000000000000000000000000000000000000000000077
:0a246500000000000000000000006d
:20246f00000200000000000000000000000000000400000000000000000000000000000047
:09248f0000000000000000000044
:20249800000000000000000000000000000000000000000000000000000000000000000024
:0a24b800000000000000000000001a
:2024c2000000000000000000000000000000000000000000000000000000000000000000fa
:0924e200000000000000000000f1
:2024eb000000000000000000000000000000000000000000000000000000000000000000d1
:0a250b0000000000000000000000c6
:202515000000000000000000000000000000000000000000000000000000000000000000a6
:092535000000000000000000009d
:20253e0000000000000000000000000000000000000000000000000000000000000000007d
:0a255e000000000000000000000073
:20256800000000000000000000000000000000000000000000000000000000000000000053
:092588000000000000000000004a
:2025910000000000000000000000000000000000000000000000000000000000000000002a
:0a25b1000000000000000000000020
:2025bb000002000000000000000000000000000000000000000000000000000000000000fe
:0925db00000000000000000000f7
:2025e4000000000000000000000000000000000000000000000000000000000000000000d7
:0a26040000000000000000000000cc
:20260e000000000000000000000000000000000000000000000000000000000000000000ac
:09262e00000000000000000000a3
:20263700000030000000000000000000000000000000000000000000000000000000000053
:0a2657000000000000000000000079
:20266100000000000000000000000000000000000000000000000000000000000000000059
:0926810000000000000000000050
:20268a00000000000000000000000000000000000000000000000000000000000000000030
:0a26aa000000000000000000000026
:2026b400000000000000000000000000000000000000000000000000000000000000000006
:0926d400000000000000000000fd
:2026dd000000000000000000000000000000000000000000000000000000000000000000dd
:0a26fd0000000000000000000000d3
:202707000002000000000000000000000000000000000000000000000000000000000000b0
:09272700000000000000000000a9
:20273000000000000000000000000000000000000000000000000000000000000000000089
:0a275000000000000000000000007f
:20275a0000000000000000000000000000000000000000000000000000000000000000005f
:09277a0000000000000000000056
:20278300000000000000000000000000000000000000000000000000000000000000000036
:0a27a300000000000000000000002c
:2027ad0000000000000000000000000000000000000000000000000000000000000000000c
:0927cd0000000000000000000003
:2027d6000000000000000000000000000000000000000000000000000000000000000000e3
:0a27f60000000000000000000000d9
:202800000000000000000000000000000000000000000000000000000000000000000000b8
:09282000000000000000000000af
:2028290000000000000000000000000000000000000000000000000000000000000000008f
:0a2849000000000000000000000085
:20285300000200000000000000000000000000000000000000000000000000000000000063
:092873000000000000000000005c
:20287c0000000000000000000000000000000000000000000000000000000000000000003c
:0a289c000000000000000000000032
:2028a600000000000000000000000000000000000000000000000000000000000000000012
:0928c60000000000000000000009
:2028cf000000300000000000000000000000000000000000000000000000000000000000b9
:0a28ef0000000000000000000000df
:2028f9000000000000000000000000000000000000000000000000000000000000000000bf
:09291900000000000000000000b5
:20292200000000000000000000000000000000000000000000000000000000000000000095
:0a294200000000000000000000008b
:20294c0000000000000000000000000000000000000000000000000000000000000000006b
:09296c0000000000000000000062
:20297500000000000000000000000000000000000000000000000000000000000000000042
:0a2995000000000000000000000038
:20299f00000200000000000000000000000000000400000000000000000000000000000012
:0929bf000000000000000000000f
:2029c8000000000000000000000000000000000000000000000000000000000000000000ef
:0a29e80000000000000000000000e5
:2029f2000000000000000000000000000000000000000000000000000000000000000000c5
:092a1200000000000000000000bb
:202a1b0000000000000000000000000000000000000000000000000000000000000000009b
:0a2a3b000000000000000000000091
:202a4500000000000000000000000000000000000000000000000000000000000000000071
:092a650000000000000000000068
:202a6e00000000000000000000000000000000000000000000000000000000000000000048
:0a2a8e00000000000000000000003e
:202a980000000000000000000000000000000000000000000000000000000000000000001e
:092ab80000000000000000000015
:202ac1000000000000000000000000000000000000000000000000000000000000000000f5
:0a2ae10000000000000000000000eb
:202aeb000002000000000000000000000000000000000000000000000000000000000000c9
:092b0b00000000000000000000c1
:202b14000000000000000000000000000000000000000000000000000000000000000000a1
:0a2b34000000000000000000000097
:202b3e00000000000000000000000000000000000000000000000000000000000000000077
:092b5e000000000000000000006e
:202b670000003000000000000000000000000000000000000000000000000000000000001e
:0a2b87000000000000000000000044
:202b9100000000000000000000000000000000000000000000000000000000000000000024
:092bb1000000000000000000001b
:202bba000000000000000000000000000000000000000000000000000000000000000000fb
:0a2bda0000000000000000000000f1
:202be4000000000000000000000000000000000000000000000000000000000000000000d1
:092c0400000000000000000000c7
:202c0d000000000000000000000000000000000000000000000000000000000000000000a7
:0a2c2d00000000000000000000009d
:202c370000020000000000000000000000000000000000000000000000000000000000007b
:092c570000000000000000000074
:202c6000000000000000000000000000000000000000000000000000000000000000000054
:0a2c8000000000000000000000004a
:202c8a0000000000000000000000000000000000000000000000000000000000000000002a
:092caa0000000000000000000021
:202cb300000000000000000000000000000000000000000000000000000000000000000001
:0a2cd30000000000000000000000f7
:202cdd000000000000000000000000000000000000000000000000000000000000000000d7
:092cfd00000000000000000000ce
:202d06000000000000000000000000000000000000000000000000000000000000000000ad
:0a2d260000000000000000000000a3
:202d3000002c00000000000000000000000000000000000000000000000000000000000057
:092d50000000000000000000007a
:202d590000000000000000000000000000000000000000000000000000000000000000005a
:0a2d79000000000000000000000050
:202d830000020000000000000000000000000000000000000000000000000000000000002e
:092da30000000000000000000027
:202dac00000000000000000000000000000000000000000000000000000000000000000007
:0a2dcc0000000000000000000000fd
:202dd6000000000000000000000000000000000000000000000000000000000000000000dd
:092df600000000000000000000d4
:202dff00000030000000000000000000000000000000000000000000000000000000000084
:0a2e1f0000000000000000000000a9
:202e2900100000000000000000000000000000000000000000000000000000000000000079
:092e490000000000000000000080
:202e520003000000000000000000000000000000000000000000000000000000000000005d
:0a2e72000000000000000000000056
:202e7c00000000000000000000000000000000000000000000000000000000000000000036
:092e9c000000000000000000002d
:202ea50000000000000000000000000000000000000000000000000000000000000000000d
:0a2ec5000000000000000000000003
:202ecf000002000000000000000000000000000004000000000000000000000000000000dd
:092eef00000000000000000000da
:202ef8000000000000000000000000000000000000000000000000000000000000000000ba
:0a2f180000000000000000000000af
:022f22000000ad
:022f2400110298
:022f26000101a7
:202f2800000000000000000000000000000000000000000000000000000000400000000049
:092f48000001000000000000007f
:202f5100000000000000000000000000000000000000000000000000000000000000000060
:0a2f71000000000000000000000056
:202f7b0000000000000000000000000000000000000000000000000000380080000000007e
:092f9b000002000000000000002b
:202fa4000000000000000000000000000000000000000000000000000000400000000000cd
:0a2fc4000000000000000000000003
:202fce00000000000000000000000000000000000000000000000030000000400000400033
:092fee00000100000000000000d9
:202ff7000000000000000000000000000000000000000000000000020000000000000c00ac
:0a3017000d000000000000000000a2
:203021000000000000080000000000002000000000080000000000002000000000000080bf
:0930410000000000000200000084
:20304a00000000000000000000000000000000000000000000000000000000000000000066
:0a306a00000000000000000000005c
:2030740000000000000c00000000000030000000000c00000000000030040000000000c000
:0930940000000000000300000030
:20309d00000000000000000000000000000000000000000000000000000280000000000091
:0a30bd000000000000000000000009
:2030c7000000000000000000000000000000000000000000000000300000000000000000b9
:0930e700000000000000000000e0
:2030f0000000000000000000000000000000000000000000000000020000000400000000ba
:0a31100000000000000000000000b5
:20311a00000000000000000000000000000000000000000000000000000000000000000095
:09313a000000000000000000008c
:20314300000000000000000000000000000000000000000000000000000000080000000064
:0a3163000000000000000000000062
:20316d00000000000008000000000000200000000008000000000000200000000000008072
:09318d0000000000000200000037
:20319600000000000000000000000000000000000000000000000000000000040000000015
:0a31b600000000000000000000000f
:2031c000000000000000000000004000c000000000000000000040200d80000001000200ff
:0931e000280000000000000000be
:2031e900000020000000000000010000000000000000000008010001c05000000400000087
:0a32090004000000000000000000b7
:20321300000000000000000000005a64c00000000000000000015a65a81a0000016996801b
:0932330000000000000000000092
:20323c000000000000000000000001a6d000000000000000000001a45050000000069f40d1
:0a325c000000000000000000000068
:20326600000000000000000000005a44e00000000000000000015a45871a00000169930686
:093286000000000000000000003f
:20328f000000000000000000000001a6d000000000000000000001a54000000000069b0021
:0a32af000000000000000000000015
:2032b900000300000000000000005a64c00000000000000000015a6481990000016993148a
:0932d900000000000000000000ec
:2032e2000000000000000000000001a5d000000000000000000001a45000a00000069f40dc
:0a33020020000000000000000000a1
:20330c00000000000000000000004ce5f81f00000000000000004ce490000000010f9000f9
:09332c0028000000000000000070
:20333500000020000000000000000330de70e00000000000000013325a0000000000f30362
:0a335500440000000000000000002a
:20335f00000000000000000000002a84c18100000000000000000ce4b000000000aa13a061
:09337f0000000000000000000045
:203388000000000000000000000002a80000e00000000000000013305a000000000aa04212
:0a33a800c2c0000000000000000099
:2033b200000000000000000000000000080800000000000000100f00000a0080403c0014b2
:0933d200000000000000000000f2
:2033db0000000000000000000000000000f0000000000000000010f0000100000003c02cf2
:0a33fb0020000000000000000000a8
:20340500000000000000000000003c1c081900000000000000003c1c000a000000000020ac
:093425000000000000000000009e
:20342e000000000000000000000003c000f0f00000000000000003c0000100000000000215
:0a344e00c0000000000000000000b4
:20345800000000000000000000004000c50a0000000000000000000000000000000178408c
:09347800600000040000000000e7
:203481000000200000000000000100001000000000000000000000000000000000002b349b
:0a34a10000000010003c00000000d5
:2034ab00000000000000000000005a65a500000000000000000000000000001440b57660be
:0934cb0004000005a65c5000009d
:2034d4000000000000000000000001a64008a000000000000000000000000000400850b4fd
:0a34f400430000001a6d0080000084
:2034fe00000000000000000000005a6480000000000000000000a940100c008c0003780064
:09351e0000000005a64c00a0000d
:203527000000000000000000700001a54050000000000000000001680f01000080003b00aa
:0a354700000600001a6d00100000dd
:20355100000300000000000000005a45a18a000000000000000083de0000000040d51f40b8
:09357100000000003c405810006d
:20357a000000000000000000000001a740000000000000000002203c200000000002a0fc2d
:0a359a000000000003c0000800005c
:2035a400000000000000000000004ce49700000000000000000000000800014000487a54e1
:0935c40004000110f16050000048
:2035cd000000200000000000000003335e080000000000000000000000f00008000503a77b
:0a35ed00620000000f00050b000053
:2035f700000000000000000000002a858000000000000000000000000000200000f53394a9
:0936170000000000000018000092
:203620000000000000000000000002a80000000000000000000000000000000000405075db
:0a3640006000000000000b00000015
:20364a00000000000000000000100f000000000000000000000000000000000000ef3bb661
:09366a0028000003bc61580000b7
:203673000000000000000000000000f000000000000000000000000000000000000ef7c181
:0a3693004400000037d6b00000002c
:20369d00000000000000000000003c160018000000000000002283d407800000406a306069
:0936bd000000010158cc000000de
:2036c6000000000000000000000003c000000000000000000002003c000800000009503d45
:0a36e600c2c00000158200000000c1
:2036f00000000010a3f3604000004001c50a00000000000000000000000000000071963627
:093710000400000a80ce800000d4
:20371900000020400a0414200001000010000000000000000800000000000000304f0fe265
:0a373900428000a028010f000000ec
:2037430000000016996806c000005a65a00000000000000000000000000000144020584618
:093763002c00000828e000000120
:20376c004000000069143c28000001a74050a00000000000000000000000000040010028db
:0a378c00268000000142c000000486
:20379600000000169160068000005a648000000000000000000000000000000c00387ae0aa
:0937b6002000000a80c0000000a0
:2037bf008000000069500000000001a5405000000000000080000000000000008003c9e1ce
:0a37df00400000001400f000000894
:2037e900000300169920600000005a45a80a000000000000000000000000000040653b005d
:09380900280000083ce00000006a
:203812000000000069140000000001a740100000000000000000000000000000000650804b
:0a383200028000a003c000000000a7
:20383c000000001f09a0060000004ce4900000000000000000000000080000800000000056
:09385c000400000a80ce00a00067
:2038650000002000f0340000050003325e000000000000000000000000f000000000000077
:0a38850003c000002801001000003d
:20388f000000000aa160e3c000002a85879e00000000000000000000000000000000026035
:0938af003800021829c080100045
:2038b80000000000aa000260000002a800080000000000000000000000000000004ff026cd
:0a38d800440000000142c90900008d
:2038e200000004004732000000003c1e0000000000000000000083de0000000040081f0027
:093902000000000a80de980000bc
:20390b0000000000000a0400000003c020000000000000000000003c00000000000080806f
:0a392b00000000a028010980000040
:203935000000000f01800000000016801018000000000000000000000001000040405afe4b
:09395500000000083ce0800000c5
:20395e0000000000f0080000000002940cf0000000000000000000000000e10000000021bd
:0a397e004000000003c00900000033
:203988000000000fd9a8078000000000000a000000000000000000000000000000f39f84e8
:0939a80000000000000000000016
:2039b10000002000fff6804000000000007100000000000000000000000000400005233414
:0a39d10020000000000000000000cc
:2039db000000040401a9e28005000000000000000000000000000000000000004404528099
:0939fb0028000423fc0000000078
:203a040000000000600e1600001000000000b400000000000000000000000000000000b4a6
:0a3a2400000000413fc00000000058
:203a2e000000142a65654280000000000000040000000000000000000000000000ff12c6d3
:093a4e00280000000000000080c7
:203a570000000008a90694300000000000d00000000000000000000000000000000dfff503
:0a3a77004000000000000000000005
:203a81000003000000000680000000000000000000000000000000000000000040007ed40a
:093aa1000000000000000000001c
:203aaa0000000000000000000040000000000000000000000000000000000001000480f047
:0a3aca0000000000000000000010e2
:203ad400000000000000000000001694900000000000000000000000000000004820733e7f
:093af400040000000000000000c5
:203afd0000002000000000000000034a6d000000000000000000000000000000000a50eb8a
:0a3b1d00c24000000000000000009c
:203b27000000000000000000001012468800000000000000000000000000008200a037e055
:093b4700740000000000000a00f7
:203b50000000000000000000000002081bd00000000000000000000000000000200af03e08
:0a3b700047c0000000000000400004
:203b7a0000000000000000000000000000001800000000000000000000000000000000060d
:093b9a0000000000000000000022
:203ba3000000000000000000000000000000000000000000000000000000000000000003ff
:0a3bc3006000000000000000000098
:203bcd00000000000001400000000000000000000000000000000000000000000000000493
:093bed006400000000000000006b
:203bf6000000000000000200000000000000000000000000000000000000000000000000ad
:0a3c160067400000000000000000fd
:203c2000000000000000000000004001a00000000000000000004001c000000000000000a2
:093c40000000000280ca81c0806e
:203c49000000200000000000000100000000000000000000880100001000000000000000a1
:0a3c6900000000002802091b000003
:203c7300000000000000000000005a64a78000000000000000015a65e000000000000000ac
:093c930038005000000000b000f0
:203c9c000000000000000000000001a75000000000000000000001a7400000000000000028
:0a3cbc00000001000000001a0000e3
:203cc600000000000000000000005a44e18018000000000000015a45e00040000000000007
:093ce600700000001068001000dd
:203cef000000000000000000000001a4d000000000000000000001a5c0000a0000000000d0
:0a3d0f000400000000a4870d00006e
:203d1900000300000000000000007c2ca98000000000000000014cc5f80100000000002e7d
:093d390000000000000000000081
:203d42000000000000000000000003c1d010f0000000000000000333da50800000000001ec
:0a3d620060000400000000000000f3
:203d6c00000000000000000000002a85e00100000000000000002a84c500000000103e40a6
:093d8c000000000280cb78000069
:203d95000000200000000000000002a81000e1c000000000000012a8100800000000053a82
:0a3db500400000002a828000000098
:203dbf000000000000000000000000000380000000000000000000000780000152ff36c092
:093ddf0078000000000000000063
:203de8000000000000000000000000000008000000000000000000000000b800000bf0ec14
:0a3e080004000000000000000000ac
:203e1200000000000000000000003c06080000000000000000000000000a000000f07800d4
:093e32000000000168cb00000053
:203e3b000000000000000000000003c020f00000000000000000000000d10000000f0000b4
:0a3e5b0000000000140380000000c6
:203e6500000000000000000000003c1fb80f00000000000000003c0e018a40000000000006
:093e850024000000000000000010
:203e8e000000000000000000000403c01df1f00200000000000003c00f01b00000000000ca
:0a3eae0003000000000000000040c7
:203eb8000000000000000000000000000000000000000000000000000000000001000200e7
:093ed8003800000100df180000b1
:203ee10000002000000000000000000000000000000000000000000000000000040000009d
:0a3f0100000000000017f00a0000a5
:203f0b00000000000000000000000000000000000000000000000000000000000169978015
:093f2b002800000168c800000034
:203f34000000000000000000000000000000000000000000000000000000000000069100d6
:0a3f540004000000040eb30000009a
:203f5e00000000000000000000000000000000000000000000000000000000000169178042
:093f7e003000000296ca01800027
:203f870000000000000000000000000000000000000000000000000000000000000697007d
:0a3fa700040000000965d7000000c7
:203fb10000030000000000000000000000000000000000000000000000000080013317c062
:093fd1000480010041fd1800000c
:203fda0000000000000000000000000000000000000000000000000000000000000ccf28c4
:0a3ffa00020000000003a00a00000e
:204004000000000000000000000000000000000000000000000000000000000000aa1314cb
:0940240078000000000070a0000b
:20402d0000002000000000000000000000000000000000000000000000000000000aa04069
:0a404d002400000000000d10000028
:2040570000000000000000000000000000000000000000000000000000000000403c0000cd
:094077000000000043cf00a0008e
:20408000000000000000000000000000000000000000000000000000000000000003c0005d
:0a40a00000000000001dcd1000001c
:2040aa0000000000000000000000000000000000000000000000000000000000000f0300e4
:0940ca002800010000c970e000ab
:2040d30000000000000000000000000000000000000000000000000000000000010f002b92
:0a40f300440000402003b0800000ec
:2040fd000000000000000000000000000000000000000000000000000000000000000000a3
:09411d002800000000d850000049
:20412600000000000000000000000000000000000000000000000000000000000000000079
:0a41460006c000000837cd8b000012
:2041500000000000000000000000000000000000000000000000000000000000000000004f
:094170000000000400180000002a
:204179000000200000000000000000000000000000000000080000000000000000000000fe
:0a419900000000100001000000000b
:2041a3000000000000000000000000000000000000000000000000000000000000000000fc
:0941c30000000005a65858a000f8
:2041cc000000000000000000000000000000000000000000000000000000000000000000d3
:0a41ec00000000001a740d1b000013
:2041f6000000000000000000000000000000000000000000000000000000000000000000a9
:0942160000000005a45850a000ae
:20421f0000000000000000000000000000000000000000000000000000000000000000007f
:0a423f00000300001a540d90000067
:20424900000300000000000000000000000000000000000000000000000000000000000052
:0942690000000004cc5980a00003
:2042720000000000000000000000000000000000000000000000000000000000000000002c
:0a429200000000003335e1300000a9
:20429c00000000000000000000000000000000000000000000000000000000000000000002
:0942bc0000000000cc4d00a00040
:2042c5000000200000000000000000000000000200000000000000000000000000000000b7
:0a42e500000000003334a0100000b8
:2042ef000000000000000000000000000000000000000000000000000000000000f0382067
:09430f0000000100f000000000b4
:2043180000000000000000000000000000000000000000000000000000000000000f0081f5
:0a433800c00000000f0000000000ac
:2043420000000000000000000000000000000000000000000000000000000000000000005b
:0943620000000003c1c0000000ce
:20436b00000000000000000000000000000000000000000000000000000000000000000032
:0a438b00000000003c00000b0000e1
:20439500000000000000000000000000000000000000000000000000000000000000000008
:0943b500000000000000001000ef
:2043be000000000000000000000000000000000000000000000000000000000000000000df
:0a43de0000000000000000080000cd
:2043e8000000000000000000000000000000000000000000000000000000000000000000b5
:0944080000000004000a8000001d
:2044110000002000000000000000000000000000000000000000000000000000000000006b
:0a443100000000100000050000006c
:20443b00000000000000000000000000000000000000000000000000000000000000000061
:09445b00000000043c48000000d0
:20446400000000000000000000000000000000000000000000000000000000000000000038
:0a448400000000003c0100000000f1
:20448e0000000000000000000000000000000000000000000000000000000000000000000e
:0944ae0000000005a45c01b0004f
:2044b7000000000000000000000000000000000000000000000000000000000000000000e5
:0a44d700000000001a6d000a00004a
:2044e1000003000000000000000000000000000000000000000000000000000000000000b8
:09450100000000043c4a00000027
:20450a00000000000000000000000000000000000000000000000000000000000000000091
:0a452a000000000003c000000000c4
:20453400000000000000000000000000000000000000000000000000000000000000000067
:09455400000000003c40000000e2
:20455d0000002000000000000000000000000000000000000000000000000000000000001e
:0a457d000000000003c0030000006e
:20458700000000000000000000000000000000000000000000000000000000000000000014
:0945a70000000100f00018000002
:2045b0000000000000000000000000000000000000000000000000000000000000000000eb
:0a45d000000000000f0000000000d2
:2045da000000000000000000000000000000000000000000000000000000000000000000c1
:0945fa0000000100f000000000c7
:20460300000000000000000000000000000000000000000000000000000000000000000097
:0a462300000000000f00000000007e
:20462d0000000000000000000000000000000000000000000000000000000000000000006d
:09464d0000000003c14000000060
:20465600000000000000000000000000000000000000000000000000000000000000000044
:0a467600000000003c0000000000fe
:02468000000038
:02468200110322
:02468400010132
:204686000000000000000000100000000000004000000000000000000000000000000000c4
:0946a6000000000000000000000b
:2046af000000000000000000000000000000000000000000000000000000000000000000eb
:0a46cf0000000000000000000000e1
:2046d900000000000000000020000000000000800000000000000000000000000000000021
:0946f900000000000000000000b8
:20470200000000000000000000000000000000000000000000000000000000000000000097
:0a472200000000000000000000008d
:20472c0000000000000000001000000000000040000000000000000000000000000000001d
:09474c0000000000000000000064
:204755000000000000c0000000000002000000000000000000000000000000000000000082
:0a477500000000000000000000003a
:20477f0000000000000800000000000020000000000800000000000020000000000000804a
:09479f000000000000020000000f
:2047a8000000000000000000000000000000000000000000000000000000000000000000f1
:0a47c80000000000000000000000e7
:2047d20000000000000c00000000000030000000000c00000000000030000000000000c08f
:0947f200000000000003000000bb
:2047fb0000000000000000000000000000000000000000000000000000000000000000009e
:0a481b000000000000000000000093
:20482500000000000c00000000000000000000000000000000000000000000000000000067
:094845000000000000000000006a
:20484e00000000000000000001000000000000000000000000000000000000000000000049
:0a486e000000000000000000000040
:204878000000000000000c0000000000000000000000000000000000000000000000000014
:0948980000000000000000000017
:2048a10000000000000001e002000000000000000000000000000000000000000000000014
:0a48c10000000000000000000000ed
:2048cb000000000000080000000000002040000000080000000000002000000000000080bd
:0948eb00000000000002000000c2
:2048f40000000000000000000100000000068000000000000000000000000000000000001d
:0a4914000000000000000000000099
:20491e00000000000000000000000000000000000000000000000000000000000000000079
:09493e0000000000000000000070
:20494700000000000000000000000000000000000000000000000000000000000000000050
:0a4967000000000000000000000046
:20497100000000000000000000000000000000000000000000000000000000000000000026
:094991000000000000000000001d
:20499a000000000000000000000000000000000000000000000000000000000000000000fd
:0a49ba0000000000000000000000f3
:2049c4000000000000000000000000000000000000000000000000000000000000000000d3
:0949e400000000000000000000ca
:2049ed000000000000000000000000000000000000000000000000000000000000000000aa
:0a4a0d00000000000000000000009f
:204a170000020000000000000000000000000000000000000000000000000000000000007d
:094a370000000000000000000076
:204a4000000000000000000000000000000000000000000000000000000000000000000056
:0a4a6000000000000000000000004c
:204a6a0000000000000000000000000000000000000000000000000000000000000000002c
:094a8a0000000000000000000023
:204a93000000300000000000000000000000000000000000000000000000000000000000d3
:0a4ab30000000000000000000000f9
:204abd000000000000000000000000000000000000000000000000000000000000000000d9
:094add00000000000000000000d0
:204ae6000000000000000000000000000000000000000000000000000000000000000000b0
:0a4b060000000000000000000000a5
:204b1000000000000000000000000000000000000000000000000000000000000000000085
:094b30000000000000000000007c
:204b390000000000000000000000000000000000000000000000000000000000000000005c
:0a4b59000000000000000000000052
:204b6300000200000000000000000000000000000000000000000000000000000000000030
:094b830000000000000000000029
:204b8c00000000000000000000000000000000000000000000000000000000000000000009
:0a4bac0000000000000000000000ff
:204bb6000000000000000000000000000000000000000000000000000000000000000000df
:094bd600000000000000000000d6
:204bdf000000000000000000000000000000000000000000000000000000000000000000b6
:0a4bff0000000000000000000000ac
:204c090000000000000000000000000000000000000000000000000000000000000000008b
:094c290000000000000000000082
:204c3200000000000000000000000000000000000000000000000000000000000000000062
:0a4c52000000000000000000000058
:204c5c00000000000000000000000000000000000000000000000000000000000000000038
:094c7c000000000000000000002f
:204c850000000000000000000000000000000000000000000000000000000000000000000f
:0a4ca5000000000000000000000005
:204caf000002000000000000000000000000000000000000000000000000000000000000e3
:094ccf00000000000000000000dc
:204cd8000000000000000000000000000000000000000000000000000000000000000000bc
:0a4cf80000000000000000000000b2
:204d0200000000000000000000000000000000000000000000000000000000000000000091
:094d220000000000000000000088
:204d2b00000030000000000000000000000000000000000000000000000000000000000038
:0a4d4b00000000000000000000005e
:204d550000000000000000000000000000000000000000000000000000000000000000003e
:094d750000000000000000000035
:204d7e00000000000000000000000000000000000000000000000000000000000000000015
:0a4d9e00000000000000000000000b
:204da8000000000000000000000000000000000000000000000000000000000000000000eb
:094dc800000000000000000000e2
:204dd1000000000000000000000000000000000000000000000000000000000000000000c2
:0a4df10000000000000000000000b8
:204dfb00000200000000000000000000000000000000000080000000000000000000000016
:094e1b000000000000000000008e
:204e240000000000000000000000000000000000000000000000000000000000000000006e
:0a4e44000000000000000000000064
:204e4e00000000000000000000000000000000000000000000000000000000000000000044
:094e6e000000000000000000003b
:204e770000000000000000000000000000000000000000000000000000000000000000001b
:0a4e97000000000000000000000011
:204ea1000000000000000000000000000000000000000000000000000000000000000000f1
:094ec100000000000000000000e8
:204eca000000000000000000000000000000000000000000000000000000000000000000c8
:0a4eea0000000000000000000000be
:204ef40000000000000000040000000000000000000000000000000000000000000000009a
:094f140000000000000000000094
:204f1d00000000000000000000000000000000000000000000000000000000000000000074
:0a4f3d00000000000000000000006a
:204f4700000200000000000000000000000000000000000000000000000000000000000048
:094f670000000000000000000041
:204f7000000000000000000000000000000000000000000000000000000000000000000021
:0a4f90000000000000000000000017
:204f9a000000000000000000000000000000000000000000000000000000000000000000f7
:094fba00000000000000000000ee
:204fc30000003000000000000080000000000000000000000000000000000000000000001e
:0a4fe30000000000000000000000c4
:204fed000000000000000000000000000000000000000000000000000000000000000000a4
:09500d000000000000000000009a
:2050160000000000000000000000000000000000000000000000000000000000000000007a
:0a5036000000000000000000000070
:20504000000000000000000000000000000000000000000000000000000000000000000050
:0950600000000000000000000047
:20506900000000000000000000000000000000000000000000000000000000000000000027
:0a508900000000000000000000001d
:205093000002000000000000000000000000000000000000000000000000000000000000fb
:0950b30002800000000000000072
:2050bc000000000000000000000000000000000000000000000000000000000000000000d4
:0a50dc0000100000000000000000ba
:2050e6000000000000000000000000000000000000000000000000000000000000000000aa
:09510600000000000000000000a0
:20510f00000000000000000000000000000000000000000000000000000000000000000080
:0a512f000000000000000000000076
:20513900000000000000000000000000000000000000000000000000000000000000000056
:095159000000000000000000004d
:2051620000000000000000000000000000000000000000000000000000000000000000002d
:0a5182000000000000000000000023
:20518c00000000000000000000000000000000000000000000000000000000000000000003
:0951ac00000000000000000000fa
:2051b5000000000000000000000000000000000000000000000000000000000000000000da
:0a51d50000000000000000000000d0
:2051df000002000000000000000000000000000000000000000000000000000000000000ae
:0951ff00000000000000000000a7
:20520800000000000000000000000000000000000000000000000000000000000000000086
:0a522800000000000000000000007c
:2052320000000000000000000000000000000000000000000000000000000000000000005c
:0952520000000000000000000053
:20525b00000030000000000000000000000000000000000000000000000000000000000003
:0a527b000000000000000000000029
:20528500000000000000000000000000000000000000000000000000000000000000000009
:0952a50000000000000000000000
:2052ae000000000000000000000000000000000000000000000000000000000000000000e0
:0a52ce0000000000000000000000d6
:2052d8000000000000000000000000000000000000000000000000000000000000000000b6
:0952f800000000000000000000ad
:2053010000000000000000000000000000000000000000000000000000000000000000008c
:0a5321000000000000000000000082
:20532b000002000000000000000000000000000000000000800000000000000000000000e0
:09534b0000000000000000000059
:20535400000000000000000000000000000000000000000000000000000000000000000039
:0a537400000000000000000000002f
:20537e0000000000000000000000000000000000000000000000000000000000000000000f
:20570f00000200000000000000000000000000000000000000000000000000000000000078
:09572f0000000000000000000071
:20573800000000000000000000000000000000000000000000000000000000000000000051
:0a5758000000000000000000000047
:20576200000000000000000000000000000000000000000000000000000000000000000027
:095782000000000000000000001e
:20578b000000300000000000000000000000000000000000000000000000000000000000ce
:0a57ab0000000000000000000000f4
:2057b5000000000000000000000000000000000000000000000000000000000000000000d4
:0957d500000000000000000000cb
:2057de000000000000000000000000000000000000000000000000000000000000000000ab
:0a57fe0000000000000000000000a1
:20580800000000000000000000000000000000000000000000000000000000000000000080
:0958280000000000000000000077
:20583100000000000000000000000000000000000000000000000000000000000000000057
:0a585100000000000000000000004d
:20585b000002000000000000000000000000000000000000800000000000000000000000ab
:09587b0000000000000000000024
:20588400000000000000000000000000000000000000000000000000000000000000000004
:0a58a40000000000000000000000fa
:2058ae000000000000000000000000000000000000000000000000000000000000000000da
:0958ce00000000000000000000d1
:2058d7000000000000000000000000000000000000000000000000000000000000000000b1
:0a58f70000000000000000000000a7
:20590100000000000000000000000000000000000000000000000000000000000000000086
:095921000000000000000000007d
:20592a0000000000000000000000000000000000000000000000000000000000000000005d
:0a594a000000000000000000000053
:20595400000000000000000000000000000000000000000000000000000000000000000033
:0959740001000000000000000029
:20597d0000000000000000000000000000000000000000000000000000000000000000000a
:0a599d0000080000000000000000f8
:2059a7000002000000000000000000000000000000000000000000000000000000000000de
:0959c700000000000000000000d7
:2059d0000000000000000000000000000000000000000000000000000000000000000000b7
:0a59f00000000000000000000000ad
:2059fa0000000000000000000000000000000000000000000000000000000000000000008d
:095a1a0000000000000000000083
:205a2300000030000000000000000000000000000000000000000000000000000000000033
:0a5a43000000000000000000000059
:205a4d00000000000000000000000000000000000000000000000000000000000000000039
:095a6d0000000000000000000030
:205a7600000000000000000000000000000000000000000000000000000000000000000010
:0a5a96000000000000000000000006
:205aa0000000000000000000000000000000000000000000000000000000000000000000e6
:095ac000000000000000000000dd
:205ac9000000000000000000000000000000000000000000000000000000000000000000bd
:0a5ae90000000000000000000000b3
:205af300000200000000000000000000000000000000000000000000000000000000000091
:095b130000000000000000000089
:205b1c00000000000000000000000000000000000000000000000000000000000000000069
:0a5b3c00000000000000000000005f
:205b460000000000000000000000000000000000000000000000000000000000000000003f
:095b660000000000000000000036
:205b6f00000000000000000000000000000000000000000000000000000000000000000016
:0a5b8f00000000000000000000000c
:205b99000000000000000000000000000000000000000000000000000000000000000000ec
:095bb900000000000000000000e3
:205bc2000000000000000000000000000000000000000000000000000000000000000000c3
:0a5be20000000000000000000000b9
:205bec00000000000000000000000000000000000000000000000000000000000000000099
:095c0c000000000000000000008f
:205c150000000000000000000000000000000000000000000000000000000000000000006f
:0a5c35000000000000000000000065
:205c3f00000200000000000000000000000000000000000000000000000000000000000043
:095c5f000000000000000000003c
:205c680000000000000000000000000000000000000000000000000000000000000000001c
:0a5c88000000000000000000000012
:205c92000000000000000000000000000000000000000000000000000000000000000000f2
:095cb200000000000000000000e9
:205cbb00000030000000000000000000000000000000000000000000000000000000000099
:0a5cdb0000000000000000000000bf
:205ce50000000000000000000000000000000000000000000000000000000000000000009f
:095d050000000000000000000095
:205d0e00000000000000000000000000000000000000000000000000000000000000000075
:0a5d2e00000000000000000000006b
:205d380000000000000000000000000000000000000000000000000000000000000000004b
:095d580000000000000000000042
:205d6100000000000000000000000000000000000000000000000000000000000000000022
:0a5d81000000000000000000000018
:205d8b00000200000000000000000000000000000000000080000000000000000000000076
:095dab00000000000000000000ef
:205db4000000000000000000000000000000000000000000000000000000000000000000cf
:0a5dd40000000000000000000000c5
:025dde000000c3
:035de00062003f1f
:035de300720080cb
:025de6001100aa
:035de80082000036
:025deb000103b2
:085ded000000000000000000ae
:085df5000000000000000000a6
:085dfd0000000000000000009e
:085e0500000000000000000095
:0261ed000000b0
:0361ef00820080ab
:0261f2000103a7
:0861f4000000000000000000a3
:0861fc0000000000000000009b
:08620400000000000000000092
:08620c0000000000000000008a
:0265f4000000a5
:0265f600110191
:0365f8008200001e
:0265fb0001039a
:0865fd00000000000000000096
:0866050000000000000000008d
:08660d00000000000000000085
:0866150000000000000000007d
:0269fd00000098
:0369ff0082008093
:026a020001038e
:086a040000000000000000008a
:086a0c00000000000000000082
:086a140000000000000000007a
:086a1c00000000000000000072
:026e040000008c
:026e0600110277
:036e080082000005
:026e0b00010381
:086e0d0000000000000000007d
:086e1500000000000000000075
:086e1d0000000000000000006d
:086e2500000000000000000065
:02720d0000007f
:03720f008200807a
:02721200010376
:08721400000000000000000072
:08721c0000000000000000006a
:08722400000000000000000062
:08722c0000000000000000005a
:02761400000074
:0276160011035e
:03761800820000ed
:02761b00010369
:08761d00000000000000000065
:0876250000000000000000005d
:08762d00000000000000000055
:0876350000000000000000004d
:027a1d00000067
:037a1f0082008062
:027a220001035e
:087a240000000000000000005a
:087a2c00000000000000000052
:087a340000000000000000004a
:087a3c00000000000000000042
:027e240000005c
:017e26002239
:027e27009310b6
:027e2900010650
:00000001FF
