:02000000ff00ff
:080002004c6174746963650030
:17000a00694345637562653220323031342e31322e32373035320077
:16002100506172743a2069434534304858314b2d545131343400fc
:1b003700446174653a204a756e20323420323031352031363a33353a34310073
:0200520000ffad
:040054007eaa997e69
:02005800510055
:02005a0001059e
:03005c00920020ef
:03005f0062014bf0
:0300620072009099
:0300650082000016
:02006800110085
:02006a00010192
:20006c00000000000000000000000000000000000000000000000000000000000000000074
:09008c000000000000000000006b
:2000950000000000000000000000000000000000000000000000000000000000000000004b
:0a00b5000000000000000000000041
:2000bf000000000000000000000000700000000000000000000000000000000000000000b1
:0900df00000000400000000000d8
:2000e8000000000000000000000000080000000000000000000000000006000000000000ea
:0a01080000000000000000000000ed
:200112000000000000000000000000000000000000000000000000000000000000000000cd
:09013200000000000000000000c4
:20013b000000000000000000000000000000000000000000000000000000000000000000a4
:0a015b00000000000000000000009a
:200165000000000000040000000000001000000000000040000000001000000000000040d6
:0901850000000000000000000071
:20018e00000000000000000000000000000000000000000000000000000000000000000051
:0a01ae00000000080000000000003f
:2001b80000000000000c00000000000030000000000000c00000000030000000000000c03b
:0901d8000000000000010000001d
:2001e1000000000000000000000000000000000000000000000000000000000000000000fe
:0a02010000000000000000000000f3
:20020b00000000000000000000000000000c000000000000000000000000000000000000c7
:09022b00000000000000000000ca
:2002340000000000000000000000000000004000000000000000000000000000000000006a
:0a02540000000000000000000000a0
:20025e00000000000000000000000000000000000000000000000000000000000000000080
:09027e0000000000000000000077
:20028700000000000000000000000000000000000000000000000000000000000000000057
:0a02a700000000000000000000004d
:2002b100000000000004000000000000100000000000004000000000100000000000004089
:0902d10000000000000100000023
:2002da00000000000000000000000000000000000000000000000000000000000000000004
:0a02fa0000000000000000000000fa
:200304000000000000000000000000000000000000000000000000000000000000000000d9
:09032400000000000000000000d0
:20032d00000020000000000000000000000000000040000000000000000000000000000050
:0a034d0000000000000000000000a6
:2003570000280000000000000000000000000000000000000000000000000000000000005e
:090377000000000000000000007d
:20038000000400000000000000000000000000000000000000000000000000000000000059
:0a03a0000000000000000000000053
:2003aa00300000000000000000000000000000000000000000000000000000000000000003
:0903ca000000000000000000002a
:2003d3000000200000000000000000000000000000000000000000000000000000000000ea
:0a03f3000000000000000000000000
:2003fd000003000000000000000000000000000000000000000000100000000000000000cd
:09041d00000000000000000000d6
:200426000000000000000000000000000000000000000000000000000000000000000000b6
:0a04460000000000000000000000ac
:2004500000000000000000000000000000000000000000000000000000000000000000008c
:0904700000000000000000000083
:20047900000020000000000000000000000000000000000000000000000000000000000043
:0a0499000000000000000000000059
:2004a300000000000000000000000000000000000000000000000000000000000000000039
:0904c30000000000000000000030
:2004cc00000000000000000000000000000000000000000000000000000000000000000010
:0a04ec000000000000000000000006
:2004f6000000000000000000000000000000000000000000000000000000000000000000e6
:09051600000000000000000000dc
:20051f000000000000000000000000000000000000000000000000000000000000000000bc
:0a053f0000000000000000000000b2
:20054900000000000000000000000000000000000000000000000000000000000000000092
:0905690000000000000000000089
:20057200000000000000000000000000000000000000000000000000000000000000000069
:0a059200000000000000000000005f
:20059c00000201000000000000000000000000000000000000000003afcf5000000000006b
:0905bc0000000000000000000036
:2005c500000020000000000000000000000000000000000000000000206005000000000071
:0a05e500000000000000000000000c
:2005ef000002000000000000000001c28000000000000000000002000eeb4020000000004c
:09060f00000001000000000000e1
:2006180000000000000000000000000040000000000000000000003c0000b4000000000092
:0a06380000000000000000000000b8
:200642000000000000000000000001c01dca7000000000000000020025c800200000000071
:090662000000000000000000008f
:20066b0000002000000000000000000003eaff0000000000000000040060010000010000fd
:0a068b000000000000000000000065
:200695000003000000073a00020000003feff0200000000000000940000000000000000078
:0906b5000000000e00000000002e
:2006be00000000000000f7000000000003e0bf00000000000000012e000000000000000054
:0a06de000000000000000000000012
:2006e800000000003000000000000000078010200000000000000000009600000000000075
:09070800000000000000000000e8
:2007110000002000008000000000000000200100000000000000000031dc9000000000006a
:0a07310000000000000000000000be
:20073b000000000000000000000000c00000000000000000000401e79680102000000000ac
:09075b0000000000800000000015
:200764000000000000000000000000023c000000000000000000a03c4150000000000000ca
:0a078400000000001000000000005b
:20078e000000001010800000000000038e0ff00010000000000002401da4002000000000e8
:0907ae0000000000000000000042
:2007b7000000000000190000000000003940a500000000000000001c02c00200000000000b
:0a07d7000000000000000000000018
:2007e1000000000000000000000001c20eea502000000000000000000000000000000000cd
:09080100000000000000000000ee
:20080a000000000000000000000000023ff0a40000000000000000000000000000000000f9
:0a082a0000000000000000000000c4
:2008340000000000000000000000016695e0a00000000000000000002d8ff000000000720a
:09085400c80400000000000000cf
:20085d000000200000000000000000344040500000400000000000002a4bef000000000fa4
:0a087d00e020000000000000000071
:2008870000020000000563d4000001632ee000200000000000a00a60778400203820001fe5
:0908a7001004000e000000000026
:2008b000000000000d0070014000001e01500100000000000008010431e0a0000284b00df9
:0a08d0007c40000000000000000062
:2008da000000000050052b60080003400584202000000000000000031dc074200000000096
:0908fa00000000000000000000f5
:20090300000000000f8f04360000042e01600200000000000000000c41c00a00402800f0f8
:0a09230000000000000000000000ca
:20092d0000030000800bbb44080001e2c7b07000000000000000e1c2a4e0500010000000c4
:09094d00000000000000000000a1
:200956000000000009007c30c000003438c90a0000000000000000006afd20000200000044
:0a0976000000000000000000000077
:20098000000000000015f3d4080005400ca5500000000000000801c335a04020000000002c
:0909a0000000000000000000004e
:2009a90000002000000ab43f880000422c400f00000000000000000241d0000000000000b9
:0a09c9000000000000000000000024
:2009d3000000000000b000000000000024c0002000000000000001e717eaa00010000000b7
:0909f300000000000000000000fb
:2009fc0000000000000800000000003c01d0cc0000000000000000024010aa00008000c0be
:0a0a1c0000000000000000000000d0
:200a26000000000801a838e40000014624ea012000000000000002e78000000000000800fc
:090a4600000000000000000000a7
:200a4f00000000000510128d800000023f501000002800000000001e40000000000000a08c
:0a0a6f00000000000000000000007d
:200a790000000000000000000000000024f000000000000000000147800000000000000081
:090a990000000000000000000054
:200aa20000000000010000000000003401cbeb0000000000000000144000000000000000f4
:0a0ac200000000000000000000002a
:200acc000000040050000002000000e3cceaa0000000000000000002a1e500080047803be9
:090aec007cc400001e02ee1d0096
:200af5000000204000800300008002027820aa10400000000000003440c0a000000200cf43
:0a0b1500fbc40000000007ae201032
:200b1f00000000000005a65a400001c03ea0a020000000000010000024a3c00000080e76ef
:090b3f00980000002028000000cd
:200b48000000000000000aa58840002e01601200000000000000000002dd1c100000f10f6a
:0a0b68006024000003c40000000038
:200b72000000000000a1265a00000367b5a05000000000000000020285c0500000050a1378
:090b9200c008000014384a3301c8
:200b9b0080000000001b03658000000401c00000000000000000002c40700008000009d72e
:0a0bbb006e5800000023bdbcc0000e
:200bc5000003000000a7703e0000021794a0202000000000000000000000000000010e5fbd
:090be5008d00800ea0001c3302fb
:200bee00000000000d100ec3c000001442508301000000000002000000000000000009bb49
:0a0c0e00001c400017c00103300075
:200c180000000000800f233004000003a5c050000000000000000403a1e5500000018f565b
:090c3800814080a00000000000d2
:200c4100000020000500b2ccc840000003c00000000000000000008000c0aa00000000a992
:0a0c6100c060000000000000000069
:200c6b000000000000137900480000400000000000000000000000471fe3402000001a7e14
:090c8b001400000080700000005c
:200c9400000000000008001000000002000000000000000000000026416004010000000357
:0a0cb40002bc00001406400000001e
:200cbe00000000000180683c0002020015a0000000000000000000025fc9d02000851a1b64
:090cde002c800000003c00000025
:200ce7000000000005000003c000002c0149410000000000000000006bc066000000008558
:0a0d0700f750000000068000000015
:200d11000000000010000000000001c2378e502000000000000001e79eee7020038f00da4a
:090d3100bc0080000002eb6c0024
:200d3a000000000000800000000000000060c000000000000000003e03f0e2000000b0072f
:0a0d5a0043444000000026ac900066
:200d640000010000000780020000014015b75000000000000000000014f12000000100530f
:090d84008880000014200000002a
:200d8d00000020000000080000800002016d4500004000000000003402e92e0800000085cf
:0a0dad00e510002000200000000007
:200db700000200000005a3c2000000000dc15200000000000000000044afe02000000e523d
:090dd7005bc00000203e780f0013
:200de0000000000000000003c000000001ecd50000000000000000002ed0ff010000f1037c
:0a0e00006580400001c7b60f000036
:200e0a00000000000005a65a00000140000000000000000000000002400000000009011323
:090e2a004b8000000c30680c0242
:200e33000000000000000b65800000022c00000000000000000000007c0000000000189954
:0a0e5300238800000003f70fc00021
:200e5d0000030000181323c20000000000000000000000000000000024e24000000000ff1d
:090e7d00038080000003eaa400d8
:200e8600000000000008003c0000003400000000000000000002000003dca4000000300f10
:0a0ea600401400200003fe81a000ac
:200eb00000000000d00023c000000140000000000000000000000047c0000000000d805b3f
:090ed0001b00000020675a3300ea
:200ed90000002000050a003c000006022c00000000000000000000023c0000000000b00963
:0a0ef9002b180004214327dcc00081
:200f03000000000000137628000000c05fc831000000000000000000000000000000187f6e
:090f2300bfc080800000d8a302c9
:200f2c0000000000050b3bae8000003631ec6100000000000000000000000000000000e791
:0a0f4c0080c000040000000a30001d
:200f560000000000500fbaa8000002c325af5000000000000000020300000000000801ba09
:090f76009400800000004f3000df
:200f7f0000000000000a3785c000004e42c00500002000000000002c000000000000b0abd0
:0a0f9f00822c0000000215fc000087
:200fa90000000000001775a800000203bcf5a0080000000000000000400000000005887b4e
:090fc9003e800000003d580202c8
:200fd20000000000090a039a8000002c00ee8520000000000000000038000000000001f0e7
:0a0ff20083e800000007ef0fe000a5
:200ffc000000000010a30002000000000c00080000000000000000602de0808000001f0080
:09101c00000000000005ea480094
:2010250000002000001008000080000000000002000000000000000203fe0000000000e00e
:0a104500000000000003e5f21000b7
:20104f00000000000005a65a00000000148968000000000000a000000cf0200000000e5a53
:09106f00c200000000025c050053
:20107800000000000d0002e580000000002a96000000000000080000007a04000000010598
:0a109800240001100000370fa00033
:2010a200000000005185a25a000000061c89680000000000000000003dc00028000f8a9fec
:0910c20010c000010006dc4d0025
:2010cb0000000000008b02a580000034002c9600000000000000000001c01d000000710b03
:0a10eb00fb0c00000803afcb20004f
:2010f500000300005015603e0000000014d0f800000000000000000040000000000f005a50
:091115008080800000045c55009c
:20111e00000000000d880ac3c00000003c2e0f00000000000000002c2c0000000000580561
:0a113e0000000000000383055008c4
:201148000000000000c12154000402e01e8550000000000000000006e007e00000000100aa
:09116800000000002068000000f6
:2011710000002000001008154000002e34205508000000000000000c2dcdbd00000000a08f
:0a1191000000000001400000000013
:20119b00000000003007bf04000408000ed80100000000000000016000000000001008329c
:0911bb009c4000008079c9c001cc
:2011c40000000000008017e04800210c01db000000000000000000000000000000020087ba
:0a11e400fcac0000140237e3000029
:2011ee000000000001e0703c000000000000000000000000000002429faff404000d009627
:09120e008400000000380000001b
:201217000000000000100003c000002c38000000000000000000001c01dcfb000000509ba1
:0a123700a4000400600000000000a5
:2012410000000000780000000000000040000000000000000000004780000000000000000e
:0912610000000000000000000084
:20126a0000000000008c00000000001c300000000000000000000004680000000000000020
:0a128a000000000003c00000000097
:201294000000000000a700020002400000a0f000000000000000000000000000000008d2e5
:0912b400080000000038000000f1
:2012bd0000002000001008000080400000100f00014000000000000000000000000831cbb5
:0a12dd00709400088804000000006f
:2012e7000000000000a3a65a000002000000000000000000000000001ed002800009008643
:09130700970280001c021a0a0082
:201310000000000000100a658000002c000000000000000000000000017c01008000d8c1fb
:0a13300042b000000020050050004c
:20133a00000000005005a25a000001c040e0a200000000000000020000000000000d00961a
:09135a0017c000001c0000000097
:2013630000000000008b02a580000a023bc00501000000000000003c0000000000287807c8
:0a138300b36c00040020000000001d
:20138d0000030000000ba33200000000000000000000000000000000000000000007995766
:0913ad003142c04096395a0a0091
:2013b600000000000d007accc000000000000000000000000000000000000000000030b024
:0a13d6004314200210240000a000c0
:2013e000000000000001215400020403800000000000000000181000000000000008008638
:0914000082800000000258202245
:20140900000020000000081540004000000000000020000000010000280000000002f001ca
:0a14290040140000400036000000ef
:2014330000000000001000f0080001c00000000000000000000001600000000000070192d5
:09145300044080000000000000cc
:20145c00000000000008000f0000000000000000000000000000000000000000000000e772
:0a147c004220000000000000000004
:20148600000000000000683c000020c70ed5a000000000000000000000000000200000be5a
:0914a600e9400000000000000014
:2014af0000000000000d0003c000000e41d885000000000000000000000000000100000997
:0a14cf002a84000000000000000065
:2014d9000000000080000000000000001cab5020000000000000000700000000000100072d
:0914f900a000000000000000004a
:2015020000000000010000000000000001e0ff010000000000000000400000000000f809a6
:0a1522002900000080000000000016
:20152c000000000070e30002000000029c000800000000000010000016000800000008006e
:09154c0000000000000000000096
:201555000000200000900800008004004000000200000000000100000000000200000100f4
:0a157500000000000000000000006c
:20157f00000000000003a65a00000060169968000000000000000000169969000000003f7b
:09159f0081400a00010000ff393f
:2015a8000000000000000b2580000000000896080000000000000000002c96000000000902
:0a15c8007a0400800040000ff000dc
:2015d200000000000007a65a0000014016896800000000000000020014896800000000970c
:0915f2004280000000000000002e
:2015fb000000000000000aa58000003e2c0a9608000000000000001c000d961000000007b9
:0a161b00b010000000000000000005
:2016250000030000580ba33200040140368cc8800000000000000002969cc800000000001f
:0916450000000400060000000092
:20164e000000000000807a0cc000803601cb3300000000000000002441ee3310000000006b
:0a166e000000008001c00000000031
:201678000000040000c12154000000000485500000000000000008001e8552000000000042
:0916980000000000000000000049
:2016a100000000400010081540000000382055080000000000000000302055000000000022
:0a16c100000000000000000000001f
:2016cb00000000001810783c0000000000c0f000000000000000004000000000000700002c
:0916eb00000000000002fa504169
:2016f40000000000000a0003c000000000100f000000000000000002000000000030500068
:0a1714000000000003c0140aa290b8
:20171e0000000000000000000002000000a0f0000000000000000000000000000000000019
:09173e0000000000000200a510eb
:2017470008000000000000000000441c00000f00000000000000003c00000000000090003f
:0a1767000000000000000405a000cf
:2017710000000400b0100168000002000000000000000000000000000000000000011e000a
:091791000000000e000000000041
:20179a0010000040018eb0294000000400000000000000000000000c3000000000000900ee
:0a17ba000000000000000000000025
:0217c400000023
:0217c60011010f
:0217c80001011d
:2017ca000000000000000000000000000000000000000000000000000000000000000000ff
:0917ea00000000000000000000f6
:2017f3000000000000000000000000000000000000000000000000000000000000000000d6
:0a18130000000000000000000000cb
:20181d000000000000000000000000000000000000000000000000000000000000000000ab
:09183d00000000000000000000a2
:20184600000000000000000000000000000000000000000000000000000000000000000082
:0a1866000000000000000000000078
:20187000000000000000000000000000000000000000000000000000000000000000000058
:091890000000000000000000004f
:2018990000000000000000000000000000000000000000000000000000000000000000002f
:0a18b9000000000000000000000025
:2018c300000000000004000000000000100000000000004000000000100000000000004061
:0918e300000000000001000000fb
:2018ec000000000000000000000000000000000000000000000000000000000000000000dc
:0a190c0000000000000000000000d1
:2019160000000000000c00000000000030000000000000c00000000030000000000000c0c5
:09193600000000000003000000a5
:20193f00000000000000000000000000000000000000000000000000000000000000000088
:0a195f00000000000000000000007e
:2019690000000000000000000000000000000000000000000000000000000000000000005e
:0919890000000000000000000055
:20199200000000000000000000000000000000000000000000000000000000000000000035
:0a19b200000000000000000000002b
:2019bc0000000000000000000000000000000000000000000000000000000000000000000b
:0919dc0000000000000000000002
:2019e5000000000000000000000000000000000000000000000000000000000000000000e2
:0a1a050000000000000000000000d7
:201a0f00000000000004000000000000100000000000004000000000100000000000004013
:091a2f00000000000001000000ad
:201a380000000000000000000000000000000000000000000000000000000000000000008e
:0a1a58000000000000000000000084
:201a6200000000000000000000000000000000000000000000000000000000000000000064
:091a82000000000000000000005b
:201a8b0000000000000000000000000000000000000000000000000000000000000000003b
:0a1aab000000000000000000000031
:201ab500000000000000000000000000000000000000000000000000000000000000000011
:091ad50000000000000000000008
:201ade000000000000000000000000000000000000000000000000000000000000000000e8
:0a1afe0000000000000000000000de
:201b08000000000000000000000000000000000000000000000000000000000000000000bd
:091b2800000000000000000000b4
:201b3100000000000000000000000000000000000000000000000000000000000000000094
:0a1b5100000000000000000000008a
:201b5b00000200000000000000000000000000000000000000000000000000000000000068
:091b7b0000000000000000000061
:201b8400000000000000000000000000000000000000000000000000000000000000000041
:0a1ba4000000000000000000000037
:201bae00000000000000000000000000000000000000000000000000000000000000000017
:091bce000000000000000000000e
:201bd7000000300000000000000000000000000000000000000000000000000000000000be
:0a1bf70000000000000000000000e4
:201c01000000000000000000000000000000000000000000000000000000000000000000c3
:091c2100000000000000000000ba
:201c2a0000000000000000000000000000000000000000000000000000000000000000009a
:0a1c4a000000000000000000000090
:201c5400000000000000000000000000000000000000000000000000000000000000000070
:091c740000000000000000000067
:201c7d00000000000000000000000000000000000000000000000000000000000000000047
:0a1c9d00000000000000000000003d
:201ca70000020000000000000000000000000000000000000000000000000000000000001b
:091cc70000000000000000000014
:201cd0000000000000000000000000000000000000000000000000000000000000000000f4
:0a1cf00000000000000000000000ea
:201cfa000000000000000000000000000000000000000000000000000000000000000000ca
:091d1a00000000000000000000c0
:201d23000000000000000000000000000000000000000000000000000000000000000000a0
:0a1d43000000000000000000000096
:201d4d00000000000000000000000000000000000000000000000000000000000000000076
:091d6d000000000000000000006d
:201d760000000000000000000000000000000000000000000000000000000000000000004d
:0a1d96000000000000000000000043
:201da000000000000000000000000000000000000000000000000000000000000000000023
:091dc0000000000000000000001a
:201dc9000000000000000000000000000000000000000000000000000000000000000000fa
:0a1de90000000000000000000000f0
:201df3000002000000000000000000000000000000000000000000000000000000000000ce
:091e1300000000000000000000c6
:201e1c000000000000000000000000000000000000000000000000000000000000000000a6
:0a1e3c00000000000000000000009c
:201e460000000000000000000000000000000000000000000000000000000000000000007c
:091e660000000000000000000073
:201e6f00000030000000000000000000000000000000000000000000000000000000000023
:0a1e8f000000000000000000000049
:201e9900000000000000000000000000000000000000000000000000000000000000000029
:091eb90000000000000000000020
:201ec200000000000000000000000000000000000000000000000000000000000000000000
:0a1ee20000000000000000000000f6
:201eec000000000000000000000000000000000000000000000000000000000000000000d6
:091f0c00000000000000000000cc
:201f15000000000000000000000000000000000000000000000000000000000000000000ac
:0a1f350000000000000000000000a2
:201f3f0000020000000000000000000000000000040000000000000000000000000000007c
:091f5f0000000000000000000079
:201f6800000000000000000000000000000000000000000000000000000000000000000059
:0a1f8800000000000000000000004f
:201f920000000000000000000000000000000000000000000000000000000000000000002f
:091fb20000000000000000000026
:201fbb00000000000000000000000000000000000000000000000000000000000000000006
:0a1fdb0000000000000000000000fc
:201fe5000000000000000000000000000000000000000000000000000000000000000000dc
:09200500000000000000000000d2
:20200e000000000000000000000000000000000000000000000000000000000000000000b2
:0a202e0000000000000000000000a8
:20203800000000000000000000000000000000000000000000000000000000000000000088
:092058000000000000000000007f
:2020610000000000000000000000000000000000000000000000000000000000000000005f
:0a2081000000000000000000000055
:20208b00000200000000000000000000000000000000000000000000000000000000000033
:0920ab000000000000000000002c
:2020b40000000000000000000000000000000000000000000000000000000000000000000c
:0a20d4000000000000000000000002
:2020de000000000000000000000000000000000000000000000000000000000000000000e2
:0920fe00000000000000000000d9
:20210700000030000000000000000000000000000000000000000000000000000000000088
:0a21270000000000000000000000ae
:2021310000000000000000000000000000000000000000000000000000000000000000008e
:0921510000000000000000000085
:20215a00000000000000000000000000000000000000000000000000000000000000000065
:0a217a00000000000000000000005b
:2021840000000000000000000000000000000000000000000000000000000000000000003b
:0921a40000000000000000000032
:2021ad00000000000000000000000000000000000000000000000000000000000000000012
:0a21cd000000000000000000000008
:2021d7000002000000000000000000000000000000000000000000000000000000000000e6
:0921f700000000000000000000df
:202200000000000000000000000000000000000000000000000000000000000000000000be
:0a22200000000000000000000000b4
:20222a00000000000000003c00000000000000000000000000000000000000000000000058
:09224a000000000000000000008b
:202253000000000000180283c000000000000000000000000000000000000000000000000e
:0a2273000000000000000000000061
:20227d000000008000050294000000000000000000000000000000024000f00000000000f4
:09229d0000000000000000000038
:2022a600000000100000001680000000000000000000000000000000000c0f000000000057
:0a22c600000000000000000000000e
:2022d0000000000000c000000000000000000000000000000000000000000000000000002e
:0922f000000000000000000000e5
:2022f9000000000000000000000000000000000000000000000000000000000000000000c5
:0a23190000000000000000000000ba
:2023230000020000000003c000000020000f020000000000000001c00000000000000000e3
:0923430000000000000000000091
:20234c00000000000000023c000000060008f000000000000000002600000000000000000f
:0a236c000000000000000000000067
:2023760000000000008003c0000003c0000f00100000000000000000000000000000000022
:092396000000000000000000003e
:20239f00000030000001523c200000200008f08000000000000000000000000000000000a7
:0a23bf000000000000000000000014
:2023c900000000005000b6580000000000896010000000000000e0000000000000000000bd
:0923e900000000000000000000eb
:2023f2000000000005005a65a00000000169968000000000000000000000000000000000e7
:0a24120000000000000000000000c0
:20241c00000000000000803c000003c00000f10000000000000000000005500000000000db
:09243c0000000000000000000097
:202445000000000000007a3c200000200068f080000000000000000000c85500000000008c
:0a246500000000000000000000006d
:20246f000002000000000000080000000000002004000000000000000200002000000000fd
:09248f0000000000000000000044
:2024980000000000000050002000000000c00080000000000000000001c000800000000033
:0a24b800000000000000000000001a
:2024c2000000000000800000000000440000f0000000000000000040000000000000000006
:0924e200000000000000000000f1
:2024eb00000000000000000000000020601c0f000000000000000020000000000000000006
:0a250b0000000000000000000000c6
:20251500000000000800000000000026c100f00000000000000000040100f00000000000d2
:09253500000000000000dc810040
:20253e00000000000300000000000014281c0f000000000000000000381c0f0000000000b0
:0a255e000000000001e036aa0000b2
:202568000000000000000000000003420005a00000000000000000000000f0000100000078
:0925880000000000262010d1081b
:2025910000000000000000000000000064405a00000000000000001e780c0f00000000007b
:0a25b1000000000003c045cd10201b
:2025bb000002000004000000000200003ea3320000000000000001e03c0f00800000000039
:0925db00000000401440ec8a00ed
:2025e40000000000000000000000400000e8cc01000000000000003c00480f00000000004f
:0a260400000000080203b5ae50000c
:20260e000000000000000000002000001ef3301000000000000000021ec330000000000028
:09262e000000000014000000008f
:2026370000003000000000000000000002e8cc8000000000000000000668cc810000000062
:0a2657000000000000000000000079
:2026610000000000000000000000000002e96010000000000000e00000a960000000000015
:09268100000000003c38e0cb0829
:20268a0000000000000000000000401600e89680000000000000001c004896810000000061
:0a26aa000000000000006ca460a016
:2026b40000000000000002a8a4000000008961000000000000000002c2b9600000000000f1
:0926d4000000000000014caf0001
:2026dd00000000000000122a8000000600e99680000000000000000000699681000000009c
:0a26fd000000000000002ef1800034
:20270700000200009000ba589400014000f0002000000000000000200000002000000000e9
:0927270000000000240000000085
:202730000000000008007a25a000042000010080000000000000001400e000800000000029
:0a275000000000000000000000007f
:20275a00000000005000803c000000002ca6900000000000000000440100f00000010004b7
:09277a0003c000000402c0a50028
:2027830000000000081a1a3c24600000020196400000000000000020781e0f00000081809b
:0a27a300303c000002002005a000f9
:2027ad000000000000d03658040000401693c08000000000000001c00000f00000000900c7
:0927cd0003c00000000000000040
:2027d6000000000000001a25a420002660fa1c00000000000000002000180f0000000010ed
:0a27f600283c000000000000000075
:20280000000000000000003c8500000015b0008000000000000000200003c00000000000cf
:092820000f0000000040103c0014
:202829000000000000001a3c20200000636e1000000000000000001c00003c0200000000be
:0a28490000f00800000380c3c02067
:202853000002000000d0803c020004000000a0800000000000040020000550000000090827
:09287300154a0000002020552840
:20287c00000000000000123c24300000007a0a60000000000000aa1c01c8550000000011c1
:0a289c00a1544000000044855000e4
:2028a600000000000000be58020000402c90000000000000000000221cc330000000007a53
:0928c6000cc000001429cb330002
:2028cf000000300000001225a8100034034e400000000000000000140768cc80000001af86
:0a28ef00a73200000360768cc800d9
:2028f900000000000000003c0200000280000000000000000000000000a960000003100ad9
:09291900e580000000280a960088
:20292200000000000000123c2000009400000000000000000000001c00e89680000001c7b1
:0a294200225a000011605689680057
:20294c00000000009890803c0280002004005000000000000000000000b960000000900ade
:09296c002580000000000b96001c
:202975000000000009817a3c201a000e03c85060000000000000000c01699680000039c5b5
:0a299500a25a000000001699680025
:20299f000002000009900000080000028000f040040000000000000002000020038000001a
:0929bf000000800000002000026d
:2029c80000000000019978002000040029c8f0c100000000000000003040008000007005b2
:0a29e8000002000000068e00080047
:2029f200000000000000403c000000400200f00000000000000002440de01000000d8f0038
:092a1200000000000401dde208ef
:202a1b000000000000000603c400002061e8f0c1000000000000000078ffd5000000501008
:0a2a3b0000000000020020cd100092
:202a45000000000000e00000000004024200f08000000000000000020c0a500800008b00de
:092a6500000000008000000000e8
:202a6e000000000100000000000000060568f0c8000000000000000006005a00000050006c
:0a2a8e00000000000400000000003a
:202a98000000000000097f7c010000000200f00000000000000001c0000000000000000066
:092ab8000f0000000000000f00f7
:202ac100000000000000d606400000000048f0d080000000000000206000000000000000d1
:0a2ae10000f0080000600180f00022
:202aeb000002040000ebe998000000000000f08000000000000000200000000000001008b1
:092b0b00154000000034205508bb
:202b14000000004000005e0dc040000001e8f0c0800000000000001e00000000000000a31c
:0a2b3400215400000002c485500087
:202b3e000000000000b00000000000023e00500000000000000001400db0c00000010c5319
:092b5e00ccc000003441e8330052
:202b6700000030000000000000000000054850c9000000000000001e00fe1c000000800ff1
:0a2b8700a33200000002a49cc80065
:202b91000000000008000000000000020200f00000000000000000e2c000f0000300000390
:092bb100a580000002000a960054
:202bba000000000087000000000000006548f0c1000000000000001c641a0f000000000766
:0a2bda00a25a0000014016896800ad
:202be4000000000001b97e58808003440000f00000000000000000001408000000000002ec
:092c0400e580000036002c96006a
:202c0d0000000000000ad60ac00a000029c8f0c00000000000000000015a000a00000007e6
:0a2c2d00a65a0000014396996800c2
:202c3700000200000000000000000002c280000000000000001000003705000000200008c3
:092c570000008000006c20000266
:202c600000000000800000000000000004610080000000000000000000ee000000010007f9
:0a2c80008002000000028600080038
:202c8a000000000050000000000000400100f00000000000000000000000f000000108d0e0
:092caa0003c0000000000000005e
:202cb30000000000000000000000002038180f00000000000000001c001e0f0000808180b8
:0a2cd300603c00000000000000005b
:202cdd000000000000000000000a04000000000000000000000003c3c000f000000000044f
:092cfd0003c001600034100f0057
:202d06000000000000000000000000400000000000000000000000207c0c0f0000000000b6
:0a2d2600783c0018006040e0f00067
:202d30000000000010a00000000000000003c00000000000000001400000f00000000000df
:092d50000000000000000000007a
:202d590000000000000000000000080060003c020000000000000020201c0f200000000029
:0a2d79000000000020000000000030
:202d8300000200000000000000080000020550000000000000000020000f00040000100884
:092da30015440000000020550851
:202dac0000000000800000000000000000485500000000000000001e0008f000000001e1f2
:0a2dcc00215400000003848550002c
:202dd6000040000000000000000000201e833000000000000000000636e330040000887a57
:092df600ccc4000034200b0000e5
:202dff000003b00000000000000000160248cc8000000000000000002d68cc800000501f05
:0a2e1f00a332000000005c00080070
:202e290020000000000334004100000000a960000000000000000002c2f9600400000b02ba
:092e490025840000022c0a00009f
:202e520003000001200097c10400000000699680000000000000000000e896800000000162
:0a2e7200265a000015401600080063
:202e7c00000000000000000000000023c2d96000000000000000000002b96004000d0002ea
:092e9c00e580000034000b0f007a
:202ea50000000000000000000000001c00499680000000000000000001699680000000050d
:0a2ec500a65a400000001d90f8001e
:202ecf00000200000800000000000027c0f000200400000000000000020000200000900824
:092eef0000008080004020000278
:202ef80000000000010000000000001c38010080000000000000000001c00080000050a3b0
:0a2f18000002000400028c00080013
:022f22000000ad
:022f2400110298
:022f26000101a7
:202f2800000000000000000000000000000000000000000000000000000000400000000049
:092f48000001000000000000007f
:202f5100000000000000000000000000000000000000000000000000000000000000000060
:0a2f71000000000000000000000056
:202f7b000000000000000000000000000000000000000000000000000000008000000000b6
:092f9b00e002000000000000004b
:202fa40000000000000000000000000000000000000000000000000000000000000000000d
:0a2fc4000100000000000000000002
:202fce00000000000000000000000000000000000000000000000010000000400000c000d3
:092fee00000100000000000000d9
:202ff7000000000000000000000000000000000000000000000000020000000000000800b0
:0a30170000000000000000000000af
:20302100000000000008000000000000200000000008000000000000207800000000008047
:0930410000000000000200000084
:20304a000000000000000000000000000000000000000000000000000007800000000000df
:0a306a00000000000000000000005c
:2030740000000000000c00000000000030000000000c00000000000030000000000000c004
:0930940000000000000300000030
:20309d00000000000000000000000000000000000000000000000000000000000000000013
:0a30bd000000000000000000000009
:2030c7000000000000000000000000000000000000000000000000200000000000000000c9
:0930e700000000000000000000e0
:2030f0000000000000000000000000000000000000000000000000010000000400000000bb
:0a31100000000000000000000000b5
:20311a00000000000000000000000000000000000000000000000000000000000000000095
:09313a000000000000000000008c
:20314300000000000000000000000000000000000000000000000000000000080000000064
:0a3163000000000000000000000062
:20316d00000000000008000000000000200000000008000000000000200000000000008072
:09318d0000000000000200000037
:20319600000000000000000000000000000000000000000000000000000000040000000015
:0a31b600000000000000000000000f
:2031c0000000000000000000000000000000000000000000000000000000000000000000ef
:0931e000000000000000000000e6
:2031e90000002000000000000000000000000000000000000800000000000000000000009e
:0a32090000000000000000000000bb
:2032130000000000000000000000000000000000000000000000000000000000000000009b
:0932330000000000000000000092
:20323c00000000000000000000000000000000000000000000000000000000000000000072
:0a325c000000000000000000000068
:20326600000000000000000000000000000000000000000000000000000000000000000048
:093286000000000000000000003f
:20328f0000000000000000000000000000000000000000000000000000000000000000001f
:0a32af000000000000000000000015
:2032b9000003000000000000000000000000000000000000000000000000000000000000f2
:0932d900000000000000000000ec
:2032e2000000000000000000000000000000000000000000000000000000000000000000cc
:0a33020000000000000000000000c1
:20330c000000000000000000000000000000000000000000000000000000000000000000a1
:09332c0000000000000000000098
:20333500000020000000000000000000000000000000000000000000000000000000000058
:0a335500000000000000000000006e
:20335f0000000000000000000000000000000000000000000000000000000000000000004e
:09337f0000000000000000000045
:20338800000000000000000000000000000000000000000000000000000000000000000025
:0a33a800000000000000000000001b
:2033b2000000000000000000000000000000000000000000000000000000000000000000fb
:0933d200000000000000000000f2
:2033db000000000000000000000000000000000000000000000000000000000000000000d2
:0a33fb0000000000000000000000c8
:203405000000000000000000000000000000000000000000000000000000000000000000a7
:093425000000000000000000009e
:20342e0000000000000000000000000000000000000000000000000000000000000000007e
:0a344e000000000000000000000074
:20345800000000000000000000000000000000000000000000000000000000000000000054
:093478000000000000000000004b
:2034810000002000000000000000000000000000000000000000000000000000000000000b
:0a34a1000000000000000000000021
:2034ab00000000000000000000000000000000000000000000000000000000000000000001
:0934cb00000000000000000000f8
:2034d4000000000000000000000000000000000000000000000000000000000000000000d8
:0a34f40000000000000000000000ce
:2034fe0000000000000000000000000000000000000000000000000000008000000000002e
:09351e00000000000000000000a4
:20352700000000000000000000000000000000000000000000000000000004000000000080
:0a354700000000000000000000007a
:20355100000300000000000000000000000000000000000000000000000000000000000057
:0935710000000000000000000051
:20357a00000000000000000000000000000000000000000000000000000000000000000031
:0a359a000000000000000000000027
:2035a400000000000000000000000000000000000000000000000000000000000000000007
:0935c400000000000000000000fe
:2035cd000000200000000000000000000000000000000000000000000000000000000000be
:0a35ed0000000000000000000000d4
:2035f7000000000000000000000000000000000000000000000000000000000000000000b4
:09361700000000000000000000aa
:2036200000000000000000000000000000000000000000000000000000000000000000008a
:0a3640000000000000000000000080
:20364a00000000000000000000000000000000000000000000000000000000000000000060
:09366a0000000000000000000057
:20367300000000000000000000000000000000000000000000000000000000000000000037
:0a369300000000000000000000002d
:20369d0000000000000000000000000000000000000000000000000000000000000000000d
:0936bd0000000000000000000004
:2036c6000000000000000000000000000000000000000000000000000000000000000000e4
:0a36e60000000000000000000000da
:2036f0000000000000000000000000000000000000000000000000000000000000000000ba
:09371000000000000000000000b0
:20371900000020000000000000000000000000000000000008000000000000000000000068
:0a3739000000000000000000000086
:203743000000000000000000000000000000000000000000000000000000408000000000a6
:093763000000000000000000025b
:20376c0000000000000000000000000000000000000000000000000000000210000000002b
:0a378c000000000000000000000033
:20379600000000000000000000000000000000000000000000000000000000000000000013
:0937b6000000000000000000000a
:2037bf000000000000000000000000000000000000000000000000000000000000000000ea
:0a37df0000000000000000000000e0
:2037e9000003000000000000000000000000000000000000000000000000000000000000bd
:09380900000000000000000000b6
:20381200000000000000000000000000000000000000000000000000000000000000000096
:0a383200000000000000000000008c
:20383c0000000000000000000000000000000000000000000000000000000000000000006c
:09385c0000000000000000000063
:20386500000020000000000000000000000000000000000000000000000000000000000023
:0a3885000000000000000000000039
:20388f00000000000000000000000000000000000000000000000000000000000000000019
:0938af0000000000000000000010
:2038b8000000000000000000000000000000000000000000000000000000000000000000f0
:0a38d80000000000000000000000e6
:2038e2000000000000000000000000000000000000000000000000000000000000000000c6
:09390200000000000000000000bc
:20390b0000000000000000000000000000000000000000000000000000000000000000009c
:0a392b000000000000000000000092
:20393500000000000000000000000000000000000000000000000000000000000000000072
:0939550000000000000000000069
:20395e00000000000000000000000000000000000000000000000000000000000000000049
:0a397e00000000000000000000003f
:2039880000000000000000000000000000000000000000000000000000000000000000001f
:0939a80000000002a9ec00e0009f
:2039b1000000200000000000000000000000000000000000000000000000000000000000d6
:0a39d100000500002a82000000003b
:2039db0000000000000000000000000000001c800000000000000000080000000000000028
:0939fb0000000000874e000000ee
:203a040000000000000000000000000000000010000000000000000000b0000000000000e2
:0a3a24000000000016b5800000004d
:203a2e00000000000000000000000000000000000000000000000000000000000000000078
:093a4e000000010118de18f0006f
:203a5700000000000000000000000000000000000000000000000000000001c0000000008e
:0a3a7700000000001d82b0180000de
:203a81000003000000000000000000000000000000000000000000000000000000a073c04f
:093aa10000020002134e000000b7
:203aaa0000000000000000000000000000000000000000000000000000000000000af0748e
:0a3aca000000400004b5af0000004a
:203ad400000000000000000000000000000000000000000000000000000e000000000000c4
:093af40000000000000051e00098
:203afd00000020000000000000000000000000000000000000000000000000000000000089
:0a3b1d00000000000000000000009e
:203b2700000000000000000000000000000000800000000000003c1ce3800c000000000433
:093b470000000000000000000075
:203b500000000000000000000000000000000014000000000000003c2e08000000000000cf
:0a3b7000200000000000000000002b
:203b7a00000000000000000000000000000000000000000000901f0ed70e00000000000485
:093b9a00200000000000580000aa
:203ba3000000000000000000000000000000000000000000000061902901f00000000000f7
:0a3bc30024000000000000000000d4
:203bcd00000000000000000000000000000000000000000000000000000000800000000058
:093bed000000000000008000004f
:203bf60000000000000000000000000000000000000000000000000000000010000000009f
:0a3c16000000000000000b08000091
:203c2000000000000000000000000000900a00000000000020002a9de01e00000000000005
:093c400078000000cedc780000e1
:203c49000000200000000000000003fc0d01000000000000080002a8200100040000000057
:0a3c690000000000333ef3000000ed
:203c7300000000000000000000102216b01e00000000000000002a8ce000080000c3b65ca8
:093c9300000000000000500001d7
:203c9c004000000000000000000022ec3800000000000000000022a800000000000c0d247b
:0a3cbc0023c0000000000080000497
:203cc600000000000000000000003c1d818a000000000000000000000d80010000000006e6
:093ce60000000002846880100057
:203cef0000000000000000000000003c0d010000000000000000000000f000000000000279
:0a3d0f0040000000292f910b100066
:203d1900000300000000000300101a4ea39e000000000000000023ae000000000069986099
:093d390000000000944c70000031
:203d42000000000000000000000001a42008b0000000000000000135ef00000109896d2798
:0a3d6200c00000001617900c0010be
:203d6c00000000000000000000001ca69800000000000000001024948001000000c01bc0f9
:093d8c0000000143316eb804008f
:203d9500000020000000000000000392cbb0000000000000000002182f00e00000003fa0d6
:0a3db500028000003a01ff00000048
:203dbf00000000000000000000341e0da18000000000000000102914e800000044ea72800f
:093ddf0000600013024d51a1c067
:203de8000000000000000000000020782e70000000000000000021903e3000000081506035
:0a3e08000003000000ff900d0140d0
:203e1200000000000000000000143317c0000000000000000002281dff89000000aa578e14
:093e320060000113a16a580000b0
:203e3b000000000000000000000060cc1b00f000000000000000017c2d318000000aa080ab
:0a3e5b00228020002a81ff000000f1
:203e650000000000000000000000330fb0004000000000000000000000000000040c764045
:093e8500000000096cfbd80800e4
:203e8e000000000000000000000002947800020000000000000000000000e0000003f7a486
:0a3eae00024000803fedd5006000e7
:203eb8000000000000000000000000000d00a0000000000000001980800a0000000000001a
:093ed8000000000095cb18000069
:203ee10000002000000000000000000000380400000000000002230f49d100000000000017
:0a3f0100000000001616d08000003a
:203f0b0000000000000000000000331dd00a00000000000000000000000a000000a7774004
:093f2b0000000002807e8000000d
:203f3400000000000000000000000393f8010000000000000000000000d10000000fff30cf
:0a3f54000000000017c3db00a0000e
:203f5e00000000000000000000000000000000000000000000401c568d000000408b3b40be
:093f7e000000010259ca01800093
:203f87000000000000000000000000000000000000000000000803c349580004000db0707a
:0a3fa700000000002582000c00005d
:203fb100000300000000000000000cddd00020000000000000000144a500408240df3f808a
:093fd10000400100087e00000020
:203fda00000000000000000000000267f800000000000000000000143008ba10000a40f80e
:0a3ffa00000000002003900000000a
:2040040000000000000000000014258c80180000000000000091355e9000088000000014ef
:0940240000000000000070b00073
:20402d000000200000000000000a02581000000000000000000000a82b00b000000000005c
:0a404d00000000000000009e0000cb
:204057000000000000000000000000000000000000000000000004c7a0005c000000000082
:094077002800000001ec00001417
:2040800000000000000000000000000000f0000400000000000011a37e00020000000001f7
:0a40a000428000041400c7000080f5
:2040aa000000000000000000000000000f0000000000000000002bd7900000000000001441
:0940ca00280000000000000000c5
:2040d3000000000000000000000000000078000000000000000003fc0900e000000000016c
:0a40f3004240000000000900000038
:2040fd00000000000000000000200cce80000000000000040090254da800588000503b9484
:09411d0000000002807e70e00049
:204126000000000000000000000003327c000000000000000000025410100a10000000fc3c
:0a4146000000000017c3d090000035
:204150000000000000000000000024ddc30000000000000000047fc0e5800000000533802b
:094170000400040a8bec81b0008c
:20417900000020000000000000000272db0000000000000008000001ce9000000000007cd4
:0a41990002800023161d87080000b5
:2041a300000000000000000000001a4de00c0000000000000006c3c4a000001440b53fc074
:0941c30004000000000000b0013e
:2041cc0040000000000000000000023a7e00000000000000000063c0000000006844a03c2e
:0a41ec000280000000000f1e010415
:2041f60000000000000000000000000003000000000000000006c284a9980008008073809e
:09421600040000029a6a00a010e5
:20421f000000000000000000000000000000000000000000000262801f10000080000f706d
:0a423f0002000000002dad1d00007c
:20424900000300000000000000000decf8000000000000000006c284a818000044001a00f7
:094269000000010004e90005c099
:20427200000000000000000000004311cb10000000000000000222801910000001001030ef
:0a429200000000022002800020005e
:20429c00000000000000000000000b1dc8010000000000000024c3c5e000000000fd7756bb
:0942bc0068000000014958a0004f
:2042c500000020000000000000000082db70800000000000000023c000000000000017b0c2
:0a42e500028000000140901000006c
:2042ef0000000000000000000010188cf7800000000000000024c3c5a000000000efbfd6b4
:09430f006c000002a858800000b7
:204318000000000000000000000041b80b00000000000000000023c000000000000ffb3c58
:0a433800028000402a82010000000c
:2043420000000000000000000000294f80180000000000000024c285a7880c00c8915736bf
:094362006800000169ec00000094
:20436b000000000000000000000003c02d00e00000000000000002801f00f0001006e0716a
:0a438b0043c000002942900000002a
:20439500000000000000000000003c1407810000000000000025c3c5e181000288d1bfa067
:0943b5006c000100fd4082b00023
:2043be000000000000000000000003c02000800000000000000003c0100080002004773559
:0a43de00420000000fc0011b0000a8
:2043e800000000000000000000004001a00000000000000700008284c001000001000700fe
:0944080028000004001a00000065
:2044110000002000000000000001000000000000000000000002c1401800800004000000cb
:0a443100040000100001000000006c
:20443b00000000000000000000005a65a00c00000000000000000000000000140169968062
:09445b0000000005a65a50000003
:204464000000000000000000000001a45001000000000000000000000000000040069f005d
:0a44840002c000001a4d0000000005
:20448e00000000000000000000005a65e800000000000000000000000000000c016992144b
:0944ae0000000005a45c180000e8
:2044b7000000000000000000000001a550f00000000000007000000000000000c006950331
:0a44d700600000001a5c0000000005
:2044e1000003000000000000000003c4050d000000000000000000000000000001691680df
:0945010028400005a64c18a0009a
:20450a0000000000000000000000003c0001e00000000000000000000000000000069d03ce
:0a452a00440000001a4d05000000d7
:2045340000000000000000000000000000000000000000070000000001800080013316c055
:0945540000000007c0fe80000019
:20455d0000002000000000000000000000000000000000000000000000080014000ccd78b1
:0a457d00020000003c3c05000000b5
:204587000000000000000000000000000000000000000000000000000000000000aa160054
:0945a70060000002a85c01b000f4
:2045b00000000000000000000000000000000000000000000000000000000000000aa00041
:0a45d000040000002a80000a000029
:2045da00000000000000000000003c1400000000000000000000000001000000005a000016
:0945fa000000010395d8d9a000ce
:204603000000000000000000000003c020000000000000000000000000000000000a50302a
:0a462300000000040683b10000004f
:20462d0000000000000000000000000000000000000000000000000000002000000000202d
:09464d0060000003c160001000d0
:2046560000000000000000000000000000f000000000000000000000000004000000000050
:0a467600400000003c0000080000b6
:02468000000038
:02468200110322
:02468400010132
:204686000000000000000000100000000000004000000000000000000000000000000000c4
:0946a6000000000000000000000b
:2046af000000000000000000000000000000000000000000000000000000000000000000eb
:0a46cf0000000000000000000000e1
:2046d9000000000000000b00200000000000008000000000200000000000000000000000f6
:0946f900000000000000000000b8
:20470200000000000000000000000000000000000000000000000000000000000000000097
:0a472200000000000000000000008d
:20472c00000000000c000000100000000070004000000000000000000000000000000000a1
:09474c0000000000000000000064
:204755000000000000800000000000030004000000000000000000000000000000000000bd
:0a477500000000000000000000003a
:20477f0000000000000800000000000020000000000c8000200000002000000000000080a6
:09479f000000000000020000000f
:2047a8000000000000000000000000000000000000000800000000000000000000000000e9
:0a47c80000000000000000000000e7
:2047d20000000000000c00000000000030000000000c00000000000010000000000000c0af
:0947f200000000000003000000bb
:2047fb0000000000000000000000000000000000000000000000000000000000000000009e
:0a481b000000000000000000000093
:204825000000000008000b0000000030000000000800000000000000000000000000000028
:094845000000000000000000006a
:20484e000000000000800000010000010000000400000000010000000000000000000000c3
:0a486e000000000000000000000040
:204878000000000000000000000000000070000000000000000000000000000000000000b0
:0948980000000000000000000017
:2048a1000000000000000000020000000004000800000000020000000000000000000000e7
:0a48c10000000000000000000000ed
:2048cb000000000000080000000000002000000000080d00000000002000000000000080f0
:0948eb00000000000002000000c2
:2048f40000000000000000000100000000000004000000100100000000000000000000008e
:0a4914000000000000000000000099
:20491e00000000000000000000000000000000000000000000000000000000000000000079
:09493e0000000000000000000070
:20494700000000000000000000000000000000000000000000000000000000000000000050
:0a4967000000000000000000000046
:20497100000000000000000000000000000000000000000000000000000000000000000026
:094991000000000000000000001d
:20499a000000000000000000000000000000000000000000000000000000000000000000fd
:0a49ba0000000000000000000000f3
:2049c4000000000000000000000000000000000000000000000000000000000000000000d3
:0949e400000000000000000000ca
:2049ed000000000000000000000000000000000000000000000000000000000000000000aa
:0a4a0d00000000000000000000009f
:204a170000020000000000000000000000000000000000000000000000000000000000007d
:094a370000000000000000000076
:204a4000000000000000000000000000000000000000000000000000000000000000000056
:0a4a6000000000000000000000004c
:204a6a0000000000000000000000000000000000000000000000000000000000000000002c
:094a8a0000000000000000000023
:204a93000000300000000000000000000000000000000000000000000000000000000000d3
:0a4ab30000000000000000000000f9
:204abd000000000000000000000000000000000000000000000000000000000000000000d9
:094add00000000000000000000d0
:204ae6000000000000000000000000000000000000000000000000000000000000000000b0
:0a4b060000000000000000000000a5
:204b1000000000000000000000000000000000000000000000000000000000000000000085
:094b30000000000000000000007c
:204b390000000000000000000000000000000000000000000000000000000000000000005c
:0a4b59000000000000000000000052
:204b630000020000000000000000000000000000000000020000000000000000000000002e
:094b830000000000000000000029
:204b8c00000000000000000000000000000000000000000000000000000000000000000009
:0a4bac0000000000000000000000ff
:204bb6000000000000000000000000000000000000000000000000000000000000000000df
:094bd600000000000000000000d6
:204bdf000000000000000000000000000000000000000000000000000000000000000000b6
:0a4bff0000000000000000000000ac
:204c090000000000000000000000000000000000000000000000000000000000000000008b
:094c290000000000000000000082
:204c3200000000000000000000000000000000000000000000000000000000000000000062
:0a4c52000000000000000000000058
:204c5c00000000000000000000000000000000000000000000000000000000000000000038
:094c7c000000000000000000002f
:204c850000000000000000000000000000000000000000000000000000000000000000000f
:0a4ca5000000000000000000000005
:204caf000002000000000000000000000000000000000000000000000000000000000000e3
:094ccf00000000000000000000dc
:204cd8000000000000000000000000000000000000000000000000000000000000000000bc
:0a4cf80000000000000000000000b2
:204d0200000000000000000000000000000000000000000000000000000000000000000091
:094d220000000000000000000088
:204d2b00000030000000000000000000000000000000000000000000000000000000000038
:0a4d4b00000000000000000000005e
:204d550000000000000000000000000000000000000000000000000000000000000000003e
:094d750000000000000000000035
:204d7e00000000000000000000000000000000000000000000000000000000000000000015
:0a4d9e00000000000000000000000b
:204da8000000000000000000000000000000000000000000000000000000000000000000eb
:094dc800000000000000000000e2
:204dd1000000000000000000000000000000000000000000000000000000000000000000c2
:0a4df10000000000000000000000b8
:204dfb00000200000000000000000000000000000000000080000000000000000000000016
:094e1b000000000000000000008e
:204e240000000000000000000000000000000000000000000000000000000000000000006e
:0a4e44000000000000000000000064
:204e4e000000000000000000000000000000000000000000000000000000000100300b0008
:094e6e000000000000000000003b
:204e7700800000000000000000000000000000000000000000000000000000000423a5f4db
:0a4e97000000000000000580000c80
:204ea100000000000000000000000000000000000000000000800674d010000000f40b0414
:094ec10000000000000000840064
:204eca0000000000000000000000000000000000000000000000089669018000040583efc5
:0a4eea006600000000000001000057
:204ef4000000000000000000000000000000000000000000000000000100000000a11700e5
:094f140028000000000001a000cb
:204f1d0000000000000000000000000000000000000000000000000000800000000a53385f
:0a4f3d00664000000000001d0000a7
:204f470000020000000000000000000000000000000000000000028090800000000f0b029a
:094f670028000000000000000019
:204f7000000000000000000000000000000000000000000000001a805b180000000053f5cc
:0a4f9000c6c0000000000000000091
:204f9a00000000000000000000000000000000000000000050000281b50800000043d37cd5
:094fba006400000000000000008a
:204fc300000030000000000000000000000000000000000002000e804bd81000006e3d3af6
:0a4fe300664000000000000000001e
:204fed0000000000000000000000000000000000000000000000028191000000000d0e80f5
:09500d000000000000000000009a
:20501600000000000000000000000000000000000000000280085e804b9980000528f73159
:0a50360042800000000000000000ae
:20504000000000000000000000000000000000000000000000040280b500000400410400cc
:0950600000001000000000000037
:20506900400000000000000000000000000000000000000000000e804b80a00104041528a8
:0a5089000000040000000000001009
:2050930000020000000000000000000000000000000000000004001de00000000080570023
:0950b30000000004b84f00f000f9
:2050bc000040000000000000000000000000000000000000500005680c00800000001b70c0
:0a50dc000780000197ddd0000000fe
:2050e6000000000000000000000000000000000000000000000029c2d0000000000a0804d9
:09510600000000000000000000a0
:20510f000000000000000000000000000000020000000000700113fc590000000000a53ac6
:0a512f000000000000000000000076
:20513900000000000000000000000000000000000000000000000000b0000000000d0e1c6f
:0951590028000000000000000025
:20516200000000000000000000000000000000000000000000000141680000000c28f7ba9e
:0a51820006400000000000000000dd
:20518c00000000000000000000000000000000000000000000000902a080000000401f80f9
:0951ac00000000000000000000fa
:2051b5000000000000000000000000000000000000000000000100404950000000002328b5
:0a51d5006000000000000000000070
:2051df000002000000000000000000000000000000000000000003ceb0090000008b1a146b
:0951ff0020000000000000000087
:2052080000000000000000000000000000000000000000000000101c48000000082c3f306f
:0a52280006c00000000000000000b6
:20523200000000000000000000000000000000000000000000000000000b0004000f0a40f4
:0952520000000000000000000053
:20525b0000003000000000000000000000000000000000000000000000000000802001b8aa
:0a527b000000000000000000000029
:205285000000000000000000000000000000000000000000000014030d00000000000000e5
:0952a50000000000000000000000
:2052ae000000000000000000000000000000000000000000000001414859a000000000005d
:0a52ce006000000000000000000076
:2052d8000000000000000000000000000000000000000000000033000008000000a00434a3
:0952f80020001000000000000875
:20530100000000000000000000000000000000000000000000010330c0000000002a076007
:0a53210000400400000000000040fe
:20532b00000200000000000000000000000000000000000080002054b198001000c33e0012
:09534b002c0040000000000001ec
:2053540000000000000000000000000000000000000000000000029408d0b000012477700f
:0a53740066000000000000000000c9
:20537e00000000000000000000000000000000000000000000000000018c00000400fb0083
:09539e0000000000000000000006
:2053a70000000000000000000000000000000000000000000000000000d0100000040528d5
:0a53c70000002000000000000000bc
:2053d100000000000000000000000000000000000000000000000383a090000000000014f2
:0953f1002800000000000000008b
:2053fa00000000000000000000000000000000000000000000030a3deb50a000000000036b
:0a541a006000000000000000000028
:205424000000000000000000000000000000000000000000000003c2e08000020080fb02c4
:095444002000000000000000003f
:20544d00000000000000000000000000000000000000000070000001e9380000000005297f
:0a546d00c040000000000000000035
:20547700000000000000000000000000000000000000000000000380a71e000000c33e804c
:095497000000000000000000000c
:2054a000000000000000000000000000000000000000000000010a3d6d00a00000647bbcfc
:0a54c0000280000000000000000060
:2054ca00000000000000000000000000000000000000000000001002801800000000000216
:0954ea00408500000000000000f4
:2054f300000000000000000000000000000000000000000000010005ce0090000000000134
:0a551300429020000000000000009c
:20551d0000000000000000000000000000000000000000000000006dc1000000000016c268
:09553d004000000000000800001d
:20554600c000000000000000000000000000000000000000000000107c80000000021f3d1b
:0a556600428000000000070000086a
:20557000000000000000000000000000000000000000000000000000001000040843174065
:09559000240010000000000000de
:205599004000000000000000000000000000000000000000000000000000a001002e353c72
:0a55b90000000400000000000010d4
:2055c3000000000000000000000000000000000000000000000000a4f11b00100000000008
:0955e300000040016809f000011c
:2055ec00000000000000000000000000000000000000000000040000c880a00000000000b3
:0a560c0006000000a940080000009d
:20561600000000000000000000000000000000000000000000000000000001000000000073
:095636000000000000000000006b
:20563f00000000000000000000000000000000000000000000000000000000080000000043
:0a565f000000000000000000000041
:20566900000000000000000000000000000000000000000000000000008900000000000296
:09568900380000000000000000e0
:205692000000000000000000000000000000000000000000000000000030000000000001c7
:0a56b200e0400000000000180000b6
:2056bc00000000000000000000000000000000000000000000000000000001000083938037
:0956dc00280000003c2000000041
:2056e5000000000000000000000000000000000000000000000000000000000800067bb06c
:0a5705000600000083d4000000003d
:20570f00000200000000000000000000000000000000000000000000000000000047000031
:09572f0028000000000050e00019
:2057380000000000000000000000000000000000000000000000000000000000044473b0e6
:0a57580003c000000000001f000065
:20576200000000000000000000000000000000000000000000000000000000000002938012
:09578200340000011c0000a0002d
:20578b000000300000000000000000000000000000000000000000000000000000025bb0c1
:0a57ab000000001011dc801900005e
:2057b5000000000000000000000000000000000000000000000000000000000c100f0000a9
:0957d50000003000054c08000042
:2057de0080000000000000000000000000000000000000000000000000000000c020f580d6
:0a57fe000000030001f6c300000cd8
:2058080000000000000000000000000000000000000000000000000000000004000000027a
:0958280000001002bcca000000df
:20583100400000000000000000000000000000000000000000800000000000010000000195
:0a585100600004002056d000001093
:20585b000002000000000000000000000000000000000000800003c00000000000000000e8
:09587b00000000000000008000a4
:2058840000000000000000000000000000000000000000000000083dc000000000000000ff
:0a58a40000000000000000000000fa
:2058ae00000000000000000000000000000000000000000000002940b00c000000000000b5
:0958ce00000000000000f80000d9
:2058d7000000000000000000000000000000000000000000000001680001800000000000c7
:0a58f70000000000000001000000a6
:20590100000000000000000000000000000000000000000000003c0000000000000000004a
:095921000000000000000000007d
:20592a000000000000000000000000000000000000000000000003c060000000000000003a
:0a594a00000000000000001800003b
:20595400000000000000000000000000000000000000000000002a80000000000000000089
:095974000000000000000000002a
:20597d000000000000000000000000000000000000000000000002a85800000800000001ff
:0a599d00c000000000000000000040
:2059a700000200000000000000000000000000000000000000003335e000000000191a80e3
:0959c700000000000000000000d7
:2059d0000000000000000000000000000000000000000000000004cc5b00000001026380a6
:0a59f00000000000000001080000a4
:2059fa00000000000000000000000000000000000000000000001a45010000000000000429
:095a1a0000000000000000000083
:205a23000000300000000000000000000000040000000000000005a64898000000000000a4
:0a5a43000000000000000000000059
:205a4d00000000000000000000000000000000000000000000001a540b00000000000000c0
:095a6d0040000022643a00000030
:205a76000000000000000000000000000000000000000000000005a458d0a000000000009f
:0a5a9600070000100ccde00a00002c
:205aa000000000000000000000000000000000000000000000001a45000a00000005000078
:095ac00000000003c03c300004aa
:205ac9000000000000000000000000000000000000000000000005a65a00a0000080552023
:0a5ae900000000000147e800000083
:205af3000002000000000000000000000000000000000000001000000500000000f0080084
:095b13003c00004391fa0000007f
:205b1c000000000000000000000000000000000000000000000004001e000000000f0580b3
:0a5b3c0000400000330de0000000ff
:205b4600000000000000000000000000000000000000000000003c020000000000f00424e9
:095b660000200000000010800086
:205b6f000000000000000000000000000000000000000000000003c140018000000f07b8c3
:0a5b8f00028000000000000000008a
:205b9900000000000000000000001683000000000000000020003c0200002000003c001485
:095bb900000000000000000000e3
:205bc2000000000000000000000011696800000000000000010003c1400004000403c00110
:0a5be20042800000000000000000f7
:205bec00000000000000000000001540900000000000000000003314b000000000aa000013
:095c0c0028000000000000000067
:205c15000000000000000000000012a84000000000000000000000cc58000000000aa17036
:0a5c35006280000000000000000083
:205c3f000002000000000000000003c1000000000000000020003325e000000000ccf680e5
:095c5f000000000000001000002c
:205c680000000000000000000000143c5a78000000000000050004ce5b0000000013317410
:0a5c88000000000000000000000012
:205c9200000000000000000000021a75010000000000000000001a74010000000069f00078
:095cb200000000000000000000e9
:205cbb000000300000000000000005a44880000000000000000005a4489a0000001691787e
:0a5cdb0006000000000000000000b9
:205ce500000000000000000000001a55030000000000000000001a650f8f00000069700037
:095d05002c000000000000000069
:205d0e000000000000000000000025a44a00a00000000000000005a44a3800000016917080
:0a5d2e000000000000000700000064
:205d3800000000000000000000021a75050000000000000000001a75070f00000069500057
:095d580000000240fffe00000003
:205d61000000000000000000000005a45800000000000000000005a45af00000001691780f
:0a5d8100000000001534d0000000ff
:205d8b00000200000000000000100001050000000000000080100001070c000040000400f8
:095dab00000000000000000002ed
:205db4000000000000000000000004000c500000000000000000040018800000001000784b
:0a5dd40000000000000000000000c5
:025dde000000c3
:035de00062003f1f
:035de300720080cb
:025de6001100aa
:035de80082000036
:025deb000103b2
:085ded000000000000000000ae
:085df5000000000000000000a6
:085dfd0000000000000000009e
:085e0500000000000000000095
:0261ed000000b0
:0361ef00820080ab
:0261f2000103a7
:0861f4000000000000000000a3
:0861fc0000000000000000009b
:08620400000000000000000092
:08620c0000000000000000008a
:0265f4000000a5
:0265f600110191
:0365f8008200001e
:0265fb0001039a
:0865fd00000000000000000096
:0866050000000000000000008d
:08660d00000000000000000085
:0866150000000000000000007d
:0269fd00000098
:0369ff0082008093
:026a020001038e
:086a040000000000000000008a
:086a0c00000000000000000082
:086a140000000000000000007a
:086a1c00000000000000000072
:026e040000008c
:026e0600110277
:036e080082000005
:026e0b00010381
:086e0d0000000000000000007d
:086e1500000000000000000075
:086e1d0000000000000000006d
:086e2500000000000000000065
:02720d0000007f
:03720f008200807a
:02721200010376
:08721400000000000000000072
:08721c0000000000000000006a
:08722400000000000000000062
:08722c0000000000000000005a
:02761400000074
:0276160011035e
:03761800820000ed
:02761b00010369
:08761d00000000000000000065
:0876250000000000000000005d
:08762d00000000000000000055
:0876350000000000000000004d
:027a1d00000067
:037a1f0082008062
:027a220001035e
:087a240000000000000000005a
:087a2c00000000000000000052
:087a340000000000000000004a
:087a3c00000000000000000042
:027e240000005c
:017e26002239
:027e27004f7f8b
:027e2900010650
:00000001FF
