:02000000ff00ff
:080002004c6174746963650030
:17000a00694345637562653220323031342e31322e32373035320077
:16002100506172743a2069434534304858314b2d545131343400fc
:1b003700446174653a204a756e20323420323031352030303a31373a3132007c
:0200520000ffad
:040054007eaa997e69
:02005800510055
:02005a0001059e
:03005c00920020ef
:03005f0062014bf0
:0300620072009099
:0300650082000016
:02006800110085
:02006a00010192
:20006c00000000000000000000000000000000000000000000000000000000000000000074
:09008c000000000000000000006b
:2000950000000000000000000000000000000000000000000000000000000000000000004b
:0a00b5000000000000000000000041
:2000bf00000000000000000000000000000000000000000000000000000000000000000021
:0900df00000000400000000000d8
:2000e8000000000000000000000000000000000000000000000000000000000000000000f8
:0a01080000000000000000000000ed
:2001120000000000000000000000008000000000000000000000000000000000000000004d
:09013200000000000000000000c4
:20013b0000000000000000000000000d000000000000000000000000000000000000000097
:0a015b00000000000000000000009a
:200165000000000000040000000000001000000000000040000000001000000000000040d6
:0901850000000000000000000071
:20018e00000000000000000000000000000000000000000000000000000000000000000051
:0a01ae00000000080000000000003f
:2001b80000000000000c00000000000030000000000000c00000000030000000000000c03b
:0901d8000000000000010000001d
:2001e1000000000000000000000000000000000000000000000000000000000000000000fe
:0a02010000000000000000000000f3
:20020b000000000000000000000000000008000000000000000000000000000000000000cb
:09022b00000000000000000000ca
:200234000000000000000000000000000000c00000000000000000000000000000000000ea
:0a02540000000000000000000000a0
:20025e00000000000000000000000000000000000000000000000000000000000000000080
:09027e0000000000000000000077
:20028700000000000000000000000000000000000000000000000000000000000000000057
:0a02a700000000000000000000004d
:2002b100000000000004000000000000100000000000004000000000100000000000004089
:0902d10000000000000100000023
:2002da00000000000000000000000000000000000000000000000000000000000000000004
:0a02fa0000000000000000000000fa
:200304000000000000000000000000000000000000000000000000000000000000000000d9
:09032400000000000000000000d0
:20032d00000020000000000000000000000000000040000000000000000000000000000050
:0a034d0000000000000000000000a6
:2003570000680000000000000000000000000000000000000000000000000000000000001e
:090377000000000000000000007d
:20038000000400000000000000000000000000000000000000000000000000000000000059
:0a03a0000000000000000000000053
:2003aa00300000000000000000000000000000000000000000000000000000000000000003
:0903ca000000000000000000002a
:2003d3000000200000000000000000000000000000000000000000000000000000000000ea
:0a03f3000000000000000000000000
:2003fd000003000000000000000000000000000000000000000000000000000000000000dd
:09041d00000000000000000000d6
:200426000000000000000000000000000000000000000000000000000000000000000000b6
:0a04460000000000000000000000ac
:2004500000000000000000000000000000000000000000000000000000000000000000008c
:0904700000000000000000000083
:20047900000020000000000000000000000000000000000000000000000000000000000043
:0a0499000000000000000000000059
:2004a300000000000000000000000000000000000000000000000000000000000000000039
:0904c30000000000000000000030
:2004cc00000000000000000000000000000000000000000000000000000000000000000010
:0a04ec000000000000000000000006
:2004f6000000000000000000000000000000000000000000000000000000000000000000e6
:09051600000000000000000000dc
:20051f000000000000000000000000000000000000000000000000000000000000000000bc
:0a053f0000000000000000000000b2
:20054900000000000000000000000000000000000000000000000000000000000000000092
:0905690000000000000000000089
:20057200000000000000000000000000000000000000000000000000000000000000000069
:0a059200000000000000000000005f
:20059c0000020000000000000000000000000000000000000000000000000000000000003d
:0905bc0000000000000000000036
:2005c5000000200000000000000000000000000000000000000000000000000000000000f6
:0a05e500000000000000000000000c
:2005ef000002000000000000000000000000000000000000000000000000000000000000ea
:09060f00000000000000000000e2
:200618000000000000000000000000000000000000000000000000000000000000000000c2
:0a06380000000000000000000000b8
:20064200000000000000000000000000000000000000000000000000000000000000000098
:090662000000000000000000008f
:20066b0000002000000000000000000000000000000000000000000000000000000000004f
:0a068b000000000000000000000065
:20069500000300000000000000000000000000000000000000000000000000000000000042
:0906b5000000000000000000003c
:2006be0000000000000000000000000000000000000000000000000000000000000000001c
:0a06de000000000000000000000012
:2006e8000000000000000000001000000000000000000000000000000000000000000000e2
:09070800000000000000000000e8
:200711000000200000000000000100000000000000000000000000000000000000000000a7
:0a07310000000000000000000000be
:20073b0000000000000000000000000000000000000000000000000000000000000000009e
:09075b0000000000000000000095
:20076400000000000000000000000000000000000000000000000000000000000000000075
:0a078400000000000000000000006b
:20078e0000000000000000000000000000000000000000000000000000000000000000004b
:0907ae0000000000000000000042
:2007b700000000000000000000000000000000000000000000000000000000000000000022
:0a07d7000000000000000000000018
:2007e1000000000000000000001000000000000000000000000000000000000000000000e8
:090801003fc400000000000000eb
:20080a000000000000000000000100000000000000000000000000000000000000000000cd
:0a082a0003fc0100000000000000c4
:2008340000000000000000000000000000000000000000000000000000000000000000dbc9
:090854004cc000000002ee82001d
:20085d00000020000000000000000000000000000040000000000000000000000000000f0c
:0a087d00a330000000001eb281004d
:2008870000020000000000000000000000000000000000000000000000000000000000bf90
:0908a7009b008000140400000015
:2008b000000000000000000000000000000000000000000000000000000000000000900395
:0a08d000824c000008230000000025
:2008da000000000000000000000000000000000000000000000000000000000000000000fe
:0908fa00000000000063f850202a
:200903000000000000000000000000000000000000000000000000000000000000000000d4
:0a092300000000000000260af000aa
:20092d0000030000000000000000000000000000000000000000000000000000280000007f
:09094d00000000003400dc690226
:20095600000000000000000000000000000000000000000000000000000000000100008000
:0a0976000000000000603d0f0000cb
:2009800000000000000000000000000000000000000000000000000740000000000100000f
:0909a000000000200e3edef00014
:2009a9000000200000000000000000000000000000000000000000243800000000000800aa
:0a09c9000000000403620c00f000bf
:2009d3000000000000000000000000000000000000000000000000000ccf02000001000026
:0909f3000000000020647e960261
:2009fc0000000000000000000000000000000000000000000000000002d00f200000089042
:0a0a1c000000000000c302096000a2
:200a26000000000000000000000000000000000000000000000000000000000000000000b0
:090a4600000000002007ec690229
:200a4f00000000000000000000000000000000000000000000000000000000000000000087
:0a0a6f000000000006c397033000ea
:200a79000000000000000000000000000000000000000000000000000000000000051e003a
:090a99000000000e2e06cc9902ab
:200aa200000000000000000000000000000000000000000000000000000000000000010033
:0a0ac2000000000002e356033000bc
:200acc0000000000000033c10000000040cf040000000000000000000000000000050a7e76
:090aec008d4000003c3bfd6c0054
:200af500000020000000003c024000003800f000000000000000000000000000000001bf5b
:0a0b15003ab00000054036863000bb
:200b1f00000028000000000000a00000000000000000000000000000000000000000005e90
:090b3f001a40000000696e9602e4
:200b480000000200000000000008000000000000000000000000000000000000000000bfc4
:0a0b680067c000000342c0096000ee
:200b7200000030000000000000440000000000000000000000000000000000000005003fab
:090b920014000002360068f602ae
:200b9b00000003000000000000040000000000000000000000000000000000000000080f1c
:0a0bbb0082bc000001429709f0001f
:200bc500000300000000000000000000000000000000000000000000000000000009803f45
:090be50095400000162c5d69002a
:200bee008000008000000000000200000000000000000000000000000000000000001000d5
:0a0c0e0081540000000635df0000ed
:200c18000000000010000000000000e0000000000000000000000000000000000000183f75
:090c38003d40000000016acc03fc
:200c41000000200000800000000000020000000000000000000000000000000000000000f1
:0a0c610083d4000000001e033000e1
:200c6b000000000000000000000000000000000000000000000000000000000000058b7366
:090c8b008cc080400672f80000e4
:200c940000000000000000000000e00000000000000000000000000000000000000000eb75
:0a0cb400416800020346dd841000d1
:200cbe000000000001e00000000400000000000000000000000000000000000000011f779a
:090cde00b2808000b402fe4d0258
:200ce700000000000010000000000000000000000000000000000000000000000000018953
:0a0d0700c14c000002e037071000a5
:200d1100000000000000000000000000000000000000000000000000000000000009005762
:090d31008300800a0004586900e7
:200d3a00000000000000000000000c00000000000000000000000000000000000000f0a1fc
:0a0d5a00000c0000024375e00000e9
:200d6400000100000001a828000400000000000000000000000000000ffab208000000fbdb
:090d84007f0000003403fccc00e8
:200d8d0000002000000000028240001400000000004000000000000002df5410000000bb0e
:0a0dad00e3cc0000006015e3300401
:200db7000002000050072b6842a0000000ef040000000000000000004000000000080a7693
:090dd700b840900000036cc30059
:200de0000000000000805749420800000000f03810000000000000243c000000000011c31d
:0a0e0000812c000020036cba700082
:200e0a000000000000a0000000c00000000000000000000000080000000000000005009ac1
:090e2a008cc000002c03de5c000a
:200e33000000000005100000000c000000000000000000000000400000000000000008d95d
:0a0e5300eb300000c2e2d7aca000b3
:200e5d000003000000000000000000004ec50500000000000000e0000f80a000000380d7f1
:090e7d004cc000000c0058960264
:200e8600000000800000000000020e0020105021000000000000000000200a00000808c918
:0a0ea6007330002080200109600075
:200eb0000000001001a00000000022000000000000000000000000007dc0202000071e1a93
:090ed000bc00008166004b3300f8
:200ed9000000200010000000000000242c00000000000000000000003e60030000000905ca
:0a0ef900c03c22040bc2d4dcc00090
:200f0300000000000000000000000402bedf721000000000000011e0000000000007991701
:090f230068c00000002dec05007f
:200f2c000000000000000000000000bc42cbff0000000000000002023c000000000000adf0
:0a0f4c00ecd4000420063605a000d6
:200f5600000000025800000000000143be000400000000000000800020e0a00000081c7760
:090f7600344080001401ece20299
:200f7f0000000000500000000000000200e0a50000000000000000003ed0052000005000f8
:0a0f9f00434402000022c00e20901f
:200fa90000000000000729544200014025ef500000000000000001e3ede2003000000117c2
:090fc90057000004002eda1502a5
:200fd200000000000000b43c080000022f40ff0000000000000000027fe000000000008da9
:0a0ff200ef28000043461e08a0800f
:200ffc0000000000018580020000016006f9310000000000000000000f9fa2002808197231
:09101c00c980000000780000000a
:2010250000002020001c0a4000000000034e3331000000000000001c004d6500010010a9c8
:0a1045002e740000000400000000fb
:20104f0000002800500523c200a001428000000000000000000000c00000000000001a934f
:09106f003b80000020015af00052
:201078000000020000800003c00800020000000000000000000002140000000000000003f0
:0a109800a888000001402500f000c8
:2010a20000003102998123c200c00006c40a560000000000000000001ee4000000080016f2
:0910c200330080001605ea0f005e
:2010cb00000001004b8e0803c00400002800a500000000000000000c007d83000000500132
:0a10eb00c0cc000002c28c0f000010
:2010f500000302801805214300000006d6b0020000000000000000000000000000018c7f3b
:09111500abc000000068000000fe
:20111e0000000000000cd8014840000023fb400000000000000000000000000000000005e1
:0a113e0081400000000000000000e6
:2011480000000000000523c20000000056f9c0000000000000000207dd9000801008001b65
:09116800b30080003c06c833000e
:201171000000200000090003c0200040377b3c00000000000000801c784801010200900133
:0a11910080cc000003c235acc08022
:20119b00000000000005a3c30400004021ae223000000000000001e7deff5000004780ff89
:0911bb00a4c001000000000000c6
:2011c4000000000000000003c80004000250d121000000000000020062eef70000000009a6
:0a11e400a9b00000000000000000a8
:2011ee00000000000001a3c20000020055c05500000000000000024015cd10200008009a19
:09120e00d340000000025f8500de
:201217000000000000000003c000002420200500000000000000003e39d0db0000009007d2
:0a123700bdc4000000003688b000be
:20124100000000000187a3c340000140000000000000000000000207ecc5b02000479e1699
:09126100b88080002000dab4021c
:20126a000000000000000803c200000200000000000000000000003c7ce05e000000090096
:0a128a000388000002c03704b09092
:2012940000000000000d2141800000000c0008000800000000000000379800000000005e02
:0912b400420000001600000000d9
:2012bd0000002000000050014100000038200002004000000000000003eb000000000005d2
:0a12dd007c0000000000000000008b
:2012e700000028000000000000000000008f000000000000000000e03fc0132000001a7f85
:0913070002800a00000000000051
:2013100000000200000a000000000c002800f00000000000000000003bc000010000d09031
:0a13300040280080000000000000cb
:20133a0000003000800000000000020280000000000000000000040007e0a000000d00d7f0
:09135a008900800000604d0400d0
:2013630000000300010000000000001428000000000000000000008000000a00003818014f
:0a1383000290600000003ce00098ba
:20138d00000300005800000000000000148af20000000000000000e7efe01220000808005d
:0913ad00000000000e00ca324ae3
:2013b600c0000000008000000000000001705009000000000000000038f0000000085190fc
:0a13d600000000000002c30322849f
:2013e00000000002000000000000000600000000000000000000000067fa500000001a001a
:09140000000000000e07fc63204f
:2014090000002000c0000000000000000000000000000000000080003bc9a10000000000be
:0a142900000000000023d7e6c00019
:20143300000000000001e81504000000018a000000000000000003e0400000000000011eca
:0914530080080000007400000094
:20145c0000000000000008014800000003505021000000000000003e28000000000000db1a
:0a147c00c01400000003400000004f
:201486000000010000800000000000000000000000000000000000000fe0500000000edf99
:0914a600828000008c225bff40f3
:2014af0000000028000000000000000000000000000000000000000002d0a5000004010d6c
:0a14cf00fc20000014242defb200f1
:2014d9000000000000000000000000100000000000000000000003e7b7e02020000b9c007b
:0914f900000000000e04000000d8
:2015020000000000000000000000000000000000000000000000003e65d000000000b9e0bd
:0a152200000000000023000000009c
:20152c0000000000000000020000094014000800000000000004000000000000000580ded1
:09154c00200000000000010080f5
:201555000000200000000300008001000020000200000000000020002c0000000000000d57
:0a157500b0000000000000e00020bc
:20157f00000000000087a25a000001601e99680000000000000001c0358cc00000051a1ace
:09159f00b0408020013968f080a1
:2015a80000000000001003a580000000002c960000000000000000002c5c33000000d80b8b
:0a15c8004204000401c00200f0001c
:2015d200000000000083225a00044002849968000000000000000142bccc000000058a00d5
:0915f20000000000000069968071
:2015fb0000000000000003a580002000380e9600000000000000000240ff5709000001000a
:0a161b0000000000000002a96000ba
:20162500000300000003225a000000001e8f080000000000000000003499910400058a3f3e
:0916450052800000142ae9cc8057
:20164e000000000000000ba58000060000000f0000000000000000002ffdcc00000001bf7f
:0a166e006718000000241ed33000ae
:201678000000000059bba332000000000685500000000000000001e78000000000000a1b01
:09169800568000000028080f0034
:2016a10000000000010a3bccc000000000005500000000000000000000000000000070bdd5
:0a16c100616000000006c000f000a8
:2016cb0000000000818023c0000000c00005a0000000000000000007b4bb10000008010027
:0916eb0000000000143c000000a6
:2016f400000000000500003c000000000340a500000000000000003c43dbd8200000f0e08b
:0a1714000000000000234000000068
:20171e000000000011a06154020808000000000000000000000001e3178030001000181749
:09173e00f30000020002dc80004f
:20174700080000000900d42a841061000000000000000000000000003d6ecf000080008bf9
:0a17670028cc0000000006d00000ae
:201771000000000058070000000000c600a0f00000000000000000007482d020038800d35f
:091791008c0080002e0000000015
:20179a00100000000000b83fc000000000100f00000000000000000022f0d2000000b009ac
:0a17ba0042d480000060000000002f
:0217c400000023
:0217c60011010f
:0217c80001011d
:2017ca000000000000000000000000000000000000000000000000000000000000000000ff
:0917ea00000000000000000000f6
:2017f3000000000000000000000000000000000000000000000000000000000000000000d6
:0a18130000000000000000000000cb
:20181d000000000000000000000000000000000000000000000000000000000000000000ab
:09183d00000000000000000000a2
:20184600000000000000000000000000000000000000000000000000000000000000000082
:0a1866000000000000000000000078
:20187000000000000000000000000000000000000000000000000000000000000000000058
:091890000000000000000000004f
:2018990000000000000000000000000000000000000000000000000000000000000000002f
:0a18b9000000000000000000000025
:2018c300000000000004000000000000100000000000004000000000100000000000004061
:0918e300000000000001000000fb
:2018ec000000000000000000000000000000000000000000000000000000000000000000dc
:0a190c0000000000000000000000d1
:2019160000000000000c00000000000030000000000000c00000000030000000000000c0c5
:09193600000000000003000000a5
:20193f00000000000000000000000000000000000000000000000000000000000000000088
:0a195f00000000000000000000007e
:2019690000000000000000000000000000000000000000000000000000000000000000005e
:0919890000000000000000000055
:20199200000000000000000000000000000000000000000000000000000000000000000035
:0a19b200000000000000000000002b
:2019bc0000000000000000000000000000000000000000000000000000000000000000000b
:0919dc0000000000000000000002
:2019e5000000000000000000000000000000000000000000000000000000000000000000e2
:0a1a050000000000000000000000d7
:201a0f00000000000004000000000000100000000000004000000000100000000000004013
:091a2f00000000000001000000ad
:201a380000000000000000000000000000000000000000000000000000000000000000008e
:0a1a58000000000000000000000084
:201a6200000000000000000000000000000000000000000000000000000000000000000064
:091a82000000000000000000005b
:201a8b0000000000000000000000000000000000000000000000000000000000000000003b
:0a1aab000000000000000000000031
:201ab500000000000000000000000000000000000000000000000000000000000000000011
:091ad50000000000000000000008
:201ade000000000000000000000000000000000000000000000000000000000000000000e8
:0a1afe0000000000000000000000de
:201b08000000000000000000000000000000000000000000000000000000000000000000bd
:091b2800000000000000000000b4
:201b3100000000000000000000000000000000000000000000000000000000000000000094
:0a1b5100000000000000000000008a
:201b5b00000200000000000000000000000000000000000000000000000000000000000068
:091b7b0000000000000000000061
:201b8400000000000000000000000000000000000000000000000000000000000000000041
:0a1ba4000000000000000000000037
:201bae00000000000000000000000000000000000000000000000000000000000000000017
:091bce000000000000000000000e
:201bd7000000300000000000000000000000000000000000000000000000000000000000be
:0a1bf70000000000000000000000e4
:201c01000000000000000000000000000000000000000000000000000000000000000000c3
:091c2100000000000000000000ba
:201c2a0000000000000000000000000000000000000000000000000000000000000000009a
:0a1c4a000000000000000000000090
:201c5400000000000000000000000000000000000000000000000000000000000000000070
:091c740000000000000000000067
:201c7d00000000000000000000000000000000000000000000000000000000000000000047
:0a1c9d00000000000000000000003d
:201ca70000020000000000000000000000000000000000000000000000000000000000001b
:091cc70000000000000000000014
:201cd0000000000000000000000000000000000000000000000000000000000000000000f4
:0a1cf00000000000000000000000ea
:201cfa000000000000000000000000000000000000000000000000000000000000000000ca
:091d1a00000000000000000000c0
:201d23000000000000000000000000000000000000000000000000000000000000000000a0
:0a1d43000000000000000000000096
:201d4d00000000000000000000000000000000000000000000000000000000000000000076
:091d6d000000000000000000006d
:201d760000000000000000000000000000000000000000000000000000000000000000004d
:0a1d96000000000000000000000043
:201da000000000000000000000000000000000000000000000000000000000000000000023
:091dc0000000000000000000001a
:201dc9000000000000000000000000000000000000000000000000000000000000000000fa
:0a1de90000000000000000000000f0
:201df3000002000000000000000000000000000000000000000000000000000000000000ce
:091e1300000000000000000000c6
:201e1c000000000000000000000000000000000000000000000000000000000000000000a6
:0a1e3c00000000000000000000009c
:201e460000000000000000000000000000000000000000000000000000000000000000007c
:091e660000000000000000000073
:201e6f00000030000000000000000000000000000000000000000000000000000000000023
:0a1e8f000000000000000000000049
:201e9900000000000000000000000000000000000000000000000000000000000000000029
:091eb90000000000000000000020
:201ec200000000000000000000000000000000000000000000000000000000000000000000
:0a1ee20000000000000000000000f6
:201eec000000000000000000000000000000000000000000000000000000000000000000d6
:091f0c00000000000000000000cc
:201f15000000000000000000000000000000000000000000000000000000000000000000ac
:0a1f350000000000000000000000a2
:201f3f0000020000000000000000000000000000040000000000000000000000000000007c
:091f5f0000000000000000000079
:201f6800000000000000000000000000000000000000000000000000000000000000000059
:0a1f8800000000000000000000004f
:201f9200000000000000000000000000000000000000000000000000250000010000000009
:091fb20000000000000000000026
:201fbb00000000000000000000000000000000000000000000000000027aa40230000000b4
:0a1fdb0000000000000000000000fc
:201fe5000000000000000000001000000000000000000000000000000000a000000000002c
:09200500000000000000000000d2
:20200e0000000000000000000001000000000000000000000000000000da0a0000000000cd
:0a202e0000000000000000000000a8
:202038000000000000000000000000000000000000000000000000002e805000000700344f
:0920580002a000000000000000dd
:20206100000000000000000000000000000000000000000000000000627b09400000980d94
:0a208100eabd40000000000000006e
:20208b000002000000000000000000000000000000000000000000002500200000000000ee
:0920ab000000000000000000002c
:2020b400000000000000000000000000000000000000000000000006027c834200000000c3
:0a20d4000000000000000000000002
:2020de000000000000000000000000000000000000000000000000401406900000000000f8
:0920fe00000000000000000000d9
:202107000000300000000000000000000000000000000000000000262a1a9600000051a097
:0a21270000000000000000000000ae
:2021310000000000000000000000000000000000000000000000000000000000000000008e
:0921510000000000000000000085
:20215a00000000000000000000000000000000000000000000000000000000000000000065
:0a217a00000000000000000000005b
:20218400000000000000000000000000000000000000000000800266af8a00020000000018
:0921a40000000000000000000032
:2021ad00000000000000000000000000000000000000000000020026626990400800000047
:0a21cd0000000000200000000000e8
:2021d700000200000000000000000000000000000000000000000002800000000000000064
:0921f700000000000000000000df
:202200000000000000000000000000000000000000000000000000000000000000000000be
:0a22200000000000000000000000b4
:20222a000000000000000000000000000000000000000000000001400d005200000010bf25
:09224a0028000000000000000063
:202253000000000000000000000000000000000000000000000000206bda8142000000a99a
:0a227300ae41000000000000000072
:20227d000000000000000000000000000000000000000000000000003c0070000000001283
:09229d00e148000000000000000f
:2022a600000000000000000000000000000000000000000000000006021e0b020000000bda
:0a22c600e694000000000000000094
:2022d00000000000000000000000000000000000000000000000000005a000000000103cfd
:0922f0003d400000000000000068
:2022f90000000000000000000000000000000000000000000000001603590800000018af84
:0a231900e281000000000000000057
:202323000002000000000000000000000000000000000000000000000005500000000093b0
:09234300c10000000000000000d0
:20234c0000000000000000000000000000000000000000000000000001e855000000000d26
:0a236c00f6910000000000000000e0
:202376000000000000000000000000000000000000000000000003440200f0000005000009
:092396000000000000000000003e
:20239f0000003000000000000000000000000000000000000000000029e8f080000081806c
:0a23bf000000000000000000000014
:2023c9000000000000000000000000000000000000000000000000200000f00000000012d2
:0923e900c04000014000000000aa
:2023f2000000000000000000000000000000000000000000000000140048f080000001ab53
:0a241200e69401000800000000003d
:20241c000000000000000000000000000000000000000000008003638200f00200010a003b
:09243c0000000000000000000097
:202445000000000000000000000000000000000000000000000200140468f0800800d81095
:0a246500000000000000000000006d
:20246f00000200000000000000000000000000000400000000200020008000008000000007
:09248f0000000001400000000003
:2024980000000000000000000000000000000000000000000000001400610080000000002f
:0a24b8000000000008000000000012
:2024c20000000000d000003c000000000000000000000000000000000000000000000000ee
:0924e200000000000000000000f1
:2024eb000000000009800683c00000000000000000000000000000000000000000000000ff
:0a250b0000000000000000000000c6
:20251500000000000000003c0000000000000000000000000000000000000000000000006a
:092535000000000000000000009d
:20253e000000000000000303c00000000000000000000000000000000000000000000000b7
:0a255e0000000000e0000000000093
:202568000000000000000154020000000000000000000000000000000000000000000000fc
:092588000000000000000000004a
:202591000000000000181a15400000000000000000000000000000000000000000000000a3
:0a25b1000000000000000000000020
:2025bb00000200000807accc02000000000000000000000000000000000000000000000075
:0925db00000000000000000f00e8
:2025e400000000000580ba3320000000000000000000000000000000000000000000000045
:0a26040000000000c00001a0f00477
:20260e000000000000802e5800000000000000000000000000000000000000008000000026
:09262e00000002000c0000000095
:202637000000300005015a25a010000000000000000000000000000000000000000000001e
:0a2657000000000002000000000077
:202661000000000000a02a5800000000000000000000000000000000000000000000000037
:0926810000000000000000000050
:20268a0000000000000a1265a01000000000000000000000000000000000000000000000ff
:0a26aa0000000000c0000000000066
:2026b4000000000050002e5800000000000000000000000000000000000000000000000030
:0926d400000000000000000000fd
:2026dd000000000000005a65a010000000000000000000000000000000000000000000006e
:0a26fd0000000000000000000000d3
:202707000002000000000000080000000000000000000000000000000000000000000000a8
:09272700000000000000000000a9
:202730000000000005007800200000000000000000000000000000000000000000000000ec
:0a275000000000000000000000007f
:20275a00000000000000403c000000000000000000000000000001400100f00000000000b1
:09277a0003c4000000000000008f
:202783000000000001800703c0000000000000000000000000000020601a0f000000000042
:0a27a300683c000000000000000088
:2027ad000000000000b0003c000002421e8b400000000000000000000000000000000000f3
:0927cd00000000000034000000cf
:2027d6000000000000010603c000000605cf5a00000000000000000000000000000058008d
:0a27f6000000000000004000000099
:202800000000000000b00154000000000000000000000000000000040000000000000000af
:09282000000000000000000000af
:202829000000000000011a15400000000000000000000000000000007000000000000000af
:0a2849000000000000000000000085
:20285300000200000007accc00000000020550000000000000000000000550000000000434
:0928730003c00000240000000075
:20287c00000000000000da3320000000016855000000000000000000006855200000000074
:0a289c00683c00000200000000008c
:2028a600000000000080a258000001c396aa5000000000000000004416933100000089009d
:0928c60000000000000000000009
:2028cf000000300000191265a000002005415a8000000000000000206be8cc800000181062
:0a28ef00000000002003800000003c
:2028f9000000000000002a58000003c000996000000000000000000000b961000000000067
:09291900000000000000000000b5
:2029220000000000050a1a25a0000000614896800000000000000000004996800000000089
:0a294200000000000000000000008b
:20294c00000000005000a258000003c002996000000000000000002002e9610000000000f7
:09296c003c002000000000aa0854
:202975000000000005005a65a000000001489680000000000000001601e99680000001e088
:0a29950023c0010000000c8aa2001c
:20299f000002000000ab83fc090000038000002004000000000000240200002000000007ef
:0929bf008fc0800000002b96057a
:2029c800000000000000f000200000007dc00080000000000000001668e000800000000044
:0a29e80060fe8000c0001c996884a6
:2029f200000000000000003c000000400000f000000000000000004787c082000001000048
:092a1200000000002600200f0066
:202a1b000000000001800383c000003c381a0f0000000000000000206d7e030000008000a9
:0a2a3b000000000002638e8f0810f7
:202a45000000000008000000000a0020268180000000000000000000000000000001009285
:092a65001a42400002642e960999
:202a6e0000000000010000000000400e3b4b8300000000000000000000000000000080036d
:0a2a8e00a8f0040000664e996800ed
:202a98000000000000000154000000000005500000000000000000039409600000078000ed
:092ab8000000000000240e69007a
:202ac1004000000000181a154000000001c855000000000000000000060a69020000900005
:0a2ae100000000000003c0996a0025
:202aeb00000200000007accc0000000401f0f0000000000000000000240fb0000000000082
:092b0b002580000000000f691094
:202b1400c00000000300da332000000071ed0f80000000000000001e027ae502000000073c
:0a2b3400ea590000000000896880e3
:202b3e000000000000a02e580000000000d9600000200000000002c0170a0000000900000c
:092b5e001540000014002f960838
:202b6700c000300005005a25a000001c61e89680000100000000002072fe050000008005a4
:0a2b87002954010002001e896a00b3
:202b91000000008000a02a58000000d2c2f96000000000000000000000096004000b80009d
:092bb1000000000000000e6900a4
:202bba0000000010000a1265a000000000c89680000000000000000601fa96020000d00083
:0a2bda0000000000000000896a04fa
:202be400000000005000365800000342c2d96000000000000000080387c8900200000010b7
:092c04000280200014000a69009e
:202c0d000000000000005a65a0000000016896800000000000000054057e3f002800000388
:0a2c2d00a1412000400000996a0058
:202c37000002000000000000080000028090002000000000000000003d00f00000050a0005
:092c570003c300000000080002a4
:202c600000000000050030002000000000000080000000000000000e037ef0000000981751
:0a2c800023c320000000001008002c
:202c8a00000000000000003c00000003c70fa00000400000000000020000000000008008ab
:092caa0003c210040000100f0029
:202cb3000000000001800383c000000004c8ff00000000000000000404000000000071876f
:0a2cd300a3c30000000000c0f000e1
:202cdd0000000000080000f0000000020102100000000000000000e01cbb100000000008fb
:092cfd0003c220a00200000f0038
:202d0600000000000100000f0080000004da2112000000000000001c026b660001301805cf
:0a2d2600a3c3000001438180f00008
:202d300000000000000502a80000000026034000000000000000000014ec9000000080005b
:092d500003c000003600100f0062
:202d5900000000000018821540000800017a0802000000000000000003d8330000001005bb
:0a2d7900a3c3000020e000e0f0001a
:202d83000002000010072ccc000000021700100000000000000000000000000000000000f6
:092da30003c020000038400510b7
:202dac00000000000580b2332000000e07ee800200000000000000000000000000001003e5
:0a2dcc0023c30000000021c0a4147e
:202dd6000040000050002e58000060e2c600000000000000000002c0160f0000000d08388b
:092df6000140000000004b3c000c
:202dff000003b00000001a25a0000034605a65020000000000000026305e0f000000181dd5
:0a2e1f002143000001600f81c00094
:202e29002000000000a0225800000003ad00f00000000000000002c6810332000000080821
:092e490003c00000002800000095
:202e520003000000000a1265a0000000016a0f000000000000000020281e33020000019591
:0a2e720023c30000e0004000000050
:202e7c000000000090003658000001400000f0000000000000000660350330020000000017
:092e9c0003c00800060340000019
:202ea50000000000081e1a65a000000000180f0000000000000000140168cc022800000727
:0a2ec50023c300aa03401780202455
:202ecf0000020000000070cc08040026c00000000400000000000002f605a000000000030f
:092eef00800000000000de00007c
:202ef800000000000500060ce4002e14280000000000000000000000014eaf000100000551
:0a2f1800840200000166a48400009a
:022f22000000ad
:022f2400110298
:022f26000101a7
:202f2800000000000000000000000000000000000000000000000000000000400000000049
:092f48001001000000000000006f
:202f5100000000000000000000000000000000000000000000000000000000000000000060
:0a2f7100090000000000000000004d
:202f7b0000000000000000000000000000000000000000000000000000380080000000007e
:092f9b000002000000000000002b
:202fa4000000000000000000000000000000000000000000000000000000400000000000cd
:0a2fc4000000000000000000000003
:202fce00000000000000000000000000000000000000000000000030000000400000c000b3
:092fee00000100000000000000d9
:202ff7000000000000000000000000000000000000000000000000020000000000000c00ac
:0a30170000000000000000000000af
:203021000000000000080000000000002000000000080000000000002000000000000080bf
:0930410000000000000200000084
:20304a00000000000000000000000000000000000000000000000000000000000000000066
:0a306a00000000000000000000005c
:2030740000000000000c00000000000030000000000c00000000000030000000000000c004
:0930940000000000000300000030
:20309d00000000000000000000000000000000000000000000000000000000000000000013
:0a30bd000000000000000000000009
:2030c700000000000000000000000000000000000000000000000020003c0000000000008d
:0930e700000000000000000000e0
:2030f0000000000000000000000000000000000000000000000000020000000400000000ba
:0a31100000000000000000000000b5
:20311a00000000000000000000000000000000000000000000000000000000000000000095
:09313a000000000000000000008c
:20314300000000000000000000000000000000000000000000000000000000080000000064
:0a3163000000000000000000000062
:20316d00000000000008000000000000200000000008000000000000200000000000008072
:09318d0000000000000200000037
:20319600000000000000000000000000000000000000000000000000000000040000000015
:0a31b600000000000000000000000f
:2031c0000000000000000000000000000000000000000000000000000000000000000000ef
:0931e000000000000000000000e6
:2031e90000002000000000000000000000000000000000000800000000000000000000009e
:0a32090000000000000000000000bb
:2032130000000000000000000000000001000020000000000000000000000000000000007a
:0932330000005000000000000042
:20323c00000000000000000000000000000000020000000000000000000000000000000070
:0a325c000000010000000000000067
:20326600000000000000000000000000000000000000000000000000000000000000000048
:093286000000000000000000003f
:20328f0000000000000000000000000000000000000000000000000000000000000000001f
:0a32af000000000000000000000015
:2032b9000003000000000000000000000000000000000000000000000000000000000000f2
:0932d900000000000000000000ec
:2032e2000000000000000000000000000000000000000000000000000000000000000000cc
:0a33020000000000000000000000c1
:20330c000000000000000000004203c6000000000000000000000000000000000000000c8a
:09332c0000000000000000000098
:2033350000002000000000000000003c2000000000000000000000000000000000000000fc
:0a335500000000000000000000006e
:20335f0000000000000000000000000000000000000000000000000000000000000000004e
:09337f0000000000000000000045
:20338800000000000000000000000000000000000000000000000000000000000000000025
:0a33a800000000000000000000001b
:2033b2000000000000000000000000000000000800000000000000000000000002f03000d1
:0933d200000000000000000000f2
:2033db0000000000000000000000000000000000400000000000000000000000000f008003
:0a33fb0000000000000000000000c8
:203405000000000000000000000000000000000000000000000000000000000000000000a7
:093425000000000000000000009e
:20342e0000000000000000000000000000000000000000000000000000000000000000007e
:0a344e000000000000000000000074
:20345800000000000000000000000000000000000000000000000000000000000000000054
:093478000000000000000000004b
:2034810000002000000000000000000000000000000000000000000000000000000000000b
:0a34a1000000000000000000000021
:2034ab00000000000000000000000000000000000000000000000000000000000000000001
:0934cb00000000000000000000f8
:2034d4000000000000000000000000000000000000000000000000000000000000000000d8
:0a34f40000000000000000000000ce
:2034fe000000000000000000000000000000000000000000000000000000000000000000ae
:09351e00000000000000000000a4
:20352700000000000000000000000000000000000000000000000000000000000000000084
:0a354700000000000000000000007a
:20355100000300000000000000000000000000000000000000000000000000000000000057
:0935710000000000000000000051
:20357a00000000000000000000000000000000000000000000000000000000000000000031
:0a359a000000000000000000000027
:2035a400000000000000000000000000000000000000000000000000000000000000000007
:0935c400000000000000000000fe
:2035cd000000200000000000000000000000000000000000000000000000000000000000be
:0a35ed0000000000000000000000d4
:2035f7000000000000000000000000000000000000000000000000000000000000000000b4
:09361700000000000000000000aa
:2036200000000000000000000000000000000000000000000000000000000000000000008a
:0a3640000000000000000000000080
:20364a00000000000000000000000000000000000000000000000000000000000000000060
:09366a0000000000000000000057
:20367300000000000000000000000000000000000000000000000000000000000000000037
:0a369300000000000000000000002d
:20369d0000000000000000000000000000000000000000000000000000000000000000000d
:0936bd0000000000000000000004
:2036c6000000000000000000000000000000000000000000000000000000000000000000e4
:0a36e60000000000000000000000da
:2036f0000000000000000000000000000000000000000000000000000000000000931f0008
:0937100000000002c17e0010005f
:2037190000002000000000000000000000000000000000000800000000000000000c1f300d
:0a373900000000002c07000e000045
:20374300000000000000000000000000000000000000000000000000000000000000000066
:09376300780005022cde000000d4
:20376c0000000000000000000000000000000000000000000000000000000000000000003d
:0a378c000404000022c00000000049
:20379600000000000000000000000000000000000000000000000000000000000000000013
:0937b6000000000111dd0010000b
:2037bf000000000000000000000000000000000000000000000000000000014000000000a9
:0a37df0000000000232df00e000092
:2037e9000003000000000000000000000000000000000000000000000000000000000000bd
:09380900000000016bde800000ec
:20381200000000000000000000000000000000000000000000000000000000000000000096
:0a3832000000000026cfef0900009f
:20383c0000000000000000000000000000000000000000000000000000000000000000006c
:09385c0000000902915b0010005c
:20386500000020000000000000000000000000000000000000000000000000000000000023
:0a388500038000001e40ed0a000061
:20388f000000000000000000000000000000400000000000000000000000000000000000d9
:0938af0070000000000018c000c8
:2038b8000000000000000000000000000000020000000000000000000000000000000000ee
:0a38d80004000000000000100000d2
:2038e200000000000000000000000000000000000000000000000000000000000000001ea8
:093902000000000000003000008c
:20390b0000000000000000000000000000000000000000000000000000000000000000009c
:0a392b00000000000000008d000005
:20393500000000000000000000000000000000000000000000000000000000000000000072
:0939550000000001680910c00027
:20395e00000000000000000000000000000000000000000000000000000000000000000049
:0a397e00000000003fc0e5990000c2
:2039880000000000000000000000000000000000000000000000125ce00000000022bb40b4
:0939a8003800000001db00000002
:2039b10000002000000000000000000000900001000000000000035bdc000140000e29741f
:0a39d1000400000025b6f90f000005
:2039db000000000000000000000000000000008000000000000015460001000000a13b20f4
:0939fb0068000100b46c0000003a
:203a04000000000000000000000000000000001000000000000002a80e00f00000091bbb0b
:0a3a2400c000000012c1b00c000049
:203a2e00000000000000000000001c0ee000000000000000000000000018000040e70254d9
:093a4e006c000003a5de59e00044
:203a5700000000000000000000002006c90000000000000000000000000000000008102424
:0a3a7700220000003b4495100000ff
:203a8100000300000000000000003e84c0000000000000000000140ce0000000005cd7c0ad
:093aa1007c0001011dea5810002f
:203aaa000000000000000000000203c02f00000000000000000000001e0000000006c1e83b
:0a3aca000340040011c0000a0000d0
:203ad40000000000000000000000000008000000000000000000000007800000409d729e56
:093af40074000000000050000005
:203afd000000200000000000000000000030e00000000000000000000000e0000002c0ac2b
:0a3b1d000680000000000b8000008d
:203b2700000000000000000000000000000e0000000000000000340ce0000000c08352a01b
:093b470068000000a1fb800000f1
:203b5000000000000000000000000000000000000000000000000322de000000000e30b460
:0a3b700043c00000106fa500000024
:203b7a0000000000000000000004034ee8090000000000000000135ce7000000005f7b763f
:093b9a0000020001b9de80000008
:203ba3000000000000000000000003e1c930d000000000000000037bdcd0f000200aa02849
:0a3bc300424000003bc49d09800051
:203bcd0000000000000000000000000000000000000000000010205ca000000040a077163f
:093bed000000010204ea10a0002e
:203bf60000000000000000000000000000000000000000000000011c2d000000200b80b802
:0a3c1600038000003442e0090000c2
:203c200000000000000000000000009db0000000000000000000034ebd9a0000008dd8002a
:093c400078000003e8df00000039
:203c490000002000000000000000001dcd00000000000000080002a24d5000000004e9ac6f
:0a3c6900078000003c00b0000000de
:203c7300000000000000000000101f95b70000000000000000102bd590000000409d5f14c6
:093c93002000010025fbd0800097
:203c9c000000000000000000000042803908000000000000000002042e90b0000002c0e1ee
:0a3cbc00440000002203891f0000ed
:203cc60000000000000000000000141db1800000000000000000000ea50000001005379edf
:093ce600000000019a6d5001007c
:203cef0000000000000000003000001fcd00000000000000000000280908e00000405000f0
:0a3d0f000000000018bce0000000f6
:203d1900000300000000000000003e8ef38a00a000000000001022df9000000000c9f866d6
:093d390000000102e07b38a0004b
:203d42000000000000000000000003fc3a09b014000000000000017c3e000000000c6b31f8
:0a3d6200c0000400108380900010e0
:203d6c00000000000000000000003c1db000180000000000001028c480010000403e1a60a1
:093d8c00700000000000588000e6
:203d950000002000000000000000000bcd000000000000000002028c2000d000000bf0bcdf
:0a3db5004400000000000010002090
:203dbf00000000000000000000101d0fb00000000000000000000000081c000000e7326457
:093ddf007000000000000000006b
:203de8000000000000000000000000903a100000000000000000000000300000000743a1c6
:0a3e080067800000000000000000c9
:203e1200000000000000000000103c1d9b9f00000000000000003eceb000000000051f808d
:093e32000000000172d8018000bb
:203e3b000000000000000000000042643b19d00000000000000001464d00000000005000b9
:0a3e5b00000300002707e00000004c
:203e6500000000000000000000000017b0000000000000000000014d9180000000c33a56c4
:093e850020000102755a10e4004e
:203e8e000000000000000000000023e81900000000000000000002941c08f000000fd32044
:0a3eae00078100800b02d0092000fc
:203eb800000000000000000000004001e50a800000000000000029b4e500000000e49b1edb
:093ed800382500020dc9f80c00a8
:203ee1000000200000000000000100001009040000000000000000245838e000000d4d3065
:0a3f0100040008000077f90c00002e
:203f0b00000000000000000000007c06e80e000000000000000034468701000040a3529651
:093f2b00780001011dde80100187
:203f34004000000000000000000003c3c0b1b0040000000000000207ca00f000000a3080c5
:0a3f54000000000011c2090d000476
:203f5e000000000000000000500040208180400000000000000022d4900020000018fa7426
:093f7e006000000031fc18000095
:203f870000000000000000000200000040d00800000000000000023ed830f0000002dd2bbe
:0a3fa700c410000013af908e00005c
:203fb100000300000000000000007c06a00100000000000000002947c5000000444e3e9e27
:093fd10038000103dd5e00000070
:203fda000000000000000000000003c35030800000000000000003d41a000000000ed078ba
:0a3ffa00040000003c83900b00005f
:20400400000000000000000000052a848000000000000000000026d4c700000000af57663c
:094024006c000003e8ccd0800020
:20402d000000200000000000000262a810000000000000000000009e5df00004000050ed0b
:0a404d006280000000018b9000006b
:20405700000000000000000000102547d0010c00000000000000019db8000000401a535697
:09407700000001019069580000ed
:204080000000000000000000000002400e00f004000000000000002b79900000000750e46d
:0a40a00002c000001402a00000009e
:2040aa00000000000000000010302a07b018000000000000001011dfe9800000409d320045
:0940ca000005000035da98000041
:2040d3000000000000000000020003e018700000000000000000011c109800000002c0eced
:0a40f300020410003d2481080000c3
:2040fd000000000000000000000032a79001000000000000000020468001000000505800aa
:09411d0000800e68807e98c0004d
:2041260000000000000000000000220c5af0e00000000000000003c3caf09000000a0038cf
:0a41460002c00024396da100000042
:20415000000000000000000000004000800e0400000000000000000000000000002db6bedc
:0941700028000004000e50a1001b
:2041790000002000000000000001000000b1c00000000000080000000000f0c000087363fe
:0a419900e2c00010000100901c00bd
:2041a300000000000000000000005a45e7000000000000000000000000010000400a3e1cd1
:0941c30004005025a65e018000f5
:2041cc000000000000000000000001a5d008004000000000000000000000b000000db0a503
:0a41ec00420021001a45000b0000fc
:2041f600000000000000000000005a44a000800000000000000000000000200040025f1e0c
:0942160070000005a64800040038
:20421f000000000000000000000001a64000c600000000000000000000000000000a502454
:0a423f00221000011a440d000000d7
:20424900000300000000000000004ce5d00e000000000000000036869000000242c55eaee2
:0942690028000024cc5f001008bd
:204272000000000000000000000003325eb1a0000000000000000266cc000000000c504276
:0a42920046c000003335a00800000c
:20429c00000000000000000000012a85a00018000000000010003c1e07800140005852209e
:0942bc0060000432a848780140ba
:2042c5000000200000000000000062a81000000000000000020013c020080008000e6d2af5
:0a42e500c40000c02a8100800040e0
:2042ef000000000000000000003039d6980000000000000000000000000e000000aa33a04d
:09430f002000000168010010000b
:204318000000000000000000000002f00a100000000000000000000000010a00000aa0c004
:0a433800468000002940e008000064
:204342000000000000000000000016860001a000000000000000000000000000000f9f9ed2
:09436200000008010bcd00100061
:20436b000000000000000000000002942800e400000000000000000000000000000c39a0ab
:0a438b00000000001285c70e0000bc
:20439500000000000000000000001680818100000000000000003e8690000000000000001c
:0943b50000000003c060180000c4
:2043be000000000000000000000001680000800000000000000202940c70040000000000de
:0a43de00028000003c00000e000009
:2043e800000000000000000000000000000000000000000000004000a50a00001055761ccf
:0944080000000004000c00040097
:204411000000200000000000000000000000000000000000000100000009000000055040cc
:0a4431002000001000000000000051
:20443b00000000000000000000003c0e000000000000000000045a658000000040443b8491
:09445b0028000005a65c00000029
:204464000000000000000000000043c00000000000000000000001a74000b0000004400356
:0a448400600000001a6d0000000047
:20448e00000000000000000000000000000000000000000000005a44818100004025779ef4
:0944ae0004020005a44a0000000c
:2044b7000000000000000000000000000000000000000000000001a740d0a000000a40b48f
:0a44d700020010001a4d0f00000053
:2044e100000300000000000000000000000000000000000000007c078000000040005ace4d
:0945010029000004cc5f00000059
:20450a000000000000000000000000000000000000000000000003c340d000000000306e1d
:0a452a00c4082000331de00000006b
:20453400000000000000000000000000000000000000000000000cc49000000040031f6045
:0945540000000e02a85e01c00087
:20455d000000200000000000000000000000000000000000000043335f000000000c202df0
:0a457d00400000442a81001d0000e8
:204587000000000000000000000000000001000000000000000000000000000040023e2073
:0945a7007400000000001800007f
:2045b0000000000000000000000000000000d000000000000000000000000000000000e437
:0a45d0004680000000000d0000000e
:2045da0000000000000000000000000000000000000000000000000000000000000072e06f
:0945fa006c00000000000010003c
:20460300000000000000000000000000000000000000000000000000000000000000f0b1f6
:0a462300c36800000000000f000053
:20462d00000000000000000000000000000000000000000000000000050000000000000068
:09464d0004000003c0c0181000b5
:2046560000000000000000000000000000000000000000000000000000080000000000003c
:0a46760003c100003c00030800002f
:02468000000038
:02468200110322
:02468400010132
:20468600000000000000000010000000000000800000000000000000000000000000000084
:0946a6000000000000000000000b
:2046af000000000000000000000000000000000000000000000000000000000000000000eb
:0a46cf0000000000000000000000e1
:2046d9000000000000000e00200000000028008000000000000000000000000000000000eb
:0946f900000000000000000000b8
:20470200000000000000000000000000000040000000000000000000000000000000000057
:0a472200000000000000000000008d
:20472c00000000000c000000100000140000004000000000000000000000000000000000fd
:09474c0000000000000000000064
:20475500000000000080000000000002800000000000000000000000000000000000000042
:0a477500000000000000000000003a
:20477f00000000000008000000000000202c0000000800000000000020000000000000801e
:09479f000000000000020000000f
:2047a8000000000000000000000000000000400000000000000000000000000000000000b1
:0a47c80000000000000000000000e7
:2047d20000000000000c00000000000030000000000c00000000000030000000000000c08f
:0947f200000000000003000000bb
:2047fb0000000000000000000000000000000000000000000000000000000000000000009e
:0a481b000000000000000000000093
:204825000000000008000e000000002800280000000000000000000000000000000000000d
:094845000000000000000000006a
:20484e00000000000080000001000000c000400800000000000000000000000000000000c1
:0a486e000000000000000000000040
:20487800000000000000000000000000000000000000000000000000000000000000000020
:0948980000000000000000000017
:2048a1000000000000000000020000000000000800000000000000000000000000000000ed
:0a48c10000000000000000000000ed
:2048cb00000000000008000000000000202c00000008000000000000200000000001808050
:0948eb00000000000002000000c2
:2048f40000000000000000000100000000004004000000000000000000000000000000005f
:0a4914000000000000000000000099
:20491e00000000000000000000000000000000000000000000000000000000000000000079
:09493e0000000000000000000070
:20494700000000000000000000000000000000000000000000000000000000000000000050
:0a4967000000000000000000000046
:20497100000000000000000000000000000000000000000000000000000000000000000026
:094991000000000000000000001d
:20499a000000000000000000000000000000000000000000000000000000000000000000fd
:0a49ba0000000000000000000000f3
:2049c4000000000000000000000000000000000000000000000000000000000000000000d3
:0949e400000000000000000000ca
:2049ed000000000000000000000000000000000000000000000000000000000000000000aa
:0a4a0d00000000000000000000009f
:204a170000020000000000000000000000000000000000000000000000000000000000007d
:094a370000000000000000000076
:204a4000000000000000000000000000000000000000000000000000000000000000000056
:0a4a6000000000000000000000004c
:204a6a0000000000000000000000000000000000000000000000000000000000000000002c
:094a8a0000000000000000000023
:204a93000000300000000000000000000000000000000000000000000000000000000000d3
:0a4ab30000000000000000000000f9
:204abd000000000000000000000000000000000000000000000000000000000000000000d9
:094add00000000000000000000d0
:204ae6000000000000000000000000000000000000000000000000000000000000000000b0
:0a4b060000000000000000000000a5
:204b1000000000000000000000000000000000000000000000000000000000000000000085
:094b30000000000000000000007c
:204b390000000000000000000000000000000000000000000000000000000000000000005c
:0a4b59000000000000000000000052
:204b6300000200000000000000000000000000000000000000000000000000000000000030
:094b830000000000000000000029
:204b8c00000000000000000000000000000000000000000000000000000000000000000009
:0a4bac0000000000000000000000ff
:204bb6000000000000000000000000000000000000000000000000000000000000000000df
:094bd60000000003c00000800093
:204bdf000000000000000000000000000000000000000000000000000000000000000000b6
:0a4bff00000000003c060001000069
:204c090000000000000000000000000000000000000000000000000000000000000000008b
:094c290000000000000030000052
:204c3200000000000000000000000000000000000000000000000000000000000000000062
:0a4c52000000000000000800000050
:204c5c00000000000000000000000000000000000000000000000000000000000000000038
:094c7c0000000000f0000000003f
:204c850000000000000000000000000000000000000000000000000000000000000000000f
:0a4ca500000000100f000180000065
:204caf000002000000000000000000000000000000000000000000000000000000000000e3
:094ccf0000000002a81000000022
:204cd8000000000000000000000000000000000000000000000000000000000000000000bc
:0a4cf800000000002a848000000084
:204d0200000000000000000000000000000000000000000000000000000000000000000091
:094d22000000000332de00000075
:204d2b00000030000000000000000000000000000000000000000000000000000000000038
:0a4d4b00000000004ce4900000009e
:204d550000000000000000000000000000000000000000000000000000000000000000003e
:094d750000000001a44000000050
:204d7e00000000000000000000000000000000000000000000000000000000000000000015
:0a4d9e00000000005a6480000000cd
:204da8000000000000000000000000000000000000000000000000000000000000000000eb
:094dc80000000001a6d050a0007b
:204dd1000000000000000000000000000000000000000000000000000000000000000000c2
:0a4df100000000005a658000000079
:204dfb00000200000000000000000000000000000000000080000000000000000000000016
:094e1b000000010000105000002d
:204e240000000000000000000000000000000000000000000000000000000000000000006e
:0a4e4400000000004000e50a000035
:204e4e000000000000000000000000000000000000000000000000000000000000f0000054
:094e6e002c00000000000080008f
:204e770000000000000000000400000000000000000000000000000000000000000f058083
:0a4e97000000000000000001000010
:204ea1000000000000000000000000000000000000000000000000000000000000000000f1
:094ec10040000003c02070000055
:204eca000000000000000000000000000000000000000000000000000000000000000000c8
:0a4eea00028000003c1c00000000e4
:204ef40000000000000000000000000000000000000000000000000000000000000000009e
:094f140040000000000000000054
:204f1d00000000000000000000000000000000000000000000000000000000000000000074
:0a4f3d0002800000000000000000e8
:204f47000002000000000000200000000000000000000000000000000000000010aa043634
:094f670000000002a81000000087
:204f700000000000000000000100000000000000000000000000000000000000000aa13144
:0a4f9000420000002a8480000000a7
:204f9a000000000000000000000000000000000000000000000000000000000000cc368075
:094fba0020000003305e00a0009d
:204fc30000003000000000000000000000000000000000000000000000000001011339341c
:0a4fe300624000004ce4950000005d
:204fed000000000000000000000000000000000000000000000000000000000000697000cb
:09500d0000000001a540000000b4
:2050160000000000000000000000000000000000000000000000000000000000011691785a
:0a503600000000005a45a00a000027
:205040000000000000000000000000000000000000000000000000000000000800693400ab
:0950600000000001a45000000052
:2050690000000000000000000000000000000000000000000000000000000000011699680f
:0a508900000000005a65a00a0000b4
:205093000002000000000000000000000000000000000000000000000000000040000000bb
:0950b30000000100001050000093
:2050bc00000000000000000000000000000000000000000000000000000000000010003094
:0a50dc00000000004000e5000000a5
:2050e600000000000000000000000000000000000000000000002940d08f000000000000e2
:0951060000000002940b0080007f
:20510f0000000000000000000000000000000008000000000000016801700000000000009e
:0a512f00000000001680100d0000c3
:20513900000000000000000000000000000000000000000000000000000f00000000000047
:095159000000000000000000004d
:2051620000000000000000000000000000000000000000000000000000001000000000001d
:0a5182000000000000000000000023
:20518c00000000000000000000000000000000000000000000000000000000000000000003
:0951ac0000000000f000000140c9
:2051b5000000000000000000000000000000008000000000000000000078000000000000e2
:0a51d500000000100f0000000000b1
:2051df00000200000000000000000000000000000000001000042a800000000000000000f0
:0951ff0000000002a810000000ed
:205208000000000000000000000000000000000000000002800002a85e71e00000000000ab
:0a522800000000002a84800000004e
:2052320000000000000000000000000000000000000000000004330da00800000000000070
:0952520000000003304e30800022
:20525b000000300000000000000000000000010000000000000004cc5900100000000000c9
:0a527b00000000004ce4b800000041
:20528500000000000000000000000000000000000000001000001a7d000000000000000062
:0952a50000000001a5c00000009a
:2052ae000000000000000000000000000000000000000002000805a64c00000000000000df
:0a52ce00000000005a65a01c00005b
:2052d800000000000000000000000000000000000000000000041a6505000000000000002e
:0952f80000100001a44000d000e8
:205301000000000000000000000000000000000000000000000005a6581800000000000071
:0a532100000000005a65800b8000b8
:20532b0000020000000000000000000000000000000000008010014200000000000000008d
:09534b0000000100001000000048
:20535400000000000000000000000000000000000000000000004414ee00000000000000f3
:0a537400000000004001a3800000cb
:20537e00000000000000000000002a80000800000000000000000000090000000074740666
:09539e0028000003302050a0009b
:2053a7000000000000000000000002a94a0010000000000000000000008080000007437b1c
:0a53c700c0400010330e099b0000e7
:2053d100000000000000000000003c02000000000000000000003c00000800000099f300ae
:0953f100680000024059000000b0
:2053fa000000000000000000000003c14000000000000000000003c1400000000005a87d61
:0a541a006600000027ecc008000047
:20542400000000000000000000003c00010000000000000000003c000000008000813b4271
:0954440024000003c00050000028
:20544d000000000000000000000003c14098000000000000000003c060000014000e753dac
:0a546d00c04000003c1c08000000d5
:20547700000000000000000000003c00000000000000000000003c1cdf19000000690fde33
:0954970038000402a800510000d5
:2054a0000000000000000000000013c04000000000000000100001c64e81f000040993b2f1
:0a54c000668000402a85ed98000088
:2054ca0000000000000000000004332ce00f00000000000000001a65000000000047740036
:0954ea000000000333da00800029
:2054f3000000000000000000000004ce4b00000000000000000005a64c00000000047bf80e
:0a551300000000204ce5f00100004c
:20551d00000000000000000000041a640f0000000000000000021a4d000f000000cc080091
:09553d0000000401a5d0000000eb
:205546000000000000000000000005a65880a04000000000000005a45e000000040cc78084
:0a556600600000005a64c0000c0051
:20557000000000000000000000043c01090000000000000000001a45000b0000002c0740f4
:0955900000000001a7d000e000ba
:2055990000000000000000000000043c5c01800000000000000005a64c58a000040383b4a8
:0a55b900000000045a64c001000065
:2055c300000000000000000000100000000000000000000000100000000000000000f34075
:0955e3000000010000105000005e
:2055ec000000000000000000000004001a00000000000000000004000c0000000003c8782e
:0a560c0000000000400087000000cd
:20561600000000000000000000000000000000000000000000003c00071e00000000000013
:0956360028000003d4e898a0004c
:20563f000000000000000000000000000000000000000000000003c1600090000000000097
:0a565f0003800000029e8981000014
:20566900000000000000000000000000000000000000000000000000000d000000f00a3cde
:0956890000000000000a0000000e
:2056920000000000000000000000000000000000000000000000000000001000000aa72215
:0a56b200000000002940c0000000c5
:2056bc00000000000000000000000000008000000000000000003c00000000000000000012
:0956dc0000000003c020100000d2
:2056e5000000000000000000000000000070000000000000000003c1600000000000000011
:0a570500000000003c1e0800000038
:20570f00000200000000000000000000000000000000000000002a810700000000dd5a008f
:09572f0000000002a80000f000d7
:205738000000000000000000000000000000000000000000000042a85e000040000e172084
:0a575800000000002a848009000010
:20576200000000000000000000000000000000000000000000003304a018000000f0000048
:0957820000000001a64000000037
:20578b000000300000000000000000000000000000000000000024ce5f189000000f07803f
:0a57ab00002800005a64c500000049
:2057b500000000000000000000000000000000000000000000001a6c00000000000000004e
:0957d50040000001a6c000000024
:2057de000000000000000000000000000000000000000000000025a44e0000000000000094
:0a57fe00070000005a65e01a0000e1
:205808000000000000000000000003c0000000000000000000001a4500100001008173c099
:095828002a000001a45000000058
:2058310000000000000000000000003c4000000000000000000025a65a00a000000479a8f1
:0a585100004000005a65a198000015
:20585b000002000000000000001000010000000000000000801000000000000000f0080092
:09587b0060000100001000a00013
:205884000000000000000000000004001c00000000000000000004001e000000000f0700ac
:0a58a400070000004001e01b0000b7
:2058ae000000000000000000000000000000000000000000000000000000008000f000006a
:0958ce0000000003d41a00800060
:2058d70000000000000000000000000000000000000000000000000000000000000f03801f
:0a58f700000000003e9da00100002b
:20590100000000000000000000000000000000000000000000000000000060000000003cea
:0959210000000003c00001b00009
:20592a00000000000000000000000000000000000000000000000000000008000000000253
:0a594a00060000003c1c000a0000eb
:2059540000000000000000000000000000000000000000000000000000000000008e03c0e2
:095974003c000003c0200000000b
:20597d00000000000000000000000000000000000000000000000000000000000404d7002b
:0a599d00004000003c16000000006e
:2059a70000020000000000000000000000000000000000000000000000000c0010aa040014
:0959c70000000802a81000000015
:2059d00000000000000000000000000000000000000000000000000000000000000aa168a4
:0a59f000600420002a8480000000fb
:2059fa00000000000000000000000000000000000000000000000db49000400000f0b03c20
:095a1a0000000203325e50a000fe
:205a23000000300000000000000000000000000000000000000000cc6a000a00001f05606f
:0a5a4300600000004ce49d98000094
:205a4d00000000000000000000000000000000000000000000000000050001400069540036
:095a6d0040000201a54000a00068
:205a76000000000000000000000000000000000000000000000000000081a00000169160e8
:0a5a9600038200005a45a00a000038
:205aa000000000000000000000000000000000000000000000000000000a000000699402dd
:095ac0003c000001a640000000ba
:205ac90000000000000000000000000000000000000000000000000000001000001691699d
:0a5ae900c00000405a65a50000004f
:205af30000020000000000000000000000000000000000000000000000801c0040000402af
:095b130000000100001050000028
:205b1c000000000000000000000000000000000000000000000000000070000000100039b0
:0a5b3c00400400004001a500000035
:205b46000000000000000000000000000000000000000000000000000010000000c9d3eea5
:095b66003c000003c000008000b7
:205b6f000000000000000000000000000000000000000000000000000000a000000cc1abfe
:0a5b8f00e04000003c060001400069
:205b9900000000000000000000000000000000000000000000001b1ccd100001000c07c400
:095bb900000000000000000000e3
:205bc2000000000000000000000000000000000000000000000002716100a0000400f57cda
:0a5be200060000000000000e0000a5
:205bec00000000000000000000000000000000000000000000000dbca00b0000000377406b
:095c0c0038000003c000089000fc
:205c15000000000000000000000000000000000000000000000000ccef0000000000cf6d78
:0a5c3500c78000003c0e05010000ce
:205c3f000002000000000000000000000000000000000000000003c0001000000000000070
:095c5f0000000002a810990000e9
:205c680000000000000000000000000000000000000000000000003c4001e00000000000bf
:0a5c8800078600002a84c998000076
:205c92000000000000000000000000000000000000000000000003e4000d00000003931e4a
:095cb20000000003305e00000058
:205cbb0000003000000000000000000000000000000000000000043e40019000000023a1c2
:0a5cdb00c70000004ce4d0000000f8
:205ce500000000000000000000000000000000000000000000001a540000000000000034fd
:095d050074000001a4c0000000bc
:205d0e000000000000000000000000000000000000000000000005a64c000000000000007e
:0a5d2e00628000005a64c00000000b
:205d38000000000000000000000000000000000000000000000025a400000000000007007b
:095d58002c000001a450d08000d1
:205d61000000000000000000000000000000000000000000000005a440580000040015ecdc
:0a5d8100000000005a6580190000c0
:205d8b0000020000000000000000000000000000000000008010001c008000000082d60072
:095dab0024000900001e000000a4
:205db4000000000000000000000000000000000000000000000004020050000000043368da
:0a5dd400400000005681c0000000ee
:025dde000000c3
:035de00062003f1f
:035de300720080cb
:025de6001100aa
:035de80082000036
:025deb000103b2
:085ded000000000000000000ae
:085df5000000000000000000a6
:085dfd0000000000000000009e
:085e0500000000000000000095
:0261ed000000b0
:0361ef00820080ab
:0261f2000103a7
:0861f4000000000000000000a3
:0861fc0000000000000000009b
:08620400000000000000000092
:08620c0000000000000000008a
:0265f4000000a5
:0265f600110191
:0365f8008200001e
:0265fb0001039a
:0865fd00000000000000000096
:0866050000000000000000008d
:08660d00000000000000000085
:0866150000000000000000007d
:0269fd00000098
:0369ff0082008093
:026a020001038e
:086a040000000000000000008a
:086a0c00000000000000000082
:086a140000000000000000007a
:086a1c00000000000000000072
:026e040000008c
:026e0600110277
:036e080082000005
:026e0b00010381
:086e0d0000000000000000007d
:086e1500000000000000000075
:086e1d0000000000000000006d
:086e2500000000000000000065
:02720d0000007f
:03720f008200807a
:02721200010376
:08721400000000000000000072
:08721c0000000000000000006a
:08722400000000000000000062
:08722c0000000000000000005a
:02761400000074
:0276160011035e
:03761800820000ed
:02761b00010369
:08761d00000000000000000065
:0876250000000000000000005d
:08762d00000000000000000055
:0876350000000000000000004d
:027a1d00000067
:037a1f0082008062
:027a220001035e
:087a240000000000000000005a
:087a2c00000000000000000052
:087a340000000000000000004a
:087a3c00000000000000000042
:027e240000005c
:017e26002239
:027e2700b73969
:027e2900010650
:00000001FF
