:02000000ff00ff
:080002004c6174746963650030
:17000a00694345637562653220323031342e31322e32373035320077
:16002100506172743a2069434534304858314b2d545131343400fc
:1b003700446174653a204a756e20323320323031352031373a34353a32310074
:0200520000ffad
:040054007eaa997e69
:02005800510055
:02005a0001059e
:03005c00920020ef
:03005f0062014bf0
:0300620072009099
:0300650082000016
:02006800110085
:02006a00010192
:20006c00000000000000000000000000000000000000000000000000000000000000000074
:09008c000000000000000000006b
:2000950000000000000000000000000000000000000000000000000000000000000000004b
:0a00b5000000000000000000000041
:2000bf00000000000000000000000000000000000000000000000000000000000000000021
:0900df00000000400000000000d8
:2000e8000000000000000000000000000000000000000000000000000000000000000000f8
:0a01080000000000000000000000ed
:200112000000000000000000000000000000000000000000000000000000000000000000cd
:09013200000000000000000000c4
:20013b000000000000000000000000000000000000000000000000000000000000000000a4
:0a015b000000000000010000000099
:200165000000000000040000000000001000000000000040000000001000000000000040d6
:0901850000000000000000000071
:20018e00000000000000000000000000000000000000000000000000000000000000000051
:0a01ae000000000000000000000047
:2001b80000000000000c00000000000030000000000000c00000000030000000000000c03b
:0901d8000000000000010000001d
:2001e1000000000000000000000000000000000000000000000000000000000000000000fe
:0a02010000000000000000000000f3
:20020b000000000000000000000000080004000000000000000000000000000000000000c7
:09022b00000000000000000000ca
:20023400000000000000000000000005000040000000000000000000000000000000000065
:0a02540000000000000000000000a0
:20025e0000000000000000000000000000000000000000000000000000000000000000017f
:09027e0000000000000000000077
:20028700000000000000000000000000000000000000000000000000000000000000000057
:0a02a700000000000000000000004d
:2002b100000000000004000000000000100000000000004000000000100000000000004089
:0902d10000000000000100000023
:2002da00000000000000000000000000000000000000000000000000000000000000000004
:0a02fa0000000000000000000000fa
:200304000000000000000000000000000000000000000000000000000000000000000000d9
:09032400000000000000000000d0
:20032d00000020000000000000000000000000000040000000000000000000000000000050
:0a034d0000000000000000000000a6
:20035700000000000000000000000000000000000000000000000000000000000000000086
:090377000000000000000000007d
:2003800000000000000000000000000000000000000000000000000000000000000000005d
:0a03a0000000000000000000000053
:2003aa00300000000000000000000000000000000000000000000000000000000000000003
:0903ca000000000000000000002a
:2003d3000300200000000000000000000000000000000000000000000000000000000000e7
:0a03f3000000000000000000000000
:2003fd000003000000000000000000000000000000000000000000000000000000000000dd
:09041d00000000000000000000d6
:200426000000000000000000000000000000000000000000000000000000000000000000b6
:0a04460000000000000000000000ac
:2004500000000000000000000000000000000000000000000000000000000000000000008c
:0904700000000000000000000083
:20047900000020000000000000000000000000000000000000000000000000000000000043
:0a0499000000000000000000000059
:2004a300000000000000000000000000000000000000000000000000000000000000000039
:0904c30000000000000000000030
:2004cc00000000000000000000000000000000000000000000000000000000000000000010
:0a04ec000000000000000000000006
:2004f6000000000000000000000000000000000000000000000000000000000000000000e6
:09051600000000000000000000dc
:20051f000000000000000000000000000000000000000000000000000000000000000000bc
:0a053f0000000000000000000000b2
:2005490000040000000000000000000000000000000000000000000000000000000000008e
:0905690000000000000000000089
:200572000002800000000000000000000000000000000000000000000000000000000000e7
:0a059200000000000000000000005f
:20059c0000020000000000000000000000000000000000000000000000000000000000003d
:0905bc0000000000000000000036
:2005c5000000200000000000000000000000000000000000000000000000000000000000f6
:0a05e500000000000000000000000c
:2005ef000002000000000000000000000000000000000000000000000000000000000000ea
:09060f0000000e000000000000d4
:200618000000000000000000000000000000000000000000000000000000000000000000c2
:0a06380000000000000000000000b8
:20064200000000000000000000000000000000000000000000000000000000000000000098
:0906620000000400140000000077
:20066b0000002000000000000000000000000000000000000000000000000000000000004f
:0a068b0000000080002000000000c5
:20069500000300000000000000000000000000000000000000000000000000000000000042
:0906b5000000000000000000003c
:2006be0000000000000000000000000000000000000000000000000000000000000000001c
:0a06de000000000000000000000012
:2006e8000000000000000000000000000000000000000000000000000000000000000000f2
:09070800000000000000000000e8
:200711000000200000000000000000000000000000000000000000000000000000000000a8
:0a07310000000000000000000000be
:20073b0000000000000000000000000000000000000000000000000000000000000000009e
:09075b0000000000000000000095
:20076400000000000000000000000000000000000000000000000000000000000000000075
:0a078400000000000000000000006b
:20078e0000000000000000000000000000000000000000000000000000000000000000004b
:0907ae0000000000000000000042
:2007b700000000000000000000000000000000000000000000000000000000000000000022
:0a07d7000000000000000000000018
:2007e1000000000000000000000000000000000000000000000000000000000000000000f8
:090801000000000000000af041b3
:20080a000000000000000000000000000000000000000000000000000000000000000000ce
:0a082a00000000000000000f009025
:2008340000000000000000000000000000000000000000000000000001c550000000000787
:090854003c1000002000e00080cf
:20085d0000002000000000000000000000000000004000000000000003c0aa280000000086
:0a087d0043c02500014000b0000058
:2008870000020000000000000000000000000000000000000000000000000003800000804c
:0908a70029500000160168f080e0
:2008b000800000000000000000000000000000000000000000000000000000000000000b9d
:0a08d0000168400000000200f00083
:2008da000000000000000000000000000000000000000000000000000000000140000000bd
:0908fa0000000000006868f080b5
:200903000000000000000000000000000000000000000000000000000000000020000000b4
:0a0923000000000000040000f010c6
:20092d000003000000000000000000000000000000000000000000001cdda200000000000c
:09094d00000000400028c8f08001
:2009560080000000000000000000000000000000000000000000000001ec250100000000ee
:0a0976000000000000000000f00087
:20098000000000000000000000000000000000000000000000002200000000000020010014
:0909a000000000000001e8f080f5
:2009a90000002000000000000000000000000000000000000000001c00000000000000a052
:0a09c9000000000002c00000f0046e
:2009d3000000000000000000000000000000000000500000000a01600000000000001a37f8
:0909f300815850209c00e8f080be
:2009fc00800000000000000000000000000000000002000000004000000000000000000019
:0a0a1c00c014000410030200f004ef
:200a260000000000000000000000000000000000000000000000000380000000000000002d
:090a4600000000000001c8f0816d
:200a4f0080000000000000000000000000000000000000000000000c4000000000000000bb
:0a0a6f000000000000c00000f000cd
:200a79000000000000000000000000000000000000000000000000000000000000000c0051
:090a990000000000000048f0809c
:200aa200000000000000000000000000000000000000000000000000000000000000010033
:0a0ac2000000000002c00000f00078
:200acc0000000000000000000000000000000000000000000000000000000000000818806a
:090aec00109000000402085500fe
:200af5000000200000000000000000000000000000000000000000000000000000001003ae
:0a0b15002e0400000022f40aa040a4
:200b1f00000000000000000000000000000000000000000000000000000000038000001320
:090b3f00828000200607dd02009f
:200b4800000000000000000000000000000000000000000000000000000000000000000984
:0a0b68004000000400036f8000103d
:200b7200000000000000000000000000000000000000000000000a0780000001000018bbfe
:090b920000c0800014005a0f009d
:200b9b00400000000000000000000000000000000000000000000124000000002000010fa5
:0a0bbb00016c000000202d00f00086
:200bc500000300000000000000000000000000000000000000080007800000000010003737
:090be50001580040006a005a00aa
:200bee0041000000000000000000000000000000000000000000400040000000080000001e
:0a0c0e000014002203438c0a50007a
:200c1800000000000000000000000000000000000000000000000006b5c5a000000d00008f
:090c3800000000001c37fa500115
:200c410000002000000000000000000000000000000000000000000003cb5e0000005000f7
:0a0c6100000000000006340af00055
:200c6b00000000000000000000000000000000000000000000000040000000000007000022
:090c8b000000000e1c207f000097
:200c9400000000000000000000000000000000000000000000000000000000000000b80088
:0a0cb400000000000027aeb8a00009
:200cbe000000000000000000000000000000000000000000000000038000000000000a0089
:090cde000000000000200c0f00d2
:200ce70000000000000000000000000000000000000000000000000068000000080000007d
:0a0d07000000002000040000f000ce
:200d110000000000000000000000000000000000000000000000000396e1500000001a37a7
:090d3100015040203c004a0a0078
:200d3a0000000000000000000000000000000000000000000000000043fd1a00000000003f
:0a0d5a000014a10402c02e000000e6
:200d640000010000000000000000000000000000000000000000020256e55000080580b79b
:090d8400150000400064000000ad
:200d8d0000002000000000000000000000000000004000000000003c64c0a5000000500d84
:0a0dad00f4a801000002000000009d
:200db700000200000000000000000000000000000000000000000002a5a170200000007ec4
:090dd700b3008e0000000ef06074
:200de00000000000000000000000000000000000000000000000000002700f01000000076a
:0a0e000000cc00000000010f00000c
:200e0a000000000000000000000000000000000000000000000000021e8fc02000000a57d8
:090e2a008680040000016a054005
:200e330000000000000000000000000000000000000000000000000040500000000090017e
:0a0e53006c60008003c00000500036
:200e5d000003000000000000000000000000000000000000000000061cb3c00000058a331b
:090e7d008000000000000ef040ae
:200e8600000000000000000000000000000000000000000000000014425e960008180007db
:0a0ea600e100012001c0000f001060
:200eb0000000000000000000000000000000000000000000000000005e8ff00000010bb782
:090ed000280000000600c8f5012d
:200ed900000020000000000000000000000000000000000000000004205e3000020008dd40
:0a0ef900c01400000000250ff000f7
:200f03000000000000000000000000000000000000000000000000000caa302000000adbe3
:090f2300b3000000000000000012
:200f2c000000000000000000000000000000000000000000000000000030a3000000000bc7
:0a0f4c00e0f00000000000000000cb
:200f56000000000000000000000000000000000000000000000002661e8b400010080a13f5
:090f760083c0000004200000000b
:200f7f0000000000000000000000000000000000000000000000002c035e87000a80b00bf9
:0a0f9f0003c0002000000000000065
:200fa90000000000000000000000000000000000000000000000020004ee20200001807ef5
:090fc9008cc080800000000000d3
:200fd2000000000000000000000000000000000000000000000000140010e2000000009366
:0a0ff20003300400000000000000be
:200ffc0000000000000000000000000075bcc000000000000000006724cf000000051e1651
:09101c0043800000000400000004
:20102500000020000000000000000000395f33000000000000000002035bf1100000008dd2
:0a10450067c4000000034000000033
:20104f000000000000000000000007e0059f3000000000000000000635c330200000193f20
:09106f0092000e00003a5a05003f
:2010780000000000000000000000009c3f78cf00000000000000000042e05a100200d0e9ef
:0a109800b60400004140270a0000e2
:2010a20000000000000000000000020036a0f000000000000004000724c2600000050e5fa3
:0910c200200004001405fdda0011
:2010cb0000000000000000000000001c3d60f000000000000000200000db64180000580588
:0a10eb00f80800800023d4a1a00043
:2010f5000003000000000000000001c3d7836020000000000000000617eab00000050a165e
:09111500bdc08000146218a32281
:20111e000000000000000000000000023b60cc0000000000000000004079a810000001e7ef
:0a113e00c3cc000003601c053080e4
:20114800000000000000000000000000000000000000000000000006a589800000000ad7f2
:09116800730000010001ca04013a
:2011710000002000000000000000000000000000000000000000000000db67000000000fed
:0a11910028cc400008025dd00000e9
:20119b0000000000000000000000000000000000000000000000020395c4722000019a06a3
:0911bb001a40800006001ef040fd
:2011c40000000000000000000000000000000000000000000000001402e0d100001008a18b
:0a11e400425800000000000f000058
:2011ee00000000000000000000000000000000000000000000000000258c200000018a7a0b
:09120e0003c040000600fbe300f0
:2012170000000000000000000000000000000000000000000000000000db3d000000180f78
:0a123700c0000000004014fc3080ed
:201241000000000000000000000000023fa33000000000000000016681ee2220000518de66
:0912610000c000000c2018f3028b
:20126a00000000000000000000000000036acc00000000000000000002c0d108000001a3ec
:0a128a002830000001c0000f300002
:20129400000000000000000000000147bcb33000000000000010000060e0a000000799566d
:0912b400155030000001fe05494f
:2012bd004000200000000000000000143ff8cc00004000000001003c3dd00500000018e112
:0a12dd00001444000000010050005e
:2012e700000000000000000000000002dcad10200000000000000142c4e0508380090133b5
:09130700c1000e0000021c504060
:2013100000000000000000000000003c3830d100000000000000006433d0f5110000109f2c
:0a1330007d48000000003c0a0000a8
:20133a0000000000000000000000e002a5a66020000000000000e340358cc020080d1d36ba
:09135a00a940040000000000009d
:2013630000000000000000000000003c2940690000000000000000242a40c500000011e513
:0a13830041540080c000000000008b
:20138d0000030000000000000000026000000000000000000004034075c3302000000112f9
:0913ad00a000800040000cf0419a
:2013b60000000000000000000000000400000000000000000000003c3a40cc10000000e0a1
:0a13d600c20000000c00010f0188a6
:2013e00000000000000000000000000006aa5000020000000000100266af0203000b80df55
:091400002648000000061e0560ec
:201409008000200000000000000000040060aa000000000000000000217ef2002000580b01
:0a142900bf1820000002ed00a180b2
:2014330000000000000000000000000000c0a00000000000000e02002cacc2200005815693
:091453002000000024021c50409e
:20145c000000000000000000000000003e400510000000000000400402603300000000ad57
:0a147c00fc08000002e33d0a000036
:20148600000000000000000000000003b4b53000000000000000006797a2000000001b13dc
:0914a600a8c0800000001cf050f9
:2014af008000000000000000000008007c5dc50000080000000000002469000000201080b2
:0a14cf00828c00000000000f018075
:2014d900000000000000000000000407058a000000400000000001c01f8a51200000001a24
:0914f900128080002000000000b8
:201502000000000000000000000000804370f500000200000000000202c05200000000f198
:0a152200434400000742c00000002f
:20152c000000000000000000000000000000000000000000000001e70000000010000b3b61
:09154c0061c00000046048800049
:201555000000200000000000000000000000000000000000000000162c0000000200518f32
:0a157500a7480000002225ae000088
:20157f00000000000000000000000002819960000000000000000002a4c0400000081a7e8a
:09159f00b0c08e002000d8a36248
:2015a8000000000000000000000000002b5969000000000000000024415d2400000090bf01
:0a15c80003c0000006400c0f3000c5
:2015d2002000000000000000000000003f81722000000000000000003c8002200005180686
:0915f200828000001601df1000e8
:2015fb000100000000000000000000002af0d4000000000000000034017001010000590dd4
:0a161b004014000000003cba00007b
:2016250000030000000000000000000000000000000000000000004237a0500000098b069f
:0916450010c880001e79fa410270
:20164e00000000000000000000000000000000000000000000000024416000000000519bcb
:0a166e00020c000044003c003000b4
:201678000004000000000000000000000000000000000000000000038480002000051e1aea
:091698004680000006000000007d
:2016a1000003800000000000000000000000000000000000000000003ed080000000000117
:0a16c100f1d4000001c00000000099
:2016cb0000000000000000000000080000000000000000000000020000000000080518d6fa
:0916eb008d408000200000000089
:2016f40000000800000000000000004038000000000000000000001c000000000000d8035f
:0a17140040d8000003c000000000f0
:20171e0000000000000000000000000026b33010000000000000000066a5f00000200eda8f
:09173e008040200000240000009e
:20174700080000000000000000000000027dcc29000000000000000028600a0000050091de
:0a17670024000200024740000000c9
:201771000000000000000000000000000000000000000000000000002e8aa02000010000df
:0917910050800c000e0000000065
:20179a00000000000000000000000000240000000000000000000000015099000000500fc2
:0a17ba003a04004003400000000064
:0217c400000023
:0217c60011010f
:0217c80001011d
:2017ca000000000000000000000000000000000000000000000000000000000000000000ff
:0917ea00000000000000000000f6
:2017f3000000000000000000000000000000000000000000000000000000000000000000d6
:0a18130000000000000000000000cb
:20181d000000000000000000000000000000000000000000000000000000000000000000ab
:09183d00000000000000000000a2
:20184600000000000000000000000000000000000000000000000000000000000000000082
:0a1866000000000000000000000078
:20187000000000000000000000000000000000000000000000000000000000000000000058
:091890000000000000000000004f
:2018990000000000000000000000000000000000000000000000000000000000000000002f
:0a18b9000000000000000000000025
:2018c300000000000004000000000000100000000000004000000000100000000000004061
:0918e300000000000001000000fb
:2018ec000000000000000000000000000000000000000000000000000000000000000000dc
:0a190c0000000000000000000000d1
:2019160000000000000c00000000000030000000000000c00000000030000000000000c0c5
:09193600000000000003000000a5
:20193f00000000000000000000000000000000000000000000000000000000000000000088
:0a195f00000000000000000000007e
:2019690000000000000000000000000000000000000000000000000000000000000000005e
:0919890000000000000000000055
:20199200000000000000000000000000000000000000000000000000000000000000000035
:0a19b200000000000000000000002b
:2019bc0000000000000000000000000000000000000000000000000000000000000000000b
:0919dc0000000000000000000002
:2019e5000000000000000000000000000000000000000000000000000000000000000000e2
:0a1a050000000000000000000000d7
:201a0f00000000000004000000000000100000000000004000000000100000000000004013
:091a2f00000000000001000000ad
:201a380000000000000000000000000000000000000000000000000000000000000000008e
:0a1a58000000000000000000000084
:201a6200000000000000000000000000000000000000000000000000000000000000000064
:091a82000000000000000000005b
:201a8b0000000000000000000000000000000000000000000000000000000000000000003b
:0a1aab000000000000000000000031
:201ab500000000000000000000000000000000000000000000000000000000000000000011
:091ad50000000000000000000008
:201ade000000000000000000000000000000000000000000000000000000000000000000e8
:0a1afe0000000000000000000000de
:201b08000000000000000000000000000000000000000000000000000000000000000000bd
:091b2800000000000000000000b4
:201b3100000000000000000000000000000000000000000000000000000000000000000094
:0a1b5100000000000000000000008a
:201b5b00000200000000000000000000000000000000000000000000000000000000000068
:091b7b0000000000000000000061
:201b8400000000000000000000000000000000000000000000000000000000000000000041
:0a1ba4000000000000000000000037
:201bae00000000000000000000000000000000000000000000000000000000000000000017
:091bce000000000000000000000e
:201bd7000000300000000000000000000000000000000000000000000000000000000000be
:0a1bf70000000000000000000000e4
:201c01000000000000000000000000000000000000000000000000000000000000000000c3
:091c2100000000000000000000ba
:201c2a0000000000000000000000000000000000000000000000000000000000000000009a
:0a1c4a000000000000000000000090
:201c5400000000000000000000000000000000000000000000000000000000000000000070
:091c740000000000000000000067
:201c7d00000000000000000000000000000000000000000000000000000000000000000047
:0a1c9d00000000000000000000003d
:201ca70000020000000000000000000000000000000000000000000000000000000000001b
:091cc70000000000000000000014
:201cd0000000000000000000000000000000000000000000000000000000000000000000f4
:0a1cf00000000000000000000000ea
:201cfa000000000000000000000000000000000000000000000000000000000000000000ca
:091d1a00000000000000000000c0
:201d23000000000000000000000000000000000000000000000000000000000000000000a0
:0a1d43000000000000000000000096
:201d4d00000000000000000000000000000000000000000000000000000000000000000076
:091d6d000000000000000000006d
:201d760000000000000000000000000000000000000000000000000000000000000000004d
:0a1d96000000000000000000000043
:201da000000000000000000000000000000000000000000000000000000000000000000023
:091dc0000000000000000000001a
:201dc9000000000000000000000000000000000000000000000000000000000000000000fa
:0a1de90000000000000000000000f0
:201df3000002000000000000000000000000000000000000000000000000000000000000ce
:091e1300000000000000000000c6
:201e1c000000000000000000000000000000000000000000000000000000000000000000a6
:0a1e3c00000000000000000000009c
:201e460000000000000000000000000000000000000000000000000000000000000000007c
:091e660000000000000000000073
:201e6f00000030000000000000000000000000000000000000000000000000000000000023
:0a1e8f000000000000000000000049
:201e9900000000000000000000000000000000000000000000000000000000000000000029
:091eb90000000000000000000020
:201ec200000000000000000000000000000000000000000000000000000000000000000000
:0a1ee20000000000000000000000f6
:201eec000000000000000000000000000000000000000000000000000000000000000000d6
:091f0c00000000000000000000cc
:201f15000000000000000000000000000000000000000000000000000000000000000000ac
:0a1f350000000000000000000000a2
:201f3f0000020000000000000000000000000000040000000000000000000000000000007c
:091f5f0000000000000000000079
:201f6800000000000000000000000000000000000000000000000000000000000000000059
:0a1f8800000000000000000000004f
:201f9200000000000000000000000000000000000000000000000000000000000000000c23
:091fb200344200000000000000b0
:201fbb000000000000000000000000000000000000000000000000000000000000000007ff
:0a1fdb006b44080000000000000045
:201fe50000000000000000000000000000000000000000000000000000000000000010b418
:0920050034400000022400000038
:20200e0000000000000000000000000000000000000000000000000000000000000001a809
:0a202e007388080000604000000005
:2020380000000000000000000000000000000000000000000000000000000000000318501d
:092058000e800000143c000f0092
:202061000000000000000000000000000000000000000000000000000000000000000183db
:0a208100a9680800020001c0f00089
:20208b000002000000000000000000000000000000000000000a00000000000000000058d1
:0920ab002bc00000000000000041
:2020b400000000000000000000000000000000000000000000004000000000000000000dbf
:0a20d400e814000000000000000006
:2020de000000000000000000000000000000000000000000000000000000000000090800d1
:0920fe00000000000030000000a9
:2021070000003000000000000000000000000000000000000000000000000000000090a058
:0a212700000000000140400000002d
:20213100000000000000000000000000000000000000000000000000000000000007000087
:0921510000000000000270c30050
:20215a00800000000000000000000000000000000000000000000000000000000000700075
:0a217a0000000000000036ed102008
:202184000000000000000000000000000000000000000000000000000000000000000058e3
:0921a40037400000003420d10096
:2021ad00000000000000000000000000000000000000000000000000000000000000000b07
:0a21cd00e9bc280000e046ed1020f8
:2021d700000200000000000000000000000000000000000000000000000000000000005294
:0921f700a8c0000000015d180001
:202200000000000000000000000000000000000000000000000000000000000000000005b9
:0a2220006d080000000027b8b000b0
:20222a00000000000000000000000000000000000000000000000000010b80000009101cd3
:09224a001f8000001400000000d8
:20225300000000000000000000000000000000000000000000000000015ab8020000818550
:0a22730079d0080000000000000010
:20227d000000000000000000000000000000000000000000000000c4040a0000000100105e
:09229d0027c000000028100f000a
:2022a60000000000000000000000000000000000000000000000002023ca00000000008982
:0a22c6003bb80800014000a0f00042
:2022d0000000000000000000000000000000000000000000000000000002e0000005007a8d
:0922f000a3c000002402405100cb
:2022f900000000000000000000000000000000000000000000000006014c2e020000800fb3
:0a23190075700000020005c71020d7
:20232300000200000000000000000000000000000000000000000140148b80000000003206
:092343000800000000002055090b
:20234c000000000000000000000000000000000000000000000000206bcb01000000000f0b
:0a236c007f54020000028c8552101d
:202376000000000000000000000000000000000000000000000000200e0f10800005007afb
:092396008c80000006214f330881
:20239f000000300000000000000000000000000000000000000000042bca5b020000000791
:0a23bf00746400000340768cc8002f
:2023c9000000000000000000000000000000000000000000000003c0148800000000103253
:0923e90020800000003c0e96006b
:2023f20080000000000000000000000000000000000000000000000403cb00000000008fea
:0a2412007c90000000005e89680065
:20241c0000000000000000000000000000000000000000000000014005043080000500732e
:09243c009bc0000000000b960893
:20244500000000000000000000000000000000000000000000000014034ee3020000000924
:0a246500f278000001e0169968000b
:20246f00000200000000000000000000000000000400000000040000168250000000003229
:09248f00008000001c00000002a6
:2024980000000000000000000000000000000000000000000000000000cfd3000000380f3b
:0a24b8007c8001000003860008008c
:2024c2000000000000000000000000000000000000000000000001435dc90000000100721d
:0924e200a90000014030000000d7
:2024eb00000000000000000000000000000000000000000000000020026f000000008009b7
:0a250b00f474000008e04000000036
:202515000000000000000000000000000000000000000000000001c28000f000800009b436
:09253500388020001c00000000a9
:20253e000000000000000000000000000000000000000000000000267c0e0f0000000008b6
:0a255e002b440800020000000000fa
:202568000000000000000000000000000000000000000000000001600d02c00000050950c5
:09258800354000012474000f002d
:2025910000000000000000000000000000000000000000000000002e02ee3c0202000009c3
:0a25b100f210080002064180f0005d
:2025bb000002000000000000000000000000000000000000000000000205529c0000000801
:0925db0015422000b402f02e01ab
:2025e40000000000000000000000000000000000000000000000001668c85500000001e15a
:0a2604002154040010003fc66020be
:20260e0000000000000000000000000000000000000000000000000200f00000800980723f
:09262e000cc000001403c08b0075
:2026370000003000000000000000000000000000000000000000000005c000800000980d69
:0a265700a3320000020020c470202e
:2026610000000000000000000000000000000000000000000000000000c0000000008a020d
:09268100a580000000004e7f005e
:20268a0000000000000000000000000000000000000000000000000000c1008000001805d2
:0a26aa00a25a0000000036fff00005
:2026b40000000000000000000000000000000000000000000000004000b0f000000500031e
:0926d400658000003403c0e20837
:2026dd0000000000000000000000000000000000000000000000002001dd0f8000008005cb
:0a26fd00a25a00000006a1cd102033
:20270700000200000000000000000000000000000000000000000000020000200000100876
:09272700000080000001edff003c
:2027300000000000000000000000000000000000000000000000000001e000800000118790
:0a27500000020000000026f17000f6
:20275a000000000000000000000000000000000000000000001001401ce9a00000050e5303
:09277a0084000000043800e200b4
:20278300000000000000000000000000000000000000000000010000005920000000801b21
:0a27a300b5000000020014ee202033
:2027ad000000000000000000000000000000000000000000000003c0048bf000000900338e
:0927cd00200000002e024fb500af
:2027d60000000000000000000000000000000000000000000000000003eede00000080078d
:0a27f600ec1400000263a4ca1000f6
:202800000000000000000000000000000000000000000000000000001c075080000d007246
:092820008080000e0000003c0065
:202829000000000000000000000000000000000000000000000000000258bf020000180854
:0a2849003404000000000003c0206a
:20285300000200000000000000000000000000000000000000000000000a00001009003808
:09287300024000820038205500eb
:20287c00000000000000000000000000000000000000000000000000014ea00000800007c6
:0a289c00ea44080601c01e85521030
:2028a6000000000000000000000000000000000000000000000000401c000000000d005356
:0928c6009b8000402601c833008c
:2028cf00000030000000000000000000000000000000000000000020005805000000000b31
:0a28ef00b47000000140369cc800e0
:2028f9000000000000000000000a00000000000000000000000003c0048900000000003332
:092919000000000000000d960111
:2029220000000000000000000000400000000000000000000000000003ee6100000001a75b
:0a294200ec94000001c01c8968003d
:20294c000000000000000000000000000000000000000000000403401ca77000000000f4fd
:09296c0034400020023c0a9600f0
:202975000000000000000000000000000000000000000000000080000259dd000000000882
:0a2995002b88080400401699680022
:20299f000002000000000000000000000000000004000000000403c0048c000000000a327f
:0929bf0040c0000080402000022d
:2029c800000000000000000000000000000000000000000000000c0003ee41000000000ba6
:0a29e800b89c0000016384000800a1
:2029f20000000000000000000000000000000000000000000000000001047000000080349c
:092a120014c000014e00102e005a
:202a1b0000000000000000000000000000000000000000000000000000fa47020000100048
:0a2a3b00328c08000bc78fc2e020a8
:202a45000000000000000000000000000000000000000000000000028ef10002000b8873e8
:092a65003080000e2c024c4f00e1
:202a6e000000000000000000000000000000000000000000000000807c5c01003000f81fa8
:0a2a8e0034900000020007d0e000c1
:202a98000000000000000000000000000000000000000000000003e00e90400000050070e8
:092ab80028000000063dd0cb000f
:202ac10000000000000000000000000000000000000000000000000e03ccda00000000033b
:0a2ae100f800000200e06ccdf020c8
:202aeb000002000000000000000000000000000000000000000002c2ad0cb000000388749d
:092b0b000b8800003e3820aa00ee
:202b1400000000000000000000000000000000000000000000000020045a4602000838108b
:0a2b34006874080000e007aaa00082
:202b3e00000000000000000000000000000000000000000000000006fc02a00000001b3385
:092b5e00840000001400000000d6
:202b6700000030000000000000000000000000000000000000000000285c1f02000000e396
:0a2b8700f9800000000000000000cb
:202b91000000000000000000000000000000000000000000000004000effc0000000003e15
:092bb1001c4460004000100f08f4
:202bba00000000000000000000000c00000000000000000000000000005c1800000000017a
:0a2bda00bd41220000000080f00061
:202be40000000000000000000000000000000000000000000000000003047000000900f45d
:092c040028000000364050af002a
:202c0d0000000000000000000000000000000000000000000000000000c8470238000087d7
:0a2c2d006b44080001e71fe7b02424
:202c3700000200000000000000000000000000000000000000080366cef640000000007393
:092c570020000000022840ff00eb
:202c6000000000000000000000000000000000000000000000000014205c00000000000fb5
:0a2c8000341000000043ece5f00002
:202c8a000000000000000000000000000000000000000000000000201cc90000000d00d048
:092caa00014000000002608800f6
:202cb30000000000000000000000000000000000000000000000000400df05000000008792
:0a2cd30073d40000000025811020da
:202cdd000000000000000000000000000000000000000000000001c280000000000b000089
:092cfd0007400000020260af0074
:202d060000000000000000000000000000000000000000000000002400000000000058052c
:0a2d26007874080000e026c50000e4
:202d300000000000000000000000000000000000000000000000000425d4b0000005803c15
:092d50003e8000011402408100e4
:202d590000000000000000000000000000000000000000000000001c3bdb2d000000d1a783
:0a2d7900ea8000000a002004202078
:202d83000002000000000000000000000000000000000000000000c35e00f0000000805449
:092da300128000000028205508f0
:202dac00000000000000000000000e0000000000000000000000002604ec81020000500b05
:0a2dcc00f00008000066cc855000fe
:202dd6000000000000000000000000000000000000000000000000001cc80000000010d019
:092df600014000000000290f005b
:202dff0000003001800000000000000000000000000000000000000060df0400000010a709
:0a2e1f0073d4000000000dc0f8009d
:202e29000000000000000000000000000000000000000000000000001cc10000000b0e0093
:092e49000000000000000c9600de
:202e520002000000000000000000000000000000000000000000000002ee010000008010dd
:0a2e72000000000000000499680051
:202e7c000000000000000000000000000000000000000000000000043d02e000000d80087e
:092e9c0038800000047c09960056
:202ea500000000000000000000000000000000000000000000000000280c1d020020500149
:0a2ec5006388080002079c8968007a
:202ecf000042000000000000000000000000000004000000000000001cc9000001000bf0bc
:092eef003d400000022020000219
:202ef80000078000000000000000000000000000000000000000000002ee0000000000093a
:0a2f1800ba800000004646000800e1
:022f22000000ad
:022f2400110298
:022f26000101a7
:202f2800000000000000000000000000000000000000000000000000000000400000000049
:092f48000001000000000000007f
:202f5100000000000000000000000000000000000000000000000000000000000000000060
:0a2f71000000000000000000000056
:202f7b000000000000000000000000000000000000000000000000000000008000000000b6
:092f9b000002000000000000002b
:202fa40000000000000000000000000000000000000000000000000000000000000000000d
:0a2fc4000000000000000000000003
:202fce00000000000000000000000000000000000000000000000020000000400000000083
:092fee00000100000000000000d9
:202ff7000000000000000000000000000000000000000000000000030000000000000800af
:0a30170000000000000000000000af
:203021000000000000080000000000002000000000080000000000002000000000000080bf
:0930410000000000000200000084
:20304a00000000000000000000000000000000000000000000000000000000000000000066
:0a306a00000000000000000000005c
:2030740000000000000c00000000000030000000000c000000000000307c0000000000c088
:0930940000000000000300000030
:20309d0000000000000000000000000000000000000000000000000000078000000000008c
:0a30bd000000000000000000000009
:2030c7000000000000000000000000000000000000000000000000300000000000000000b9
:0930e700000000000000000000e0
:2030f0000000000000000000000000000000000000000000000000020000000400000000ba
:0a31100000000000000000000000b5
:20311a00000000000000000000000000000000000000000000000010000000000000000085
:09313a000000000000000000008c
:20314300000000000000000000000000000000000000000000000000000000080000000064
:0a3163000000000000000000000062
:20316d00000000000008000000000000200000000008000000000000200000000000008171
:09318d0000000000000200000037
:20319600000000000000000000000000000000000000000000000000000000040000000015
:0a31b6000e00000000000000000001
:2031c0000000000000000000000000000000000000000000000000000000000000000000ef
:0931e00000000004000c000000d6
:2031e90000002000000000000000000000000000000000000800000000000000000000009e
:0a32090000000010000100000000aa
:2032130000000000000000000000000000000000000000000000000000000000000000009b
:0932330000000005a65e00000089
:20323c00000000000000000000000000000000000000000000000000000000000000000072
:0a325c00000000001a6c00000000e2
:20326600000000000000000000000000000000000000000000000000000000000000000048
:0932860000000005a64c00000048
:20328f0000000000000000000000000000000000000000000000000000000000000000001f
:0a32af00000000001a5c000000009f
:2032b9000003000000000000000000000000000000000000000000000000000000000000f2
:0932d90000000005a45e01800064
:2032e2000000000000000000000000000000000000000000000000000000000000000000cc
:0a330200000000001a7c0d0000001e
:20330c000000000000000000000000000000000000000000000000000000000000000000a1
:09332c0000000004cc5b38a00095
:20333500000020000000000000000000000000000000000000000000000000000000000058
:0a33550000000000333da0800000de
:20335f0000000000000000000000000000000000000000000000000000000000000000004e
:09337f0000000002a85c980000a7
:20338800000000000000000000000000000000000000000000000000000000000000000025
:0a33a800000000002a80030a000064
:2033b2000000000000000000000000000000000000000000000000000000000000000000fb
:0933d20000000100f000500000b1
:2033db000000000000000000000000000000000000000000000000000000000000000000d2
:0a33fb00000000000f0005000000b4
:203405000000000000000000000000000000000000000000000000000000000000000000a7
:0934250000000003c0e000a0005b
:20342e0000000000000000000000000000000000000000000000000000000000000000007e
:0a344e00000000003c020000000036
:2034580000000000000000000000000000000000000000000000000000000000010007004c
:0934780028000004000e00a00071
:203481000000200000000000000000000000000000000000000000000000000004000040c7
:0a34a100040000100001000000000c
:2034ab00000000000000000000000000000000000000000000213fc000000000016996944d
:0934cb0000000005a65a000000f3
:2034d4000000000000000000000000000000000000000000000063fc0000000000069900da
:0a34f400200000001a6c070a000017
:2034fe0000000000000000000000000000000000000000000000000000000000016992149e
:09351e0000000005a64850000061
:203527000000000000000000000000000000000000000000000000000000000000069503e6
:0a354700600000001a5405000000a7
:20355100000300000000000000000000000000000000000000000000000000000169168057
:0935710028000005a45a00a00086
:20357a000000000000000000000000000000000000000000000000000000000000069d038b
:0a359a0046c000001a74050000008e
:2035a40000000000000000000000000000000000000000000000000000000000013316c0fd
:0935c40000000004cc5b000000d3
:2035cd0000002000000000000000000000000000000000000000000000000000000ccd786d
:0a35ed00000000003335e00000008c
:2035f70000000000000000000000000000000000000000000000000000000000003316c4a7
:0936170000000002a85819a000ef
:2036200000000000000000000000000000000000000000000000000000000000000cc7288f
:0a364000000300002a8000000000d3
:20364a00000000000000000000000000000000000000000000000000000000000000000060
:09366a0004000003c0e0000000b0
:20367300000000000000000000000000000000000000000000000000000000000000000037
:0a369300034000003c0001000000ad
:20369d0000000000000000000000000000000000000000000000000000000000000000000d
:0936bd0060000003c06001800000
:2036c6000000000000000000000000000000000000000000000000000000000000000000e4
:0a36e600000000003c0200000c0090
:2036f0000000000000000000000000000000000000000000000000000000a0000100068093
:0937100028000004001c00a000c8
:2037190000002000000000000000000000000000000000000800000000000400040000431d
:0a3739004402001000000000000030
:20374300000000000000000000000000000000000000000000000000000000000169168066
:0937630000000005a65a00000058
:20376c000000000000000000000000000000000000000000000000000000000000069f4058
:0a378c00000000001a7c000a000093
:20379600000000000000000000000000000000000000000000000000000000000169121483
:0937b60060000005a64850000067
:2037bf0000000000000000000000000000000000000000000000000000000000000695004f
:0a37df00240000001a540500000049
:2037e90000030000000000000000000000000000000000000000000000000000016912340d
:0938090000000005a45a00a00013
:203812000000000000000000000000000000000000000000000000000000000000069f40b1
:0a383200e2c000201a74000000003c
:20383c0000000000000000000000000000000000000000000000000000000000010f1680c6
:09385c0000040004cc5d0000042e
:20386500000020000000000000000000000000000000000000000000000000000000f00033
:0a388500000320003335e0000000ce
:20388f000000000000000000000000000000000000000000000000000000000000aa1280dd
:0938af0000000002a85819e00015
:2038b80000000000000000000000000000000000000000000000000000000000000aa04006
:0a38d800000000002a80000000003c
:2038e20000000000000000000000000000000000000000000000000000000000403c00004a
:09390200000000000000000800b4
:20390b00000000000000000000000000000000000000000000000000000000000003c001d8
:0a392b00c000000000000000400092
:2039350000000000000000000000000000000000000000000000000000000020005a0040b8
:0939550000000003c160018000c4
:20395e0000000000000000000000000000000000000000000000000000000000000a502cc3
:0a397e00000000003c000d000400f2
:20398800000000000000000000000000000000000000000000000000000000000100060018
:0939a80000000004000a00000008
:2039b1000000200000000000000000000000000000000000000000000000000004000000d2
:0a39d10000000010000105000000d6
:2039db00000000000000000000000000000000000000000000000000000000000169979635
:0939fb0020000005a65a00b000ee
:203a04000000000000000000000000000000000000000000000000000000000000069b0001
:0a3a2400040000001a45000a00002b
:203a2e00000000000000000000000000000000000000000000000000000001000169960077
:093a4e0000000005a45898a00036
:203a57000000000000000000000000000000000000000000000000000000000800069f4062
:0a3a7700000000001a5405000000d2
:203a810000030000000000000000000000000000000000000000000000000000000f100003
:093aa10004000005a648700400b1
:203aaa00000000000000000000000000000000000000000000000000000000000000f0000c
:0a3aca00020020001a45000aa000c7
:203ad40000000000000000000000000000000000000000000000000000000000403c5800fe
:093af40000000007c07e00000084
:203afd00000020000000000000000000000000000000000000000000000000000103c000c5
:0a3b1d00000000003c3c0000000026
:203b2700000000000000000000000000000000000000000000000000000000000000000e70
:093b470000000002a84100a000ea
:203b5000000000000000000000000000000000000000000000000000000000000000000055
:0a3b7000000000001540a000000056
:203b7a0000000000000000000000000000000000000000000000000000000000000000002b
:093b9a000000010395dcb80000f5
:203ba3000000000000000000000000000000000000000000000000000000014000000000c1
:0a3bc300000000000682b1000000bf
:203bcd0000000000000000000000000000000000000000000000000000000000005a004e30
:093bed0028000003c0600011c0b3
:203bf60000000000000000000000000000000000000000000000000000000000000a502035
:0a3c1600040000003c00000800005c
:203c2000000000000000000000000000000000000000000000000000000000000000000084
:093c400000000002986a00a400d3
:203c4900000020000000000000000000000000000000000008000000000000000000000033
:0a3c690000000000002da019a000cb
:203c7300000000000000000000000000000000000000000000000000000000000000000031
:093c93000000010004dd00a000a6
:203c9c00000000000000000000000000000000000000000000000000000000000000000008
:0a3cbc00000000002003800000005b
:203cc6000000000000000000000000000000000000000000000000000000000000000000de
:093ce60000000101a97f00a0000b
:203cef000000000000000000000000000000000000000000000000000000000000000000b5
:0a3d0f00000000200c02a5000000d7
:203d1900000300000000000000000000000000000000000000000000000000000000001e69
:093d390000000000000000a400dd
:203d4200000000000000000000000000000000000000000000000000000000000000000061
:0a3d6200000000000000051ba00097
:203d6c00000000000000000000000000000000000000000000000000000000000000000037
:093d8c00000000021d6880000027
:203d95000000200000000000000000000000000000000000000000000000000000000000ee
:0a3db500000000002804f9000000df
:203dbf0000000000000000000000000000000000000000000000000000000000005f76808f
:093ddf0000000002a9ee00000042
:203de800000000000000000000000000000000000000000000000000000000000005f04086
:0a3e0800000000002a820f000000f5
:203e1200000000000000000000000000000000000000000000000000000000000000000090
:093e320060000000000039e0000e
:203e3b00000000000000000000000000000000000000000000000000000000000000000067
:0a3e5b000400040000000000000055
:203e650000000000000000000000000000000000000000000000000000000000000000003d
:093e8500000000000000501000d4
:203e8e00000000000000000000000000000000000000000000000000000000000000000014
:0a3eae000000000000000088000082
:203eb8000000000000000000000000000000000000000000000000000000000001000714ce
:093ed80028000004001a0000009b
:203ee10000002000000000000000000000000000000000000000000000000000040000405d
:0a3f0100240000100001070000007a
:203f0b00000000000000000000000000000000000000000000000000000000000569978011
:093f2b0000000005a64e70001410
:203f34000000000000000000000000000000000000000000000000000000000000069d408a
:0a3f540002c000001a6d0d8000008d
:203f5e000000000000000000000000000000000000000000000000000000a00001699200a7
:093f7e0000000005a658580000df
:203f870000000000000000000000000000000000000000000000000000000400000691037c
:0a3fa700400000001a4d0000000069
:203fb10000030000000000000000000000000000000000000000000000000000013316e0c3
:093fd10060000007c0ee80000052
:203fda0000000000000000000000000000000000000000000000000000000000000ccd38b6
:0a3ffa00400000003c3d0b000000f9
:204004000000000000000000000000000000000000000000000000000000000000aa1200e0
:0940240000000002a84cd8a00025
:20402d0000002000000000000000000000000000000000000000000000000000000aa04069
:0a404d00000000002a8101100000ad
:2040570000000000000000000000000000000000000000000000000000001c0000f0180421
:094077000000010330cf381000f5
:2040800000000000000000000000000000000000000000000000000000000000000f002ce5
:0a40a000200000001342b08a000067
:2040aa000000000000000000000000000000000000000000000000000000000000f0700096
:0940ca00000000000ede998000e8
:2040d30000000000000000000000000000000000000000000000000000000000000f00823c
:0a40f3004000000428e5950b0000d2
:2040fd000000000000000000000000000000000000000000000000000000000000f0180695
:09411d0004000301354800000014
:2041260000000000000000000000000000000000000000000000000000000000000f00006a
:0a414600020000002c83ed000000d1
:20415000000000000000000000000000000000000000000000000000000000000100061632
:09417000384000024c69581000af
:204179000000200000000000000000000000000000000000080000000000000004000040ba
:0a4199002402100030c5900a000057
:2041a30000000000000000000000000000000000000000000000006dd01a000001691784a0
:0941c300000071428d5a81a00038
:2041cc00000000000000000000000000000000000000000000000002fc00000000069b40f4
:0a41ec002000004228c3050c10005b
:2041f6000000000000000000000000000000000000000000001020def00c000001699200a3
:0942160038000000000019b81086
:20421f000000000000000000000000000000000000000000000002042a01000000069d00ab
:0a423f0007c000000000000b008023
:2042490000030000000000000000000000000000000000000010041ca19e0000013397dc3c
:094269000400000015ea18100021
:204272000000000000000000000000000000000000000000000000002c000000000cc768c5
:0a429200220000060140000d0000ac
:20429c0000000000000000000000000000000000000000000014108f980c000000aa104ca5
:0942bc0000400001796b000014c0
:2042c50000002000000000000000000000000000000000000000220c0eb000000005503642
:0a42e50062400000021c800000800f
:2042ef0000000000000000000000000000000000000000000040140e1b080000005a33405d
:09430f00000000000000000000a5
:204318000000000000000000000000000000000000000000000002802db9e0000005257c97
:0a433800c00000000000000000407b
:2043420000000000000000000000000000000000000000000012100ed781000082f0100051
:09436200020000010a6901840057
:20436b000000000000000000000000000000000000000000000000000b00d000100f0080b8
:0a438b000000000012a5e010000081
:2043950000000000000000000000000000000000000000000000004ed018000000f050068c
:0943b50000000003d4680180003f
:2043be00000000000000000000000000000000000000000000000001df700000000f00027e
:0a43de0043000000014290100000af
:2043e800000000000000000000000000000000000000000000004001e00000000100800013
:094408000000000400180000008f
:2044110000002000000000000000000000000000000000000001000010000000040007004f
:0a4431000000001000010000000070
:20443b00000000000000000000000000000000000000000000005a65a00040000169968042
:09445b0004000005a658f8000059
:204464000000000000000000000000000000000000000000000001a75000020000069300a5
:0a448400020000001a6d0180000024
:20448e00000000000000000000000000000000000000000000005a45e0000000016917808e
:0944ae0000000005a45e100000ee
:2044b7000000000000000000000000000000000000000000000001a5c000000000069700e2
:0a44d700000000001a5c0000000065
:2044e100000300000000000000000000000000000000000000004ce4d98100000133934423
:0945010064000004ce4d0010809e
:20450a000000000000000000000000000000000000000000000003335a108000000cc3683a
:0a452a0022000000332da00800005d
:20453400000000000000000000000000000000000000000000002a84c500000000aa133601
:0945540000000002a84cd8000090
:20455d000000200000000000000000000000000000000000000002a810d800c0000aa041e1
:0a457d00400000002a810500000044
:20458700000000000000000000000000000000000000000000100f000000000000f05800ad
:0945a70068000100f00059c00099
:2045b0000000000000000000000000000000000000000000000000f000000040000f00802c
:0a45d000000000000f0000100000c2
:2045da00000000000000000000000000000000000000000000003c1e030a0000000000005a
:0945fa0068000003c0e079b00084
:204603000000000000000000000000000000000000000000000003c00009000000000000cb
:0a462300000000003c000009140034
:20462d00000000000000000000000000000000000000000300003c1c0000000000f018000a
:09464d002400020103ca801400dc
:204656000000000000000000000000000000000000000000000003c02090b000000f000012
:0a46760006800000003fef0a00007c
:02468000000038
:02468200110322
:02468400010132
:204686000000000000001c00100000000000004000000000000000000000000000000000a8
:0946a6000000000000000000000b
:2046af000000000000000100000000000000000000000000000000000000000000000000ea
:0a46cf0000000000000000000000e1
:2046d900000000000000000020000000000000800000000000000020000000000000000001
:0946f900000000000000000000b8
:20470200000000000000000000000000000000000000000000000000000000000000000097
:0a472200000000000000000000008d
:20472c00000000000800000010000000000000400000000000000000000000000000000015
:09474c0000000000000000000064
:204755000000000000c0000000000002000000000000000000000000000000000000000082
:0a477500000000000000000000003a
:20477f0000000000000800000000000020000000000800000000000020000000000000804a
:09479f000000000000020000000f
:2047a8000000000000000000000000000000000000000000000000000000000000000000f1
:0a47c80000000000000000000000e7
:2047d20000000000000c1a000000000030000000000c00000000000030000000000000c075
:0947f200000000000003000000bb
:2047fb0000000000000000000000000000000000000000000000000000000000000000009e
:0a481b000000000000000000000093
:20482500000000000c00000000000000000000000000000000000000000000000000000067
:094845000000000000000000006a
:20484e000000000000c0000001000000000000000000000000000000000000000000000089
:0a486e000000000000000000000040
:20487800000000000000000000000000000000000000000000000000000000000000000020
:0948980000000000000000000017
:2048a1000000000000000000020000000000000000000000000000000000000000000000f5
:0a48c10000000000000000000000ed
:2048cb000000000000080000000000002040000000080000000000002000000000000080bd
:0948eb00000000000002000000c2
:2048f400000000000000000001000000000380000000000000000000000000000000000020
:0a4914000000000000000000000099
:20491e00000000000000000000000000000000000000000000000000000000000000000079
:09493e0000000000000000000070
:20494700000000000000000000000000000000000000000000000000000000000000000050
:0a4967000000000000000000000046
:20497100000000000000000000000000000000000000000000000000000000000000000026
:094991000000000000000000001d
:20499a000000000000000000000000000000000000000000000000000000000000000000fd
:0a49ba0000000000000000000000f3
:2049c400000000000000000000000000000000000000000000000000000000800000000053
:0949e400000000000000000000ca
:2049ed0000000000000000000000000000000000000000000000000000000010000000009a
:0a4a0d00000000000000000000009f
:204a170000020000000000000000000000000000000000000000000000000000000000007d
:094a370000000000000000000076
:204a4000000000000000000000000000000000000000000000000000000000000000000056
:0a4a6000000000000000000000004c
:204a6a0000000000000000000000000000000000000000000000000000000000000000002c
:094a8a0000000000000000000023
:204a93000000300000000000000000000000000000000000000000000000000000000000d3
:0a4ab30000000000000000000000f9
:204abd000000000000000000000000000000000000000000000000000000000000000000d9
:094add00000000000000000000d0
:204ae6000000000000000000000000000000000000000000000000000000000000000000b0
:0a4b060000000000000000000000a5
:204b1000000000000000000000000000000000000000000000000000000000000000000085
:094b30000000000000000000007c
:204b390000000000000000000000000000000000000000000000000000000000000000005c
:0a4b59000000000000000000000052
:204b6300000200000000000000000000000000000000000000000000000000000000000030
:094b830000000000000000000029
:204b8c00000000000000000000000000000000000000000000000000000000000000000009
:0a4bac0000000000000000000000ff
:204bb6000000000000000000000000000000000000000000000000000000000000000000df
:094bd600000000000000000000d6
:204bdf000000000000000000000000000000000000000000000000000000000000000000b6
:0a4bff0000000000000000000000ac
:204c090000000000000000000000000000000000000000000000000000000000000000008b
:094c290000000000000000000082
:204c3200000000000000000000000000000000000000000000000000000000000000000062
:0a4c52000000000000000000000058
:204c5c00000000000000000000000000000000000000000000000000000000000000000038
:094c7c000000000000000000002f
:204c850000000000000000000000000000000000000000000000000000000000000000000f
:0a4ca5000000000000000000000005
:204caf000002000000000000000000000000000000000000000000000000000000000000e3
:094ccf00000000000000000000dc
:204cd8000000000000000000000000000000000000000000000000000000000000000000bc
:0a4cf80000000000000000000000b2
:204d0200000000000000000000000000000000000000000000000000000000000000000091
:094d220000000000000000000088
:204d2b00000030000000000000000000000000000000000000000000000000000000000038
:0a4d4b00000000000000000000005e
:204d550000000000000000000000000000000000000000000000000000000000000000003e
:094d750000000000000000000035
:204d7e00000000000000000000000000000000000000000000000000000000000000000015
:0a4d9e00000000000000000000000b
:204da8000000000000000000000000000000140000000000000000000000000000000000d7
:094dc800000000000000000000e2
:204dd1000000000000000000000000000000000000000000000000000000000000000000c2
:0a4df10000000000000000000000b8
:204dfb000002000000000000000000000000000000000000800000000020000000000000f6
:094e1b000000000000000000008e
:204e240000000000000000000000000000000000000000000000000000000000000000006e
:0a4e44000000000000000000000064
:204e4e00000000000000000000000000000000000000000000000000000000000000000044
:094e6e0000000001543a0080002c
:204e770000000000000000000000000000000000000000000000000000000000000000001b
:0a4e97000000000029569181000080
:204ea1000000000000000000000000000000000000000000000000000000000000000000f1
:094ec10000040000000000f000f4
:204eca000000000000000000000000000000000000000000000000000000000000000000c8
:0a4eea00000020000000000000009e
:204ef40000000000000000000000000000000000000000000000000000000000000000009e
:094f140000000000000030000064
:204f1d00000000000000000000000000000000000000000000000000000000000000000074
:0a4f3d00000000000000000000006a
:204f4700000200000000000000000000000000000000000000000000000000000000000048
:094f670000000042a81000f00057
:204f7000000000000000000000000000000000000000000000000000000000000000000021
:0a4f9000000000002a85a0010000c7
:204f9a000000000000000000000000000000000000000000000000000000000000000000f7
:094fba0002000003325e58d00031
:204fc30000003000000000000000000000000000000000000000000000000000000000009e
:0a4fe300000000004ce5f1010000a1
:204fed000000000000000000000000000000000000000000000000000000000000000000a4
:09500d0000000001a6c000000033
:2050160000000000000000000000000000000000000000000000000000000000000000007a
:0a503600000000005a658000000031
:205040000000000000000000000000000000000000000000000000000000004000aa000264
:0950600028000001a64000000038
:2050690000000000000000008000000000000000000000000000000000000000000aa1609c
:0a508900400000005a64c50a000050
:205093000002000000000000000000000000000000000000000000000000000040000400b7
:0950b300000001000000500000a3
:2050bc00000000000000000000000000000000000000000000000000000000000010006064
:0a50dc00000000004000e0000000aa
:2050e6000000000000000000000000000000000000000000000000000088004000000002e0
:0951060000000001d14f5000002f
:20510f000000000000000000000000000000000000000000000000000070100000000001ff
:0a512f00c00000002e26080000005a
:20513900000000000000000000000000000000000000000000003c0000000000006af2249a
:0951590000000001a43b900000dd
:205162000000000000000000000000000000000000000000000003c0c00000000006ad20d7
:0a51820000000010265c8000000011
:20518c00000000000000000000000000000000000000000000003c000100000000000000c6
:0951ac00240000014c0a009000ef
:2051b5000000000000000000000000000000000000000000200003c1408001000000000035
:0a51d5000000003028ce100000009a
:2051df000002000000000000000000000000000000000000000403c0b0100000000f000018
:0951ff0000000002a81000a0004d
:205208000000000000000000000000000000000000000000000003c04c00a0000000f100e6
:0a522800020000002a84e01f0000cd
:20523200000000000000000000000000000000000000000000003335e0000000000f000005
:0952520000000001a7c098a000b3
:20525b000000300000000000000000000000000000000000000044cc5d0000000010f10095
:0a527b00000000005a64c980000022
:20528500000000000000000000000000000000000000000000041a7c050a000000693400c3
:0952a50024000001a75000900054
:2052ae000000000000000000000000000000000000000000000005a64cd8a000001699388a
:0a52ce00004000005a65a501000031
:2052d800000000000000000000000000000000000000000000201a450000000000f0000047
:0952f80000000001a55000800037
:205301000000000000000000000000000000000000000000000005a65c0180080050f1704b
:0a532100000000005a448001000063
:20532b000002000000000000000000000000000000000000801000000000000040fa000096
:09534b0074000100000090000054
:205354000000000000000000000000000000000000000000000004000a000000001fa32049
:0a537400064000004000c980000060
:20537e00000000000000000000003c020000000000000000000000000d00000000000300c1
:09539e0000000000000000900076
:2053a7000000000000000000000003c0c0018000000000000000000000800000000a5020e8
:0a53c700000000000000000040009c
:2053d100000000000000000000000000000f00000000000000003c000000001000dd130071
:0953f10000000000000000014171
:2053fa000000000000000000000000000000100000000000000003c160000000000e132c12
:0a541a000000000000000580000003
:20542400000000000000000000003c02000000000000000000003c0000001c0000a50240eb
:0954440030300000000000e0001f
:20544d000000000000000000000003c0c018000000000001000003c0c00000000005a00477
:0a546d00000100000000001b000019
:205477000000000000000000002003c00f100000000000000000000000080000803a9400bd
:0954970000000003c0cdf000008c
:2054a00000000000000000000000003c4080e0000000000000000000000010000003ab68ea
:0a54c000068800001c65e8000000eb
:2054ca000000000000000000000203c1000000000000000000000000000b001000a5032613
:0954ea0000000001a75090000031
:2054f30000000000000000000000043c4c0000000000000000000000000000140005a00252
:0a551300600000005a64c8000000a8
:20551d00000000000000000000021a5c0000000000000000000000000080000000fa02c0ba
:09553d0028000201a7d0000000c3
:205546000000000000000000000015a64c000000000000000000000000380000000fa32c28
:0a556600000000005a45800000001c
:205570000000000000000000002025ac00000000000000000020154000000000000000268f
:095590000070000120d8080000a1
:205599000000000000000000000005a6400000000000000002005154480000000000000216
:0a55b900600500407b64c19e000005
:2055c3000000000000000000001000000000000000000000000c1a75000d000000f0080018
:0955e30028100100000001000085
:2055ec000000000000000000000004000e00000000000000800015a45e001080000f0180d6
:0a560c00000000004001800a0000c9
:20561600000000000000000000000000000004000000000000013c000000000000f00282bf
:0956360024020000000000000045
:20563f0000000000000000000000000000000000000000000008043c580000c0000aa72119
:0a565f00e0005000000000200000f1
:20566900000000000000000000000000000000000000000000601a7c000000000074138024
:0956890029020203c00000000028
:205692000000000000000000000000000000000000000000000405a44c10c000000b85009f
:0a56b200028000003c14000000001c
:2056bc000000000000000000000000000000000000000000006025940000000000a5039479
:0956dc0000000033c00000e000f2
:2056e5000000000000000000000000000000000000000000000205a4400000000005a00114
:0a57050062800000bc0e00010000ed
:20570f000002000000000000000000000000000000000000002425a40000000010aa0400cd
:09572f0000000000000000000071
:205738000000000000000000000000000000000000000000000015a64000c000000aa16883
:0a5758000000000000000000000047
:20576200000000000000000000000000000000000000000000021a54000d000000cc76a4c4
:0957820020000043c020000000db
:20578b000000300000000000000000000000000000000000000855a64e00b0000813397405
:0a57ab00004000003c060000000072
:2057b5000000000000000000000000000000000000000000000225a4000e00000069f4009e
:0957d50028000000000000f400af
:2057de000000000000000000000000000000000000000000000815a44000000008169920d3
:0a57fe0000000000000000000000a1
:205808000000000000000000000000000000000000000000002025a40b0e000000693400e1
:0958280000000000000070000007
:205831000000000000000000000000000000000000000000000025a640d00000011699705c
:0a5851000000000000000800001c29
:20585b000002000000000000000000000000000000000000801000140b000002c050040264
:09587b002070000000000000088c
:205884000000000000000000000000000000000000000000000004020080000000550770b2
:0a58a400404000000000000000007a
:2058ae00000000000000000000000000000000000000000000021a4100100000000000006d
:0958ce0028000003c00001fa00eb
:2058d7000000000000000000000000000000000000000000000209a57a01a00000000000e6
:0a58f700004010203c1c0718400080
:20590100000000000000000000000000000000000000000000003c020008000000f0080048
:09592100240000000000f1000068
:20592a000000000000000000000000000000000000000000000003c060001000100f038088
:0a594a00070000000000000e00003e
:205954000000000000000000000000000000014000000000008014000f0f0000003c000004
:0959740000000040d81df80000fd
:20597d00000000000000000000000000000000080000000000001941780010000403c00158
:0a599d00400000100d47bd0000009f
:2059a700000200000000000000000000000000000000000000000f009000080000cc9700d4
:0959c700340000030c0e71000015
:2059d0000000000000000000000000000000000000000000000100f0000000000003313161
:0a59f0006040001003c6d01800004c
:2059fa00000000000000000000000000000000000000000000003c02050a000400cc72807e
:095a1a0020000002415ad0d00026
:205a2300000030000000000000000000000001c000000000000003c0e0198100c013393ced
:0a5a4300004000001427cd81000090
:205a4d0000000000000000000000000000000000000000000020101dc0000000006954026d
:095a6d0040000000003df0f000d3
:205a76000000000000000000000000000000000000000000000000037b00000000169131ba
:0a5a9600e78000111014e001000089
:205aa0000000000000000000000000000000000000000000000014008088800000691400cd
:095ac00040000001037ef0aa0081
:205ac900000000000000000000000000000000000000000000022828585001c1c01699286a
:0a5ae900028000000027f81b4000b7
:205af300000200000000000000000000000000000000000000283c000100140040050404cb
:095b130000000000000000040085
:205b1c00000000000000000000000000000000000000000000040c3c4e0180001010577067
:0a5b3c00000000000000000000005f
:205b4600000000000000000000000000000000000000000000043c010008200004f00800da
:095b660020000000f17b0080c06a
:205b6f00000000000000000000000000000000000000000000020c3c5e1814c0000f0180f2
:0a5b8f00004000800e36e001000027
:205b9900000000000000000000000000000000000000000000403c0100000004000000006b
:095bb90000000000002d000000b6
:205bc200000000000000000000000000000000000000000000020c3c5a018000c0000000de
:0a5be20000000000014cc780000025
:205bec00000000000000000000000000000000000000000040843c000000a14000000014a4
:095c0c00000000000b5df801002e
:205c1500000000000000000000000000000000000000000002001c3c5a000488000000002f
:0a5c350000000020016dd700000000
:205c3f00000200000000000000000000000000000000000000043c000000140000aa040041
:095c5f0040000002a81079e000e9
:205c6800000000000000000000000000000000000000000000020c3c5e000000000aa120a9
:0a5c8800078000002a84890900004b
:205c92000000000000000000000000000000000000000000002428019180000000cc178031
:095cb2002c000003305e18e00034
:205cbb00000030000000000000000000000000000000000000000c284bd180c00013392499
:0a5cdb00000000004ce49b81000073
:205ce500000000000000000000000000000000000000000000263c01010000000069500082
:095d050040000001a440780000f8
:205d0e00000000000000000000000000000000000000000000000c3c4a980000001691683c
:0a5d2e00028000005a648f0000009c
:205d3800000000000000000000000000000000000000000000223c0000100000006914243c
:095d580040000201a45000a20069
:205d6100000000000000000000000000000000000000000000000c3c4e10a0c1c01699703c
:0a5d8100028000005a64a00a00002e
:205d8b000002000000000000000000000000000000000000800000340000000040000036cc
:095dab000000010000005004009a
:205db400000000000000000000000000000000000000000000000402180008000010003168
:0a5dd400400000004000c50a200056
:025dde000000c3
:035de00062003f1f
:035de300720080cb
:025de6001100aa
:035de80082000036
:025deb000103b2
:085ded000000000000000000ae
:085df5000000000000000000a6
:085dfd0000000000000000009e
:085e0500000000000000000095
:0261ed000000b0
:0361ef00820080ab
:0261f2000103a7
:0861f4000000000000000000a3
:0861fc0000000000000000009b
:08620400000000000000000092
:08620c0000000000000000008a
:0265f4000000a5
:0265f600110191
:0365f8008200001e
:0265fb0001039a
:0865fd00000000000000000096
:0866050000000000000000008d
:08660d00000000000000000085
:0866150000000000000000007d
:0269fd00000098
:0369ff0082008093
:026a020001038e
:086a040000000000000000008a
:086a0c00000000000000000082
:086a140000000000000000007a
:086a1c00000000000000000072
:026e040000008c
:026e0600110277
:036e080082000005
:026e0b00010381
:086e0d0000000000000000007d
:086e1500000000000000000075
:086e1d0000000000000000006d
:086e2500000000000000000065
:02720d0000007f
:03720f008200807a
:02721200010376
:08721400000000000000000072
:08721c0000000000000000006a
:08722400000000000000000062
:08722c0000000000000000005a
:02761400000074
:0276160011035e
:03761800820000ed
:02761b00010369
:08761d00000000000000000065
:0876250000000000000000005d
:08762d00000000000000000055
:0876350000000000000000004d
:027a1d00000067
:037a1f0082008062
:027a220001035e
:087a240000000000000000005a
:087a2c00000000000000000052
:087a340000000000000000004a
:087a3c00000000000000000042
:027e240000005c
:017e26002239
:027e2700ac733a
:027e2900010650
:00000001FF
