:02000000ff00ff
:080002004c6174746963650030
:17000a00694345637562653220323031342e31322e32373035320077
:16002100506172743a2069434534304858314b2d545131343400fc
:1b003700446174653a204a756e20323320323031352032323a31323a3431007c
:0200520000ffad
:040054007eaa997e69
:02005800510055
:02005a0001059e
:03005c00920020ef
:03005f0062014bf0
:0300620072009099
:0300650082000016
:02006800110085
:02006a00010192
:20006c00000000000000000000000000000000000000000000000000000000000000000074
:09008c000000000000000000006b
:2000950000000000000000000000000000000000000000000000000000000000000000004b
:0a00b5000000000000000000000041
:2000bf00000000000000000000000000000000000000000000000000000000000000000021
:0900df00000000400000000000d8
:2000e8000000000000000000000000000000000000000000000000000000000000000000f8
:0a010800000000000000006000008d
:200112000000000000000000000000000000000000000000000000000000000000000000cd
:09013200000000000004000000c0
:20013b000000000000000000000000000000000000000000000000000000000000000000a4
:0a015b00000000000000000000009a
:200165000000000000040000000000001000000000000040000000001000000000000040d6
:0901850000000000000000000071
:20018e00000000000000000000000000000000000000000000000000000000000000000051
:0a01ae000000000000000000000047
:2001b80000000000000c00000000000030000000000000c00000000030400000000000c0fb
:0901d8000000000000010000001d
:2001e1000000000000000000000000000000000000000000000000000000000000000000fe
:0a02010000000000000000000000f3
:20020b000000000000000000000000000000000000000000000000000000000000000000d3
:09022b00000000000000000000ca
:200234000000000000000000000000000000c00000000000000000000000000000000000ea
:0a02540000000000000000000000a0
:20025e00000000000000000000000050000000000000000000000000000000000000000030
:09027e0000000000000000000077
:200287000000000000000000000000008000000000000000000000000000000000000000d7
:0a02a700000000000000000000004d
:2002b100000000000004000000000000100000000000004000000000100000000000004089
:0902d10000000000000100000023
:2002da00000000000000000000000000000000000000000000000000000000000000000004
:0a02fa0000000000000000000000fa
:200304000000000000000000000000000000000000000000000000000000000000000000d9
:09032400000000000000000000d0
:20032d00000020000000000000000000000000000040000000000000000000000000000050
:0a034d0000000000000000000000a6
:20035700000000000000000000000000000000000000000000000000000000000000000086
:090377000000000000000000007d
:2003800000000000000000000000000000000000000000000000000000000000000000005d
:0a03a0000000000000000000000053
:2003aa00300000000000000000000000000000000000000000000000000000000000000003
:0903ca000000000000000000002a
:2003d3000300200000000000000000000000000000000000000000000000000000000000e7
:0a03f3000000000000000000000000
:2003fd000203000000000000000000000000000000000000000000000000000000000000db
:09041d00000000000000000000d6
:200426000000000000000000000000000000000000000000000000000000000000000000b6
:0a04460000000000000000000000ac
:2004500000000000000000000000000000000000000000000000000000000000000000008c
:0904700000000000000000000083
:20047900000020000000000000000000000000000000000000000000000000000000000043
:0a0499000000000000000000000059
:2004a300000000000000000000000000000000000000000000000000000000000000000039
:0904c30000000000000000000030
:2004cc00000000000000000000000000000000000000000000000000000000000000000010
:0a04ec000000000000000000000006
:2004f6000000000000000000000000000000000000000000000000000000000000000000e6
:09051600000000000000000000dc
:20051f000000000000000000000000000000000000000000000000000000000000000000bc
:0a053f0000000000000000000000b2
:2005490000040000000000000000000000000000000000000000000000000000000000008e
:0905690000000000000000000089
:200572000002800000000000000000000000000000000000000000000000000000000000e7
:0a059200000000000000000000005f
:20059c000002000000000000000000000e0008000000000000000000000000000000000027
:0905bc0000000000000000000036
:2005c5000000200000000000000000000000000200000000000000000000000000000000f4
:0a05e500000000000000000000000c
:2005ef000002000000000000000000000e99680000000000000000000000000000000000db
:09060f00000000000000000000e2
:2006180000000000000000000000003c002a960000000000000000000000000000000000c6
:0a06380000000000000000000000b8
:200642000000000000000000000000000c996800000000000000000000000000000000008b
:090662000000000000000000008f
:20066b00000020000000000000000000002896000000000000000000000000000000000091
:0a068b000000000000000000000065
:20069500000300000000000000000000008f000000000000000000000000000000000000b3
:0906b50000000006000000000036
:2006be00000000000000000000000c3c0000f00000000000000000000000000000000000e4
:0a06de000000000000000000000012
:2006e80000000000000000000000000680000000000000000000000000000000000000006c
:09070800000000200000000000c8
:20071100000020000000000000000000400000000000000000000000000000000000000068
:0a07310000000000000000000000be
:20073b000000000000000000000000e040000000000000000000000000000000000000007e
:09075b0000000000000000000095
:20076400000000000000000000000002200000000000000000000000000000000000000053
:0a078400000000000000000000006b
:20078e0000000000000000000000000000c0f000000000000000000000000000000000009b
:0907ae0000000000000000000042
:2007b70000000000000000000000000000100f000000000000000000000000000000000003
:0a07d7000000000000000000000018
:2007e1000000000000000000000000000000000000000000000000000000000000000000f8
:09080100000000000000000000ee
:20080a000000000000000000000000000000000000000000000000000000000000000000ce
:0a082a0000000000000000000000c4
:200834000000000000000000001001429e00080000000000000000000000000000000000ab
:090854000000000000000000009b
:20085d000000200000000000000000002800000200400000000000000000000000000000f1
:0a087d000000000000000000000071
:200887000002000000000000000000001e8968000000000000000000000000000000000040
:0908a70000000000000000000048
:2008b000000000000000000000000000002c96000000000000000000000000000000000066
:0a08d000000000000000000000001e
:2008da00000000000000000000000000048968000000000000000000000000000000000009
:0908fa00000000000000000000f5
:20090300000000000000000000000000000e96000000000000000000000000000000000030
:0a09230000000000000000000000ca
:20092d00000300000000000000000000448968000000000000000000000000000000000072
:09094d00000000000000000000a1
:20095600000000000000000000000000202c9600000000000000000000000000000000009f
:0a0976000000000000000000000077
:200980000000000030000000000001c0168f080000000000000000000000000000000000b9
:0909a0000000000000000000004e
:2009a9000000200000800000000000000020f000000000000000000000000000000000007e
:0a09c9000000000000000000000024
:2009d30000000000000000000000000000855000000000000000000000000000000000002f
:0909f300000000000000000000fb
:2009fc000000000000000000000000000240aa0000000000000000000000000000000000ef
:0a0a1c0000000000000000000000d0
:200a2600000000000000303c000001c005a5a0000000000000000000000000000000000039
:090a4600000000000000000000a7
:200a4f000000000000000003c000000000305a00000000000000000000000000000000003a
:0a0a6f00000000000000000000007d
:200a79000000000000000000000000028000000000000000000000000000000000000000db
:090a990000000000000000000054
:200aa20000000000000000000000000c4000000000000000000000000000000000000000e8
:0a0ac200000000000000000000002a
:200acc000000000000070002000000001c00080000000000000000000000000000000038a5
:090aec00002000000061600080a0
:200af500000020000000000000800000280000020000000000000000000000000000000017
:0a0b150000000800000402000020a8
:200b1f00000000000007a65a000001401c9968001000000000040000000000000000005ae3
:090b3f0065a000000600e99680a3
:200b480000000000000002e58000000028089600028000000000a00000000000000000003e
:0a0b6800365800000000028960000a
:200b7200000000000183265a00000142868968000000000000000000000000000000003273
:090b920065a000000605689680cc
:200b9b0000000000000003a580000000000a96000000000000000000000000000000000072
:0a0bbb0032580000002240a960003b
:200bc500000300001807a25a0000006044996800000000000000000000000000000180daf2
:090be50033200000202ae8cc8036
:200bee0001000000000a03e58000001420289600000000000000000000000000000000077b
:0a0c0e003ccc00000246deb33000cb
:200c180000000000580ba33200000000368cc80000000000000000000000000000059a3229
:090c3800154000000000485500c1
:200c41000000200000005bccc0000000016b330000000000000000000000000000000000ed
:0a0c6100815400000000020550005d
:200c6b000000000081a3a15400000000269cc000000000000000000000000000000d1a07a0
:090c8b0003c0000000041a0f0070
:200c9400000000000500001540000000006a330000000000000000000000000000005000f9
:0a0cb400003c000000020100f00007
:200cbe000000000001b000f0080001c00180f000000000000000000000000000000001003a
:090cde000000004000001a0f00a4
:200ce700000000000f0ad00f0000003c00000f00000000000000000000000000000000a00a
:0a0d07000000000000000000f000f2
:200d110000000000d80801680000000001a0f00000000000000000000000000000080000e0
:090d3100000000002002005a003d
:200d3a00000000000b0070294000000000000f000000000000000000000000000000100096
:0a0d5a00000000000040340a5000c1
:200d6400000100005005000200000140058aa08000000000000000060000000000050a789a
:090d8400002000000000010080c5
:200d8d000000200000000000008000020010aa0000400000000000000000000000000000aa
:0a0dad0000000800000000a0002074
:200db700000200000005a65a0000000780000000000000000000d403000000004000005a1d
:090dd70065a000000000089680f0
:200de00000000000050003e580000000400000000000000000000080400000000000500036
:0a0e00002e580000000000b691809b
:200e0a000000000000a1265a0000000000000000000000000000034000000000000018123a
:090e2a0065a0000000000896819b
:200e3300800000000b0a02a58000000000000000000000000000001e00000000000000a025
:0a0e5300225801000002c0e69010d2
:200e5d0002030000d005a25a0000000000000000000000000000100600a5520000018156ba
:090e7d0003e000001400c8969087
:200e860000000000070a02e5800200000000000000000000000000000140aa00080000805f
:0a0ea600ac3c0020002000f96000c1
:200eb00000000000000da332000000001ff0320000000000000000000ee8e03000000012e7
:090ed00015400000200008969175
:200ed9000000200000007accc000000c00ed9420000000000000000003e033000000000010
:0a0ef9008154010001c000f69000d2
:200f0300000000000001a15400000000000000000000000000040006000000000005800643
:090f230003c000000000099690d3
:200f2c000000000000000015400000003c00000000000000000020000000000000000000f4
:0a0f4c00003c00000002c0e6901413
:200f5600000000100000683c0000000000e0f000000000000000020304f5321000000007b0
:090f760003c000003429c9968172
:200f7f000000000000000003c000000c00000f01000000000000001c43ebea00000000003f
:0a0f9f00003c000001e6c0e960809c
:200fa90000000000181001680000000000000000000000000000000034e210000008000069
:090fc900000000201400e8f09083
:200fd20000000000000850294000002c2c0000000000000000000000025a480000005000f2
:0a0ff2000000000003600200f20896
:200ffc000000000051e100020000400035c7120000000000000000035de0000000000070a3
:09101c004020000000296996a0a3
:2010250040002000000008000080000001ff8e00000000000000000c2040a0000000000029
:0a104500b8000000000000b961408f
:20104f000000000000a5a65a00a0000001ef060000000000000000002eecb02288000a7256
:09106f003c300a000000c8aa2070
:201078004000000005000265804800000010f00100000000000000000170d700600001003a
:0a109800003c02800140000aa100a4
:2010a2000000000000a1265a00c0080040000000000000000000000021e6902000001952e3
:0910c2003c30000000020e9640d3
:2010cb0000000000000a02a5800400003c000000000000000000000003c0960000000080bb
:0a10eb00803c010000001d0690107b
:2010f500000300055005a25a000000c040000000000000000000026064db9000280181d2d5
:09111500143000a02068d85a0033
:20111e0000000000200002e5800004022800000000000000000000042dcb890041000089ad
:0a113e0080140100e3c00e9b400086
:2011480000000000580ba3320000000340000000000000000000000644e0f0000000007a78
:091168003c30000e86040000007a
:201171000000200000007accc00000006c000000000000000000001c3af0f5000000000091
:0a119100003c05000762400000006a
:20119b00000000000181a154000000031fb0910000000000001000407efcc0000000005a76
:0911bb003c3000200001fe0a494d
:2011c40080000003000000154000000002cb0f00000000000000000235ec330000200000e1
:0a11e400003c010400000100a2001d
:2011ee0000000000000832a844002003b6d0c1000000000000000063ace0d0200001815a96
:09120e003c300000000400000067
:20121700000000000000f0154240000001fa6100000000000000001c25e07000000000a0a3
:0a123700803c010a000200000000e4
:201241000000000518e0683c000000e200000000000000000000024776825020002d987a1a
:091261003c3000000628000000ea
:20126a000000000020000003c000000240000000000000000000002e7fd026000004100088
:0a128a00803c010000040000000099
:201294000000000000030002000000000caff000000000000000000625bcc00000018072f0
:0912b4003c300000b660000000af
:2012bd0000002000000a0000008000000150fa00404000000000001c2069330000000000c4
:0a12dd00003c1000114680000000e4
:2012e700000000005007a65a00a001601de0f0002800000000000002a4acc02280000a5a62
:09130700141000000e027c8000ad
:201310000000000005000a258008000000d00f00410000000000002425503300202001a133
:0a1330008028000002601c900004f9
:20133a000000000018a1a65a00400167d58650200000000000002146000000000007800079
:09135a00000001001c2800000045
:2013630000000000008002e5800c000029600020000000000000001c0000000000000000b2
:0a1383000000001001c0000000008f
:20138d000003000000e1265a4000000000000000000000000000000004a0f200000019d31a
:0913ad00460000200001c8000008
:2013b600000000000d000a258000000000000000000000000000001c03e0f000400050ad2f
:0a13d6007c94010000002d8020002f
:2013e000000000005807e03e0010406000000000000000000000026007acc02000000100ca
:09140000000000001c63cc020294
:2014090000002000070002c3c001000000000000000000000000000400603301000000f08e
:0a1429000000000000041e00000097
:20143300000000000001a154000000e380000000200000000000c00034c330000008000031
:091453000000000020005ef5011c
:20145c00000000038000001540400000400000000100000000000000016acc000000500090
:0a147c00000000000140010f5000c5
:20148600000000003817683c020021c00fc05400000000000000000046cd10200008000002
:0914a6000000000006046a830046
:2014af0000000000000d5b8cc00000000010052080000000000000003020d1000280100001
:0a14cf0000000000003274a1800448
:2014d900000000008180303c00000007000000000000000000000000000000000000009fe0
:0914f900400c0020066000000018
:201502000000000001000003c000000040000000000000000000000000000000000000e9dc
:0a152200a840401083e40000000020
:20152c0000000000018962940200000020a054001000000000000003800000000005000071
:09154c00000000001c3e48a10053
:2015550000002000000058154010004000d00a01008000000000000000000000000050b0fe
:0a15750000000000000215950000c0
:20157f0000000000d0b1e34c08a0000000cf040020000000000002406ed930028000003a8c
:09159f000f000a002e38ee500284
:2015a800400000000198743440080a000010f000010000000000403e3d5d6c10200000f3a8
:0a15c80060b0008002e02f04000074
:2015d200000000300003eb1408c0e00041ef040000000000000000000000000000000000eb
:0915f20000000000366a6ba50040
:2015fb000000000000000831404c00003c10f00000000000000000000000000000000000cf
:0a161b00000000000043b5e40000e9
:20162500000300009803764c000000000000000000000000000003e02fc0000000001a9bbe
:09164500e00000001c70ea5002f4
:20164e00000000000f007f9b0000000000000000000000000000003400600a00000001e3d1
:0a166e00f40000000004040700006f
:201678000000000080a3783c040020001ea05718080000000002000037e800201003de8769
:091698008280000e263a688000f1
:2016a100000000000108bc15400000003410050000000000000040003c5000000280080769
:0a16c10000140000026417c00000ce
:2016cb000000000001837270080000000014240000000000000000e3978010380009087690
:0916eb0080808000200218a0009c
:2016f40000000800000a7c18c000000c334e8100003800000000003e7fd000110018f00b79
:0a171400400c00020042fc0500003a
:20171e00000000000009e2940000000220a0540000200000000001e027d8e018000f887611
:09173e00bfd080000061cb000067
:20174700080000000500f82a8000800042d00a0000000000000000062a4a0f28000030094d
:0a17670043f4800003403cf5200825
:201771000000000081e1b108080080000000000000000000000400001cc3f010000b881728
:091791008280002006756aff4009
:20179a0080000000011970388000002c34000000000000000000a00021d9a8080000b00013
:0a17ba004028800000032dcf7200cc
:0217c400000023
:0217c60011010f
:0217c80001011d
:2017ca000000000000000000000000000000000000000000000000000000000000000000ff
:0917ea00000000000000000000f6
:2017f3000000000000000000000000000000000000000000000000000000000000000000d6
:0a18130000000000000000000000cb
:20181d000000000000000000000000000000000000000000000000000000000000000000ab
:09183d00000000000000000000a2
:20184600000000000000000000000000000000000000000000000000000000000000000082
:0a1866000000000000000000000078
:20187000000000000000000000000000000000000000000000000000000000000000000058
:091890000000000000000000004f
:2018990000000000000000000000000000000000000000000000000000000000000000002f
:0a18b9000000000000000000000025
:2018c300000000000004000000000000100000000000004000000000100000000000004061
:0918e300000000000001000000fb
:2018ec000000000000000000000000000000000000000000000000000000000000000000dc
:0a190c0000000000000000000000d1
:2019160000000000000c00000000000030000000000000c00000000030000000000000c0c5
:09193600000000000003000000a5
:20193f00000000000000000000000000000000000000000000000000000000000000000088
:0a195f00000000000000000000007e
:2019690000000000000000000000000000000000000000000000000000000000000000005e
:0919890000000000000000000055
:20199200000000000000000000000000000000000000000000000000000000000000000035
:0a19b200000000000000000000002b
:2019bc0000000000000000000000000000000000000000000000000000000000000000000b
:0919dc0000000000000000000002
:2019e5000000000000000000000000000000000000000000000000000000000000000000e2
:0a1a050000000000000000000000d7
:201a0f00000000000004000000000000100000000000004000000000100000000000004013
:091a2f00000000000001000000ad
:201a380000000000000000000000000000000000000000000000000000000000000000008e
:0a1a58000000000000000000000084
:201a6200000000000000000000000000000000000000000000000000000000000000000064
:091a82000000000000000000005b
:201a8b0000000000000000000000000000000000000000000000000000000000000000003b
:0a1aab000000000000000000000031
:201ab500000000000000000000000000000000000000000000000000000000000000000011
:091ad50000000000000000000008
:201ade000000000000000000000000000000000000000000000000000000000000000000e8
:0a1afe0000000000000000000000de
:201b08000000000000000000000000000000000000000000000000000000000000000000bd
:091b2800000000000000000000b4
:201b3100000000000000000000000000000000000000000000000000000000000000000094
:0a1b5100000000000000000000008a
:201b5b00000200000000000000000000000000000000000000000000000000000000000068
:091b7b0000000000000000000061
:201b8400000000000000000000000000000000000000000000000000000000000000000041
:0a1ba4000000000000000000000037
:201bae00000000000000000000000000000000000000000000000000000000000000000017
:091bce000000000000000000000e
:201bd7000000300000000000000000000000000000000000000000000000000000000000be
:0a1bf70000000000000000000000e4
:201c01000000000000000000000000000000000000000000000000000000000000000000c3
:091c2100000000000000000000ba
:201c2a0000000000000000000000000000000000000000000000000000000000000000009a
:0a1c4a000000000000000000000090
:201c5400000000000000000000000000000000000000000000000000000000000000000070
:091c740000000000000000000067
:201c7d00000000000000000000000000000000000000000000000000000000000000000047
:0a1c9d00000000000000000000003d
:201ca70000020000000000000000000000000000000000000000000000000000000000001b
:091cc70000000000000000000014
:201cd0000000000000000000000000000000000000000000000000000000000000000000f4
:0a1cf00000000000000000000000ea
:201cfa000000000000000000000000000000000000000000000000000000000000000000ca
:091d1a00000000000000000000c0
:201d23000000000000000000000000000000000000000000000000000000000000000000a0
:0a1d43000000000000000000000096
:201d4d00000000000000000000000000000000000000000000000000000000000000000076
:091d6d000000010000000000006c
:201d760000000000000000000000000000000000000000000000000000000000000000004d
:0a1d96000000001000000000000033
:201da000000000000000000000000000000000000000000000000000000000000000000023
:091dc0000000000000000000001a
:201dc9000000000000000000000000000000000000000000000000000000000000000000fa
:0a1de90000000000000000000000f0
:201df3000002000000000000000000000000000000000000000000000000000000000000ce
:091e1300000000000000000000c6
:201e1c000000000000000000000000000000000000000000000000000000000000000000a6
:0a1e3c00000000000000000000009c
:201e460000000000000000000000000000000000000000000000000000000000000000007c
:091e660000000000000000000073
:201e6f00000030000000000000000000000000000000000000000000000000000000000023
:0a1e8f000000000000000000000049
:201e9900000000000000000000000000000000000000000000000000000000000000000029
:091eb90000000000000000000020
:201ec200000000000000000000000000000000000000000000000000000000000000000000
:0a1ee20000000000000000000000f6
:201eec000000000000000000000000000000000000000000000000000000000000000000d6
:091f0c00000000000000000000cc
:201f15000000000000000000000000000000000000000000000000000000000000000000ac
:0a1f350000000000000000000000a2
:201f3f0000020000000000000000000000000000040000000000000000000000000000007c
:091f5f0000000000000000000079
:201f6800000000000000000000000000000000000000000000000000000000000000000059
:0a1f8800000000000000000000004f
:201f920000000000000000000000000000000000000000000000000000000000000000002f
:091fb20000000000000000000026
:201fbb00000000000000000000000000000000000000000000000000000000000000000006
:0a1fdb0000000000000000000000fc
:201fe5000000000000000000000000000000000000000000000000000000000000000000dc
:09200500000000200000000000b2
:20200e000000000000000000000000000000000000000000000000000000000000000000b2
:0a202e0000000004000000000000a4
:20203800000000000000000000000000000000000000000000000000000000000000000088
:092058000000000000000000007f
:2020610000000000000000000000000000000000000000000000000000000000000000005f
:0a2081000000000000000000000055
:20208b00000200000000000000000000000000000000000000000000000000000000000033
:0920ab000000000000000000002c
:2020b40000000000000000000000000000000000000000000000000000000000000000000c
:0a20d4000000000000000000000002
:2020de000000000000000000000000000000000000000000000000000000000000000000e2
:0920fe00000000000000000000d9
:20210700000030000000000000000000000000000000000000000000000000000000000088
:0a21270000000000000000000000ae
:2021310000000000000000000000000000000000000000000000000000000000000000008e
:0921510000000000000000000085
:20215a00000000000000000000000000000000000000000000000000000000000000000065
:0a217a00000000000000000000005b
:2021840000000000000000000000000000000000000000000000000000000000000000003b
:0921a40000000000000000000032
:2021ad00000000000000000000000000000000000000000000000000000000000000000012
:0a21cd000000000000000000000008
:2021d7000002000000000000000000000000000000000000000000000000000000000000e6
:0921f700000000000000000000df
:202200000000000000000000000000000000000000000000000000000000000000000000be
:0a22200000000000000000000000b4
:20222a0000000000000b803801000000000000000000000000080047400000000000000041
:09224a0000000000360000000055
:202253000000000000005a974480000000000000000000000000000078000000000000003e
:0a22730000000000026000000000ff
:20227d00000000000001425800000000000000000000000000100004000000000020000072
:09229d00000000000c000000002c
:2022a60000000003001c069a40800000000000000000000000010000200000000005000073
:0a22c60000000000e200000000002c
:2022d00000000000100573140000000000000000000000000010040000000000000000003e
:0922f000000000000000000000e5
:2022f900000000000980da94c4000000000000000000000000010000000000000000000009
:0a23190000000000000000000000ba
:2023230000020000080f4330000000000000000000000000000000043c89600000000000e5
:092343000000000002200000006f
:20234c0000000000011c3a8cc08000000000000000000000000000007a1f6900000000004c
:0a236c0000000000004040000000e7
:202376000000000071d0415480200000000000000000000000000042ad8cc0000000000096
:09239600000002000201c0aa08c7
:20239f00000030000b8912954000000000000000000000000000002c007e33200000000076
:0a23bf000000000000c017e000005d
:2023c9000000000001d0000000c0000400000000000000000000000000000000000000005f
:0923e900000000000002c05f09c1
:2023f20080000000051d0000000400002000000000000000000000006000000000000000a5
:0a2412000000000000000d800484ab
:20241c0000000000f8010238008000200000000000000000000001c0360cc000000000000a
:09243c000000080002000000008d
:20244500000000000f8abe2c848a000c000000000000000000000400035a33020000000044
:0a246500000000a00160000000006c
:20246f0000020000700dfc40000003c00400a0d80400000000000002a5fab00000000000fe
:09248f00000000000000000f0035
:2024980000000000000a9a100000002000685061000000000000000c017e55000000000057
:0a24b80000000000000001e0f20047
:2024c2000000000011d13b30000000000000f008000000000010000407c25080000b0e1cd3
:0924e2002a800000000000000047
:2024eb0000000000080fb2e5800000000148f0808000000000000000797ea400000080113e
:0a250b00385c08000000000000002a
:20251500000000009183c0c0000003400000f00000000000000003c026dc5200000099ba75
:09253500f00000000000000000ad
:20253e0000000003001dfb800480002001c8f0808000000000000000036f5300000070aba5
:0a255e00700c0000000000000000f7
:202568000000000090910330010002c00200f000000000000008024780000000100009fe62
:09258800f3000000000000000057
:20259100000000000000b2a5868000200148f08080100000000000007c00000000807819d7
:0a25b1006ccc0000e8000000000000
:2025bb0000020000100bc03c000000000000f0000000000000000020150e6200000000f85a
:0925db00018000810000000000f5
:2025e40000000000080096bc000000000168f0808000000000000004716c3702000018c72b
:0a26040031800c0008000000000007
:20260e000000000000e783c0002001400200f08000000000000003c2a508e00000000af45f
:09262e003300020000000000006e
:202637000000300000005283c00000000068f081000000000000002038eab2020100019f4e
:0a26570038cc08000000000000006d
:202661000000000001e527cc000800400000f08000000000000000243591a21000000c948c
:0926810017c00000000000000079
:20268a0000000000051e76430000000e2948f08100000000000000142a5da400000001c95b
:0a26aa0029540000000000000000a9
:2026b4000000000000a141c4000000074000f0800000000000000002400000000000081f40
:0926d400a6400000000000000017
:2026dd00000000000500d393408000003ce8f0800000000000000000040000000000001109
:0a26fd0064d8000000000000000097
:20270700000200007001fd90000a01c00280000000000000000000200000000000008cfebb
:0927270073000000000000000036
:2027300000000000000a56c9800040200060008000000000000000043000000000007805ef
:0a275000f8cc0000000000000000bb
:20275a0000000000000df8cc000400000000000000000000000000065e8a80900001080c77
:09277a001a4000001600000000e6
:20278300000000000018dbb30000800000000000000000000000000020ecab318000001197
:0a27a300a1a408000140000000009e
:2027ad0000000280300d680c00000c000000000000000000000001c0010f309000000f34f9
:0927cd003e8441000020000000e0
:2027d60000000010000cde4cc000010000000000000000000000000e001cf30300000019a3
:0a27f6003814061000004000000037
:20280000000000000003c1008000c0000000000000000000000003c7fe964000000f0ffcfc
:092820003c0000080026583001bc
:20282900000000000780d681008000000000000000000000000000207ffc2600000018193f
:0a284900a03c0000000004803000f5
:20285300000204000009a0cc00040000000f028000000000000001c00000000000000b3a4f
:09287300010040000202c0fa005d
:20287c000000004000009e3300400c00001af060000000000000003e000000000000000f28
:0a289c007828000001c027ea0000c0
:2028a6000000000050a9fb3004040360000f008010000000000000000000000000000bdefb
:0928c6001b0000000000000000ee
:2028cf0000003028050a9b8cc000a114001af0600080000000000000000000000000000bf1
:0a28ef0071980000000000000000d6
:2028f900000000000000000000c000000000000000000000000a000000000000002d00b018
:092919000ac00000143d78010021
:20292200000000000518000000040000200000000238000000004000000000000007380398
:0a294200a954080000e006b04000b0
:20294c000000000000a043880488e0000000000000000000000004003cc3301001000af452
:09296c0003c000001e0140dc0163
:2029750000000000051e57b8849a400000000000000000000000000003dccc0000000015f2
:0a29950070000002024695e6702073
:20299f0000020000500f6f30000000000000000004000000000400240000000000090d00d6
:0929bf000000000ee428686c0021
:2029c80000000000000076ccc000000000000000000000000000841e380000000030b8002b
:0a29e800000000001ce6dcd93000fe
:2029f200000000020009c3f8200000003c05a000000000000000100000000000022010f0cc
:092a120010880000000000000023
:202a1b00000000001000728c00c000000000a540000000000000008000000000000101e383
:0a2a3b007004080000000000000015
:202a45000000000008f9003c0000000380000000000000000000c0c38000000000100e137d
:092a65004100000c003c000000df
:202a6e000000000003891ebc00000200200000000000000000000020040000000002000892
:0a2a8e002c20000401c2000000002b
:202a980000000000000fa8cc80000003a60f7014000000000000000000000000000188be98
:092ab80000000000000000000015
:202ac10000000000000076f3004000006158f5020000000000000400000000000000388dd3
:0a2ae100fc200400000000000000cb
:202aeb00000200000000c38880000003c10a000000000000000000003500000800050000ee
:092b0b00000000000000000000c1
:202b140000000000010072b880c00000015ca020000000000000000003ce0a0000008000be
:0a2b34000000000000000000000097
:202b3e0000000000b0f530cc00000000030050100000000000000000000000000001000072
:092b5e000000000000000000006e
:202b6700000030000f01f6b30000000000ec0560400000000000210020000000000001c0d2
:0a2b87000000000000000000000044
:202b91000000000090853b3000c002c400000000000000000000000000000000002700f007
:092bb1001c0000200400000000db
:202bba0000000000080bb68cc00c0020280000000000000000000000000000000005000b82
:0a2bda00ebc0880422000000000098
:202be40006000000008de4d8048003403c05a184000000000000000000000000000b00ba90
:092c04008000080000000000003f
:202c0d000000000007019ab3000a00000000a5480000000000000080000000000000b80b18
:0a2c2d00e02000a0000000000000fd
:202c37000002000071f13fb800000000000000000000000000001000000000000000000012
:092c5700000000000003dea721cb
:202c600040000000001d3288800000006000000000000000000000800000000000000000dd
:0a2c800000000000000014e0440012
:202c8a000000000000056c0c000001c3b5b0000000000000000001e400000000000000009f
:092caa00000000003c3c000000a9
:202cb300000000000500ff3f0000002e325a2000000000000000002e7800000000000080be
:0a2cd300000000000206c00000002f
:202cdd00000000005001003c00000002010a928009c000000000004000000000000000f230
:092cfd00948000800201401000e7
:202d06000000000008009ba94060000005fca903810200000000000000000000000138094f
:0a2d26006694000000e02fe1c020d9
:202d3000002c000000a903fca000000384bff00000000000000800001c000000000009dcd0
:092d5000330000000203ca010077
:202d590000000000018b5abdc08000006358f7000000000000000004016c20020000381bdf
:0a2d790070cc080000c03da8000067
:202d83000002000530094000010000003c05a00000000000000000c20100a00003cb0e3857
:092da3000d4000003c00d00220ac
:202dac00000000002000d728000000000200a540010000000000802004580a0000001001e9
:0a2dcc00b170080000020788002023
:202dd600000000009801c210000000069e00d00000000000000000200000000000000d00d1
:092df600154240002602da020039
:202dff00000030000980d208408000002afe1a0a00000000000000040000000000005817a2
:0a2e1f002954200001e015f04000e6
:202e29001000000099e3036c00c00146840ca00000000000000000041cb5e00001208904f4
:092e490002800080360000000048
:202e520003000000099e102040840154224ac00200000000000000007afe5b000001100358
:0a2e7200a828000000e000000000a6
:202e7c00000000005095430c0080004005ba500000000000000a4000030a3080000090009c
:092e9c00000000000040000000ed
:202ea500000000000781ff33008a0034007b4000003000000000400038dea302000039c0b6
:0a2ec500000000000167000000009b
:202ecf000002002009ab6318040001401f05008004000000000200001cba7000000080f2eb
:092eef00948000000000000000c6
:202ef800000000000388bae4c000001403eeaf29000000000000400402fead000280100968
:0a2f180066940000080000000000ad
:022f22000000ad
:022f2400110298
:022f26000101a7
:202f2800000000000000000000000000000000000000000000000000000000400000000049
:092f48000001000000000000007f
:202f5100000000000000000000000000000000000000000000000000000000000000000060
:0a2f71000000000000000000000056
:202f7b000000000000000000000000000000000000000000000000000000008000000000b6
:092f9b000002000000000000002b
:202fa40000000000000000000000000000000000000000000000000000000000000000000d
:0a2fc4000000000000000000000003
:202fce00000000000000000000000000000000000000000000000010000000400000800013
:092fee00000100000000000000d9
:202ff7000000000000000000000000000000000000000000000000020000000000000c00ac
:0a30170000000000000000000000af
:20302100000000000008000000000000200000000008000000000000203c00000000008083
:0930410000000000000200000084
:20304a00000000000000000000000000000000000000000000000000000000000000000066
:0a306a00000000000000000000005c
:2030740000000000000c00000000000030000000000c00000000000030000000000000c103
:09309400e0000000000300000050
:20309d00000000000000000000000000000000000000000000000000000000000000000013
:0a30bd0010000000000000000000f9
:2030c700000000000000000000000000000000000000000000000020003c0000000000008d
:0930e700000000000000000000e0
:2030f00000000000000000000000000000000000000000000000000200004004000000007a
:0a31100000000000000000000000b5
:20311a00000000000000000000000000000000000000000000000000000000000000000095
:09313a000000000000000000008c
:20314300000000000000000000000000000000000000000000000000000000080000000064
:0a3163000000000000000000000062
:20316d00000000000008000000000000200000000008000000000000200000000000008072
:09318d0000000000000200000037
:20319600000000000000000000000000000000000000000000000000000000040000000015
:0a31b600000000000000000000000f
:2031c0000000000000000000000000000000000000000000000000000000000000000000ef
:0931e000000000000000000000e6
:2031e90000002000000000000000000000000000000000000800000000000000000000009e
:0a32090000000000000000000000bb
:2032130000000000000000000000000000000000000000000000000000000000000000009b
:0932330000000000000000000092
:20323c00000000000000000000000000000000000000000000000000000000000000000072
:0a325c000000000000000000000068
:20326600000000000000000000000000000000000000000000000000000000000000000048
:093286000000000000000000003f
:20328f0000000000000000000000000000000000000000000000000000000000000000001f
:0a32af000000000000000000000015
:2032b9000003000000000000000000000000000000000000000000000000000000000000f2
:0932d900000000000000000000ec
:2032e2000000000000000000000000000000000000000000000000000000000000000000cc
:0a33020000000000000000000000c1
:20330c000000000000000000000000000000000000000000000000000000000000000000a1
:09332c0000000000000000000098
:20333500000020000000000000000000000000000000000000000000000000000000000058
:0a335500000000000000000000006e
:20335f0000000000000000000000000000000000000000000000000000000000000000004e
:09337f0000000000000000000045
:20338800000000000000000000000000000000000000000000000000000000000000000025
:0a33a800000000000000000000001b
:2033b2000000000000000000000000000000000000000000000000000000000000000000fb
:0933d200000000000000000000f2
:2033db000000000000000000000000000000000000000000000000000000000000000000d2
:0a33fb0000000000000000000000c8
:203405000000000000000000000000000000000000000000000000000000000000000000a7
:093425000000000000000000009e
:20342e0000000000000000000000000000000000000000000000000000000000000000007e
:0a344e000000000000000000000074
:20345800000000000000000000000000000000000000000000000000000000000000000054
:093478000000000000000000004b
:2034810000002000000000000000000000000000000000000000000000000000000000000b
:0a34a1000000000000000000000021
:2034ab00000000000000000000000000000000000000000000000000000000000000000001
:0934cb00000000000000000000f8
:2034d4000000000000000000000000000000000000000000000000000000000000000000d8
:0a34f40000000000000000000000ce
:2034fe000000000000000000000000000000000000000000000000000000000000000000ae
:09351e00000000000000000000a4
:20352700000000000000000000000000000000000000000000000000000000000000000084
:0a354700000000000000000000007a
:20355100000300000000000000000000000000000000000000000000000000000000000057
:0935710000000000000000000051
:20357a00000000000000000000000000000000000000000000000000000000000000000031
:0a359a000000000000000000000027
:2035a400000000000000000000000000000000000000000000000000000000000000000007
:0935c400000000000000000000fe
:2035cd000000200000000000000000000000000000000000000000000000000000000000be
:0a35ed0000000000000000000000d4
:2035f7000000000000000000000000000000000000000000000000000000000000000000b4
:09361700000000000000000000aa
:2036200000000000000000000000000000000000000000000000000000000000000000008a
:0a3640000000000000000000000080
:20364a00000000000000000000000000000000000000000000000000000000000000000060
:09366a0000000013fc0000000048
:20367300000000000000000000000000000000000000000000000000000000000000000037
:0a369300000000813fc000000000ad
:20369d0000000000000000000000000000000000000000000000000000000100000000000c
:0936bd0000000000000000000004
:2036c6000000000000000000000000000000000000000000000000000000000000000000e4
:0a36e60000000000000000000000da
:2036f000000000000000000000000000000000000000000000004001e00000400100070051
:09371000000000040200000000aa
:20371900000020000000000000000000000000000000000008010000000000000400004023
:0a37390000000010003c000000003a
:20374300000000000000000000000000000000000000000000002a858000000001699684b3
:0937630000000005a65a00000058
:20376c000000000000000000000000000000000000000000000002a80000b00000069d0040
:0a378c00200000001a750000000084
:20379600000000000000000000000000000000000000000000000000000000000169160093
:0937b60000000005a64c00000013
:2037bf0000000000000000000000000000000000000000000000000000000000000697400d
:0a37df00000000001a4c000000007a
:2037e90000030000000000000000000000000000000000000000000000000000013316e093
:0938090060000004cc5b98000093
:2038120000000000000000000000000000000000000000000000000000000000000ccf3883
:0a38320040000000333de1000000fb
:20383c000000000000000000000000000000000000000000000000000000000000f0131455
:09385c0038000002a84c59a0003c
:20386500000020000000000000000000000000000000000000000000000000000000f078bb
:0a388500000000002a81000000008e
:20388f000000000000000000000000000000000000000000000000000000000000f0700eab
:0938af00000000000000101000f0
:2038b80000000000000000000000000000000000000000000000000000000000000f0000e1
:0a38d800200000000000008a00003c
:2038e2000000000000000000000000000000000000000000000000000000000000f03000a6
:0939020068000003c0e080000031
:20390b0000000000000000000000000000000000000000000000000000000000000f00018c
:0a392b00400000003c02050000000f
:20393500000000000000000000000000000000000000000000000000000000000000000072
:0939550004000003c0e03810007a
:20395e000000000000000000000000000000000000000000000000000000e0000000000069
:0a397e00020000003c000088000079
:20398800000000000000000000000000000000000000000000005555c000000001000300b1
:0939a80000000004001e00800074
:2039b10000002000000000000000000000000000000000000001015410000000040000006c
:0a39d10000000010000100100000cb
:2039db000000000000000000000000000000000000000000000043c4e000000001699620c5
:0939fb0060000407b64e50000004
:203a04000000000000000000000000000000000000000000000043c00000000008069d40b4
:0a3a240040000000122d8d8000000c
:203a2e00000000000000000000000000000000000000000000005a44c0000000016996001a
:093a4e0000000005a64a0000007a
:203a57000000000000000000000000000000000000000000000001a5c000b000000695009e
:0a3a7700000000001a64000b0000bc
:203a81000003000000000000000000000000000000000000000043c400000000016993001e
:093aa10028000005a64e000000fb
:203aaa0000000000000000000000000000000000000000000000003c0000000000069b031c
:0a3aca00440000201a65000000000f
:203ad4000000000000000000000000000000000000000000000003c4001c000000aa1780ae
:093af4007c000001c64c00e0005a
:203afd0000002000000000000000000000000000000000000000003c00010000000aa000a2
:0a3b1d00028000003c3cf0000000b4
:203b2700000000000000000000000000000000000000000000000000038000000081004634
:093b470000000300e9dc18100085
:203b50000000000000000000000000000000000000000000000000000000000000042738f2
:0a3b7000400000000e82000a000071
:203b7a00000000000000000000000000000000000000000000000000001c004000fa7bc09a
:093b9a00000000000000700000b2
:203ba30000000000000000000000000000000000000000000000000000010000000fa0341e
:0a3bc3000285000000000000000071
:203bcd0000000000000000000000000000000000000000000000000000000000007e00401a
:093bed0004000003c1e0500000d7
:203bf60000000000000000000000000000000000000000000000000000000000000bd73895
:0a3c1600030000003c020d800000d6
:203c2000000000000000000000004000830000000000000200005415859a000001008000b6
:093c400038000001680098100032
:203c49000000200000000000000100001000000000000000080121400070000004000d003f
:0a3c6900000000002940e98e000071
:203c7300000000000000000000005a65881f00000000000000005a45800d000001699000a5
:093c9300000500027dcc58a000e0
:203c9c000000000000000000000001a45011e00000000000000001a4c000a00000096f00a5
:0a3cbc0002802020242d900a000051
:203cc600000000000000000000005a65a10000000000000000005a6488000040016992807c
:093ce6002c0000011f6000000029
:203cef000000000000000000000001a45008000000000000000001a74050e00800069500fd
:0a3d0f00c740002022c4e5000000b8
:203d1900000300000000000000004ce4b80c00000000000000004cc591800000010f100e43
:093d39006800010265c8001004d5
:203d4200000000000000000000000332def0000000000000000003334e0000000000f100e9
:0a3d6200200000001a41b009108093
:203d6c00000000000000000000002a84c10000000000000000000ce4800a0000000f10002f
:093d8c00000003033060b80000e0
:203d95000000200000000000000002a8100800000000000200000333590100000000f000aa
:0a3db5000000500033000100000080
:203dbf00000000000000000000100f00018020000000000000100f000000000000003a804b
:093ddf0001000003c1c000000056
:203de8000000000000000000000000f00000000000000000000000f000000000000ff72ca9
:0a3e0800020000003c000000000072
:203e12000000000000000000000016801000000000000010000000000000000000f050009a
:093e320004000003c1d800a00047
:203e3b000000000000000000000002940a000000000000000000000000000000000f008038
:0a3e5b000280000003c1e01b00001c
:203e6500000000000000000800003c06a00100000000000000003c060001000000c5be008c
:093e8500040000017bc8000000ec
:203e8e000000000000000000000003c01000800200000000000003c000008000000c073b2e
:0a3eae004a4000001764e000000025
:203eb800000000000000000000004001e50000000000000000004000e5000000000000009f
:093ed8000280000000000000005f
:203ee1000000200000000000000100001050000000000000000100001050d1c0000000004e
:0a3f0100001000000000000d000099
:203f0b00000000000000000000005a65a00a00000000000040005a64800a010000f0300084
:093f2b0000000000eb5c19f0003d
:203f34000000000000000000000001a45000000000000000000001a440000008000f00007c
:0a3f5400000000000ebd009f0000f9
:203f5e00000000000000000000005a45a00a00000000000000005a45a00a80000000000031
:093f7e0000000023c0e001a000d6
:203f87000000000000000000000001a54000000000000000000001a540000400000000004a
:0a3fa700000700003c0200000000cb
:203fb100000300000000000000004ce4918000000000000000004ce49000000000000000ec
:093fd1000000000102690000007b
:203fda000000000000000000000003305e00a00000000000000003305e00a0000000000065
:0a3ffa0000000000302480000000e9
:20400400000000000000000000002a84800000000000000000002a84800000000000000040
:094024000400000000000000008f
:20402d000000200000000000000002a81000000000000000000002a8100000c0000000001f
:0a404d0003c00000000000000000a6
:20405700000000000000000000100f0000000000000000000000000000000000000000002a
:09407700000000000000980000a8
:204080000000000000000000000000f0000000000000000000000000000000000000000030
:0a40a000000000000000098000008d
:2040aa000000000000000000000000000000000000000000000000000800000000000000ee
:0940ca0000000000f000000000fd
:2040d30000000000000000000000000000000000000000000000000000f0000000000000dd
:0a40f300000000000f1400000000a0
:2040fd00000000000000000000003c1e000f000000000000000000000001008000000000b9
:09411d0000000000000080000019
:204126000000000000000000000003c000b080000000000000000000000080020000000004
:0a4146000000000000000900000066
:20415000000000000000000000004000050000000000000000004001c500004000000000c4
:0941700000000004000870a0002a
:20417900000020000000000000010003405000000000000008010000105000000000000009
:0a419900000000100001000e0000fd
:2041a300000000000000000000005a65a00a00000000000000005a65e000000000000000f4
:0941c30000000005a45a380000b8
:2041cc000000000000000000000001a45000000000000000000801a75000000000000000de
:0a41ec00000000001a45000000006a
:2041f600000000000000000050005a45a30a00000000000000015a45a00a000000000000c3
:0942160000000005a65a8000001a
:20421f000000000000000000020001a54000000000000000000001a54000000000000000b1
:0a423f00000000001a5c0b000000f4
:20424900000300000000000000004ce4918000000000000000014ce4980000000000000048
:0942690000000004ce49381000e9
:204272000000000000000000000003305e00a00000000000000003335e10a00000000000b7
:0a429200000000003324e00d1000ce
:20429c00000000000000000000002a84800000000000000000802a84800000000000000026
:0942bc0000000002a84a00000005
:2042c5000000200000000000000002a81000000000000000000002a8100000000000000045
:0a42e500000000002a810000000024
:2042ef00000000000000000000000000000000000000000000900f00078801000000000080
:09430f0000000100f000000000b4
:204318000000000000000000000000000000000000000000000000f0000100000000000094
:0a433800000000000f0000000080ec
:20434200000000000000002000000000000000000000000000003c160000000000000000e9
:0943620000000000000000000052
:20436b000000000000000001000000000000000000000000000003c000000000000000006e
:0a438b000000000000000000000028
:20439500000000000000000000003c1e000d00000000000000001680118100000000000079
:0943b50000000000000000d0002f
:2043be000000000000000000000003c00001800000000000000002940c0080000000000079
:0a43de0000000000000000080000cd
:2043e800000000000000000000004001e18a00000000000000000000000000000000000009
:0944080000000004001a5000003d
:2044110000002000000000000001000010500000000000000000000000000000000000000a
:0a4431000000001000010000000070
:20443b00000000000000000000005a44e000000000000000000000000000000000000000e3
:09445b0004000005a65a8180004e
:204464000000000000000000000001a65000a0000000000000000000000000080000000099
:0a448400028100201a44030000002a
:20448e00000000000000000000005a648500000000000000000000000000000000000000cb
:0944ae0000000005a45a00a00062
:2044b7000000000000000000000001a4400000000000000000000000000000000000000000
:0a44d700000000801a5405000000e8
:2044e100000300000000000000007c068000000000000000000000000000200000f078002e
:0945010004000004cc5b80a00062
:20450a000000000000000000000003c250000000000000000000000000000000004f0080ad
:0a452a00020000803334eb0a0000a9
:2045340000000000000000000000330400000000000000000000000000000000006f7b4cfa
:0945540004000012a84800000058
:20455d00000020000000000000020333400000000000000000000000000000000006d3606d
:0a457d00234700802a81000000009f
:204587000000000000000000000000000000000000000000200000000000000000e31b40b6
:0945a70000000003c060000000e8
:2045b00000000000000000000000000000000000000000000500000000000000000bdb38c8
:0a45d000000000003c0200000000a3
:2045da000000000000000000000000000780000000000000000000000000014140475f8092
:0945fa00000000000000000000b8
:204603000000000000000000000000000008000000000000000000000000000800047040d3
:0a462300000000000000000000008d
:20462d00000000000000000000000000000000000000000000000000000000000000001c51
:09464d000000000000000010084c
:20465600000000000000000000000000001000000000000000000000000000000000000331
:0a467600e34000000000000801000e
:02468000000038
:02468200110322
:02468400010132
:204686000000000000000000100000000004004000000000000000000000000000000000c0
:0946a6000000000000000000000b
:2046af00000000000000000000000000000280000000000000000000000000000000000069
:0a46cf0000000000000000000000e1
:2046d900000000000000000020000000000000800000000000000000000000000000000021
:0946f900000000000000000000b8
:20470200000000000000000000000000000000000000000000000000000000000000000097
:0a472200000000000000000000008d
:20472c000000000000000000100000300000004000000000000000000000000000000000ed
:09474c0000000000000000000064
:204755000000000000c0000000000003000000000000000000000000000000000000000081
:0a477500000000000000000000003a
:20477f0000000000000800000000000020000000000800000000000020000000000000804a
:09479f000000000000020000000f
:2047a8000000000000000000000000000000000000000000000000000000000000000000f1
:0a47c80000000000000000000000e7
:2047d20000000000000c00000000000030000000000c00000000000030000000000000c08f
:0947f200000000000003000000bb
:2047fb00000000000000000000000000000000000000000000000000000000000000080096
:0a481b000000000000000000000093
:20482500000000000c00000000000000000000000000000000000000000000000000000067
:094845000000000000000000006a
:20484e00000000000000000001000000000000000000000000000000000000000000000049
:0a486e000000000000000000000040
:204878000000000000001c0000000000000000000000000000000000000000000000000004
:0948980000000000000000000017
:2048a10000000000000000f002000000000000000000000000000000000000000000000005
:0a48c10000000000000000000000ed
:2048cb000000000000080000000000002000000000080000000000002000000000000080fd
:0948eb00000000000002000000c2
:2048f4000000000000000000010000000000000000000000000000000000000000000000a3
:0a4914000000000000000000000099
:20491e00000000000000000000000000000000000000000000000000000000000000000079
:09493e0000000000000000000070
:20494700000000000000000000000000000000000000000000000000000000000000000050
:0a4967000000000000000000000046
:20497100000000000000000000000000000000000000000000000000000000000000000026
:094991000000000000000000001d
:20499a000000000000000000000000000000000000000000000000000000000000000000fd
:0a49ba0000000000000000000000f3
:2049c4000000000000000000000000000000000000000000000000000000000000000000d3
:0949e400000000000000000000ca
:2049ed000000000000000000000000000000000000000000000000000000000000000000aa
:0a4a0d00000000000000000000009f
:204a170000020000000000000000000000000000000000000000000000000000000000007d
:094a370000000000000000000076
:204a4000000000000000000000000000000000000000000000000000000000000000000056
:0a4a6000000000000000000000004c
:204a6a0000000000000000000000000000000000000000000000000000000000000000002c
:094a8a0000000000000000000023
:204a93000000300000000000000000000000000000000000000000000000000000000000d3
:0a4ab30000000000000000000000f9
:204abd000000000000000000000000000000000000000000000000000000000000000000d9
:094add00000000000000000000d0
:204ae6000000000000000000000000000000000000000000000000000000000000000000b0
:0a4b060000000000000000000000a5
:204b1000000000000000000000000000000000000000000000000000000000000000000085
:094b30000000000000000000007c
:204b390000000000000000000000000000000000000000000000000000000000000000005c
:0a4b59000000500000000000000002
:204b6300000200000000000000000000000000000000000000000000000000000000000030
:094b830000000000000000000029
:204b8c00000000000000000000000000000000000000000000000000000000000000000009
:0a4bac0000000000000000000000ff
:204bb6000000000000000000000000000000000000000000000000000000000000000000df
:094bd600000000000000000000d6
:204bdf000000000000000000000000000000000000000000000000000002000000000000b4
:0a4bff0000000000000000000000ac
:204c090000000000000000000000000000000000000000000000000000000000000000008b
:094c290000000000000000000082
:204c3200000000000000000000000000000000000000000000000000000000000000000062
:0a4c52000000000000000000000058
:204c5c00000000000000000000000000000000000000000000000000000000000000000038
:094c7c000000000000000000002f
:204c850000000000000000000000000000000000000000000000000000000000000000000f
:0a4ca5000000000000000000000005
:204caf000002000000000000000000000000000000000000000000000000000000000000e3
:094ccf00000000000000000000dc
:204cd8000000000000000000000000000000000000000000000000000000000000000000bc
:0a4cf80000000000000000000000b2
:204d0200000000000000000000000000000000000000000000000000000000000000000091
:094d220000000000000000000088
:204d2b00000030000000000000000000000000000000000000000000000000000000000038
:0a4d4b00000000000000000000005e
:204d550000000000000000000000000000000000000000000000000000000000000000003e
:094d750000000000000000000035
:204d7e00000000000000000000000000000000000000000000000000000000000000000015
:0a4d9e00000000000000000000000b
:204da8000000000000000010000000000000000000000000000000000000000000000000db
:094dc800000000000000000000e2
:204dd1000000000000000000000000000000000000000000000000000000000000000000c2
:0a4df10000000000000000000000b8
:204dfb00000200000000000000000000000000000000000080000000000000000000000016
:094e1b000000000000000000008e
:204e240000000000000000000000000000000000000000000000000000000000000000006e
:0a4e44000000000000000000000064
:204e4e000000000000000000000000000000000000000000000000000000000000f0038cc5
:094e6e003000000059cc01a00045
:204e770000000000000000000000000000000000000000000000000000000000000f030405
:0a4e970060000000057f9009000094
:204ea1000000000000000000000000000000000000000000000000000000000000f1328c42
:094ec10000000002882c00c00072
:204eca0000000000000000000000000000000000000000000000000000000000000725b0ec
:0a4eea00000000503c44a00100004d
:204ef40000000000000000000000000000000000000000000000000000000001000a028011
:094f14000000000171cc00000056
:204f1d000000000000000000000000000000000000000000000000000000000000405504db
:0a4f3d0040000000177f90080000fc
:204f47000002000000000000000000000000000000000000000000000000000110aa040089
:094f670038000012940b90c00008
:204f700000000000000000000000000000000000000000000000000000000000100aa178ee
:0a4f900007800000168008010000f1
:204f9a000000000000000000000000000000000000000000000000000000000000cc768035
:094fba0020000003e83e000000a5
:204fc300000030000000000000000000000000000000000000000000000000000013397cd6
:0a4fe300004000100616c180000017
:204fed00000000000000000000000000000000000000000000000000000000000069340007
:09500d0000000003f85e088000b9
:2050160000000000000000000000000000000000000000000000000000000000001691389b
:0a50360003800000367f9381000024
:205040000000000000000000000000000000000000000000000000000000000000691424af
:0950600040000000000000900077
:20506900000000000000000000000000000000000000000000000000000000000016996216
:0a508900078000000000078100000e
:205093000002000000000000000000000000000000000000000000000000000040000400b7
:0950b30000000001f84e000000ad
:2050bc00000000000000000000000000000000000000000000000000000000000010007054
:0a50dc000000000038eff180000032
:2050e60000000000000000000000000000000000000000000000191ea09b000000fa03c07b
:095106002000004209ca01a000ca
:20510f0000000000000000000000000000000000000000000000030ef978a0000005a3684e
:0a512f00004000002037d01c0000f3
:20513900000000000000000000000000000000000000000000003c00000800000051b69c6f
:095159003c00000294ca0084002d
:205162000000000000000000000000000000000000000000000003c160100000000cb7ee48
:0a518200064000000137f001800034
:20518c00000000000000000000000000000000000000000000002940ab000001104202801a
:0951ac0001000000000000a00059
:2051b5000000000000000000000000000000000000000000000002bc7f9980000400436cd1
:0a51d500000800000000001b0000ad
:2051df000002000000000000000000000000000000000000000419c2f000000110aa041c04
:0951ff0030000001d01e00000088
:2052080000000000000000000000000000000000000000000001020cfc000000100aa1229e
:0a52280000400010108eb0000000de
:20523200000000000000000020000000000000000000000000000281e00c000000f0d434d5
:095252002c000000034e00900046
:20525b000000300000000000000000000000000000000000000101f87e001000001f01a8b3
:0a527b00072000003417d0080000df
:20528500000000000000000000000000002000000000000000000604d000000000001034cb
:0952a50030050000b810500000b3
:2052ae000000000000000000000000000000000000000000000000137f0000000010082016
:0a52ce00604020100b9ca8000000b7
:2052d800000000000000000000000000000000000000000000001f1ea00a000000f070006f
:0952f8002c000000140e0000005f
:205301000000000000000000000000000000000000000000000002f2e1001000001f01b8cf
:0a532100000000002817d000000073
:20532b00000200000000000000000000000000000000000080200484d00000004000000226
:09534b004000004000ca0000000f
:2053540000000000000000000000000000000000000000000000005b7f0000000010002926
:0a537400428000000137f000000045
:20537e00000000000000000000000000000000000000000000003880800b000000360afc90
:09539e000000000039cc00000001
:2053a700000000000000000000000000000000000000000000010344610000000403517471
:0a53c70000000000030dd00000807c
:2053d1000000000000000000000000000000000000000000000008fca0800000002a0a5410
:0953f10038000001f81ad0800018
:2053fa00000000000000000000000000000000000000000000000345e87800000407a53cff
:0a541a00004000101416e00000002e
:20542400000000000000000000000000000000000000000000201540e00000000098f68005
:095444002c00000009cc11a000ad
:20544d000000000000000000000000000000000000000000000002a96100000000001b6cac
:0a546d0000400000204dd8080000a8
:205477000000000000000000000000000000000000000000000038810090000080360b7497
:0954970034000040f0cc0090004c
:2054a0000000000000000000000000000000000000000000000103894c79c0000403552856
:0a54c0000040000038eee00000009c
:2054ca0000000000000000000000000000000000000000000000109cc0000080005402e69a
:0954ea002c50400019cc00800098
:2054f3000000000000000000000000000000000000000000000000736a01c010040f85aba8
:0a55130047800000010dd0010000e8
:20551d00000000000000000000000000000000000000000000001d03000b000000b80c146b
:09553d00200000014c2891000837
:205546000000000000000000000000000000000000000000000111d04c00e000040b877829
:0a55660007c0001028d4181c010033
:205570000000000000000000000000000000000000000000000039dcc018000000a502b4d3
:0955900068000003c839d0b0081e
:205599000000000000000000000000000000000000000000000002f36a009000000fa3242d
:0a55b90002c00010144f8000010032
:2055c3000000000000000000000000000000000000000000200034d4a010000000050614d1
:0955e30039000002f4cc000000c4
:2055ec00000000000000000000000000000000000000000005000148df18a0000005f1fcc8
:0a560c0000280000066ee380008015
:20561600000000000000000000000000000000000000000000000000000900000047000024
:0956360028000011f0d801000861
:20563f0000000000000000000000000000000000000000000000000000001000040471e8da
:0a565f0060400000397d8008010062
:20566900000000000000000000000000000000000000000000000300d099000000c30a7474
:09568900000000014c2050e0007b
:20569200000000000000000000000000000000000000000000010139fd39c0000400f76c60
:0a56b2000000001014dce8190000ed
:2056bc000000000000000000000000000000000000000000000026cca70e200000cabb4042
:0956dc006000000020c90000007c
:2056e500000000000000000000000000000000000000000000000062ee008400000c5b0169
:0a570500474000003427e00e0000ca
:20570f000002000000000000000000000000000000000000000011c00000000000d3068648
:09572f003c0000028c3008e0008f
:2057380000000000000000000000000000000000000000000001011cce018000040627a70c
:0a575800c040001028dcc300000070
:20576200000000000000000000000000000000000000000000002b4ee000000000fc06824a
:09578200642000039c1c080000d7
:20578b0000003000000000000000000000000000000000000000031ee90000000400c5e516
:0a57ab0046c0001011cd950000006b
:2057b500000000000000000000000000000000000000000000000000000e000010a00240d4
:0957d50000000002b00008000011
:2057de0000000000000000000000000000000000000000000000000000000000000af5a408
:0a57fe00000000102b0e85000000d3
:205808000000000000000000000000000000000000000000000022c2c0000000008b082425
:09582800680000000009b09000c6
:2058310000000000000000000000000000000000000000000001011dc1000a000408b7b2f8
:0a58510006c050001407e801000033
:20585b000002000000000000000000000000000000000000800030dcc00b00000085d3027a
:09587b0040000000c36b090000ad
:205884000000000000000000000000000000000000000000000000115f000000000ea9f4e9
:0a58a400460000000ffdc1080000df
:2058ae00000000000000000000000000000000000000000000002f40c70f000000623624d9
:0958ce0060000001980a01a40029
:2058d7000000000000000000000000000000000000000000000101080e80000000064baa1e
:0a58f7000640001003cca589a000b4
:205901000000000000000000000000000000000000000000000015410f0f000100470c00be
:0959210003820002d14e50000087
:20592a00000000000000000000000000000000000000000000000155de1980000c2475a843
:0a594a00000810001c3fd0000c0004
:20595400000000000000000000000000000000000000000020003b83b0000000001c9300f6
:0959740020000000900a01b000bf
:20597d000000000000000000000000000000000000000000050102ed6d0000000002456001
:0a599d0003c000102f40800e000030
:2059a70000020000000000000000000000000000000000000000333db110000210aa0400ed
:0959c70040000003f06ff0d00075
:2059d0000000000000000000000000000000000000000000000000cc4e80c000080aa1604a
:0a59f0000600000017bdf0010000e2
:2059fa00000000000000000000000000000020000000000000003c340100a00000cc1396e7
:095a1a0000000000b82a000000a1
:205a23000000300000000000000000000000050000000000800007c0789804001013397dfa
:0a5a4300e00000100746001e0000fe
:205a4d00000000000000000000000000000000000000000000001a7c050000000069d0164f
:095a6d007c00000356ec01a000ce
:205a76000000000000000000000000000000000000000000000005a44850000010169920f0
:0a5a9600e2c00000369df01f000082
:205aa000000000000000000000000000000080000000000000001a5c000a20000069f0026b
:095ac000680010000000d0f000a5
:205ac9000000000000000000000000000000000800000000000005a6580004001016997877
:0a5ae900e7000500000000010000c6
:205af300000200000000000000000000000000000000000040100001000000004000000000
:095b130000000000000000b000d9
:205b1c000000000000000000000000000000000000000000000004001a00a0000010002972
:0a5b3c00e3800000000000000000fc
:205b460000000000000000000000000000000000000000000000000000000000000000023d
:095b660078000003c00f100000dc
:205b6f00000000000000000000000000000000000000000000000000000000000000000016
:0a5b8f00e28000001407d0000000bf
:205b99000000000000000000000000000010000000000000000000000000000000c70fbe48
:095bb90038000003c020000000c8
:205bc2000000000000000000000000000001e000000000000000000000000000040c11f1d0
:0a5be20047c000003c040000000072
:205bec000000000000000000000000000000000000000000000017c0b0000000000507d630
:095c0c0028000003c00000a00004
:205c15000000000000000000000000000000000000000000000011406b000000000af7b9f9
:0a5c3500428000003c060000000061
:205c3f00000200000000000000002800e000000000000000000003c000000000000007c2af
:095c5f0000000000000001001427
:205c68000000000000000000000012bd68000000000000000000003c400000000400172529
:0a5c8800c0000000000000180080ba
:205c9200000000000000000000041b04a00a000000000000000003d40d0e000000db3380a5
:095cb20038000000000000a00011
:205cbb00000030000000000040000271c1000000000000000000043e40001000000e780409
:0a5cdb00078000000000000f000029
:205ce500000000000000000000063264e00000000000000000001a64001e00000001040082
:095d050000000000000000000095
:205d0e000000000000000000000003316800000000000000000005a45800b00004001730dd
:0a5d2e00000000000000000000006b
:205d3800000000000000000000021c56800000000000000000002594001b000000020680fb
:095d58000000000200ea50a00066
:205d61000000000000000000000000ce4e00000000000000000005a44001c000040803f558
:0a5d8100e00010000087b8000000e9
:205d8b00000200000000000000020da4e50000000000000080100004070f0000000a028226
:095dab00000000000000000014db
:205db4000000000000000000000000cd6800a000000000000000040000800000000a57f520
:0a5dd400e0000000000003800080e2
:025dde000000c3
:035de00062003f1f
:035de300720080cb
:025de6001100aa
:035de80082000036
:025deb000103b2
:085ded000000000000000000ae
:085df5000000000000000000a6
:085dfd0000000000000000009e
:085e0500000000000000000095
:0261ed000000b0
:0361ef00820080ab
:0261f2000103a7
:0861f4000000000000000000a3
:0861fc0000000000000000009b
:08620400000000000000000092
:08620c0000000000000000008a
:0265f4000000a5
:0265f600110191
:0365f8008200001e
:0265fb0001039a
:0865fd00000000000000000096
:0866050000000000000000008d
:08660d00000000000000000085
:0866150000000000000000007d
:0269fd00000098
:0369ff0082008093
:026a020001038e
:086a040000000000000000008a
:086a0c00000000000000000082
:086a140000000000000000007a
:086a1c00000000000000000072
:026e040000008c
:026e0600110277
:036e080082000005
:026e0b00010381
:086e0d0000000000000000007d
:086e1500000000000000000075
:086e1d0000000000000000006d
:086e2500000000000000000065
:02720d0000007f
:03720f008200807a
:02721200010376
:08721400000000000000000072
:08721c0000000000000000006a
:08722400000000000000000062
:08722c0000000000000000005a
:02761400000074
:0276160011035e
:03761800820000ed
:02761b00010369
:08761d00000000000000000065
:0876250000000000000000005d
:08762d00000000000000000055
:0876350000000000000000004d
:027a1d00000067
:037a1f0082008062
:027a220001035e
:087a240000000000000000005a
:087a2c00000000000000000052
:087a340000000000000000004a
:087a3c00000000000000000042
:027e240000005c
:017e26002239
:027e27006e3fac
:027e2900010650
:00000001FF
