:02000000ff00ff
:080002004c6174746963650030
:17000a00694345637562653220323031342e31322e32373035320077
:16002100506172743a2069434534304858314b2d545131343400fc
:1b003700446174653a204a756e20323320323031352032313a33383a32300078
:0200520000ffad
:040054007eaa997e69
:02005800510055
:02005a0001059e
:03005c00920020ef
:03005f0062014bf0
:0300620072009099
:0300650082000016
:02006800110085
:02006a00010192
:20006c00000000000000000000000000000000000000000000000000000000000000000074
:09008c000000000000000000006b
:2000950000000000000000000000000000000000000000000000000000000000000000004b
:0a00b5000000000000000000000041
:2000bf00000000000000000000000000000000000000000000000000000000000000000021
:0900df00000000400000000000d8
:2000e8000000000000000000000000000000000000000000000000000000000000000000f8
:0a01080008000000000000000000e5
:200112000000000000000000000000000000000000000000000000000000000000000000cd
:09013200000000000000000000c4
:20013b000000000000000000000000000000000000000000000000000000000000000000a4
:0a015b000000000000010000000099
:200165000000000000040000000000001000000000000040000000001000000000000040d6
:0901850000000000000000000071
:20018e00000000000000000000000000000000000000000000000000000000000000000051
:0a01ae000000000000000000000047
:2001b80000000000000c00000000005030000000000000c00000000030000000000000c0eb
:0901d8000000000000010000001d
:2001e10000000000000000000000000080000000000000000000000000000000000000007e
:0a02010000000000000000000000f3
:20020b000000000000000000000000000004000000000000000000000000000000000000cf
:09022b00000000000000000000ca
:200234000000000000000000000000000000c00000000000000000000000000000000000ea
:0a02540000000000000000000000a0
:20025e00000000000000000000000000000000000000000000000000000000000000000080
:09027e0000000000000000000077
:20028700000000000000000000000000000000000000000000000000000000000000000057
:0a02a700000000000000000000004d
:2002b100000000000004000000000000100000000000004000000000100000000000004089
:0902d10000000000000100000023
:2002da00000000000000000000000000000000000000000000000000000000000000000004
:0a02fa0000000000000000000000fa
:200304000000000000000000000000000000000000000000000000000000000000000000d9
:09032400000000000000000000d0
:20032d00000020000000000000000000000000000040000000000000000000000000000050
:0a034d0000000000000000000000a6
:20035700000000000000000000000000000000000000000000000000000000000000000086
:090377000000000000000000007d
:2003800000000000000000000000000000000000000000000000000000000000000000005d
:0a03a0000000000000000000000053
:2003aa00300000000000000000000000000000000000000000000000000000000000000003
:0903ca000000000000000000002a
:2003d3000300200000000000000000000000000000000000000000000000000000000000e7
:0a03f3000000000000000000000000
:2003fd000003000000000000000000000000000000000000000000000000000000000000dd
:09041d00000000000000000000d6
:200426000000000000000000000000000000000000000000000000000000000000000000b6
:0a04460000000000000000000000ac
:2004500000000000000000000000000000000000000000000000000000000000000000008c
:0904700000000000000000000083
:20047900000020000000000000000000000000000000000000000000000000000000000043
:0a0499000000000000000000000059
:2004a300000000000000000000000000000000000000000000000000000000000000000039
:0904c30000000000000000000030
:2004cc00000000000000000000000000000000000000000000000000000000000000000010
:0a04ec000000000000000000000006
:2004f6000000000000000000000000000000000000000000000000000000000000000000e6
:09051600000000000000000000dc
:20051f000000000000000000000000000000000000000000000000000000000000000000bc
:0a053f0000000000000000000000b2
:2005490000040000000000000000000000000000000000000000000000000000000000008e
:0905690000000000000000000089
:200572000002800000000000000000000000000000000000000000000000000000000000e7
:0a059200000000000000000000005f
:20059c000002000000000000000000000000000000000000000000000000000000000a58db
:0905bc0000200000000000000016
:2005c50000002000000000000000000000000000000000000000000000000000000001b045
:0a05e5008000080000000000000084
:2005ef00000200000000000000000000000000000000000000000000000000000000007377
:09060f0003e000000000000000ff
:200618000000000000000000000000000000000000000000000000000000000000000000c2
:0a063800643c000000000000000018
:20064200000000000000000000000000000000000000000000000000000000000005015240
:0906620003e000000000000000ac
:20066b000000200000000000000000000000000000000000000000000000000000000880c7
:0a068b00e83c000000000000000041
:2006950000030000000000000000000000000000000000000000000000000000000001122f
:0906b500154000000000000000e7
:2006be0000000000000000000000000000000000000000000000000000000000000000809c
:0a06de00815401000000000000003c
:2006e8000000000000000000000000000000000000000000000000000000000000000000f2
:09070800000000000000000000e8
:2007110000002000000000000000000000000000000000000000000000000000000000e0c8
:0a07310000000000000000000000be
:20073b00000000000000000000000000000000000000000000000000000000000008010095
:09075b0000000000000000000095
:2007640000000000000000000000000000000000000000000000000000000000000030c085
:0a078400000000000000000000006b
:20078e0000000000000000000000000000000000000000000000000000000000000180dbef
:0907ae0083c000000000000000ff
:2007b700000000000000000000000000000000000000000000000000000000000000900b87
:0a07d700803c00000000000000005c
:2007e1000000000000000000000000000000000000000000000000000000000000000007f1
:0908010003c0000000000000002b
:20080a000000000000000000000000000000000000000000000000000000000000000000ce
:0a082a00003c000000000000000088
:200834000000000000000000000000000000000000000000000000001cef0c000005011770
:09085400bc3000000000ccf0c033
:20085d000000200000000000000000000000000000400000000000000030f002400008a011
:0a087d0043c00900000003cf010092
:20088700000200000000000000000000000000000000000000e001400e99680380000a5240
:0908a70065a00e00000140008074
:2008b000000000000000000000000000000000000000000000000002002896000000000068
:0a08d000a65800000000020000001e
:2008da00000000000000000000000000000000000000000000400006148cc80100059a3a76
:0908fa00332004000078000080a6
:200903000000000000000000000000000000000000000000000800002f6d33002000000fce
:0a092300a8cc0080000400b0000022
:20092d000003000000000000000000000000000000000000000000000e85500000000012b2
:09094d001540000000014000808b
:200956000000000000000000000000000000000000000000000000000000550040000000ec
:0a097600815401000000020000009f
:20098000000000000000000000000000000000000000000000000000000000000000000057
:0909a00000000000206800008046
:2009a9000000200000000000000000000000000000000000000000003800000000000000d6
:0a09c90000000000014000b0000033
:2009d3000000000000000000000000000000000000000000000000000000000000000a00fa
:0909f3000000000000014000803a
:2009fc0000000000000000000000000000000000000000000000001c380000000000010086
:0a0a1c0000000000000002000000ce
:200a2600000000000000000000000000000000000000000000000000000000000000180098
:090a460000000000000000008027
:200a4f0000000000000000000000000000000000000000000000000028000000000000005f
:0a0a6f0000000000000000b00000cd
:200a790000000000000000000000000000000000000000000000000000000000000000005d
:090a990000000000000140008093
:200aa2000000000000000000000000000000000000000000000000000000000000000090a4
:0a0ac2000000000000000200000028
:200acc00000000000000000000000000000000000000000000000002800000000007007011
:090aec00002000000005c8f0c064
:200af500000020000000000000000000000000000000000000000000400000000000080079
:0a0b15000000080000038000f0c09b
:200b1f00000000000000000000000000000000000000000000000000000000000000007244
:090b3f003c200e201c03c850c02c
:200b480000000000000000000000000000000000000000000000000000000000000000008d
:0a0b6800003c2104002004005000ae
:200b72000000000000000000000000000000000000000000000000028080f00000070072f8
:090b92003c22040000654850c03b
:200b9b0000000000000000000000000000000000000000000000000000100f000000080013
:0a0bbb00803c004000020e005000d4
:200bc50000030000000000000000000000000000000000000000000000000000000000729b
:090be50025a00000060548f0c03f
:200bee000100000000000000000000000000000000000000000200000000000008000000dc
:0a0c0e00a258002000020200f000ce
:200c1800000000000000000000000000000000000000000000000000000000000800007a3a
:090c380025a040002001e8f0c0f5
:200c4100000020000000000000000000000000000000000000000000000000000000000073
:0a0c61002a58000001400000f000d6
:200c6b0000000000000000000000000000000000000000000000000000e0f0000000007a1f
:090c8b0025a0400000636850c080
:200c940000000000000000000000000000000000000000000000000000100f0000380000e9
:0a0cb4002258000000000400500068
:200cbe0000000000000000000000000000000000000000000000000680000000000d9b7a6e
:090cde0025a00002260168f0c007
:200ce70000000000000000000000000000000000000000000002000000000000080050a0f3
:0a0d0700aa58012000400200f0008d
:200d110000000000000000000000000000000000000000000000000000a0f000000d9b7a10
:090d31002a8040002002c8504055
:200d3a0000000000000000000000000000000000000000000000000000100f00000050a08a
:0a0d5a0082a8010000402c00a00058
:200d6400000100000000000000000000000000000000000000000006048f0c0000000000c9
:090d84000000000016040a0f40f3
:200d8d000000200000000000000000000000000000400000000000006c30f0024000000018
:0a0dad000000000000030000f00445
:200db700000200000000000000000000000000000000000000e0000014896800000500d65a
:090dd700e0000e00000000000025
:200de000000000000000000000000000000000000000000000000000002f9608000008031b
:0a0e0000e000000000000000000008
:200e0a000000000000000000000000000000000000000000004001428e8cc80000001a0643
:090e2a0083c00400000000000078
:200e330000000000000000000000000000000000000000000008000243ea3308000000002d
:0a0e5300003c008001400000000098
:200e5d000003000000000000000000000000000000000000000000000485500000001c007d
:090e7d000000000140725a00401f
:200e860000000000000000000000000000000000000000000002000000205508000051007c
:0a0ea6000000002000041f88000077
:200eb000000000000000000000000000000000000000000000000000000000000000000022
:090ed00000000000000000000019
:200ed9000000200000000000000000000000000000000000000000000000000000000000d9
:0a0ef90000000000000000000000ef
:200f0300000000000000000000000000000000000000000000000006800000000007000041
:090f2300000000000000000000c5
:200f2c000000000000000000000000000000000000000000000000000000000000000000a5
:0a0f4c00000000000000000000009b
:200f56000000000000000000000000000000000000000000000000064000000000000a002b
:090f760000000000000000000072
:200f7f00000000000000000000000000000000000000000000020000280000000000010027
:0a0f9f000000002000000000000028
:200fa900000000000000000000000000000000000000000000000000000000002000000305
:090fc90083c000000000000000dc
:200fd2000000000000000000000000000000000000000000000000000000000000000000ff
:0a0ff200403c000002c000000000b7
:200ffc000000000000000000000000000000000000000000000000001cef0c0800000000b6
:09101c00000000000000000000cb
:201025000000200000000000000000000000000000000000000000002c00f002000000006d
:0a10450000000000000000000000a1
:20104f00000000000000000000000000000000000000000000e0000014996800000000008c
:09106f0000000000000000000078
:20107800000000000000000000000000000000000000000000000000002f96000000000093
:0a109800000000000000000000004e
:2010a2000000000000000000000000000000000000000000004001428e8cc80000001a00af
:0910c20000000000000000000025
:2010cb0000000000000000000000000000000000000000000008000243ca3300000000e0db
:0a10eb0000000000000000000000fb
:2010f5000003000000000000000000000000000000000000000000000485500000000000ff
:091115000000000c0000000000c5
:20111e0000000000000000000000000000000000000000000000000000205500000000003c
:0a113e0000000000000000000000a7
:20114800000000000000000000000000000000000000000000000000000000000007800000
:091168000000000000000000007e
:20117100000020000000000000000000000000000000000000000000000000000000080036
:0a1191000000000001c00000000093
:20119b000000000000000000000000000000000000000000000001400000000000000053a0
:0911bb00a800000000000c0f0068
:2011c400000000000000000000000000000000000000000000000000000000000000000308
:0a11e400c000000000000000f00051
:2011ee000000000000000000000000000000000000000000000000060000000000000a02cf
:09120e0083c00000000000000094
:201217000000000000000000000000000000000000000000000000040000000000000100b2
:0a123700403c000000000000000031
:2012410000000000000000000000000000000000000000000000000040000000000000004d
:0912610000000000000000000084
:20126a0000000000000000000000000000000000000000000000000028000000000000003c
:0a128a00000000000000000000005a
:201294000000000000000000000000000000000000000000000000000fcf0c0800038010b5
:0912b400168000000028c0008033
:2012bd000000200000000000000000000000000000400000000000000000f00200000800b7
:0a12dd00016800000006c0000020b8
:2012e700000000000000000000000000000000000000000000e000001c99680000000033b7
:0913070017c00000140169968072
:20131000000000000000000000000000000000000000000000000000000d96000200000018
:0a133000417c0000036000896000aa
:20133a000000000000000000000000000000000000000000004000061c9cc80000001a00b3
:09135a0020400000146068968038
:20136300000000000000000000000000000000000000000000080000036c33000001000bb4
:0a13830031080000002000a96000fe
:20138d000003000000000000000000000000000000000000000000000080f00000000000cd
:0913ad00000000001400499680c4
:2013b60000000000000000000000000000000000000000000000000000000f000000000008
:0a13d6000000000000000289600022
:2013e0000000000000000000000000000000000000000000000000000000000000000000ed
:09140000198000000400590f805e
:20140900000020000000000000000000000000000000000000000000000000000000108b08
:0a14290032640000000002c0f00071
:201433000000000000000000000000000000000000000000000003e680000000000000022e
:0914530083c00000206068550010
:20145c00000000000000000000000000000000000000000000000014000000000018000044
:0a147c00403c000000400005500055
:201486000000000000000000000000000000000000000000000001604000000000000000a5
:0914a6000000000006041ce40231
:2014af000000000000000000000000000000000000000000000000002800000000000000f5
:0a14cf00000000000002350d80004f
:2014d9000000000000000000000000000000000000000000000000000000000020000003d0
:0914f90003c000010001caf0006b
:201502000000000000000000000000000000000000000000000000000000000000000000c9
:0a152200003c000008000dfe8000f0
:20152c000000000000000000000000000000000000000000000000000000000000050a5838
:09154c0000200000166940008037
:20155500000020000000000000000000000000000000000000000014000000000000090039
:0a1575000000080000000000002044
:20157f000000000000000000000000000000000000000000000000000405a0000000005a49
:09159f0025a00000206d69968072
:2015a80000000000000000000000000000000000000000000000000000005a010000d0b048
:0a15c8002a580000014280996000db
:2015d2002000000000000000000000000000000000000000000000000000000000000012c7
:0915f20065a00001140449968073
:2015fb0001000000000000000000000000000000000000000000000000000000000050b0cf
:0a161b002a58000001e280a96000d7
:2016250000030000000000000000000000000000000000000000000001c0f0002805005a6a
:0916450025a00000160168968042
:20164e0000000000000000000000000000000000000000000000000000000f0000007800f5
:0a166e002e580000040000b96000cf
:2016780000040000000000000000000000000000000000000000000000000000005000926c
:0916980073200000160249cc8009
:2016a10000038000000000000000000000000000000000000000000000000000000000079f
:0a16c100a4cc000000029e9330004c
:2016cb00000000000000000000000800000000000000000000000000000000000000001add
:0916eb00154000000000685500e4
:2016f40000000800000000000000004000000000000000000000000c000000000000000082
:0a1714000154000000000005500021
:20171e000000000000000000000000000000000000000000000000000000000000000000ab
:09173e000f00800000040000000f
:2017470008000000000000000000000000000000000000000000000000000000000000007a
:0a17670000f0000000028000000006
:20177100000000000000000000000000000000000000000000000000000000000001808057
:091791001680000006014c1c004a
:20179a004000000000000000000000000000000000000000000000000000000000000005ea
:0a17ba000294000000000df3c000cf
:0217c400000023
:0217c60011010f
:0217c80001011d
:2017ca000000000000000000000000000000000000000000000000000000000000000000ff
:0917ea00000000000000000000f6
:2017f3000000000000000000000000000000000000000000000000000000000000000000d6
:0a18130000000000000000000000cb
:20181d000000000000000000000000000000000000000000000000000000000000000000ab
:09183d00000000000000000000a2
:20184600000000000000000000000000000000000000000000000000000000000000000082
:0a1866000000000000000000000078
:20187000000000000000000000000000000000000000000000000000000000000000000058
:091890000000000000000000004f
:2018990000000000000000000000000000000000000000000000000000000000000000002f
:0a18b9000000000000000000000025
:2018c300000000000004000000000000100000000000004000000000100000000000004061
:0918e300000000000001000000fb
:2018ec000000000000000000000000000000000000000000000000000000000000000000dc
:0a190c0000000000000000000000d1
:2019160000000000000c00000000000030000000000000c00000000030000000000000c0c5
:09193600000000000003000000a5
:20193f00000000000000000000000000000000000000000000000000000000000000000088
:0a195f00000000000000000000007e
:2019690000000000000000000000000000000000000000000000000000000000000000005e
:0919890000000000000000000055
:20199200000000000000000000000000000000000000000000000000000000000000000035
:0a19b200000000000000000000002b
:2019bc0000000000000000000000000000000000000000000000000000000000000000000b
:0919dc0000000000000000000002
:2019e5000000000000000000000000000000000000000000000000000000000000000000e2
:0a1a050000000000000000000000d7
:201a0f00000000000004000000000000100000000000004000000000100000000000004013
:091a2f00000000000001000000ad
:201a380000000000000000000000000000000000000000000000000000000000000000008e
:0a1a58000000000000000000000084
:201a6200000000000000000000000000000000000000000000000000000000000000000064
:091a82000000000000000000005b
:201a8b0000000000000000000000000000000000000000000000000000000000000000003b
:0a1aab000000000000000000000031
:201ab500000000000000000000000000000000000000000000000000000000000000000011
:091ad50000000000000000000008
:201ade000000000000000000000000000000000000000000000000000000000000000000e8
:0a1afe0000000000000000000000de
:201b08000000000000000000000000000000000000000000000000000000000000000000bd
:091b2800000000000000000000b4
:201b3100000000000000000000000000000000000000000000000000000000000000000094
:0a1b5100000000000000000000008a
:201b5b00000200000000000000000000000000000000000000000000000000000000000068
:091b7b0000000000000000000061
:201b8400000000000000000000000000000000000000000000000000000000000000000041
:0a1ba4000000000000000000000037
:201bae00000000000000000000000000000000000000000000000000000000000000000017
:091bce000000000000000000000e
:201bd7000000300000000000000000000000000000000000000000000000000000000000be
:0a1bf70000000000000000000000e4
:201c01000000000000000000000000000000000000000000000000000000000000000000c3
:091c2100000000000000000000ba
:201c2a0000000000000000000000000000000000000000000000000000000000000000009a
:0a1c4a000000000000000000000090
:201c5400000000000000000000000000000000000000000000000000000000000000000070
:091c740000000000000000000067
:201c7d00000000000000000000000000000000000000000000000000000000000000000047
:0a1c9d00000000000000000000003d
:201ca70000020000000000000000000000000000000000000000000000000000000000001b
:091cc70000000000000000000014
:201cd0000000000000000000000000000000000000000000000000000000000000000000f4
:0a1cf00000000000000000000000ea
:201cfa000000000000000000000000000000000000000000000000000000000000000000ca
:091d1a00000000000000000000c0
:201d23000000000000000000000000000000000000000000000000000000000000000000a0
:0a1d43000000000000000000000096
:201d4d00000000000000000000000000000000000000000000000000000000000000000076
:091d6d000000000000000000006d
:201d760000000000000000000000000000000000000000000000000000000000000000004d
:0a1d96000000000000000000000043
:201da000000000000000000000000000000000000000000000000000000000000000000023
:091dc0000000000000000000001a
:201dc9000000000000000000000000000000000000000000000000000000000000000000fa
:0a1de90000000000000000000000f0
:201df3000002000000000000000000000000000000000000000000000000000000000000ce
:091e1300000000000000000000c6
:201e1c000000000000000000000000000000000000000000000000000000000000000000a6
:0a1e3c00000000000000000000009c
:201e460000000000000000000000000000000000000000000000000000000000000000007c
:091e660000000000000000000073
:201e6f00000030000000000000000000000000000000000000000000000000000000000023
:0a1e8f000000000000000000000049
:201e9900000000000000000000000000000000000000000000000000000000000000000029
:091eb90000000000000000000020
:201ec200000000000000000000000000000000000000000000000000000000000000000000
:0a1ee20000000000000000000000f6
:201eec000000000000000000000000000000000000000000000000000000000000000000d6
:091f0c00000000000000000000cc
:201f15000000000000000000000000000000000000000000000000000000000000000000ac
:0a1f350000000000000000000000a2
:201f3f0000020000000000000000000000000000040000000000000000000000000000007c
:091f5f0000000000000000000079
:201f6800000000000000000000000000000000000000000000000000000000000000000059
:0a1f8800000000000000000000004f
:201f920000000000000000000000000000000000000000000000000000000000000000002f
:091fb20000000000000000000026
:201fbb00000000000000000000000000000000000000000000000000000000000000000006
:0a1fdb0000000000000000000000fc
:201fe5000000000000000000000000000000000000000000000000000000000000000000dc
:09200500000000000000000000d2
:20200e000000000000000000000000000000000000000000000000000000000000000000b2
:0a202e0000000000000000000000a8
:20203800000000000000000000000000000000000000000000000000000000000000000088
:092058000000000000000000007f
:2020610000000000000000000000000000000000000000000000000000000000000000005f
:0a2081000000000000000000000055
:20208b00000200000000000000000000000000000000000000000000000000000000000033
:0920ab000000000000000000002c
:2020b40000000000000000000000000000000000000000000000000000000000000000000c
:0a20d4000000000000000000000002
:2020de000000000000000000000000000000000000000000000000000000000000000000e2
:0920fe00000000000000000000d9
:20210700000030000000000000000000000000000000000000000000000000000000000088
:0a21270000000000000000000000ae
:2021310000000000000000000000000000000000000000000000000000000000000000008e
:0921510000000000000000000085
:20215a00000000000000000000000000000000000000000000000000000000000000000065
:0a217a00000000000000000000005b
:2021840000000000000000000000000000000000000000000000000000000000000000003b
:0921a40000000000000000000032
:2021ad00000000000000000000000000000000000000000000000000000000000000000012
:0a21cd000000000000000000000008
:2021d7000002000000000000000000000000000000000000000000000000000000000000e6
:0921f700000000000000000000df
:202200000000000000000000000000000000000000000000000000000000000000000000be
:0a22200000000000000000000000b4
:20222a00000000000000000000000000000000000000000000000000000000000000000094
:09224a000000000000000000008b
:2022530000000000000000000000000000000000000000000000000000000000000000006b
:0a2273000000000000000000000061
:20227d00000000000000000000000000000000000000000000000000000000000000000041
:09229d0000000000000000000038
:2022a600000000000000000000000000000000000000000000000000000000000000000018
:0a22c600000000000000000000000e
:2022d0000000000000000000000000000000000000000000000000000000000000000000ee
:0922f000000000000000000000e5
:2022f9000000000000000000000000000000000000000000000000000000000000000000c5
:0a23190000000000000000000000ba
:20232300000200000000000000000000000000000000000000000000000000000000000098
:0923430000000000000000000091
:20234c00000000000000000000000000000000000000000000000000000000000000000071
:0a236c000000000000000000000067
:20237600000000000000000000000000000000000000000000000000000000000000000047
:092396000000000000000000003e
:20239f000000300000000000000000000000000000000000000000000000000000000000ee
:0a23bf000000000000000000000014
:2023c9000000000000000000000000000000000000000000000000000000000000000000f4
:0923e900000000000000000000eb
:2023f2000000000000000000000000000000000000000000000000000000000000000000cb
:0a24120000000000000000000000c0
:20241c000000000000000000000000000000000000000000000000000000000000000000a0
:09243c0000000000000000000097
:20244500000000000000000000000000000000000000000000000000000000000000000077
:0a246500000000000000000000006d
:20246f00000200000000000000000000000000000400000000000000000000000000000047
:09248f0000000000000000000044
:20249800000000000000000000000000000000000000000000000000000000000000000024
:0a24b800000000000000000000001a
:2024c2000000000000000000000000000000000000000000000000000000000000050000f5
:0924e200000000000000000f00e2
:2024eb0000000000000000000000000000000000000000000000000000000000000081a0b0
:0a250b0000000000200001c0f000f5
:202515000000000000000000000000000000000000000000002000000000000080070000ff
:092535000000020000000000009b
:20253e0000000000000000000000000000000000000000000000000000000000000000007d
:0a255e000000000000000000000073
:20256800000000000000000000000000000000000000000000000000000000000000100043
:0925880000000000140000000036
:2025910000000000000000000000000000000000000000000000000000000000000001e049
:0a25b100000000000200000000001e
:2025bb000002000000000000000000000000000000000000000000000000000000000008f6
:0925db00154000000000100f0083
:2025e4000000000000000000000000000000000000000000000000000000000000000005d2
:0a260400a1540400000001a0f00042
:20260e000000000000000000000000000000000000000000002000000000000080070e7a7d
:09262e008cc000000020000f0028
:202637000000300000000000000000000000000000000000000000000000000000008017bc
:0a265700a732000000000180f0002f
:2026610000000000000000000000000000000000000000000000000000000002000f000246
:092681006580000000000000006b
:20268a0000000000000000000000000000000000000000000000000000000000100000051b
:0a26aa00225a0000000000000000aa
:2026b400000000000000000000000000000000000000000000000000000000000000000bfb
:0926d400a58000001400000000c4
:2026dd0000000000000000000000000000000000000000000000000000000000380000079e
:0a26fd00a65a0000020000000000d1
:202707000002000000000000000000000000000000000000000000000000000010000e0c86
:092727003c00c0000000000000ad
:20273000000000000000000000000000000000000000000000000000000000000000001376
:0a275000f3c30000000000000000c9
:20275a0000000000000000000000000000000000000000000000000000000000000100005e
:09277a00000000000000100f0037
:202783000000000000000000000000000000000000000000000000000000000000008000b6
:0a27a3000000000000000180f000bb
:2027ad0000000000000000000000000000000000000000000000000000000000000000000c
:0927cd0000000000000000000003
:2027d60000000000000000000000000000000000000000000000000000000000000000a043
:0a27f6000000000000600000000079
:202800000000000000000000000000000000000000000000000003c00000000000000000f5
:092820000000000034000000007b
:20282900000000000000000000000000000000000000000000000000000000000000380057
:0a284900000000000006000000007f
:2028530000020000000000000000000000000000000000000000000000000000000000085b
:092873001540000000006c2c006f
:20287c0000000000000000000000000000000000000000000000000000000000000000013b
:0a289c00215400000000249380087e
:2028a600000000000000000000000000000000000000000000000000010f0000000d007a7b
:0928c600ccc000002c000b000046
:2028cf00000030000000000000000000000000000000000000000000201af0400000000f40
:0a28ef002332000022001c00080044
:2028f9000000000000000000000000000000000000000000008000000000000200008b02b0
:09291900a5800000002808000060
:2029220000000000000000000000000000000000000000000004000000000000100050052c
:0a294200a25a000000004410080033
:20294c00000000000000000000000000000000000000000000000000000f00000000000a52
:09296c006580000014340d0f0019
:202975000000000000000000000000000000000000000000000e0000001cf040380000a709
:0a299500265a000002005d90f800d1
:20299f00000200000000000000000000000000000400000000000000000000000000100002
:0929bf003c008000000000000251
:2029c80000000000000000000000000000000000000000000000000000000000000000a34c
:0a29e800f3c320000166960008000a
:2029f2000000000000000000000000000000000000000000000000000000f00000000000d5
:092a120003c000000020000f00c9
:202a1b00000000000000000000000000000000000000000000000000600a0f000000000022
:0a2a3b00603c0000000000e0f00025
:202a45000000000000000000000000000000000000000000000000000003c00000000004aa
:092a650003c000000000d0bd0018
:202a6e0000000000000000000000000000000000000000000000000068003c02000001c0e1
:0a2a8e00303c000000600581d020fc
:202a9800000000000000000000000000000000000000000000000140020550000000000086
:092ab800000000001600200a20b5
:202ac10000000000000000000000000000000000000000000000002001c8550000000000b7
:0a2ae1000000000002e016c0a00093
:202aeb0000020000000000000000000000000000000000000000000280cf000000009000e8
:092b0b000f000000040340a500c6
:202b14000000000000000000000000000000000000000000000000163409f080000250a0ec
:0a2b340068f0080002002005a00070
:202b3e00000000000000000000000000000000000000000000000000029960000001080073
:092b5e003c000000000060f000e2
:202b670000003000000000000000000000000000000000000000000000c8968000008010b0
:0a2b870023c00000000296c0f00019
:202b910000000000000000000000000000000000000000000000002400b960000000000bdc
:092bb100e58000000000c098005e
:202bba0000000000000000000000000000000000000000000000001420c8968000000003e6
:0a2bda00225a0000000027ca40a0a4
:202be400000000000000000000000000000000000000000000000000029960000009000ac3
:092c0400e5800000000000aa00b8
:202c0d0000000000000000000000000000000000000000000000000001e896800000800721
:0a2c2d00265a00000062848aa2000b
:202c3700000200000000000000000000000000000000000000000000020000200000000059
:092c5700000080002424299604e9
:202c600000000000000000000000000000000000000000000000000020c0008000000003f1
:0a2c80000002000002601e896800d7
:202c8a000000000000000000000000000000000000000000000001400000000000000000e9
:092caa00000000002400200f20ae
:202cb3000000000000000000000000000000000000000000000000060000000000001800e3
:0a2cd300000000000000068f08005a
:202cdd000000000000000000000000000000000000000000000000003403c00000000000e0
:092cfd000f00000000280a9620d7
:202d060040000000000000000000000000000000000000000000000000003c02000000002f
:0a2d260000f0080000605e996800ec
:202d300000000000000000000000000000000000000000000000000014e33000000000005c
:092d5000154000000000000f0016
:202d59004000000000000000000000000000000000000000000000000369cc0000000001e1
:0a2d7900a15400000000068f0800be
:202d83000002000000000000000000000000000000000000000000001e9330000000907a43
:092da3004cc000000000200f00ec
:202dac000000000000000000000000000000000000000000000000003249cc80000039897e
:0a2dcc00273200000000048f0810f9
:202dd60000400000000000000000000000000000000000000000036000b9600000200002ff
:092df600e580000002002e9601a8
:202dff00000730000000000000000000000000000000000000000014016896800005580588
:0a2e1f00a25a0000006004996a0046
:202e2900200000000000000000000000000000000000000000000002c0a9600000000a0292
:092e4900a58000000000000f014b
:202e520003000000000000000000000000000000000000000000000060499680000000118d
:0a2e7200265a00000000048f08003b
:202e7c00000000000000000000000000000000000010000000000002c099600000050a0359
:092e9c00658000402427c00f10de
:202ea5000000000000000000000000000000000000020000000000003969968000008015be
:0a2ec500a25a00e802005c0f0c00a6
:202ecf00000200000000000000000000000000000400000000000024020000200000000097
:092eef00000080000264200002d2
:202ef80000000000000000000000000000000000000000000000001428c00080000059a342
:0a2f18000002000000665c000800e3
:022f22000000ad
:022f2400110298
:022f26000101a7
:202f2800000000000000000000000000000000000000000000000000000000400000000049
:092f48000001000000000000007f
:202f5100000000000000000000000000000000000000000000000000000000000000000060
:0a2f71000000000000000000000056
:202f7b000000000000000000000000000000000000000000000000000000008000000000b6
:092f9b000002000000000000002b
:202fa40000000000000000000000000000000000000000000000000000000000000000000d
:0a2fc4000000000000000000000003
:202fce000000000000000000000000000000000000000000000000000068004000004000fb
:092fee00100100000000000000c9
:202ff7000000000000000000000000000000000000000000000000020004000000000c00a8
:0a3017000e000000000000000000a1
:203021000000000000080000000000002000000000080000000000002000000000000080bf
:0930410000000000000200000084
:20304a00000000000000000000000000000000000000000000000000000000000000000066
:0a306a00000000000000000000005c
:2030740000000000000c00000000000030000000000c00000000000030000000000000c004
:0930940000000000000300000030
:20309d00000000000000000000000000000000000000000000000000000000000000000013
:0a30bd000000000000000000000009
:2030c7000000000000000000000000000000000000000000000000300000000000000000b9
:0930e700000000000000000000e0
:2030f0000000000000000000000000000000000000000000000000010000000400000000bb
:0a31100000000000000000000000b5
:20311a00000000000000000000000000000000000000000000000000000000000000000095
:09313a000000000000000000008c
:20314300000000000000000000000000000000000000000000000000000000080000000064
:0a3163000000000000200000000042
:20316d00000000000008000000000000200000000008000000000000200000000000008072
:09318d0000000000000200000037
:2031960000000000000000000000000000000000000000000000000000068004000000008f
:0a31b600000000000000000000000f
:2031c0000000000000000000000000000000000000000000000000000000000000000000ef
:0931e000000000000000000000e6
:2031e90000002000000000000000000000000000000000000800000000000000000000009e
:0a32090000000000000000000000bb
:2032130000000000000000000000000000000000000000000000000000000000000000009b
:0932330000000000000000000092
:20323c00000000000000000000000000000000000000000000000000000000000000000072
:0a325c000000000000000000000068
:20326600000000000000000000000000000000000000000000000000000000000000000048
:093286000000000000000000003f
:20328f0000000000000000000000000000000000000000000000000000000000000000001f
:0a32af000000000000000000000015
:2032b9000003000000000000000000000000000000000000000000000000000000000000f2
:0932d900000000000000000000ec
:2032e2000000000000000000000000000000000000000000000000000000000000000000cc
:0a33020000000000000000000000c1
:20330c000000000000000000000000000000000000000000000000000000000000000000a1
:09332c0000000000000000000098
:20333500000020000000000000000000000000000000000000000000000000000000000058
:0a335500000000000000000000006e
:20335f0000000000000000000000000000000000000000000000000000000000000000004e
:09337f0000000000000000000045
:20338800000000000000000000000000000000000000000000000000000000000000000025
:0a33a800000000000000000000001b
:2033b2000000000000000000000000000000000000000000000000000000000000000000fb
:0933d200000000000000000000f2
:2033db000000000000000000000000000000000000000000000000000000000000000000d2
:0a33fb0000000000000000000000c8
:203405000000000000000000000000000000000000000000000000000000000000000000a7
:093425000000000000000000009e
:20342e0000000000000000000000000000000000000000000000000000000000000000007e
:0a344e000000000000000000000074
:20345800000000000000000000000000000000000000000000000000000000200000000034
:093478000000000000000000004b
:2034810000002000000000000000000000000000000000000000000000000000000000000b
:0a34a1000000000000000000000021
:2034ab00000000000000000000000000000000000000000000000000000000000000000001
:0934cb00000000000000000000f8
:2034d4000000000000000000000000000000000000000000000000000000000000000000d8
:0a34f40000000000000000000000ce
:2034fe000000000000000000000000000000000000000000000000000000000000000000ae
:09351e00000000000000000000a4
:20352700000000000000000000000000000000000000000000000000000000000000000084
:0a354700000000000000000000007a
:20355100000300000000000000000000000000000000000000000000000000000000000057
:0935710000000000000000000051
:20357a00000000000000000000000000000000000000000000000000000000000000000031
:0a359a000000000000000000000027
:2035a400000000000000000000000000000000000000000000000000000000000000000007
:0935c400000000000000000000fe
:2035cd000000200000000000000000000000000000000000000000000000000000000000be
:0a35ed0000000000000000000000d4
:2035f7000000000000000000000000000000000000000000000000000000000000000000b4
:09361700000000000000000000aa
:2036200000000000000000000000000000000000000000000000000000000000000000008a
:0a3640000000000000000000000080
:20364a00000000000000000000000000000000000000000000000000000000000000000060
:09366a0000000000000000000057
:20367300000000000000000000000000000000000000000000000000000000000000000037
:0a369300000000000000000000002d
:20369d0000000000000000000000000000000000000000000000000000000000000000000d
:0936bd0000000000000000000004
:2036c6000000000000000000000000000000000000000000000000000000000000000000e4
:0a36e60000000000000000000000da
:2036f0000000000000000000000000000000000000000000000000000000000000000000ba
:093710000000000aa8ea180000fc
:20371900000020000000000000000000000000000000000008000000000000000000000068
:0a373900000000001400c00b0000a7
:20374300000000000000000000000000000000000000000000000000000000000000000066
:093763000000000000000000015c
:20376c00c0000000000000000000000000000000000000000000000000000000000000007d
:0a378c00000400000000000000002f
:20379600000000000000000000000000000000000000000000000000000000000000000013
:0937b6000000000000000000000a
:2037bf000000000000000000000000000000000000000000000000000000000000000000ea
:0a37df00000000000000000b0000d5
:2037e9000003000000000000000000000000000000000000000000000000000000000000bd
:093809000000000908c9000000dc
:20381200000000000000000000000000000000000000000000000000000000000000000096
:0a383200000000003264c000000036
:20383c0000000000000000000000000000000000000000000000000000000000000000006c
:09385c0000000000000000100053
:20386500000020000000000000000000000000000000000000000000000000000000000023
:0a3885000000000000000008180019
:20388f00000000000000000000000000000000000000000000000000000000800000000099
:0938af0000000000000000800090
:2038b8000000000000000000000000000000000000000000000000000000001400000000dc
:0a38d80000000000000000100000d6
:2038e2000000000000000000000000000000000000000000000000000000000000000000c6
:09390200000000000000000000bc
:20390b0000000000000000000000000000000000000000000000000000000000000000009c
:0a392b000002000000000000000090
:20393500000000000000000000000000000000000000000000000000000000000000000072
:0939550000000000000000000069
:20395e00000000000000000000000000000000000000000000000000000000000000000049
:0a397e00000000000000000000003f
:2039880000000000000000000000000000000000000000000000000000000000000000001f
:0939a8000000001000cbd8000063
:2039b1000000200000000000000000000000000000000000000000000000000000000000d6
:0a39d1000000000000ace50a000051
:2039db000000000000000000000000000000000000000000000000000000000000000000cc
:0939fb00000000000b4959b00165
:203a0400c000000000000000000000000000000000000000000000000000000000000000e2
:0a3a2400000000000024b0080000bc
:203a2e000000000000000000000000000000000000000000000000000000000004ff000075
:093a4e0000000001405ad1b00053
:203a570000000000000000000000000000000000000000000000000000000000208ff000b0
:0a3a7700000000001402050a000020
:203a8100000300000000000000000000000000000000000000000000000000000000000022
:093aa10000000102017881b0006f
:203aaa000000000000000000000000000000000000000000000000000000000000000000fc
:0a3aca00000000002000050a0000c3
:203ad4000000000000000000000000000000000000000000000000000000000000000000d2
:093af4000000000141788180000e
:203afd00000020000000000000000000000000000000000000000000000000000000000089
:0a3b1d000000000014030100000086
:203b270000000000000000000000000000000000000000000000000000000000000000007e
:093b470000000000155a00000006
:203b5000000000000000000000000000000000000000000000000000000000000000000055
:0a3b7000000000000002b000000099
:203b7a0000000000000000000000000000000000000000000000000000000000000000002b
:093b9a00000000006158800000e9
:203ba300000000000000000000000000000000000000000000000000000000000000000002
:0a3bc300000000000414b10000101f
:203bcd000000000000000000000000000000000000000000000000000000000000000000d8
:093bed0000000149fc58018004ac
:203bf6000000000000000000000000000000000000000000000000000000000000000000af
:0a3c1600000008803fc2f0000080ab
:203c2000000000000000000000000000000000000000000000000000000000000000000084
:093c40000000000000000000007b
:203c4900000020000000000000000000000000000000000008000000000000000000000033
:0a3c69000000000000000000000051
:203c7300000000000000000000000000000000000000000000000000000000000000000031
:093c93000000000140ce00000019
:203c9c00000000000000000000000000000000000000000000000000000000000000000008
:0a3cbc0000000000140000000000ea
:203cc6000000000000000000000000000000000000000000000000000000000000000000de
:093ce6000000010011cd500000a6
:203cef000000000000000000000000000000000000000000000000000000000000000000b5
:0a3d0f00000000000003c0000000e7
:203d1900000300000000000000000000000000000000000000000000000000000000000087
:093d39000000010295fd000000ec
:203d4200000000000000000000000000000000000000000000000000000000000000000061
:0a3d6200000000801281d000000074
:203d6c00000000000000000000000000000000000000000000000000000000000000000037
:093d8c0000000000000019900085
:203d95000000200000000000000000000000000000000000000000000000000000000000ee
:0a3db500000000000000009900006b
:203dbf000000000000000000000000000000000000000000000000000000000000000000e4
:093ddf0000000000000098100033
:203de8000000000000000000000000000000000000000000000000000000000000000000bb
:0a3e0800000000000000098900001e
:203e1200000000000000000000000000000000000000000000000000000000000000000090
:093e32000000000308ce818000ad
:203e3b00000000000000000000000000000000000000000000000000000000010000000066
:0a3e5b000000008030f5c9100010cf
:203e650000000000000000000000000000000000000000000000000000000000000000003d
:093e8500000000000000018000b3
:203e8e00000000000000000000000000000000000000000000000000000000000000000014
:0a3eae0000000000000000100000fa
:203eb8000000000000000000000000000000000000000000000000000000000000000000ea
:093ed80000010003ffcc00000012
:203ee100400020000000000000000000000000000000000000000000000000000000000061
:0a3f0100000000003f8ec000000029
:203f0b00000000000000000000000000000000000000000000000000000000000000000096
:093f2b00000001011d7e000001ef
:203f3400c000000000000000000000000000000000000000000000000000000000000000ad
:0a3f54000000000011c20000000090
:203f5e00000000000000000000000000000000000000000000000000000000000000000043
:093f7e000000010301fd00a00098
:203f870000000000000000000000000000000000000000000000000000000000000000001a
:0a3fa700000000001942f0100000b5
:203fb1000003000000000000000000000000000000000000000000000000000000000000ed
:093fd100000001081d4f1800005a
:203fda000000000000000000000000000000000000000000000000000000000000000000c7
:0a3ffa00000000040081e000000058
:2040040000000000000000000000000000000000000000000000000000000000000000009c
:0940240000000000000000b000e3
:20402d00000020000000000000000000000000000000000000000000000000000000000053
:0a404d000000000000000d19000043
:20405700000000000000000000000000000000000000000000000000000000000000000049
:0940770000000000000000a000a0
:20408000000000000000000000000000000000000000000000000000000000000000000020
:0a40a000000000000000000800000e
:2040aa000000000000000000000000000000000000000000000000000000000000000000f6
:0940ca00000000000000181000c5
:2040d3000000000000000000000000000000000000000000000000000000000000000000cd
:0a40f3000000000000000d8900002d
:2040fd000000000000000000000000000000000000000000000000000000000000000000a3
:09411d0000000003fcdc50a000ce
:20412600000000000000000000000000000000000000000000000000000000000000000079
:0a414600000000001fdecd1900008c
:20415000000000000000000000000000000000000000000000000000000000000100070047
:09417000280000016bd8101000ba
:204179000000200000000000000000000000000000000000080000000000000004000040ba
:0a419900040000000686b0080000d4
:2041a3000000000000000000000000000000000000000000000000000000004001691284bc
:0941c3000400010838ef00a0011e
:2041cc00c0000000000000000000000000000000000000000000000000000000000691403c
:0a41ec00220000000283b01b000057
:2041f6000000000000000000000000000000000000000000000000000000000001699606a3
:094216000000000000005000004f
:20421f000000000000000000000000000000000000000000000000000000000000069340a6
:0a423f0000000000000000800000f5
:204249000003000000000000000000000000000000000000000000000000000001f03a80a7
:0942690000000001416c5000004e
:2042720000000000000000000000000000000000000000000000000000000000000f0f40ce
:0a4292000000000414020d8000007b
:20429c000000000000000000000000000000000000000000000000000000000000aa133411
:0942bc0064000000047b00000016
:2042c50000002000000000000000000000000000000000000000000000000000000aa040cf
:0a42e50043c00000000db00e000001
:2042ef000000000000000000000000000000000000000000000000000000000040f27344c6
:09430f00000001020d58900000ad
:204318000000000000000000000000000000000000000000000000000000000000079034ba
:0a433800228000002042f100000086
:2043420000000000000000000000000000000000000000000000000000000000000000005b
:094362006000010040e9180000b0
:20436b00000000000000000000000000000000000000000000000000000000000000000131
:0a438b00400000000003e7000000fe
:204395000000000000000000000000000000000000000000000000000000000000ae9b00bf
:0943b5000000010301c9008000b1
:2043be0000000000000000000000000000000000000000000000000000000000000a2b703a
:0a43de00000000203082b000000053
:2043e800000000000000000000000000000000000000000000004001c50a00000000002085
:094408006c000004000c0000002f
:204411000000200000000000000000000000000000000000000100000009c00000000001a0
:0a44310043c0000000240d0000004d
:20443b00000000000000000000000000000000000000000000005a65a580001c005a021ce9
:09445b006800000c3c4e01e00178
:20446400c000000000000000000000000000000000000000000041a6c000b0000005a0007c
:0a448400000000003c0000000000f2
:20448e00000000000000000000000000000000000000000000005a64800e000000001a1692
:0944ae000000000c3c4e18000057
:2044b7000000000000000000000000000000000000000000000001a440d00000000407ac79
:0a44d700000000003c01000080001e
:2044e100000300000000000000000000000000000000000000004cc5f00a0000404032609b
:094501000400000c284b8180002d
:20450a000000000000000000000000000000000000000000000003334e010000000000e12b
:0a452a00428000002801810000001b
:20453400000000000000000000000000000000000000000000002a848780000044005e8090
:094554000000000c3c5e00a00018
:20455d000000200000000000000000000000000000000000000002a81000b0000804007f29
:0a457d00400000003c0000100000a8
:20458700000000000000000000000000000000000000000000003c06018e00000000000043
:0945a7000000000c3c5a00000069
:2045b0000000000000000000000000000000000000000000000003c00b010000000000001c
:0a45d000000000003c0000000000a5
:2045da0000000000000000000000000000000000000000000040bfc6c00000000000000636
:0945fa002800002c3c5a818400c9
:2046030000000000000000000000000000000000000000000000037c7a000000000000009e
:0a462300240000003c01010020000b
:20462d00000000000000000000000000000000000000000000003c0c00190000000192c0b9
:09464d000000020c3c5e18100490
:204656000000000000000000000000000000000000000000000003c000008000000005e01c
:0a467600000000003c0100080000f5
:02468000000038
:02468200110322
:02468400010132
:204686000000000000000100100000000000004000000000000000000000000000000000c3
:0946a6000000000000000000000b
:2046af0000000000000000900000000000000000000000000000000000000000000000005b
:0a46cf0000000000000000000000e1
:2046d9000000000000000000200000000028008000000000000000000000000000000000f9
:0946f900000000000000000000b8
:20470200000000000000000000000000000040000000000000000000000000000000000057
:0a472200000000000000000000008d
:20472c00000000000c000000100000300000004000000000000000000000000000000000e1
:09474c0000000000000000000064
:204755000000000000c0000000000002000000000000000000000000000000000000000082
:0a477500000000000000000000003a
:20477f0000000000000800000000000020000000000800000000000020000000000000804a
:09479f000000000000020000000f
:2047a8000000000000000000000000000000000000000000000000000000000000000000f1
:0a47c80000000000000000000000e7
:2047d20000000000000c01000000000030000000000c00000000000030000000000000c08e
:0947f200000000000003000000bb
:2047fb0000000000000000a0000000000000000000000000000000060000000000000000f8
:0a481b000000000000000000000093
:20482500000000000c00000000000000000000000000000000000000000000000000000067
:094845000000000000000000006a
:20484e000000000000800000010000000000000000000000000000000000000000000000c9
:0a486e000000000000000000000040
:20487800000000000000000000000000000000000000000000000000000000000000000020
:0948980000000000000000000017
:2048a1000000000000000000020000000000000000000000000000000000000000000000f5
:0a48c10000000000000000000000ed
:2048cb0000000000000800000000000020000000000800000000000020000000000180807c
:0948eb00000000000002000000c2
:2048f4000000000000000000010000000000000000000000000000000000000000000000a3
:0a4914000000000000000000000099
:20491e000000000550400000000000000000000000000000000000000000000000000000e4
:09493e0000000000000000000070
:2049470000000000555f860000000000000000000000000000000000000000000000000016
:0a4967000000000000000000000046
:2049710000000100403c0000000000000000000000000000000000000000000000000000a9
:094991000000000000000000001d
:20499a00000000400830400000000000000000000000000000000000000000000000000045
:0a49ba0000000000000000000000f3
:2049c4000000000f00000000000000000000000000000000000000000000000000000000c4
:0949e400000000000000000000ca
:2049ed0000000000f058000000000000000000000000000000000000000000000000000062
:0a4a0d00000000000000000000009f
:204a170000020000000000000000000000000000000000000000000000000000000000007d
:094a370000000000000000000076
:204a40000000000000000060000000000000000000000000000000000000000000000000f6
:0a4a6000000000000000000000004c
:204a6a0000000000000000000000000000000000000000000000000000000000000000002c
:094a8a0000000000000000000023
:204a9300000030000000006000000000000000000000000000000000000000000000000073
:0a4ab30000000000000000000000f9
:204abd000000000000000000000000000000000000000000000000000000000000000000d9
:094add00000000000000000000d0
:204ae6000000000000000000000000000000000000000000000000000000000000000000b0
:0a4b060000000000000000000000a5
:204b100000000000a070000000000000000000000000000000000000000000000000000075
:094b30000000000000000000007c
:204b390000000000f55f800000000000000000000000000000000000000000000000000088
:0a4b59000000000000000000000052
:204b6300000200000000000000000000000000000000000000000000000000000000000030
:094b8300800000000000000000a9
:204b8c00000000000000000000000000000000000000000000000000000000000000000009
:0a4bac0000000000000000000000ff
:204bb6000000000000000000000000000000000000000000000000000000000000000000df
:094bd600000000000000000000d6
:204bdf000000000000000000000000000000000000000000000000000000000000000000b6
:0a4bff0000000000000000000000ac
:204c090000000000000000000000000000000000000000000000000000000000000000008b
:094c290000000000000000000082
:204c3200000000000000000000000000000000000000000000000000000000000000000062
:0a4c52000000000000000000000058
:204c5c00000000000000000000000000000000000000000000000000000000000000000038
:094c7c000000000000000000002f
:204c850000000000000000000000000000000000000000000000000000000000000000000f
:0a4ca5000000000000000000000005
:204caf000002000000000000000000000000000000000000000000000000000000000000e3
:094ccf00000000000000000000dc
:204cd8000000000000000000000000000000000000000000000000000000000000000000bc
:0a4cf80000000000000000000000b2
:204d0200000000000000000000000000000000000000000000000000000000000000000091
:094d220000000000000000000088
:204d2b00000030000000000000000000000000000000000000000000000000000000000038
:0a4d4b00000000000000000000005e
:204d550000000000000000000000000000000000000000000000000000000000000000003e
:094d750000000000000000000035
:204d7e00000000000000000000000000000000000000000000000000000000000000000015
:0a4d9e00000000000000000000000b
:204da8000000000000000000000000000000000000000000000000000000000000000000eb
:094dc800000000000000000000e2
:204dd1000000000000000000000000000000000000000000000000000000000000000000c2
:0a4df10000000000000000000000b8
:204dfb00000200000000000000000000000000000000000080000000000000000000000016
:094e1b000000000000000000008e
:204e240000000000000000000000000000000000000000000000000000000000000000006e
:0a4e44000000000000000000000064
:204e4e00000000000000000000000000000000000000000000000000000000000000000044
:094e6e000000000000000000003b
:204e770000000000000000000000000000000000000000000000000000000000000000001b
:0a4e97000000000000000000000011
:204ea1000000000000000000000000000000000000000000000000000000000000000000f1
:094ec100000000000000000000e8
:204eca000000000000000000000000000000000000000000000000000000000000000000c8
:0a4eea0000000000000000000000be
:204ef40000000000000000000000000000000000000000000000000000000000000000009e
:094f140000000000000000000094
:204f1d00000000000000000000000000000000000000000000000000000000000000000074
:0a4f3d00000000000000000000006a
:204f4700000200000000000000000000000000000000000000000000000000000000000048
:094f670000000000000000000041
:204f7000000000000000000000000000000000000000000000000000000000000000000021
:0a4f90000000000000000000000017
:204f9a000000000000000000000000000000000000000000000000000000000000000000f7
:094fba00000000000000000000ee
:204fc30000003000000000000000000000000000000000000000000000000000000000009e
:0a4fe30000000000000000000000c4
:204fed000000000000000000000000000000000000000000000000000000000000000000a4
:09500d000000000000000000009a
:2050160000000000000000000000000000000000000000000000000000000000000000007a
:0a5036000000000000000000000070
:20504000000000000000000000000000000000000000000000000000000000000000000050
:0950600000000000000000000047
:20506900000000000000000000000000000000000000000000000000000000040000000023
:0a508900000000000000000000001d
:205093000002000000000000000000000000000000000000000000000000000000000000fb
:0950b300000000000000000000f4
:2050bc000000000000000000000000000000000000000000000000000000000000000000d4
:0a50dc0000000000000000000000ca
:2050e6000000000000000000000000000000000000000000000000000000000000000000aa
:09510600000000000000000000a0
:20510f00000000000000000000000000000000000000000000000000000000000000000080
:0a512f000000000000000000000076
:20513900000000000000000000000000000000000000000000000000000000000000000056
:095159000000000000000000004d
:2051620000000000000000000000000000000000000000000000000000000000000000002d
:0a5182000000000000000000000023
:20518c00000000000000000000000000000000000000000000000000000000000000000003
:0951ac00000000000000000000fa
:2051b5000000000000000000000000000000000000000000000000000000000000000000da
:0a51d50000000000000000000000d0
:2051df000002000000000000000000000000000000000000000000000000000000000000ae
:0951ff00000000000000000000a7
:20520800000000000000000000000000000000000000000000000000000000000000000086
:0a522800000040000000000000003c
:2052320000000000000000000000000000000000000000000000000000000000000000005c
:0952520000000000000000000053
:20525b00000030000000000000000000000000000000000000000000000000000000000003
:0a527b000000000000000000000029
:20528500000000000000000000000000000000000000000000000000000000000000000009
:0952a50000000000000000000000
:2052ae000000000000000000000000000000000000000000000000000000000000000000e0
:0a52ce0000000000000000000000d6
:2052d8000000000000000000000000000000000000000000000000000000000000000000b6
:0952f800000000000000000000ad
:2053010000000000000000003000000000000000000000000000000000000000000000005c
:0a5321000000000000000000000082
:20532b000002000000000000000000000000000000000000800000000000000000000000e0
:09534b0000000000000000000059
:20535400000000000000000000000000000000000000000000000000000200000000000037
:0a537400000000000000000000002f
:20537e0000000000000000000000000000000000000000000000000000000000000000000f
:09539e0000000000000000000006
:2053a7000000000000000000000000000000000000000000000000000000000000000000e6
:0a53c70000000000000000000000dc
:2053d1000000000000000000000000000000000000000000000000000000001000000000ac
:0953f10000004000000000000172
:2053fa00000000000000000000000000000000000000000000000000000000000000000093
:0a541a000000000000000000000088
:20542400000000000000000000000000000000000000000000000000001000000000000058
:095444000000000000000000005f
:20544d000000000000000000000000000000000000000000000000000001c000000000007e
:0a546d000000000000000000000035
:20547700000000000000000000000000000000000000000000000000000000000000000015
:0954970000000002a80000000062
:2054a0000000000000000000000000000000000000000000000000000000000000000000ec
:0a54c000000000012a8480000000b3
:2054ca00000000000000000000000000000000000000000000000000000a001000000000a8
:0954ea0000004023324a30800129
:2054f300000000000000000000000000000000000000000000000000000000000000000099
:0a551300000000004cc498010000e5
:20551d00000000000000000000000000000000000000000000000f0000000000000000005f
:09553d0000000021a650500000fe
:205546004000000000000000000000000000000000000000000100f0000000000000000014
:0a556600000000005a458000000814
:205570000000000000000000000000000000000000000000000033140000000000000000d4
:0955900000000021a7400000000a
:2055990000000000000000000000000000000000000000000000033240000000000000007d
:0a55b900000000005a448500001ca9
:2055c3000000000000000000000000000000000000000000001000000000000000000000b8
:0955e300000001003c30b0a00002
:2055ec000000000000000000000000000000000000000000000004001c000000000000007f
:0a560c0000000004c3d7ad0a00003f
:20561600000000000000000000000000000000000000000000002940800000000000002467
:0956360000000003294e000000f1
:20563f000000000000000000000000000000000000000000000001680000000000000002e0
:0a565f0000000000317ca0000000f4
:205669000000000000000000000000000000000000000000000000000000000000f000141d
:0956890000000000000001800097
:2056920000000000000000000000000000000000000000000000000000000000000f058361
:0a56b20066800000000000180000f0
:2056bc000000000000000000000000000000000000000000000000000000000000000000ce
:0956dc0000000000000010800035
:2056e5000000000000000000000000000000000000000000000000000000000000000001a4
:0a570500600000000000000000003a
:20570f000002000000000000000000000000000000000000000003c000000000000f03d4cf
:09572f0000000000000000000071
:2057380000000000000000000000000000000000000000000000003c40000000000f013095
:0a57580002800000000000000000c5
:205762000000000000000000000000000000000000000000000003c00000000000ccf68022
:09578200200000017d4b00a00095
:20578b0000003000000000000000000000000000000000000000043c4000000000133134d6
:0a57ab0000400000014ee000000085
:2057b500000000000000000000000000000000000000000000001a44000c00000069700091
:0957d50000000003e84e508000c2
:2057de000000000000000000000000000000000000000000000005a44a00100000169130d1
:0a57fe00000000001407800b0000fb
:20580800000000000000000000000000000000000000000000003c00000000000069b40027
:0958280000000002581900000004
:2058310000000000000000000000000000000000000000000000043c4800000400169930ec
:0a58510000000010199dc00e0000b9
:20585b00000200000000000000000000000000000000000080100000000c0000400004004b
:09587b0000000001400e00800055
:205884000000000000000000000000000000000000000000000004000800b00000100078c0
:0a58a400000000003e9da501000079
:2058ae000000000000000000000000000000000000000000000000000000000000aa0bc461
:0958ce0020000000000090000021
:2058d700000000000000000000000000000000000000000000000000000000000005530257
:0a58f700004000000000080000005f
:205901000000000000000000000000000000000000000000000000000000000000f0083c52
:095921000000000168080000000c
:20592a0000000000000000000000000000000000000000000000000000000000000f0582c7
:0a594a0000000000a940000000006a
:2059540000000000000000000000000000000000000000000000000000000000003c0000f7
:0959740000000000000008000022
:20597d00000000000000000000000000000000000000000000000000000000000403c00043
:0a599d00000000000000019e000061
:2059a70000020000000000000000000000000000000000000000000000000c0000aa041c08
:0959c70000000003c05a000000ba
:2059d00000000000000000000000000000000000000000000000000000000000000aa122ea
:0a59f000000000001c45c00000008c
:2059fa000000000000000000000000000000000000000000000000000000000000ccd79456
:095a1a002c000001a45000a000c2
:205a2300000030000000000000000000000000000000000000000000003800000013316651
:0a5a4300000000005a458001000039
:205a4d00000000000000000000000000000000000000000000000000000000040069503448
:095a6d0040000001a750000000f8
:205a7600400000000000000000000000000000000000000000000000000000008016916841
:0a5a9600028000005a45859a0008be
:205aa0000000000000000000000000000000000000000000000003c2000000000069f43490
:095ac00000010201214c5000001c
:205ac90000000000000000000000000000000000000000000000083d60000001c016996147
:0a5ae900400000007b64bd80001c3b
:205af30000020000000000000000000000000000000000000000000000004000400004020b
:095b130000000100001000a000d8
:205b1c0000000000000000000000000000000000000000000000000000000a0000100061ee
:0a5b3c00400000004001e01b0000e3
:205b4600000000000000000000000000000000000000000000000000001b0000000f08000d
:095b660038000003d40c00080013
:205b6f000000000000000000000000000000000000000000000000000000a0000020f380e3
:0a5b8f00004000003e9c10000000e2
:205b9900000000000000000000000000000000000000000000003c020d100000000000048d
:095bb90000320003e80b11b000fa
:205bc2000000000000000000000000000000000000000000000003c06000a0000000000000
:0a5be200000040003e8ed80a0000cb
:205bec00000000000000000000000000000000000000000000000f00000000000000001c6e
:095c0c0000000000280c0100005a
:205c15000000000000000000000000000000000000000000000100f000000000000000027c
:0a5c350000000000015c100a0000ee
:205c3f00000200000000000000000000000000000000000000002a810080000000aa04006a
:095c5f0000000003300e010000fa
:205c68000000000000000000000000000000000000000000000002a84c500000084aa138ab
:0a5c880000000010331dc00a0000e8
:205c920000000000000000000000000000000000000000000000333ca1080000806994025b
:095cb20000000003c02000900076
:205cbb000000300000000000000000000000000000000000000004cc5f80100000169969c2
:0a5cdb00400000003c1605810000a7
:205ce500000000000000000000000000000000000000000000001a5c000a1c00806910000a
:095d0500000010014020008000a4
:205d0e000000000000000000000000000000000000000000000005a45e001000001699604f
:0a5d2e0000000200941da0190000ff
:205d3800000000000000000000000000000000000000000000001a7400000000106994149c
:095d580028000422800a0000006a
:205d61000000000000000000000000000000000000000000000005a65e58000000169163b7
:0a5d810066c007008284b000001c19
:205d8b0000020000000000000000000000000000000000008010000000000000400f000017
:095dab00000000c3c0000000006c
:205db4000000000000000000000000000000000000000000000004000a0000000030f7f9a1
:0a5dd40060000000c3c4a00000003e
:025dde000000c3
:035de00062003f1f
:035de300720080cb
:025de6001100aa
:035de80082000036
:025deb000103b2
:085ded000000000000000000ae
:085df5000000000000000000a6
:085dfd0000000000000000009e
:085e0500000000000000000095
:0261ed000000b0
:0361ef00820080ab
:0261f2000103a7
:0861f4000000000000000000a3
:0861fc0000000000000000009b
:08620400000000000000000092
:08620c0000000000000000008a
:0265f4000000a5
:0265f600110191
:0365f8008200001e
:0265fb0001039a
:0865fd00000000000000000096
:0866050000000000000000008d
:08660d00000000000000000085
:0866150000000000000000007d
:0269fd00000098
:0369ff0082008093
:026a020001038e
:086a040000000000000000008a
:086a0c00000000000000000082
:086a140000000000000000007a
:086a1c00000000000000000072
:026e040000008c
:026e0600110277
:036e080082000005
:026e0b00010381
:086e0d0000000000000000007d
:086e1500000000000000000075
:086e1d0000000000000000006d
:086e2500000000000000000065
:02720d0000007f
:03720f008200807a
:02721200010376
:08721400000000000000000072
:08721c0000000000000000006a
:08722400000000000000000062
:08722c0000000000000000005a
:02761400000074
:0276160011035e
:03761800820000ed
:02761b00010369
:08761d00000000000000000065
:0876250000000000000000005d
:08762d00000000000000000055
:0876350000000000000000004d
:027a1d00000067
:037a1f0082008062
:027a220001035e
:087a240000000000000000005a
:087a2c00000000000000000052
:087a340000000000000000004a
:087a3c00000000000000000042
:027e240000005c
:017e26002239
:027e2700fdc597
:027e2900010650
:00000001FF
