:02000000ff00ff
:080002004c6174746963650030
:17000a00694345637562653220323031342e31322e32373035320077
:16002100506172743a2069434534304858314b2d545131343400fc
:1b003700446174653a204a756e20313720323031352031373a35313a34320071
:0200520000ffad
:040054007eaa997e69
:02005800510055
:02005a0001059e
:03005c00920020ef
:03005f0062014bf0
:0300620072009099
:0300650082000016
:02006800110085
:02006a00010192
:20006c00000000000000000000000000000000000000000000000000000000000000000074
:09008c000000000000000000006b
:2000950000000000000000000000000000000000000000000000000000000000000000004b
:0a00b5000000000000000000000041
:2000bf00000000000000000000000000000000000000000000000000000000000000000021
:0900df00000000400000000000d8
:2000e8000000000000000000000000000000000000000000000000000000000000000000f8
:0a01080000000000000000000000ed
:200112000000000000000000000000000000000000000000000000000000000000000000cd
:09013200000000000000000000c4
:20013b000000000000000000000000000000000000000000000000000000000000000000a4
:0a015b00000000000000000000009a
:200165000000000000040000000000001000000000000040000000001000000000000040d6
:0901850000000000000000000071
:20018e00000000000000000000000000000000000000000000000000000000000000000051
:0a01ae00000000080000000000003f
:2001b80000000000000c00000000000030000000000000c00000000030000000000000c03b
:0901d8000000000000010000001d
:2001e1000000000000000000000000000000000000000000000000000000000000000000fe
:0a02010000000000000000000000f3
:20020b000000000000000000000000080004000000000000000000000000000000000000c7
:09022b00000000000000000000ca
:20023400000000000000000000000005000040000000000000000000000000000000000065
:0a02540000000000000000000000a0
:20025e0000000000000000000000000000000000000000000000000000000000000000017f
:09027e00800000000000000000f7
:20028700000000000000000000000000000000000000000000000000000000000000000057
:0a02a700000000000000000000004d
:2002b100000000000004000000000000100000000000004000000000100000000000004089
:0902d10000000000000100000023
:2002da00000000000000000000000000000000000000000000000000000000000000000004
:0a02fa0000000000000000000000fa
:200304000000000000000000000000000000000000000000000000000000000000000000d9
:09032400000000000000000000d0
:20032d00000020000000000000000000000000000040000000000000000000000000000050
:0a034d0000000000000000000000a6
:20035700000000000000000000000000000000000000000000000000000000000000000086
:090377000000000000000000007d
:2003800000000000000000000000000000000000000000000000000000000000000000005d
:0a03a0000000000000000000000053
:2003aa00300000000000000000000000000000000000000000000000000000000000000003
:0903ca000000000000000000002a
:2003d3000300200000000000000000000000000000000000000000000000000000000000e7
:0a03f3000000000000000000000000
:2003fd000003000000000000000000000000000000000000000000000000000000000000dd
:09041d00000000000000000000d6
:200426000000000000000000000000000000000000000000000000000000000000000000b6
:0a04460000000000000000000000ac
:2004500000000000000000000000000000000000000000000000000000000000000000008c
:0904700000000000000000000083
:2004790000002000000000000000000000000000000000000000000000000000002800001b
:0a0499000000000000000000000059
:2004a300000000000000000000000000000000000000000000000000000000000000000039
:0904c30000000000000000000030
:2004cc00000000000000000000000000000000000000000000000000000000000000000010
:0a04ec000000000000000000000006
:2004f6000000000000000000000000000000000000000000000000000000000000000000e6
:09051600000000000000000000dc
:20051f000000000000000000000000000000000000000000000000000000000000000000bc
:0a053f0000000000000000000000b2
:2005490000040000000000000000000000000000000000000000000000000000000000008e
:0905690000000000000000000089
:200572000002800000000000000000000000000000000000000000000000000000000000e7
:0a059200000000000000000000005f
:20059c0000020000000000000000000000000000000000000000000000000000000000003d
:0905bc0000000000000000000036
:2005c5000000200000000000000000000000000000000000000000000000000000000000f6
:0a05e500000000000000000000000c
:2005ef000002000000000000000000000000000000000000000000000000000000000000ea
:09060f00000000000000000000e2
:200618000000000000000000000000000000000000000000000000000000000000000000c2
:0a06380000000000000000000000b8
:20064200000000000000000000000000000000000000000000000000000000000000000098
:090662000000000000000000008f
:20066b0000002000000000000000000000000000000000000000000000000000000000004f
:0a068b000000000000000000000065
:20069500000300000000000000000000000000000000000000000000000000000000000042
:0906b5000000000000000000003c
:2006be0000000000000000000000000000000000000000000000000000000000000000001c
:0a06de000000000000000000000012
:2006e8000000000000000000000000000000000000000000000000000000000000000000f2
:09070800000000000000000000e8
:200711000000200000000000000000000000000000000000000000000000000000000000a8
:0a07310000000000000000000000be
:20073b0000000000000000000000000000000000000000000000000000000000000000009e
:09075b0000000000000000000095
:20076400000000000000000000000000000000000000000000000000000000000000000075
:0a078400000000000000000000006b
:20078e0000000000000000000000000000000000000000000000000000000000000000004b
:0907ae0000000000000000000042
:2007b700000000000000000000000000000000000000000000000000000000000000000022
:0a07d7000000000000000000000018
:2007e1000000000000000000000000000000000000000000000000000000000000000000f8
:09080100000000000000000000ee
:20080a000000000000000000000000000000000000000000000000000000000000000000ce
:0a082a0000000000000000000000c4
:200834000000000000000000000000000000000000000000000000000000000000000000a4
:090854000000000000000000009b
:20085d0000002000000000000000000000000000004000000000000000000000000000001b
:0a087d000000000000000000000071
:2008870000020000000000000000000000000000000000000000000000000000000000004f
:0908a70000000000000000000048
:2008b000000000000000000000000000000000000000000000000000000000000000000028
:0a08d000000000000000000000001e
:2008da000000000000000000000000000000000000000000000000000000000000000000fe
:0908fa00000000000000000000f5
:200903000000000000000000000000000000000000000000000000000000000000000000d4
:0a09230000000000000000000000ca
:20092d000003000000000000000000000000000000000000000000000000000000000000a7
:09094d00000000000000000000a1
:20095600000000000000000000000000000000000000000000000000000000000000000081
:0a0976000000000000000000000077
:20098000000000000000000000000000000000000000000000000000000000000000000057
:0909a0000000000000000000004e
:2009a90000002000000000000000000000000000000000000000000000000000000000000e
:0a09c9000000000000000000000024
:2009d300000000000000000000000000000000000000000000000000000000000000000004
:0909f300000000000000000000fb
:2009fc000000000000000000000000000000000000000000000000000000000000000000db
:0a0a1c0000000000000000000000d0
:200a26000000000000000000000000000000000000000000000000000000000000000000b0
:090a4600000000000000000000a7
:200a4f00000000000000000000000000000000000000000000000000000000000000000087
:0a0a6f00000000000000000000007d
:200a790000000000000000000000000000000000000000000000000000000000000000005d
:090a990000000000000000000054
:200aa200000000000000000000000000000000000000000000000000000000000000000034
:0a0ac200000000000000000000002a
:200acc0000000000000000000000000000000000000000000000000000000000000000000a
:090aec0000000000000000000001
:200af5000000200000000000000000000000000000000000000000000000000000000000c1
:0a0b150000000000000000000000d6
:200b1f000000000000000000000000000000000000000000000000000000000000000000b6
:090b3f00000000000000000000ad
:200b480000000000000000000000000000000000000000000000000000000000000000008d
:0a0b68000000000000000000000083
:200b7200000000000000000000000000000000000000000000000000000000000000000063
:090b92000000000000000000005a
:200b9b0000000000000000000000000000000000000000000000000000000000000000003a
:0a0bbb000000000000000000000030
:200bc50000030000000000000000000000000000000000000000000000000000000000000d
:090be50000000000000000000007
:200bee000100000000000000000000000000000000000000000000000000000000000000e6
:0a0c0e0000000000000000000000dc
:200c18000000000000000000000000000000000000000000000000000000000000000000bc
:090c3800000000000000000000b3
:200c4100000020000000000000000000000000000000000000000000000000000000000073
:0a0c61000000000000000000000089
:200c6b00000000000000000000000000000000000000000000000000000000000000000069
:090c8b0000000000000000000060
:200c9400000000000000000000000000000000000000000000000000000000000000000040
:0a0cb4000000000000000000000036
:200cbe00000000000000000000000000000000000000000000000000000000000000000016
:090cde000000000000000000000d
:200ce7000000000000000000000000000000000000000000000000000000000000000000ed
:0a0d070000000000000000000000e2
:200d11000000000000000000000000000000000000000000000000000000000000000000c2
:090d3100000000000000000000b9
:200d3a00000000000000000000000000000000000000000000000000000000000000000099
:0a0d5a00000000000000000000008f
:200d640000010000000000000000000000000000000000000000000000000000000000006e
:090d840000000000000000000066
:200d8d000000200000000000000000000000000000400000000000000000000000000000e6
:0a0dad00000000000000000000003c
:200db70000020000000000000000000000000000000000000000000000000000000000001a
:090dd70000000000000000000013
:200de0000000000000000000000000000000000000000000000000000000000000000000f3
:0a0e000000000000000000000000e8
:200e0a000000000000000000000000000000000000000000000000000000000000000000c8
:090e2a00000000000000000000bf
:200e330000000000000000000000000000000000000000000000000000000000002000007f
:0a0e53000000000000000000000095
:200e5d00000300000000000000000000000000000000000000000000000000000000000072
:090e7d000000000000000000006c
:200e860000000000000000000000000000000000000000000000000000000000000000004c
:0a0ea6000000000000000000000042
:200eb000000000000000000000000000000000000000000000000000000000000000000022
:090ed00000000000000000000019
:200ed9000000200000000000000000000000000000000000000000000000000000000000d9
:0a0ef90000000000000000000000ef
:200f03000000000000000000000000000000000000000000000000000000000000000000ce
:090f2300000000000000000000c5
:200f2c000000000000000000000000000000000000000000000000000000000000000000a5
:0a0f4c00000000000000000000009b
:200f560000000000000000000000000000000000000000000000000000000000000000007b
:090f760000000000000000000072
:200f7f00000000000000000000000000000000000000000000000000000000000000000052
:0a0f9f000000000000000000000048
:200fa900000000000000000000000000000000000000000000000000000000000000000028
:090fc9000000000000000000001f
:200fd2000000000000000000000000000000000000000000000000000000000000000000ff
:0a0ff20000000000000000000000f5
:200ffc000000000000000000000000000000000000000000000000000000000000000000d5
:09101c00000000000000000000cb
:2010250000002000000000000000000000000000000000000000000000000000000000008b
:0a10450000000000000000000000a1
:20104f00000000000000000000000000000000000000000000000000000000000000000081
:09106f0000000000000000000078
:20107800000000000000000000000000000000000000000000000000000000000000000058
:0a109800000000000000000000004e
:2010a20000000000000000000000000000000000000000000000000000000000000000002e
:0910c20000000000000000000025
:2010cb00000000000000000000000000000000000000000000000000000000000000000005
:0a10eb0000000000000000000000fb
:2010f5000003000000000000000000000000000000000000000000000000000000000000d8
:09111500000000000000000000d1
:20111e000000000000000000000000000000000000000000000000000000000000000000b1
:0a113e0000000000000000000000a7
:20114800000000000000000000000000000000000000000000000000000000000000000087
:091168000000000000000000007e
:2011710000002000000000000000000000000000000000000000000000000000000000003e
:0a1191000000000000000000000054
:20119b00000000000000000000000000000000000000000000000000000000000000000034
:0911bb000000000000000000002b
:2011c40000000000000000000000000000000000000000000000000000000000000000000b
:0a11e4000000000000000000000001
:2011ee000000000000000000000000000000000000000000000000000000000000000000e1
:09120e00000000000000000000d7
:201217000000000000000000000000000000000000000000000000000000000000000000b7
:0a12370000000000000000000000ad
:2012410000000000000000000000000000000000000000000000000000000000000000008d
:0912610000000000000000000084
:20126a00000000000000000000000000000000000000000000000000000000000000000064
:0a128a00000000000000000000005a
:2012940000000000000000000000000000000000000000000000000000000000000000003a
:0912b40000000000000000000031
:2012bd000000200000000000000000000000000000400000000000000000000000000000b1
:0a12dd000000000000000000000007
:2012e7000000000000000000000000000000000000000000000000000000000000000000e7
:09130700000000000000000000dd
:201310000000000000000000000000000000000000000000000000000000000000000000bd
:0a13300000000000000000000000b3
:20133a00000000000000000000000000000000000000000000000000000000000000000093
:09135a000000000000000000008a
:2013630000000000000000000000000000000000000000000000000000000000000000006a
:0a1383000000000000000000000060
:20138d0000030000000000000000000000000000000000000000000000000000000000003d
:0913ad0000000000000000000037
:2013b600000000000000000000000000000000000000000000000000000000000000000017
:0a13d600000000000000000000000d
:2013e0000000000000000000000000000000000000000000000000000000000000000000ed
:09140000000000000000000000e3
:201409000000200000000000000000000000000000000000000000000000000000000000a3
:0a14290000000000000000000000b9
:20143300000000000000000000000000000000000000000000000000000000000000000099
:0914530000000000000000000090
:20145c00000000000000000000000000000000000000000000000000000000000000000070
:0a147c000000000000000000000066
:20148600000000000000000000000000000000000000000000000000000000000000000046
:0914a6000000000000000000003d
:2014af0000000000000000000000000000000000000000000000000000000000000000001d
:0a14cf000000000000000000000013
:2014d9000000000000000000000000000000000000000000000000000000000000000000f3
:0914f900000000000000000000ea
:201502000000000000000000000000000000000000000000000000000000000000000000c9
:0a15220000000000000000000000bf
:20152c0000000000000000000000000000000000000000000000000000000000000000009f
:09154c0000000000000000000096
:20155500000020000000000000000000000000000000000000000000000000000000000056
:0a157500000000000000000000006c
:20157f0000000000000000000000000000000000000000000000000000000000000000004c
:09159f0000000000010000000042
:2015a800000000000000000000000000000000000000000000000000000000000000000023
:0a15c8000000000000000000000019
:2015d2000000000000000000000000000000000000000000000000000000000000000000f9
:0915f200000000000000000000f0
:2015fb000000000000000000000000000000000000000000000000000000000000000000d0
:0a161b0000000000000000000000c5
:201625000003000000000000000000000000000000000000000000000000000000000000a2
:091645000000000000000000009c
:20164e0000000000000000000000000000000000000000000000000000000000000000007c
:0a166e000000000000000000000072
:20167800000000000000000000000000000000000000000000000000000000000000000052
:0916980000000000000000000049
:2016a100000000000000000000000000000000000000000000000000000000000000000029
:0a16c100000000000000000000001f
:2016cb000000000000000000000000000000000000000000000000000000000000000000ff
:0916eb00000000000000000000f6
:2016f4000000080000000000000000000000000000000000000000000000000000000000ce
:0a17140000000000000000000000cb
:20171e000000000000000000000000000000000000000000000000000000000000000000ab
:09173e00000000000000000000a2
:2017470008000000000000000000000000000000000000000000000000000000000000007a
:0a1767000000000000000000000078
:20177100000000000000000000000000000000000000000000000000000000000000000058
:091791000000000000000000004f
:20179a0000000000000000000000000000000000000000000000000000000000000000002f
:0a17ba000000000000000000000025
:0217c400000023
:0217c60011010f
:0217c80001011d
:2017ca000000000000000000000000000000000000000000000000000000000000000000ff
:0917ea00000000000000000000f6
:2017f3000000000000000000000000000000000000000000000000000000000000000000d6
:0a18130000000000000000000000cb
:20181d000000000000000000000000000000000000000000000000000000000000000000ab
:09183d00000000000000000000a2
:20184600000000000000000000000000000000000000000000000000000000000000000082
:0a1866000000000000000000000078
:20187000000000000000000000000000000000000000000000000000000000000000000058
:091890000000000000000000004f
:2018990000000000000000000000000000000000000000000000000000000000000000002f
:0a18b9000000000000000000000025
:2018c300000000000004000000000000100000000000004000000000100000000000004061
:0918e300000000000001000000fb
:2018ec000000000000000000000000000000000000000000000000000000000000000000dc
:0a190c0000000000000000000000d1
:2019160000000000000c00000000000030000000000000c00000000030000000000000c0c5
:09193600000000000003000000a5
:20193f00000000000000000000000000000000000000000000000000000000000000000088
:0a195f00000000000000000000007e
:2019690000000000000000000000000000000000000000000000000000000000000000005e
:0919890000000000000000000055
:20199200000000000000000000000000000000000000000000000000000000000000000035
:0a19b200000000000000000000002b
:2019bc0000000000000000000000000000000000000000000000000000000000000000000b
:0919dc0000000000000000000002
:2019e5000000000000000000000000000000000000000000000000000000000000000000e2
:0a1a050000000000000000000000d7
:201a0f00000000000004000000000000100000000000004000000000100000000000004013
:091a2f00000000000001000000ad
:201a380000000000000000000000000000000000000000000000000000000000000000008e
:0a1a58000000000000000000000084
:201a6200000000000000000000000000000000000000000000000000000000000000000064
:091a82000000000000000000005b
:201a8b0000000000000000000000000000000000000000000000000000000000000000003b
:0a1aab000000000000000000000031
:201ab500000000000000000000000000000000000000000000000000000000000000000011
:091ad50000000000000000000008
:201ade000000000000000000000000000000000000000000000000000000000000000000e8
:0a1afe0000000000000000000000de
:201b08000000000000000000000000000000000000000000000000000000000000000000bd
:091b2800000000000000000000b4
:201b3100000000000000000000000000000000000000000000000000000000000000000094
:0a1b5100000000000000000000008a
:201b5b00000200000000000000000000000000000000000000000000000000000000000068
:091b7b0000000000000000000061
:201b8400000000000000000000000000000000000000000000000000000000000000000041
:0a1ba4000000000000000000000037
:201bae00000000000000000000000000000000000000000000000000000000000000000017
:091bce000000000000000000000e
:201bd7000000300000000000000000000000000000000000000000000000000000000000be
:0a1bf70000000000000000000000e4
:201c01000000000000000000000000000000000000000000000000000000000000000000c3
:091c2100000000000000000000ba
:201c2a0000000000000000000000000000000000000000000000000000000000000000009a
:0a1c4a000000000000000000000090
:201c5400000000000000000000000000000000000000000000000000000000000000000070
:091c740000000000000000000067
:201c7d00000000000000000000000000000000000000000000000000000000000000000047
:0a1c9d00000000000000000000003d
:201ca70000020000000000000000000000000000000000000000000000000000000000001b
:091cc70000000000000000000014
:201cd0000000000000000000000000000000000000000000000000000000000000000000f4
:0a1cf00000000000000000000000ea
:201cfa000000000000000000000000000000000000000000000000000000000000000000ca
:091d1a00000000000000000000c0
:201d23000000000000000000000000000000000000000000000000000000000000000000a0
:0a1d43000000000000000000000096
:201d4d00000000000000000000000000000000000000000000000000000000000000000076
:091d6d000000000000000000006d
:201d760000000000000000000000000000000000000000000000000000000000000000004d
:0a1d96000000000000000000000043
:201da000000000000000000000000000000000000000000000000000000000000000000023
:091dc0000000000000000000001a
:201dc9000000000000000000000000000000000000000000000000000000000000000000fa
:0a1de90000000000000000000000f0
:201df3000002000000000000000000000000000000000000000000000000000000000000ce
:091e1300000000000000000000c6
:201e1c000000000000000000000000000000000000000000000000000000000000000000a6
:0a1e3c00000000000000000000009c
:201e460000000000000000000000000000000000000000000000000000000000000000007c
:091e660000000000000000000073
:201e6f00000030000000000000000000000000000000000000000000000000000000000023
:0a1e8f000000000000000000000049
:201e9900000000000000000000000000000000000000000000000000000000000000000029
:091eb90000000000000000000020
:201ec200000000000000000000000000000000000000000000000000000000000000000000
:0a1ee20000000000000000000000f6
:201eec000000000000000000000000000000000000000000000000000000000000000000d6
:091f0c00000000000000000000cc
:201f15000000000000000000000000000000000000000000000000000000000000000000ac
:0a1f350000000000000000000000a2
:201f3f0000020000000000000000000000000000040000000000000000000000000000007c
:091f5f0000000000000000000079
:201f6800000000000000000000000000000000000000000000000000000000000000000059
:0a1f8800000000000000000000004f
:201f920000000000000000000000000000000000000000000000000000000000000000002f
:091fb20000000000000000000026
:201fbb00000000000000000000000000000000000000000000000000000000000000000006
:0a1fdb0000000000000000000000fc
:201fe5000000000000000000000000000000000000000000000000000000000000000000dc
:09200500000000000000000000d2
:20200e000000000000000000000000000000000000000000000000000000000000000000b2
:0a202e0000000000000000000000a8
:20203800000000000000000000000000000000000000000000000000000000000000000088
:092058000000000000000000007f
:2020610000000000000000000000000000000000000000000000000000000000000000005f
:0a2081000000000000000000000055
:20208b00000200000000000000000000000000000000000000000000000000000000000033
:0920ab000000000000000000002c
:2020b40000000000000000000000000000000000000000000000000000000000000000000c
:0a20d4000000000000000000000002
:2020de000000000000000000000000000000000000000000000000000000000000000000e2
:0920fe00000000000000000000d9
:20210700000030000000000000000000000000000000000000000000000000000000000088
:0a21270000000000000000000000ae
:2021310000000000000000000000000000000000000000000000000000000000000000008e
:0921510000000000000000000085
:20215a00000000000000000000000000000000000000000000000000000000000000000065
:0a217a00000000000000000000005b
:2021840000000000000000000000000000000000000000000000000000000000000000003b
:0921a40000000000000000000032
:2021ad00000000000000000000000000000000000000000000000000000000000000000012
:0a21cd000000000000000000000008
:2021d7000002000000000000000000000000000000000000000000000000000000000000e6
:0921f700000000000000000000df
:202200000000000000000000000000000000000000000000000000000000000000000000be
:0a22200000000000000000000000b4
:20222a00000000000000000000000000000000000000000000000000000000000000000094
:09224a000000000000000000008b
:2022530000000000000000000000000000000000000000000000000000000000000000006b
:0a2273000000000000000000000061
:20227d00000000000000000000000000000000000000000000000000000000000000000041
:09229d0000000000000000000038
:2022a600000000000000000000000000000000000000000000000000000000000000000018
:0a22c600000000000000000000000e
:2022d0000000000000000000000000000000000000000000000000000000000000000000ee
:0922f000000000000000000000e5
:2022f9000000000000000000000000000000000000000000000000000000000000000000c5
:0a23190000000000000000000000ba
:20232300000200000000000000000000000000000000000000000000000000000000000098
:0923430000000000000000000091
:20234c00000000000000000000000000000000000000000000000000000000000000000071
:0a236c000000000000000000000067
:20237600000000000000000000000000000000000000000000000000000000000000000047
:092396000000000000000000003e
:20239f000000300000000000000000000000000000000000000000000000000000000000ee
:0a23bf000000000000000000000014
:2023c9000000000000000000000000000000000000000000000000000000000000000000f4
:0923e900000000000000000000eb
:2023f2000000000000000000000000000000000000000000000000000000000000000000cb
:0a24120000000000000000000000c0
:20241c000000000000000000000000000000000000000000000000000000000000000000a0
:09243c0000000000000000000097
:20244500000000000000000000000000000000000000000000000000000000000000000077
:0a246500000000000000000000006d
:20246f00000200000000000000000000000000000400000000000000000000000000000047
:09248f0000000000000000000044
:20249800000000000000000000000000000000000000000000000000000000000000000024
:0a24b800000000000000000000001a
:2024c2000000000000000000000000000000000000000000000000000000000000000000fa
:0924e200000000000000000000f1
:2024eb000000000000000000000000000000000000000000000000000000000000000000d1
:0a250b0000000000000000000000c6
:202515000000000000000000000000000000000000000000000000000000000000000000a6
:092535000000000000000000009d
:20253e0000000000000000000000000000000000000000000000000000000000000000007d
:0a255e000000000000000000000073
:20256800000000000000000000000000000000000000000000000000000000000000000053
:092588000000000000000000004a
:2025910000000000000000000000000000000000000000000000000000000000000000002a
:0a25b1000000000000000000000020
:2025bb000002000000000000000000000000000000000000000000000000000000000000fe
:0925db00000000000000000000f7
:2025e4000000000000000000000000000000000000000000000000000000000000000000d7
:0a26040000000000000000000000cc
:20260e000000000000000000000000000000000000000000000000000000000000000000ac
:09262e00000000000000000000a3
:20263700000030000000000000000000000000000000000000000000000000000000000053
:0a2657000000000000000000000079
:20266100000000000000000000000000000000000000000000000000000000000000000059
:0926810000000000000000000050
:20268a00000000000000000000000000000000000000000000000000000000000000000030
:0a26aa000000000000000000000026
:2026b400000000000000000000000000000000000000000000000000000000000000000006
:0926d400000000000000000000fd
:2026dd000000000000000000000000000000000000000000000000000000000000000000dd
:0a26fd0000000000000000000000d3
:202707000002000000000000000000000000000000000000000000000000000000000000b0
:09272700000000000000000000a9
:20273000000000000000000000000000000000000000000000000000000000000000000089
:0a275000000000000000000000007f
:20275a0000000000000000000000000000000000000000000000000000000000000000005f
:09277a0000000000000000000056
:20278300000000000000000000000000000000000000000000000000000000000000000036
:0a27a300000000000000000000002c
:2027ad0000000000000000000000000000000000000000000000000000000000000000000c
:0927cd0000000000000000000003
:2027d6000000000000000000000000000000000000000000000000000000000000000000e3
:0a27f60000000000000000000000d9
:202800000000000000000000000000000000000000000000000000000000000000000000b8
:09282000000000000000000000af
:2028290000000000000000000000000000000000000000000000000000000000000000008f
:0a2849000000000000000000000085
:20285300000200000000000000000000000000000000000000000000000000000000000063
:092873000000000000000000005c
:20287c0000000000000000000000000000000000000000000000000000000000000000003c
:0a289c000000000000000000000032
:2028a600000000000000000000000000000000000000000000000000000000000000000012
:0928c60000000000000000000009
:2028cf000000300000000000000000000000000000000000000000000000000000000000b9
:0a28ef0000000000000000000000df
:2028f9000000000000000000000000000000000000000000000000000000000000000000bf
:09291900000000000000000000b5
:20292200000000000000000000000000000000000000000000000000000000000000000095
:0a294200000000000000000000008b
:20294c0000000000000000000000000000000000000000000000000000000000000000006b
:09296c0000000000000000000062
:20297500000000000000000000000000000000000000000000000000000000000000000042
:0a2995000000000000000000000038
:20299f00000200000000000000000000000000000400000000000000000000000000000012
:0929bf000000000000000000000f
:2029c8000000000000000000000000000000000000000000000000000000000000000000ef
:0a29e80000000000000000000000e5
:2029f2000000000000000000000000000000000000000000000000000000000000000000c5
:092a1200000000000000000000bb
:202a1b0000000000000000000000000000000000000000000000000000000000000000009b
:0a2a3b000000000000000000000091
:202a4500000000000000000000000000000000000000000000000000000000000000000071
:092a650000000000000000000068
:202a6e00000000000000000000000000000000000000000000000000000000000000000048
:0a2a8e00000000000000000000003e
:202a980000000000000000000000000000000000000000000000000000000000000000001e
:092ab80000000000000000000015
:202ac1000000000000000000000000000000000000000000000000000000000000000000f5
:0a2ae10000000000000000000000eb
:202aeb000002000000000000000000000000000000000000000000000000000000000000c9
:092b0b00000000000000000000c1
:202b14000000000000000000000000000000000000000000000000000000000000000000a1
:0a2b34000000000000000000000097
:202b3e00000000000000000000000000000000000000000000000000000000000000000077
:092b5e000000000000000000006e
:202b670000003000000000000000000000000000000000000000000000000000000000001e
:0a2b87000000000000000000000044
:202b9100000000000000000000000000000000000000000000000000000000000000000024
:092bb1000000000000000000001b
:202bba000000000000000000000000000000000000000000000000000000000000000000fb
:0a2bda0000000000000000000000f1
:202be4000000000000000000000000000000000000000000000000000000000000000000d1
:092c0400000000000000000000c7
:202c0d000000000000000000000000000000000000000000000000000000000000000000a7
:0a2c2d00000000000000000000009d
:202c370000020000000000000000000000000000000000000000000000000000000000007b
:092c570000000000000000000074
:202c6000000000000000000000000000000000000000000000000000000000000000000054
:0a2c8000000000000000000000004a
:202c8a0000000000000000000000000000000000000000000000000000000000000000002a
:092caa0000000000000000000021
:202cb300000000000000000000000000000000000000000000000000000000000000000001
:0a2cd30000000000000000000000f7
:202cdd000000000000000000000000000000000000000000000000000000000000000000d7
:092cfd00000000000000000000ce
:202d06000000000000000000000000000000000000000000000000000000000000000000ad
:0a2d260000000000000000000000a3
:202d3000000000000000000000000000000000000000000000000000000000000000000083
:092d50000000000000000000007a
:202d5900000000000000000000000800000000000000000000000000000000000000000052
:0a2d79000000000020000000000030
:202d830000020000000000000000000000000000000000000000000000000000000000002e
:092da30000000000000000000027
:202dac00000000000000000000000000000000000000000000000000000000000000000007
:0a2dcc0000000000000000000000fd
:202dd60000400000000000000000000000000000000000000000000000000000000000009d
:092df600000000000000000000d4
:202dff000003b0000000000000000000000000000000000000000000000000000000000001
:0a2e1f0000000000000000000000a9
:202e2900200000000000000000000000000000000000000000000000000000000000000069
:092e490000000000000000000080
:202e520003000000000000000000000000000000000000000000000000000000000000005d
:0a2e72000000000000000000000056
:202e7c00000000000000000000000000000000000000000000000000000000000000000036
:092e9c000000000000000000002d
:202ea50000000000000000000000000000000000000000000000000000000000000000000d
:0a2ec5000000000000000000000003
:202ecf000002000000000000000000000000000004000000000000000000000000000000dd
:092eef00000000000000000000da
:202ef8000000000000000000000000000000000000000000000000000000000000000000ba
:0a2f180000000000000000000000af
:022f22000000ad
:022f2400110298
:022f26000101a7
:202f2800000000000000000000000000000000000000000000000000000000400000000049
:092f48000001000000000000007f
:202f5100000000000000000000000000000000000000000000000000000000000000000060
:0a2f71000000000000000000000056
:202f7b00000000000000000000000000000000000000000000000000006c0080000000004a
:092f9b000002000000000000002b
:202fa40000000000000000000000000000000000000000000000000000030000000000000a
:0a2fc4000000000000000000000003
:202fce00000000000000000000000000000000000000000000000030000000400000400033
:092fee00000100000000000000d9
:202ff7000000000000000000000000000000000000000000000000020000000000000c00ac
:0a3017000c000000000000000000a3
:203021000000000000080000000000002000000000080000000000002000000000000080bf
:0930410000000000000200000084
:20304a00000000000000000000000000000000000000000000000000000000000000000066
:0a306a00000000000000000000005c
:2030740000000000000c00000000000030000000000c00000000000030000000000000c004
:0930940000000000000300000030
:20309d00000000000000000000000000000000000000000000000000000000000000000013
:0a30bd000000000000000000000009
:2030c7000000000000000000000000000000000000000000000000200000000000000000c9
:0930e700000000000000000000e0
:2030f0000000000000000000000000000000000000000000000000030000000400000000b9
:0a31100000000000000000000000b5
:20311a00000000000000000000000000000000000000000000000000000000000000000095
:09313a000000000000000000008c
:20314300000000000000000000000000000000000000000000000000000000080000000064
:0a3163000000000000000000000062
:20316d00000000000008000000000000200000000008000000000000200000000000008072
:09318d0000000000000200000037
:203196000000000000400000000000000000000000000000000000000000000400000000d5
:0a31b600000000000000000000000f
:2031c000000000000000000000000000000000000000000000004000e58000000100001633
:0931e00000000004001e000000c4
:2031e9000000200000000000000000000000000000000000080100001000000004000d007c
:0a32090000000010000000000000ab
:20321300000000000000000000000000000000000000000000005a65a000000001699680bc
:09323300000000043c5a000000f8
:20323c000000000000000000000000000000000000000000000001a74000000000069d00e7
:0a325c0002c000003c010000000069
:20326600000000000000000000000000000000000000000000005a45a81a0000016916b4b3
:0932860068000005a64a00a00042
:20328f000000000000000000000000000000000000000000000001a540500000000695014d
:0a32af00600000001a4d0d10000031
:2032b900000300000000000000000000000000000000000000004cc5b81b0000013316e0e4
:0932d9006c000004ce4b50100003
:2032e2000000000000000000000000000000000000000000000003334e10a000000ccd3887
:0a33020042800000332ca088000078
:20330c00000000000000000000000000000000000000000000002a848500000000aa1200b2
:09332c0000000003c04000000095
:203335000000200000000000000000000000000000000000000002a810080000000aa040ac
:0a335500000000003c000000000032
:20335f00000000000000000000000000000000000000000000100f0000000000403c0000b3
:09337f0000000100f0001800003c
:203388000000000000000000000000000000000000000000000000f0000000000003c00072
:0a33a800000000000f00000d0000ff
:2033b200000000000000000000000000000000000000000000003c0c00000000005a004019
:0933d200000000000000000000f2
:2033db000000000000000000000000000000000000000000000003c020d00000000a5020a5
:0a33fb0000000000000000000000c8
:203405000000000000000000000000000000000000000000000000000001000000000000a6
:0934250004000002a94a000000a5
:20342e000000000000000000000000000000000000000000000000000000800000000000fe
:0a344e00020000002a80000a0000be
:203458000000000000000000000000000000000000000000000040008d1a00000100021456
:0934780000000004001c0000002b
:20348100000020000000000000000000000000000000000000010000005000000400004076
:0a34a10020000010000000000000f1
:2034ab00000000000000000000000000000000000000000000005a65a0000000010f161468
:0934cb00280000003c4000000054
:2034d4000000000000000000000000000000000000000000000001a740000000000f0003de
:0a34f40066c0000003c000000000e5
:2034fe00000000000000000000000000000000000000000000005a45a00a000001691600e5
:09351e0000000100f000000000b3
:203527000000000000000000000000000000000000000000000001a54050000000069700b1
:0a354700000000000f00000000006b
:20355100000300000000000000000000000000000000000000004cc5b80a0000010f16005e
:0935710000000000000000000051
:20357a000000000000000000000000000000000000000000000003334e10a000000f0040ae
:0a359a000000000000000000000027
:2035a400000000000000000000000000000000000000000000002a84800000000169160059
:0935c400000000000000000000fe
:2035cd000000200000000000000000000000000000000000000002a8100000000006974027
:0a35ed000380000000000000000051
:2035f70000000000000000000000000000000000000000000000000000000000005513004c
:0936170000000000000001a00009
:20362000000000000000000000000000000000000000000000000000000000000005500035
:0a3640000000000000000000000080
:20364a000000000000000000000000000000000000000000000016800000000000000000ca
:09366a0020000000000000000037
:20367300000000000000000000000000000000000000000000000294090000000000000098
:0a3693000400000000000000000029
:20369d00000000000000000000000000000000000000000000001680000100000000000076
:0936bd000000000168010000009a
:2036c6000000000000000000000000000000000000000000000002940800800000000000c6
:0a36e600000000002940c0000000b1
:2036f000000000000000000000003f66a00000000000000000004001a50a000001000680fe
:09371000000000000000000000b0
:203719000000200000000000300003fdda00000000000000080100001000000400000f003a
:0a3739000000000000000000000086
:20374300000000000000000000102fc6a00a00140000000000005a64a5000000030f13809b
:093763000000500000000000000d
:20376c0000000000000000000000027c3ed1000040000000000001a65000a000000f0000ca
:0a378c000000010000000000000032
:2037960000000000000000000010849ee50a00000000000000005a6481804000070f12a625
:0937b6000000000000000000000a
:2037bf000000000000000000000820903cd9000000000000000001a440500000000f004099
:0a37df0040000000000000000000a0
:2037e900000300000000000000000000000000000000000000007c06a8000000070a12e090
:0938090060000000000000000056
:203812000000000000000000000000000000000000000000000003c350100000000a0070f6
:0a38320042c000000000000000008a
:20383c00000000000000000000000000000000000000000000002a848f9f0000030f1780e7
:09385c0000000000000000000063
:203865000000200000000000000000000000f00000000000000002a81010c800000f000092
:0a3885000000000000000000000039
:20388f0000000000000000000000000000000000000000000010330cf0010000030f168031
:0938af00200000000000000000f0
:2038b8000000000000000000000000000000000000000000000011342b008000000f0000f1
:0a38d80004000000000000000000e2
:2038e200000000000000000000000000080100000000000000003c0da0180000030f168e06
:093902006000000000000000005c
:20390b000000000000000000000000000070e00000000000000003c03c000000000f0040fe
:0a392b002000000000000000000072
:20393500000000000000000000000000080e0000000000000010178ee0000000030f178618
:0939550004000000000000000065
:20395e000000000000000000000000000071000000000000000013580c000000000f004012
:0a397e00020000000000000000003d
:20398800000000100079428000004000e00000000000000000000000001b0000030f1280f5
:0939a800600000000000000000b6
:2039b1000000204000040240000100000000000000000000000000000000e000030f00005d
:0a39d10000000000000000000000ec
:2039db00000000169968000000005a65a0000000000000000002028e801a0014020a1714df
:0939fb002800500000000000004b
:203a04000000000069d0342c000001a4d030000000000000000000282000000040050021b6
:0a3a240042800100000000000000d5
:203a2e00000000169920000000005a45c00000000000000000000000081a000000101e9466
:093a4e002c000000000000000043
:203a57000000000069503400000001a5c00000000000000000000000005000040000053c67
:0a3a77000200000000000000000043
:203a810000030016916a028000005a64c1802000000000000000001dc00000000269705464
:093aa1002c0000000000000000f0
:203aaa000000000069d00440000001a4d00000010000000000000023e8000001010960a8eb
:0a3aca0002000400000000000000ec
:203ad400000000133924000000007c2ecd9800000000000000112006a0004000025a06c01a
:093af400000000000000000000c9
:203afd0000002000cc978000000003c0d0500000000000000002020010000000000000307f
:0a3b1d00000000000000000000009e
:203b27000000000aa160e00000003324001b000000000000000000000819000000af1e80b3
:093b47000400000000000000145d
:203b500000000000aa00020000000331c0008000000000000000000000b19000000ff0e80d
:0a3b70000280000000000000008049
:203b7a000000000f038000000010011cdf1b0000000000000000007dc9800000001ed64672
:093b9a0000000000000000000022
:203ba30000000000f0080000000000002918e0000000000000000000ef9800000001f56408
:0a3bc30000000000000000000000f8
:203bcd00000000000002060000003c1c00010000000000000054bbd4100000004066560088
:093bed00000000000000000000cf
:203bf6000000000000001c00000003c02000a000000000000080037c08000000000880a8d9
:0a3c160000000000000000000000a4
:203c2000000000100079668000004000c00000000000000000004001c50a090000503f402d
:093c40000400000014e100100072
:203c4900000020400000000000010000100000000000000008010000000900080000007060
:0a3c6900028000000280e008000065
:203c730000000016996b604000005a44c00000000000000000015a65a5000001c2bd76d4ea
:093c930000005000000070000068
:203c9c000000000069901428000001a75000000000000000000001a640d8b0000007f0ec89
:0a3cbc000000010000000d80000070
:203cc600000000169922000000005a44e00000000000000000015a6480000080007efb66f1
:093ce6002800000000005000005d
:203cef000000000069501400000001a6d030000000000000000001a540d000c0000bc7ef0a
:0a3d0f00c00000000000008000006a
:203d1900000300169168068000005a64c00000000000000000015a45a00a0000405a7b9e77
:093d39002c000000034d00000005
:203d42000000000069d00000000001a5d000000000000000000001a740010040000800afd2
:0a3d62006200040000bfe000001042
:203d6c00000000133924000000004ce5ff0100000000000000004ce49000000000df3fd4e4
:093d8c000400010101d80001004e
:203d950000002000cc97800000000330de78e00000000000000013325e000000000e75a8d4
:0a3db50022000000100107000000ca
:203dbf000000000aa160000000002a84c00100000000000000002a85801c000000e7f6ce74
:093ddf007400010000691080006d
:203de80000000000aa000000000002a80000e00000000000000012a800010000000efdfcc5
:0a3e0800274000a02002d090000027
:203e120000000403c000000000100f00080000000000000000100f000000000040af5e1422
:093e320070000c13fc000010806c
:203e3b00000000003c000000000000f000f0000000000000000010f000000000000ef060ed
:0a3e5b00240000003fc0000d00002d
:203e65000000000000000640000016800819000000000000000216801018010240c7531c07
:093e85003c000000000001c00037
:203e8e000000000000000038000002940df0f00000000000000002940c000000000c7083b8
:0a3eae00434000000000071e000062
:203eb800000000000000000000000000000000000000000000004001c580000001000780dc
:093ed800000000000000000000e1
:203ee10000002000000000000000000000000000000000000001000010d00000040000407c
:0a3f010000000000000000000000b6
:203f0b00000000000000000000000000000000000000000000005a45a001000001501700ee
:093f2b0000000000000000a001ec
:203f34004000000000000000000000000000000000000000000001a65000a000000a007c10
:0a3f5400000000000000000000045f
:203f5e00000000000000000000000000000000000000000000005a44880a0000015017802b
:093f7e000000000000000000003a
:203f8700c000000000000000000000000000000000000000000001a550510000000a007495
:0a3fa7000000000000000000000808
:203fb100000300000000000000000000000000000000000000005a4485180000006c9300b3
:093fd1000000000829c1000000f5
:203fda000000000000000000000000000000000000000000000001a6500800000006c341be
:0a3ffa00c00000000140800000003c
:20400400000000000000000000000000000000000000000000004ce4d3800000403c001489
:094024000400000000008000000f
:20402d000000200000000000000000000000000000000000000003305a0800000003c001fa
:0a404d00e340000000000b0000003b
:20405700000000000000002800000000000000000000000000000cc5e5000000000000204b
:0940770028000000000000000018
:204080000000000000000000000000000000000000000000000003324b0800000000000296
:0a40a00042c0000000000000000014
:2040aa00000000000000000000000000000000000000000000100f000000000000ef5b404d
:0940ca000000000941f800a0000b
:2040d3000000000000000000000000000000000000000000000000f000000000000ff3f1ea
:0a40f300c0000000140200000000ed
:2040fd00000000000000000000000000000000000000000000001680101c000000000020c1
:09411d0000000000000080000019
:204126000000000000000000000000000000000000000000000002940d01000000000002d3
:0a414600400000000000010000002e
:20415000000000000000002800000000000000000000000000004000e00000000100800086
:09417000000000040208d0000068
:204179000000200000000001000000000000000000000000080100000000000004000b02eb
:0a41990040000000002503000000b4
:2041a300000000000000000000000000000000000000000000005a65c00000000169100003
:0941c3007000000c3c4e000001ec
:2041cc004000000000000000000000000000000000000000000001a74000000010096b0027
:0a41ec00000000243c000500000460
:2041f600000000000000000000000000000000000000000000005a64c00000020169163673
:094216006800080c284af01000b1
:20421f008000000000000000000000000000000000000000000001a4c000000010069501ee
:0a423f00400000042801910e000c5d
:20424900000300000000000000000000000000000000000000005a64e80000020169102010
:094269006c00080c284e018000d5
:204272000000000000000000000000000000000000000000000041a5c010000000096d01ff
:0a429200428000042801a000000093
:20429c000000000000000000000000000000000000000000000043c4080a00020169160661
:0942bc000000000c3c5e0004004f
:2042c50000002000000000000000000000000000000000000002003ec091000000469d0045
:0a42e500200000443c000000a0008f
:2042ef000000000000000000000000000000000000000000000003c40001000201699020cb
:09430f000000000c3c5a00000003
:2043180000000000000000000000000000000000000000000000003c0000c0000009650219
:0a433800400000603c00000000009f
:20434200000000000000000000000000000000000000000000003c0c0018000001699600fb
:094362000000000c285e19800027
:20436b000000000000000000000000000000000000000000000003c00001b0001006950013
:0a438b00000000402801900000002f
:20439500000000000000000000000000000000000000000000001680000100000169920075
:0943b5000000000c3c5e981000b1
:2043be000000000000000000000000000000000000000000000002940e00c00000069d4098
:0a43de00000000403c01010800004f
:2043e800000000000000000000000000000000000000000000000000000000000169978034
:0944080004000048285a8010004d
:204411000000200000000000000000000000000000000000000000000000000002069f00c4
:0a4431000280004814018708000013
:20443b000000000000000000000000000000000000000000000000000000000000551200fa
:09445b0000000000000000000157
:204464004000000000000000000000000000000000000000000000000000000001055000a2
:0a448400000000000000000000042a
:20448e0000000000000000000000000000000000000000000000000000000000000000000e
:0944ae0000000000000000000005
:2044b700800000000000000000000000000000000000000000000000000000000000000065
:0a44d70000000000000000000008d3
:2044e1000003000000000000000000000000000000000000000000000000000000000000b8
:09450100000000000000000000b1
:20450a00000000000000000000000000000000000000000000000000000000000000000091
:0a452a000000000000000100000086
:20453400000000000000000000000000000000000000000000000000000000000000000067
:094554000000000000000000005e
:20455d0000002000000000000000000000000000000000000000000000000000000000001e
:0a457d000000000000000000000034
:20458700000000000000000000000000000000000000000000000000000000000000000014
:0945a7000000000000000000000b
:2045b0000000000000000000000000000000000000000000000000000000000000000000eb
:0a45d00000000000000000000000e1
:2045da000000000000000000000000000000000000000000000000000000000000000000c1
:0945fa00000000000000000000b8
:20460300000000000000000000000000000000000000000000000000000000000000000097
:0a4623000000000000000000040089
:20462d00000000000000000000000000000010000000000000000000000000000000000657
:09464d0000000000000000000064
:20465600000000000000000000000000000000000000000000000000000000000000000044
:0a4676002200000000000000000018
:02468000000038
:02468200110322
:02468400010132
:204686000000000000000000100000000000004000000000000000000000000000000000c4
:0946a6000000000000000000000b
:2046af000000000000000000000000000000000000000000000000000000000000000000eb
:0a46cf0000000000000000000000e1
:2046d9000000000000000000200000000028008000000000000000000000000000000000f9
:0946f900000000000000000000b8
:20470200000000000000000000000000000040000000000000000000000000000000000057
:0a472200000000000000000000008d
:20472c000000000008000000100000300000004000000000000000000000000000000000e5
:09474c0000000000000000000064
:204755000000000000800000000000020000000000000000000000000000000000000000c2
:0a477500000000000000000000003a
:20477f0000000000000800000000000020000000000800000000000020000000000000804a
:09479f000000000000020000000f
:2047a8000000000000000000000000000000000000000000000000000000000000000000f1
:0a47c80000000000000000000000e7
:2047d20000000000000c00000000000030000000000c00000000000030000000000000c08f
:0947f200000000000003000000bb
:2047fb0000000000000000000000000000000000000000000000000000000000000000009e
:0a481b000000000000000000000093
:2048250000000000080010000000000000000000000000000000000000000000000000005b
:094845000000000000000000006a
:20484e0000000000000001c001000000000000000000000000000000000000000000000088
:0a486e000000000000000000000040
:20487800000000000000000000000000000000000000000000000000000000000000000020
:0948980000000000000000000017
:2048a1000000000000000000020000000000000000000000000000000000000000000000f5
:0a48c10000000000000000000000ed
:2048cb000000000000080a000000000020000000180800000000000020000000000080805b
:0948eb00000000000002000000c2
:2048f400000000000000001001000000000000000000000000000000000000000000000093
:0a4914000000000000000000000099
:20491e00000000000000000000000000000000000000000000000000000000000000000079
:09493e0000000000000000000070
:20494700000000000000000000000000000000000000000000000000000000000000000050
:0a4967000000000000000000000046
:20497100000000000000000000000000000000000000000000000000000000000000000026
:094991000000000000000000001d
:20499a000000000000000000000000000000000000000000000000000000000000000000fd
:0a49ba0000000000000000000000f3
:2049c4000000000000000000000000000000000000000000000000000000000000000000d3
:0949e400000000000000000000ca
:2049ed000000000000000000000000000000000000000000000000000000000000000000aa
:0a4a0d00000000000000000000009f
:204a170000020000000000000000000000000000000000000000000000000000000000007d
:094a370000000000000000000076
:204a4000000000000000000000000000000000000000000000000000000000000000000056
:0a4a6000000000000000000000004c
:204a6a0000000000000000000000000000000000000000000000000000000000000000002c
:094a8a0000000000000000000023
:204a93000000300000000000000000000000000000000000000000000000000000000000d3
:0a4ab30000000000000000000000f9
:204abd000000000000000000000000000000000000000000000000000000000000000000d9
:094add00000000000000000000d0
:204ae6000000000000000000000000000000000000000000000000000000000000000000b0
:0a4b060000000000000000000000a5
:204b1000000000000000000000000000000000000000000000000000000000000000000085
:094b30000000000000000000007c
:204b390000000000000000000000000000000000000000000000000000000000000000005c
:0a4b59000000000000000000000052
:204b6300000200000000000000000000000000000000080000000000000000000000000028
:094b830000000000000000000029
:204b8c00000000000000000000000000000000000000000000000000000000000000000009
:0a4bac0000000000000000000000ff
:204bb6000000000000000000000000000000000000000000000000000000000000000000df
:094bd600000000000000000000d6
:204bdf000000000000000000000000000000000000000000000000000000000000000000b6
:0a4bff0000000000000000000000ac
:204c090000000000000000000000000000000000000000000000000000000000000000008b
:094c290000000000000000000082
:204c3200000000000000000000000000000000000000000000000000000000000000000062
:0a4c52000000000000000000000058
:204c5c00000000000000000000000000000000000000000000000000000000000000000038
:094c7c000000000000000000002f
:204c850000000000000000000000000000000000000000000000000000000000000000000f
:0a4ca5000000000000000000000005
:204caf000002000000000000000000000000000000000000000000000000000000000000e3
:094ccf00000000000000000000dc
:204cd8000000000000000000000000000000000000000000000000000000000000000000bc
:0a4cf80000000000000000000000b2
:204d0200000000000000000000000000000000000000000000000000000000000000000091
:094d220000000000000000000088
:204d2b00000030000000000000000000000000000000000000000000000000000000000038
:0a4d4b00000000000000000000005e
:204d550000000000000000000000000000000000000000000000000000000000000000003e
:094d750000000000000000000035
:204d7e00000000000000000000000000000000000000000000000000000000000000000015
:0a4d9e00000000000000000000000b
:204da8000000000000000000000000000000000000000000000000000000000000000000eb
:094dc800002000000000000000c2
:204dd1000000000000000000000000000000000000000000000000000000000000000000c2
:0a4df10000000000000000000000b8
:204dfb00000200000000000000000000000000000000000080000000000000000000000016
:094e1b000000000000000000008e
:204e240000000000000000000000000000000000000000000000000000000000000000006e
:0a4e44000000000000000000000064
:204e4e00000000000000000000000000000000000000000000000000000000000000000044
:094e6e000000000000000000003b
:204e770000000000000000000000000000000000000000000000000000000000000000001b
:0a4e97000000000000000000000011
:204ea1000000000000000000000000000000000000000000000000000000000000000000f1
:094ec100000000000000000000e8
:204eca000000000000000000000000000000000000000000000000000000000000000000c8
:0a4eea0000000000000000000000be
:204ef40000000000000000000000000000000000000000000000000000000000000000009e
:094f140000000000000000000094
:204f1d00000000000000000000000000000000000000000000000000000000000000000074
:0a4f3d00000000000000000000006a
:204f4700000200000000000000000000000000000000000000000000000000000000000048
:094f670000000000000000000041
:204f7000000000000000000000000000000000000000000000000000000000000000000021
:0a4f90000000000000000000000017
:204f9a000000000000000000000000000000000000000000000000000000000000000000f7
:094fba00000000000000000000ee
:204fc30000003000000000000000000000000000000000000000000000000000000000009e
:0a4fe30000000000000000000000c4
:204fed000000000000000000000000000000000000000000000000000000000000000000a4
:09500d000000000000000000009a
:2050160000000000000000000000000000000000000000000000000000000000000000007a
:0a5036000000000000000000000070
:20504000000000000000000000000000000000000000000000000000000000000000000050
:0950600000000000000000000047
:20506900000000000000000005000000000000000000000000000000000000000000000022
:0a508900000000000000000000001d
:205093000002000000000000000000000000000000000000000000000000000000000000fb
:0950b30080000000000000000074
:2050bc000000000000000000000000000000000000000000000000000000000000000000d4
:0a50dc0000000000000000000000ca
:2050e6000000000000000000000000000000000000000000000000000000000000000000aa
:09510600000000000000000000a0
:20510f00000000000000000000000000000000000000000000000000000000000000000080
:0a512f000000000000000000000076
:20513900000000000000000000000000000000000000000000000000000000000000000056
:095159000000000000000000004d
:2051620000000000000000000000000000000000000000000000000000000000000000002d
:0a5182000000000000000000000023
:20518c00000000000000000000000000000000000000000000000000000000000000000003
:0951ac00000000000000000000fa
:2051b5000000000000000000000000000000000000000000000000000000000000000000da
:0a51d50000000000000000000000d0
:2051df000002000000000000000000000000000000000000000000000000000000000000ae
:0951ff00000000000000000000a7
:20520800000000000000000000000000000000000000000000000000000000000000000086
:0a522800000000000000000000007c
:2052320000000000000000000000000000000000000000000000000000000000000000005c
:0952520000000000000000000053
:20525b00000030000000000000000000000000000000000000000000000000000000000003
:0a527b000000000000000000000029
:20528500000000000000000000000000000000000000000000000000000000000000000009
:0952a50000000000000000000000
:2052ae000000000000000000000000000000000000000000000000000000000000000000e0
:0a52ce0000000000000000000000d6
:2052d8000000000000000000000000000000000000000000000000000000000000000000b6
:0952f800000000000000000000ad
:2053010000000000000000000000000000000000000000000000000000000000000000008c
:0a5321000000000000000000000082
:20532b000002000000000000000000000000000000000000800000000000000000000000e0
:09534b0000000000000000000059
:20535400000000000000000000000000000000000000000000000000000000000000000039
:0a537400000000000000000000002f
:20537e0000000000000000000000000000000000000000000000000000000000000000000f
:20570f00000200000000000000000000000000000000000000000000000000000000000078
:09572f0000000000000000000071
:20573800000000000000000000000000000000000000000000000000000000000000000051
:0a5758000000000000000000000047
:20576200000000000000000000000000000000000000000000000000000000000000000027
:095782000000000000000000001e
:20578b000000300000000000000000000000000000000000000000000000000000000000ce
:0a57ab0000000000000000000000f4
:2057b5000000000000000000000000000000000000000000000000000000000000000000d4
:0957d500000000000000000000cb
:2057de000000000000000000000000000000000000000000000000000000000000000000ab
:0a57fe0000000000000000000000a1
:20580800000000000000000000000000000000000000000000000000000000000000000080
:0958280000000000000000000077
:20583100000000000000000000000000000000000000000000000000000000000000000057
:0a585100000000000000000000004d
:20585b000002000000000000000000000000000000000000800000000000000000000000ab
:09587b0000000000000000000024
:20588400000000000000000000000000000000000000000000000000000000000000000004
:0a58a40000000000000000000000fa
:2058ae000000000000000000000000000000000000000000000000000000000000000000da
:0958ce00000000000000000000d1
:2058d7000000000000000000000000000000000000000000000000000000000000000000b1
:0a58f70000000000000000000000a7
:20590100000000000000000000000000000000000000000000000000000000000000000086
:095921000000000000000000007d
:20592a0000000000000000000000000000000000000000000000000000000000000000005d
:0a594a000000000000000000000053
:20595400000000000000000000000000000000000000000000000000000000000000000033
:095974000000000000000000002a
:20597d0000000000000000000000000000000000000000000000000000000000000000000a
:0a599d000000000000000000000000
:2059a7000002000000000000000000000000000000000000000000000000000000000000de
:0959c700000000000000000000d7
:2059d0000000000000000000000000000000000000000000000000000000000000000000b7
:0a59f00000000000000000000000ad
:2059fa00000000000000000600000000000000000000000000000000000000000000000087
:095a1a0000000000000000000083
:205a2300000030000000000000000000000000000000000000000000000000000000000033
:0a5a43000000000000000000000059
:205a4d00000000000000000000000000000000000000000000000000000000000000000039
:095a6d0000000000000000000030
:205a7600000000000000000000000000000000000000000000000000000000000000000010
:0a5a96000000000000000000000006
:205aa0000000000000000000000000000000000000000000000000000000000000000000e6
:095ac000000000000000000000dd
:205ac9000000000000000000000000000000000000000000000000000000000000000000bd
:0a5ae90000000000000000000000b3
:205af300000200000000000000000000000000000000000000000000000000000000000091
:095b130000000000000000000089
:205b1c00000000000000000000000000000000000000000000000000000000000000000069
:0a5b3c00000000000000000000005f
:205b460000000000000000000000000000000000000000000000000000000000000000003f
:095b660000000000000000000036
:205b6f00000000000000000000000000000000000000000000000000000000000000000016
:0a5b8f00000000000000000000000c
:205b99000000000000000000000000000000000000000000000000000000000000000000ec
:095bb900000000000000000000e3
:205bc2000000000000000000000000000000000000000000000000000000000000000000c3
:0a5be20000000000000000000000b9
:205bec00000000000000000000000000000000000000000000000000000000000000000099
:095c0c000000000000000000008f
:205c150000000000000000000000000000000000000000000000000000000000000000006f
:0a5c35000000000000000000000065
:205c3f00000200000000000000000000000000000000000000000000000000000000000043
:095c5f000000000000000000003c
:205c680000000000000000000000000000000000000000000000000000000000000000001c
:0a5c88000000000000000000000012
:205c92000000000000000000000000000000000000000000000000000000000000000000f2
:095cb200000000000000000000e9
:205cbb00000030000000000000000000000000000000000000000000000000000000000099
:0a5cdb0000000000000000000000bf
:205ce50000000000000000000000000000000000000000000000000000000000000000009f
:095d050000000000000000000095
:205d0e00000000000000000000000000000000000000000000000000000000000000000075
:0a5d2e00000000000000000000006b
:205d380000000000000000000000000000000000000000000000000000000000000000004b
:095d580000000000000000000042
:205d6100000000000000000000000000000000000000000000000000000000000000000022
:0a5d81000000000000000000000018
:205d8b00000200000000000000000000000000000000000080000000000000000000000076
:095dab00000000000000000000ef
:205db4000000000000000000000000000000000000000000000000000000000000000000cf
:0a5dd40000000000000000000000c5
:025dde000000c3
:035de00062003f1f
:035de300720080cb
:025de6001100aa
:035de80082000036
:025deb000103b2
:085ded000000000000000000ae
:085df5000000000000000000a6
:085dfd0000000000000000009e
:085e0500000000000000000095
:0261ed000000b0
:0361ef00820080ab
:0261f2000103a7
:0861f4000000000000000000a3
:0861fc0000000000000000009b
:08620400000000000000000092
:08620c0000000000000000008a
:0265f4000000a5
:0265f600110191
:0365f8008200001e
:0265fb0001039a
:0865fd00000000000000000096
:0866050000000000000000008d
:08660d00000000000000000085
:0866150000000000000000007d
:0269fd00000098
:0369ff0082008093
:026a020001038e
:086a040000000000000000008a
:086a0c00000000000000000082
:086a140000000000000000007a
:086a1c00000000000000000072
:026e040000008c
:026e0600110277
:036e080082000005
:026e0b00010381
:086e0d0000000000000000007d
:086e1500000000000000000075
:086e1d0000000000000000006d
:086e2500000000000000000065
:02720d0000007f
:03720f008200807a
:02721200010376
:08721400000000000000000072
:08721c0000000000000000006a
:08722400000000000000000062
:08722c0000000000000000005a
:02761400000074
:0276160011035e
:03761800820000ed
:02761b00010369
:08761d00000000000000000065
:0876250000000000000000005d
:08762d00000000000000000055
:0876350000000000000000004d
:027a1d00000067
:037a1f0082008062
:027a220001035e
:087a240000000000000000005a
:087a2c00000000000000000052
:087a340000000000000000004a
:087a3c00000000000000000042
:027e240000005c
:017e26002239
:027e27008302d4
:027e2900010650
:00000001FF
