:02000000ff00ff
:080002004c6174746963650030
:17000a00694345637562653220323031342e31322e32373035320077
:16002100506172743a2069434534304858314b2d545131343400fc
:1b003700446174653a204a756e20313720323031352031373a31303a3439006f
:0200520000ffad
:040054007eaa997e69
:02005800510055
:02005a0001059e
:03005c00920020ef
:03005f0062014bf0
:0300620072009099
:0300650082000016
:02006800110085
:02006a00010192
:20006c00000000000000000000000000000000000000000000000000000000000000000074
:09008c000000000000000000006b
:2000950000000000000000000000000000000000000000000000000000000000000000004b
:0a00b5000000000000000000000041
:2000bf00000000000000000000000000000000000000000000000000000000000000000021
:0900df00000000400000000000d8
:2000e8000000000000000000000000000000000000000000000000000000000000000000f8
:0a01080000000000000000200000cd
:200112000000000000000000000000000000000000000000000000000000000000000000cd
:09013200000000000000000000c4
:20013b000000000000000000000000000000000000000000000000000000000000000000a4
:0a015b00000000000000000000009a
:200165000000000000040000000000001000000000000040000000001000000000000040d6
:0901850000000000000000000071
:20018e00000000000000000000000000000000000000000000000000000000000000000051
:0a01ae00000000080000000000003f
:2001b80000000000000c00000000000030000000000000c00000000030000000000000c03b
:0901d8000000000000010000001d
:2001e1000000000000000000000000000000000000000000000000000000000000000000fe
:0a02010000000000000000000000f3
:20020b000000000000000000000000000000000000000000000000000000000000000000d3
:09022b00000000000000000000ca
:200234000000000000000000000000000000c00000000000000000000000000000000000ea
:0a02540000000000000000000000a0
:20025e00000000000000000000000050000000000000000000000000000000000000000030
:09027e0000000000000000000077
:200287000000000000000000000000008000000000000000000000000000000000000000d7
:0a02a700000000000000000000004d
:2002b100000000000004000000000000100000000000004000000000100000000000004089
:0902d10000000000000100000023
:2002da00000000000000000000000000000000000000000000000000000000000000000004
:0a02fa0000000000000000000000fa
:200304000000000000000000000000000000000000000000000000000000000000000000d9
:09032400000000000000000000d0
:20032d00000020000000000000000000000000000040000000000000000000000000000050
:0a034d0000000000000000000000a6
:20035700000000000000000000000000000000000000000000000000000000000000000086
:090377000000000000000000007d
:2003800000000000000000000000000000000000000000000000000000000000000000005d
:0a03a0000000000000000000000053
:2003aa00300200000000000000000000000000000000000000000000000000000000000001
:0903ca000000000000000000002a
:2003d3000300200000000000000000000000000000000000000000000000000000000000e7
:0a03f3000000000000000000000000
:2003fd000003000000000000000000000000000000000000000000000000000000000000dd
:09041d00000000000000000000d6
:200426000000000000000000000000000000000000000000000000000000000000000000b6
:0a04460000000000000000000000ac
:2004500000000000000000000000000000000000000000000000000000000000000000008c
:0904700000000000000000000083
:20047900000020000000000000000000000000000000000000000000000000000000000043
:0a0499000000000000000000000059
:2004a300000000000000000000000000000000000000000000000000000000000000000039
:0904c30000000000000000000030
:2004cc00000000000000000000000000000000000000000000000000000000000000000010
:0a04ec000000000000000000000006
:2004f6000000000000000000000000000000000000000000000000000000000000000000e6
:09051600000000000000000000dc
:20051f000000000000000000000000000000000000000000000000000000000000000000bc
:0a053f0000000000000000000000b2
:2005490000040000000000000000000000000000000000000000000000000000000000008e
:0905690000000000000000000089
:200572000002800000000000000000000000000000000000000000000000000000000000e7
:0a059200000000000000000000005f
:20059c0000020000000000000000000000000000000000000000000000000000000000003d
:0905bc0000000000000000000036
:2005c5000000200000000000000000000000000000000000000000000000000000000000f6
:0a05e500000000000000000000000c
:2005ef000002000000000000000000000000000000000000000000000000000000000000ea
:09060f00000000000000000000e2
:200618000000000000000000000000000000000000000000000000000000000000000000c2
:0a06380000000000000000000000b8
:20064200000000000000000000000000000000000000000000000000000000000000000098
:090662000000000000000000008f
:20066b0000002000000000000000000000000000000000000000000000000000000000004f
:0a068b000000000000000000000065
:20069500000300000000000000000000000000000000000000000000000000000000000042
:0906b5000000000000000000003c
:2006be0000000000000000000000000000000000000000000000000000000000000000001c
:0a06de000000000000000000000012
:2006e8000000000000000000000000000000000000000000000000000000000000000000f2
:09070800000000000000000000e8
:200711000000200000000000000000000000000000000000000000000000000000000000a8
:0a07310000000000000000000000be
:20073b0000000000000000000000000000000000000000000000000000000000000000009e
:09075b0000000000000000000095
:20076400000000000000000000000000000000000000000000000000000000000000000075
:0a078400000000000000000000006b
:20078e0000000000000000000000000000000000000000000000000000000000000000004b
:0907ae0000000000000000000042
:2007b700000000000000000000000000000000000000000000000000000000000000000022
:0a07d7000000000000000000000018
:2007e1000000000000000000000000000000000000000000000000000000000000000000f8
:09080100000000000000000000ee
:20080a000000000000000000000000000000000000000000000000000000000000000000ce
:0a082a0000000000000000000000c4
:200834000000000000000000000000000000000000000000000000000000000000000000a4
:090854000000000000000000009b
:20085d0000002000000000000000000000000000004000000000000000000000000000001b
:0a087d000000000000000000000071
:2008870000020000000000000000000000000000000000000000000000000000000000004f
:0908a70000000000000000000048
:2008b000000000000000000000000000000000000000000000000000000000000000000028
:0a08d000000000000000000000001e
:2008da000000000000000000000000000000000000000000000000000000000000000000fe
:0908fa00000000000000000000f5
:200903000000000000000000000000000000000000000000000000000000000000000000d4
:0a09230000000000000000000000ca
:20092d000003000000000000000000000000000000000000000000000000000000000000a7
:09094d00000000000000000000a1
:20095600000000000000000000000000000000000000000000000000000000000000000081
:0a0976000000000000000000000077
:20098000000000000000000000000000000000000000000000000000000000000000000057
:0909a0000000000000000000004e
:2009a90000002000000000000000000000000000000000000000000000000000000000000e
:0a09c9000000000000000000000024
:2009d300000000000000000000000000000000000000000000000000000000000000000004
:0909f300000000000000000000fb
:2009fc000000000000000000000000000000000000000000000000000000000000000000db
:0a0a1c0000000000000000000000d0
:200a26000000000000000000000000000000000000000000000000000000000000000000b0
:090a4600000000000000000000a7
:200a4f00000000000000000000000000000000000000000000000000000000000000000087
:0a0a6f00000000000000000000007d
:200a790000000000000000000000000000000000000000000000000000000000000000005d
:090a990000000000000000000054
:200aa200000000000000000000000000000000000000000000000000000000000000000034
:0a0ac200000000000000000000002a
:200acc0000000000000000000000000000000000000000000000000000000000000000000a
:090aec0000000000000000000001
:200af5000000200000000000000000000000000000000000000000000000000000000000c1
:0a0b150000000000000000000000d6
:200b1f000000000000000000000000000000000000000000000000000000000000000000b6
:090b3f00000000000000000000ad
:200b480000000000000000000000000000000000000000000000000000000000000000008d
:0a0b68000000000000000000000083
:200b7200000000000000000000000000000000000000000000000000000000000000000063
:090b92000000000000000000005a
:200b9b0000000000000000000000000000000000000000000000000000000000000000003a
:0a0bbb000000000000000000000030
:200bc50000030000000000000000000000000000000000000000000000000000000000000d
:090be50000000000000000ff28e0
:200bee004100000000000000000000000000000000000000000000000000000000000000a6
:0a0c0e00000000000000000ff000dd
:200c18000000000000000000000000000000000000000000000000000000000000000000bc
:090c3800000000000000000000b3
:200c4100000020000000000000000000000000000000000000000000000000000000000073
:0a0c61000000000000000000000089
:200c6b00000000000000000000000000000000000000000000000000000000000000000069
:090c8b0000000000000000000060
:200c9400000000000000000000000000000000000000000000000000000000000000000040
:0a0cb4000000000000000000000036
:200cbe00000000000000000000000000000000000000000000000000000000000000000016
:090cde000000000000000000000d
:200ce7000000000000000000000000000000000000000000000000000000000000000000ed
:0a0d070000000000000000000000e2
:200d11000000000000000000000000000000000000000000000000000000000000000000c2
:090d3100000000000000000000b9
:200d3a00000000000000000000000000000000000000000000000000000000000000000099
:0a0d5a00000000000000000000008f
:200d640000010000000000000000000000000000000000000000000000000000000000006e
:090d840000000000000000000066
:200d8d000000200000000000000000000000000000400000000000000000000000000000e6
:0a0dad00000000000000000000003c
:200db70000020000000000000000000000000000000000000000000000000000000000001a
:090dd70000000000000000000013
:200de0000000000000000000000000000000000000000000000000000000000000000000f3
:0a0e000000000000000000000000e8
:200e0a000000000000000000000000000000000000000000000000000000000000000000c8
:090e2a00000000000000000000bf
:200e330000000000000000000000000000000000000000000000000000000000000000009f
:0a0e53000000000000000000000095
:200e5d00000300000000000000000000000000000000000000000000000000000000000072
:090e7d000000000000000000006c
:200e860000000000000000000000000000000000000000000000000000000000000000004c
:0a0ea6000000000000000000000042
:200eb000000000000000000000000000000000000000000000000000000000000000000022
:090ed00000000000000000000019
:200ed9000000200000000000000000000000000000000000000000000000000000000000d9
:0a0ef90000000000000000000000ef
:200f03000000000000000000000000000000000000000000000000000000000000000000ce
:090f2300000000000000000000c5
:200f2c000000000000000000000000000000000000000000000000000000000000000000a5
:0a0f4c00000000000000000000009b
:200f560000000000000000000000000000000000000000000000000000000000000000007b
:090f760000000000000000000072
:200f7f00000000000000000000000000000000000000000000000000000000000000000052
:0a0f9f000000000000000000000048
:200fa900000000000000000000000000000000000000000000000000000000000000000028
:090fc9000000000000000000001f
:200fd2000000000000000000000000000000000000000000000000000000000000000000ff
:0a0ff20000000000000000000000f5
:200ffc000000000000000000000000000000000000000000000000000000000000000000d5
:09101c00000000000000000000cb
:2010250000002000000000000000000000000000000000000000000000000000000000008b
:0a10450000000000000000000000a1
:20104f00000000000000000000000000000000000000000000000000000000000000000081
:09106f0000000000000000000078
:20107800000000000000000000000000000000000000000000000000000000000000000058
:0a109800000000000000000000004e
:2010a20000000000000000000000000000000000000000000000000000000000000000002e
:0910c20000000000000000000025
:2010cb00000000000000000000000000000000000000000000000000000000000000000005
:0a10eb0000000000000000000000fb
:2010f5000003000000000000000000000000000000000000000000000000000000000000d8
:09111500000000000000000000d1
:20111e000000000000000000000000000000000000000000000000000000000000000000b1
:0a113e0000000000000000000000a7
:20114800000000000000000000000000000000000000000000000000000000000000000087
:091168000000000000000000007e
:2011710000002000000000000000000000000000000000000000000000000000000000003e
:0a1191000000000000000000000054
:20119b00000000000000000000000000000000000000000000000000000000000000000034
:0911bb000000000000000000002b
:2011c40000000000000000000000000000000000000000000000000000000000000000000b
:0a11e4000000000000000000000001
:2011ee000000000000000000000000000000000000000000000000000000000000000000e1
:09120e00000000000000000000d7
:201217000000000000000000000000000000000000000000000000000000000000000000b7
:0a12370000000000000000000000ad
:2012410000000000000000000000000000000000000000000000000000000000000000008d
:0912610000000000000000000084
:20126a00000000000000000000000000000000000000000000000000000000000000000064
:0a128a00000000000000000000005a
:2012940000000000000000000000000000000000000000000000000000000000000000003a
:0912b40000000000000000000031
:2012bd000000200000000000000000000000000000400000000000000000000000000000b1
:0a12dd000000000000000000000007
:2012e7000000000000000000000000000000000000000000000000000000000000000000e7
:09130700000000000000000000dd
:201310000000000000000000000000000000000000000000000000000000000000000000bd
:0a13300000000000000000000000b3
:20133a00000000000000000000000000000000000000000000000000000000000000000093
:09135a000000000000000000008a
:2013630000000000000000000000000000000000000000000000000000000000000000006a
:0a1383000000000000000000000060
:20138d0000030000000000000000000000000000000000000000000000000000000000003d
:0913ad0000000000000000000037
:2013b600000000000000000000000000000000000000000000000000000000000000000017
:0a13d600000000000000000000000d
:2013e0000000000000000000000000000000000000000000000000000000000000000000ed
:09140000000000000000000000e3
:201409000000200000000000000000000000000000000000000000000000000000000000a3
:0a14290000000000000000000000b9
:20143300000000000000000000000000000000000000000000000000000000000000000099
:0914530000000000000000000090
:20145c00000000000000000000000000000000000000000000000000000000000000000070
:0a147c000000000000000000000066
:20148600000000000000000000000000000000000000000000000000000000000000000046
:0914a6000000000000000000003d
:2014af0000000000000000000000000000000000000000000000000000000000000000001d
:0a14cf000000000000000000000013
:2014d9000000000000000000000000000000000000000000000000000000000000000000f3
:0914f900000000000000000000ea
:201502000000000000000000000000000000000000000000000000000000000000000000c9
:0a15220000000000000000000000bf
:20152c0000000000000000000000000000000000000000000000000000000000000000009f
:09154c0000000000000000000096
:20155500000020000000000000000000000000000000000000000000000000000000000056
:0a157500000000000000000000006c
:20157f0000000000000000000000000000000000000000000000000000000000000000004c
:09159f0000000000010000000042
:2015a800000000000000000000000000000000000000000000000000000000000000000023
:0a15c8000000000000000000000019
:2015d2000000000000000000000000000000000000000000000000000000000000000000f9
:0915f200000000000000000000f0
:2015fb000000000000000000000000000000000000000000000000000000000000000000d0
:0a161b0000000000000000000000c5
:201625000003000000000000000000000000000000000000000000000000000000000000a2
:091645000000000000000000009c
:20164e0000000000000000000000000000000000000000000000000000000000000000007c
:0a166e000000000000000000000072
:20167800000000000000000000000000000000000000000000000000000000000000000052
:0916980000000000000000000049
:2016a100000000000000000000000000000000000000000000000000000000000000000029
:0a16c100000000000000000000001f
:2016cb000000000000000000000000000000000000000000000000000000000000000000ff
:0916eb00000000000000000000f6
:2016f4000000080000000000000000000000000000000000000000000000000000000000ce
:0a17140000000000000000000000cb
:20171e000000000000000000000000000000000000000000000000000000000000000000ab
:09173e00000000000000000000a2
:2017470008000000000000000000000000000000000000000000000000000000000000007a
:0a1767000000000000000000000078
:20177100000000000000000000000000000000000000000000000000000000000000000058
:091791000000000000000000004f
:20179a0000000000000000000000000000000000000000000000000000000000000000002f
:0a17ba000000000000000000000025
:0217c400000023
:0217c60011010f
:0217c80001011d
:2017ca000000000000000000000000000000000000000000000000000000000000000000ff
:0917ea00000000000000000000f6
:2017f3000000000000000000000000000000000000000000000000000000000000000000d6
:0a18130000000000000000000000cb
:20181d000000000000000000000000000000000000000000000000000000000000000000ab
:09183d00000000000000000000a2
:20184600000000000000000000000000000000000000000000000000000000000000000082
:0a1866000000000000000000000078
:20187000000000000000000000000000000000000000000000000000000000000000000058
:091890000000000000000000004f
:2018990000000000000000000000000000000000000000000000000000000000000000002f
:0a18b9000000000000000000000025
:2018c300000000000004000000000000100000000000004000000000100000000000004061
:0918e300000000000001000000fb
:2018ec000000000000000000000000000000000000000000000000000000000000000000dc
:0a190c0000000000000000000000d1
:2019160000000000000c00000000000030000000000000c00000000030000000000000c0c5
:09193600000000000003000000a5
:20193f00000000000000000000000000000000000000000000000000000000000000000088
:0a195f00000000000000000000007e
:2019690000000000000000000000000000000000000000000000000000000000000000005e
:0919890000000000000000000055
:20199200000000000000000000000000000000000000000000000000000000000000000035
:0a19b200000000000000000000002b
:2019bc0000000000000000000000000000000000000000000000000000000000000000000b
:0919dc0000000000000000000002
:2019e5000000000000000000000000000000000000000000000000000000000000000000e2
:0a1a050000000000000000000000d7
:201a0f00000000000004000000000000100000000000004000000000100000000000004013
:091a2f00000000000001000000ad
:201a380000000000000000000000000000000000000000000000000000000000000000008e
:0a1a58000000000000000000000084
:201a6200000000000000000000000000000000000000000000000000000000000000000064
:091a82000000000000000000005b
:201a8b0000000000000000000000000000000000000000000000000000000000000000003b
:0a1aab000000000000000000000031
:201ab500000000000000000000000000000000000000000000000000000000000000000011
:091ad50000000000000000000008
:201ade000000000000000000000000000000000000000000000000000000000000000000e8
:0a1afe0000000000000000000000de
:201b08000000000000000000000000000000000000000000000000000000000000000000bd
:091b2800000000000000000000b4
:201b3100000000000000000000000000000000000000000000000000000000000000000094
:0a1b5100000000000000000000008a
:201b5b00000200000000000000000000000000000000000000000000000000000000000068
:091b7b0000000000000000000061
:201b8400000000000000000000000000000000000000000000000000000000000000000041
:0a1ba4000000000000000000000037
:201bae00000000000000000000000000000000000000000000000000000000000000000017
:091bce000000000000000000000e
:201bd7000000300000000000000000000000000000000000000000000000000000000000be
:0a1bf70000000000000000000000e4
:201c01000000000000000000000000000000000000000000000000000000000000000000c3
:091c2100000000000000000000ba
:201c2a0000000000000000000000000000000000000000000000000000000000000000009a
:0a1c4a000000000000000000000090
:201c5400000000000000000000000000000000000000000000000000000000000000000070
:091c740000000000000000000067
:201c7d00000000000000000000000000000000000000000000000000000000000000000047
:0a1c9d00000000000000000000003d
:201ca70000020000000000000000000000000000000000000000000000000000000000001b
:091cc70000000000000000000014
:201cd0000000000000000000000000000000000000000000000000000000000000000000f4
:0a1cf00000000000000000000000ea
:201cfa000000000000000000000000000000000000000000000000000000000000000000ca
:091d1a00000000000000000000c0
:201d23000000000000000000000000000000000000000000000000000000000000000000a0
:0a1d43000000000000000000000096
:201d4d00000000000000000000000000000000000000000000000000000000000000000076
:091d6d000000000000000000006d
:201d760000000000000000000000000000000000000000000000000000000000000000004d
:0a1d96000000000000000000000043
:201da000000000000000000000000000000000000000000000000000000000000000000023
:091dc0000000000000000000001a
:201dc9000000000000000000000000000000000000000000000000000000000000000000fa
:0a1de90000000000000000000000f0
:201df3000002000000000000000000000000000000000000000000000000000000000000ce
:091e1300000000000000000000c6
:201e1c000000000000000000000000000000000000000000000000000000000000000000a6
:0a1e3c00000000000000000000009c
:201e460000000000000000000000000000000000000000000000000000000000000000007c
:091e660000000000000000000073
:201e6f00000030000000000000000000000000000000000000000000000000000000000023
:0a1e8f000000000000000000000049
:201e9900000000000000000000000000000000000000000000000000000000000000000029
:091eb90000000000000000000020
:201ec200000000000000000000000000000000000000000000000000000000000000000000
:0a1ee20000000000000000000000f6
:201eec000000000000000000000000000000000000000000000000000000000000000000d6
:091f0c00000000000000000000cc
:201f15000000000000000000000000000000000000000000000000000000000000000000ac
:0a1f350000000000000000000000a2
:201f3f0000020000000000000000000000000000040000000000000000000000000000007c
:091f5f0000000000000000000079
:201f6800000000000000000000000000000000000000000000000000000000000000000059
:0a1f8800000000000000000000004f
:201f920000000000000000000000000000000000000000000000000000000000000000002f
:091fb20000000000000000000026
:201fbb00000000000000000000000000000000000000000000000000000000000000000006
:0a1fdb0000000000000000000000fc
:201fe5000000000000000000000000000000000000000000000000000000000000000000dc
:09200500000000000000000000d2
:20200e000000000000000000000000000000000000000000000000000000000000000000b2
:0a202e0000000000000000000000a8
:20203800000000000000000000000000000000000000000000000000000000000000000088
:092058000000000000000000007f
:2020610000000000000000000000000000000000000000000000000000000000000000005f
:0a2081000000000000000000000055
:20208b00000200000000000000000000000000000000000000000000000000000000000033
:0920ab000000000000000000002c
:2020b40000000000000000000000000000000000000000000000000000000000000000000c
:0a20d4000000000000000000000002
:2020de000000000000000000000000000000000000000000000000000000000000000000e2
:0920fe00000000000000000000d9
:20210700000030000000000000000000000000000000000000000000000000000000000088
:0a21270000000000000000000000ae
:2021310000000000000000000000000000000000000000000000000000000000000000008e
:0921510000000000000000000085
:20215a00000000000000000000000000000000000000000000000000000000000000000065
:0a217a00000000000000000000005b
:2021840000000000000000000000000000000000000000000000000000000000000000003b
:0921a40000000000000000000032
:2021ad00000000000000000000000000000000000000000000000000000000000000000012
:0a21cd000000000000000000000008
:2021d7000002000000000000000000000000000000000000000000000000000000000000e6
:0921f700000000000000000000df
:202200000000000000000000000000000000000000000000000000000000000000000000be
:0a22200000000000000000000000b4
:20222a00000000000000000000000000000000000000000000000000000000000000000094
:09224a000000000000000000008b
:2022530000000000000000000000000000000000000000000000000000000000000000006b
:0a2273000000000000000000000061
:20227d00000000000000000000000000000000000000000000000000000000000000000041
:09229d0000000000000000000038
:2022a600000000000000000000000000000000000000000000000000000000000000000018
:0a22c600000000000000000000000e
:2022d0000000000000000000000000000000000000000000000000000000000000000000ee
:0922f000000000000000000000e5
:2022f9000000000000000000000000000000000000000000000000000000000000000000c5
:0a23190000000000000000000000ba
:20232300000200000000000000000000000000000000000000000000000000000000000098
:0923430000000000000000000091
:20234c00000000000000000000000000000000000000000000000000000000000000000071
:0a236c000000000000000000000067
:20237600000000000000000000000000000000000000000000000000000000000000000047
:092396000000000000000000003e
:20239f000000300000000000000000000000000000000000000000000000000000000000ee
:0a23bf000000000000000000000014
:2023c9000000000000000000000000000000000000000000000000000000000000000000f4
:0923e900000000000000000000eb
:2023f2000000000000000000000000000000000000000000000000000000000000000000cb
:0a24120000000000000000000000c0
:20241c000000000000000000000000000000000000000000000000000000000000000000a0
:09243c0000000000000000000097
:20244500000000000000000000000000000000000000000000000000000000000000000077
:0a246500000000000000000000006d
:20246f00000200000000000000000000000000000400000000000000000000000000000047
:09248f0000000000000000000044
:20249800000000000000000000000000000000000000000000000000000000000000000024
:0a24b800000000000000000000001a
:2024c2000000000000000000000000000000000000000000000000000000000000000000fa
:0924e200000000000000000000f1
:2024eb000000000000000000000000000000000000000000000000000000000000000000d1
:0a250b0000000000000000000000c6
:202515000000000000000000000000000000000000000000000000000000000000000000a6
:092535000000000000000000009d
:20253e0000000000000000000000000000000000000000000000000000000000000000007d
:0a255e000000000000000000000073
:20256800000000000000000000000000000000000000000000000000000000000000000053
:092588000000000000000000004a
:2025910000000000000000000000000000000000000000000000000000000000000000002a
:0a25b1000000000000000000000020
:2025bb000002000000000000000000000000000000000000000000000000000000000000fe
:0925db00000000000000000000f7
:2025e4000000000000000000000000000000000000000000000000000000000000000000d7
:0a26040000000000000000000000cc
:20260e000000000000000000000000000000000000000000000000000000000000000000ac
:09262e00000000000000000000a3
:20263700000030000000000000000000000000000000000000000000000000000000000053
:0a2657000000000000000000000079
:20266100000000000000000000000000000000000000000000000000000000000000000059
:0926810000000000000000000050
:20268a00000000000000000000000000000000000000000000000000000000000000000030
:0a26aa000000000000000000000026
:2026b400000000000000000000000000000000000000000000000000000000000000000006
:0926d400000000000000000000fd
:2026dd000000000000000000000000000000000000000000000000000000000000000000dd
:0a26fd0000000000000000000000d3
:202707000002000000000000000000000000000000000000000000000000000000000000b0
:09272700000000000000000000a9
:20273000000000000000000000000000000000000000000000000000000000000000000089
:0a275000000000000000000000007f
:20275a0000000000000000000000000000000000000000000000000000000000000000005f
:09277a0000000000000000000056
:20278300000000000000000000000000000000000000000000000000000000000000000036
:0a27a300000000000000000000002c
:2027ad0000000000000000000000000000000000000000000000000000000000000000000c
:0927cd0000000000000000000003
:2027d6000000000000000000000000000000000000000000000000000000000000000000e3
:0a27f60000000000000000000000d9
:202800000000000000000000000000000000000000000000000000000000000000000000b8
:09282000000000000000000000af
:2028290000000000000000000000000000000000000000000000000000000000000000008f
:0a2849000000000000000000000085
:20285300000200000000000000000000000000000000000000000000000000000000000063
:092873000000000000000000005c
:20287c0000000000000000000000000000000000000000000000000000000000000000003c
:0a289c000000000000000000000032
:2028a600000000000000000000000000000000000000000000000000000000000000000012
:0928c60000000000000000000009
:2028cf000000300000000000000000000000000000000000000000000000000000000000b9
:0a28ef0000000000000000000000df
:2028f9000000000000000000000000000000000000000000000000000000000000000000bf
:09291900000000000000000000b5
:20292200000000000000000000000000000000000000000000000000000000000000000095
:0a294200000000000000000000008b
:20294c0000000000000000000000000000000000000000000000000000000000000000006b
:09296c0000000000000000000062
:20297500000000000000000000000000000000000000000000000000000000000000000042
:0a2995000000000000000000000038
:20299f00000200000000000000000000000000000400000000000000000000000000000012
:0929bf000000000000000000000f
:2029c8000000000000000000000000000000000000000000000000000000000000000000ef
:0a29e80000000000000000000000e5
:2029f2000000000000000000000000000000000000000000000000000000000000000000c5
:092a1200000000000000000000bb
:202a1b0000000000000000000000000000000000000000000000000000000000000000009b
:0a2a3b000000000000000000000091
:202a4500000000000000000000000000000000000000000000000000000000000000000071
:092a650000000000000000000068
:202a6e00000000000000000000000000000000000000000000000000000000000000000048
:0a2a8e00000000000000000000003e
:202a980000000000000000000000000000000000000000000000000000000000000000001e
:092ab80000000000000000000015
:202ac1000000000000000000000000000000000000000000000000000000000000000000f5
:0a2ae10000000000000000000000eb
:202aeb000002000000000000000000000000000000000000000000000000000000000000c9
:092b0b00000000000000000000c1
:202b14000000000000000000000000000000000000000000000000000000000000000000a1
:0a2b34000000000000000000000097
:202b3e00000000000000000000000000000000000000000000000000000000000000000077
:092b5e000000000000000000006e
:202b670000003000000000000000000000000000000000000000000000000000000000001e
:0a2b87000000000000000000000044
:202b9100000000000000000000000000000000000000000000000000000000000000000024
:092bb1000000000000000000001b
:202bba000000000000000000000000000000000000000000000000000000000000000000fb
:0a2bda0000000000000000000000f1
:202be4000000000000000000000000000000000000000000000000000000000000000000d1
:092c0400000000000000000000c7
:202c0d000000000000000000000000000000000000000000000000000000000000000000a7
:0a2c2d00000000000000000000009d
:202c370000020000000000000000000000000000000000000000000000000000000000007b
:092c570000000000000000000074
:202c6000000000000000000000000000000000000000000000000000000000000000000054
:0a2c8000000000000000000000004a
:202c8a0000000000000000000000000000000000000000000000000000000000000000002a
:092caa0000000000000000000021
:202cb300000000000000000000000000000000000000000000000000000000000000000001
:0a2cd30000000000000000000000f7
:202cdd000000000000000000000000000000000000000000000000000000000000000000d7
:092cfd00000000000000000000ce
:202d06000000000000000000000000000000000000000000000000000000000000000000ad
:0a2d260000000000000000000000a3
:202d3000000000000000000000000000000000000000000000000000000000000000000083
:092d50000000000000000000007a
:202d5900000000000000000000000800000000000000000000000000000000000000000052
:0a2d79000000000020000000000030
:202d830000020000000000000000000000000000000000000000000000000000000000002e
:092da30000000000000000000027
:202dac00000000000000000000000000000000000000000000000000000000000000000007
:0a2dcc0000000000000000000000fd
:202dd60000400000000000000000000000000000000000000000000000000000000000009d
:092df600000000000000000000d4
:202dff000003b0000000000000000000000000000000000000000000000000000000000001
:0a2e1f0000000000000000000000a9
:202e2900200000000000000000000000000000000000000000000000000000000000000069
:092e490000000000000000000080
:202e520003000000000000000000000000000000000000000000000000000000000000005d
:0a2e72000000000000000000000056
:202e7c00000000000000000000000000000000000000000000000000000000000000000036
:092e9c000000000000000000002d
:202ea50000000000000000000000000000000000000000000000000000000000000000000d
:0a2ec5000000000000000000000003
:202ecf000002000000000000000000000000000004000000000000000000000000000000dd
:092eef00000000000000000000da
:202ef8000000000000000000000000000000000000000000000000000000000000000000ba
:0a2f180000000000000000000000af
:022f22000000ad
:022f2400110298
:022f26000101a7
:202f2800000000000000000000000000000000000000000000000000000000400000000049
:092f48000001000000000000007f
:202f5100000000000000000000000000000000000000000000000000000000000000000060
:0a2f71000000000000000000000056
:202f7b000000000000000000000000000000000000000000000000000000008000000000b6
:092f9b000002000000000000002b
:202fa40000000000000000000000000000000000000000000000000000000000000000000d
:0a2fc4000000000000000000000003
:202fce0000000000000000000000000000000000000000000000002000780040000080008b
:092fee00000100000000000000d9
:202ff7000000000000000000000000000000000000000000000000030004000000000c00a7
:0a30170000000000000000000000af
:203021000000000000080000000000002000000000080000000000002000000000000080bf
:0930410000000000000200000084
:20304a00000000000000000000000000000000000000000000000000000000000000000066
:0a306a00000000000000000000005c
:2030740000000000000c00000000000030000000000c00000000000030700000000000c094
:09309400e0000000000300000050
:20309d0000000000000000000000000000000000000000000000000000040000000000000f
:0a30bd0010000000000000000000f9
:2030c7000000000000000000000000000000000000000000000000300000000000000000b9
:0930e700000000000000000000e0
:2030f0000000000000000000000000000000000000000000000000010000000400000000bb
:0a31100000000000000000000000b5
:20311a00000000000000000000000000000000000000000000000000000000000000000095
:09313a000000000000000000008c
:20314300000000000000000000000000000000000000000000000000000000080000000064
:0a3163000000000000000000000062
:20316d00000000000008000000000000200000000008000000000000200000000000008072
:09318d0000000000000200000037
:20319600000000000000000000000000000000000000000000000000000000040000000015
:0a31b600000000000000000000000f
:2031c000000000000000000000000000000000000000000000004021801a000000a03fc055
:0931e000000000000000000000e6
:2031e90000002000000000000000000000000000000000000800000240000000000000302c
:0a32090000000000000000000000bb
:2032130000000000000000000000000000000000000000000000c3c4e81a00165001770034
:09323300600050000000000000e2
:20323c000000000000000000000000000000000000000000000003c000500000400000fc23
:0a325c000000010000000000000067
:2032660000000000000000000000000000000000000000000001c3c4a99a000000011f80dd
:093286000000000000000000003f
:20328f000000000000000000000000000000000000000000000003c01010000000000b78b9
:0a32af000000000000000000000015
:2032b90000030000000000000000000000000000000000000000c3c4a8180000405a77405a
:0932d900000000000000000000ec
:2032e2000000000000000000000000000000000000000000000003c010100000000200b037
:0a33020000000000000000000000c1
:20330c0000000000000000000000000000000000000000000000c3c5e00000000000002019
:09332c0000000000000000000098
:203335000000200000000000000000000000000000000000000003c0000000000000000194
:0a335500400000000000000000002e
:20335f0000000000000000000000000000000000000000000000c285a0000000025a0060ab
:09337f006c0000000000000000d9
:2033880000000000000000000000000000000000000000000000028008000000000a502120
:0a33a8004280000000000000000059
:2033b20000000000000000000000000000000000000000000000c285a018000002691fb6bc
:0933d2006800000000000000008a
:2033db000000000000000000000000000000000000000000000002801a0000000006904060
:0a33fb004000000000000000000088
:2034050000000000000000000000000000000000000000000000c285e181000000000020de
:093425000001000000000000009d
:20342e00000000000000000000000000000000000000000000000280180080000000000064
:0a344e00428620000000000000008c
:20345800000000000000000000000000050a00000000000400008284c00100000100020671
:0934780000000000000000a000ab
:2034810000002000000000000000000000d9000000000000000081400800840004000040a1
:0a34a1002240000000000d100000a2
:2034ab00000000000000000000000000000000140000000000003817f50aa0140169162645
:0934cb0064000000000000000094
:2034d4000000000000000000000000000000000040000000000003c14900a00048069b0200
:0a34f400664000000000000b00001d
:2034fe00000000000000000000000000000e000000000000001130d7e5010000056916001e
:09351e00000000000000000000a4
:203527000000000000000000000000000030000000000000000003082f00800008069100fb
:0a354700000000000000000000007a
:20355100000300000000000000003f76800b00000000000000000000051c0000010f1606ca
:0935710000000000000000000051
:20357a000000000000000000020003fd58d1e000000000000000000000510000000f004086
:0a359a000000000000000000000027
:2035a400000000000000000000101016800000000000000000000146a018000001691604ce
:0935c400040000000000000000fa
:2035cd000000200000000000000001803e00000000000000000000142001000000069140f3
:0a35ed002280000000000000000032
:2035f70000000000000000000011a055c001000000000000000020f59000000000551300e0
:0936170000000022ba685800000e
:203620000000000000000000000800840b00f000000000000000030f680000000005500034
:0a3640000000000028ad800000002b
:20364a00000000000000000000000000000800000000000000001416a1800000403c000091
:09366a0000000000000000000057
:20367300000000000000000000000000000000000000000000000140200800000003c0000b
:0a369300000000000000000000002d
:20369d0000000000000000000000000000000000000000000010af47b0190000005a5a008a
:0936bd0000000000000000000400
:2036c6000000000000000000000000000000000000000000000212fc18008000000a50a43e
:0a36e600000000000000000000805a
:2036f000000000000000000000004001800000000000000000004001e00000400100021481
:0937100000000004001850a000a4
:20371900000020000000000000010000100000000000000008010000000000000400004012
:0a37390000000010000109900000dc
:20374300000000000000000000005a64cf80000000000000000043c5c01800000169970078
:0937630028000005a64a18000028
:20376c000000000000000000000001a4c078000000000000000003c01070000000069b007c
:0a378c00000000001a6d008b000021
:20379600000000000000000000005a45c00000000000000020005a65800000000169178054
:0937b60000000005a6481980007e
:2037bf000000000000000000500001a5c00001c000000000000001a64000000000069740af
:0a37df00000000001a440d10000065
:2037e900000300000000000000005a64c000000000000000000043c5e0010000013317c04b
:0938090000000007c06a00000085
:203812000000000000000000000001a4d0000000000000000000003c00008000000ccf7812
:0a383200028000003c350000000099
:20383c00000000000000000000007c2ec519000000000000000003c4000000000033164094
:09385c0000000002a84800000071
:203865000000200000000000000003c0d050d000000000000000003c00000000000ccf3425
:0a388500000600002a810000000088
:20388f00000000000000000000003324000b00000000000000003c1e08000000403c0026b3
:0938af000400010035c9180000f5
:2038b800000000000000000000000331c000800000000000000003c0009000000003c00165
:0a38d80042800001218190000000f1
:2038e20000000000000000000010011cd80a00000000000400003c160000000000f010362b
:09390200680000000000018000d3
:20390b000000000000000000000000002f10000000000000000003c000000000000f00810a
:0a392b004000000000000000000052
:20393500000000000000000000000286118000000000000000100f0000190000005a007651
:0939550004000003c14000000061
:20395e000000000000000000000000142900a00000000000000000f000019000000a502968
:0a397e00420000003c0000000000c1
:20398800000000100031668000004000c00000000000000000004001c0000000010006945c
:0939a800280000040000000000ea
:2039b1000000204000040000000100001000000000000000000100001000b00004000000bc
:0a39d10000000010002c00000000b0
:2039db0000000016996a004000005a44c00000000000000000015a6488000000016996804e
:0939fb0000000005a65e000000ba
:203a04000000000069b01428000001a75000000000000000000001a4c010000000069d003d
:0a3a2400028000001a740000000088
:203a2e00000000169922000000005a44e00000000000000000015a45c000000001699200cd
:093a4e0000000005a45e00000068
:203a57000000000069501400000001a6d030000000000000010001a5c000000000069101dc
:0a3a7700400000001a5c000000008f
:203a8100000300169168068000005a64c18000000000000000015a64c0000000013317c004
:093aa1002c000004cc5f80100031
:203aaa000000000069d00000000001a5d000000100000000000001a4d0000101000ccd7983
:0a3aca0043400400333ca108000053
:203ad400000000133925c00000004ce5ff0100000000000000004ce4d500000000aa1200af
:093af40000000002a84c59c000ba
:203afd0000002000cc979e00000003335e70e00000000000000013325ed80000000aa0403f
:0a3b1d00000000002a8101100000e2
:203b27000000000aa160600000002a84c00000000000000000002a85c70a0000403c0000a9
:093b470000000000000000000075
:203b500000000000aa000000000002a80000000000000000000012a80001b0000003c000d3
:0a3b7000000000000000000000004b
:203b7a00000000000000000000100f00080000000000000000003c0e000a80000000000030
:093b9a0000000003c0c081a0007e
:203ba3000000000000000000000000f000f0000000000000000003c000010400000000005a
:0a3bc300000000003c0005000000b7
:203bcd000000000f0300060000003c0c0819000000000000000216801018000000f0180689
:093bed0004000000000001b0001a
:203bf60000000000f0080000000003c020f0f00000000000000002940d000400000f002c12
:0a3c1600020000000000000a000098
:203c2000000000000000000000000000000000000000000000003c1e000000000100803673
:093c400000000004000e800000e9
:203c49000000200000000000000000000000000000000000080003c0000000000400030168
:0a3c69004000001000000b000000f6
:203c730000000000000000280000000000080000000000000000000000000080016996a0e1
:093c930068000005a45c000000bb
:203c9c0000000000000000000000000000010000000000000000000000000014000691015b
:0a3cbc0042c000001a6d0000000075
:203cc60000000000000000000000000000000000000000000000000000000000016916005e
:093ce60068000005a44c18000060
:203cef0000000000000000000000000000000000000000000000000000000000000695001a
:0a3d0f00000000001a64000000002c
:203d190000030000000000000000000000000000000000000000000000000000016992008b
:093d39002c000005a44c00000060
:203d4200000000000000000000000000000000000000000000000000000000010006914089
:0a3d6200068004001a6d0000001036
:203d6c00000000000000000000003c060000000000000000000000000000000001339240ef
:093d8c00000000043e4018a000f4
:203d95000000200000000000000043c000000000000000000000000000000000000cc9789e
:0a3db5000000000003cc05800000b0
:203dbf000000000000000000000000000000000000000000000000000000000000339640db
:093ddf0000050002a84e000000de
:203de80000000000000000000000000000000000000000000000000000000000000cc128c6
:0a3e0800024000002a81050a0000b4
:203e1200000000000000000000000000000000000000000000000000000000000000000090
:093e320000000100f00050000046
:203e3b00000000000000000000000000000000000000000000000000000000000000000067
:0a3e5b00000000000f00b00f00008f
:203e650000000000000000000000000000000000000000000000000000010000000000003c
:093e8500600000000000000000d4
:203e8e000000000000000000000000000000000000000000000000000000d0000000000044
:0a3eae000002000000000000000008
:203eb800000000000000000000000000000000000000000000009414e800000001000380d6
:093ed8000000000021cd00b00043
:203ee1000000200000000000000000000000000000000000000021401030000004000000fc
:0a3f0100424000000025cf1e000022
:203f0b00000000000000000000000000000000000000000000000000000000140169920086
:093f2b000000011001e80008008b
:203f34000000000000000000000000000000000000000000000000000000000040069b008c
:0a3f54000000008010028000400011
:203f5e000000000000000000000000000000000000000000000000000001000801691300bd
:093f7e000000000000000000003a
:203f870000000000000000000000000000000000000000000000000000008000800699403b
:0a3fa7000000000000000000000010
:203fb10000030000000000000000000000000000000000000000000000180000000f1000b6
:093fd100040000000000000000e3
:203fda00000000000000000000000000000000000000000000000000000000000000f000d7
:0a3ffa0002000000000000000000bb
:2040040000000000000000000000000000000000000000280000000000000000403c58049c
:0940240000000000000050000043
:20402d00000020000000000000000000000000000000000000000000000000000003c00090
:0a404d002000000000000000000049
:20405700000000000000000040000000000000000000000000019a560000000000f07806aa
:0940770000000000000000000040
:204080000000000000000000020000000000000000000000000002580a000000000f00802b
:0a40a000000000000000000a00000c
:2040aa000000000000000000000000000000000000000000000000000800000000f070008e
:0940ca00000000000000000000ed
:2040d30000000000000000000000000000000000000000000000000000f00000000f0000ce
:0a40f3000240000000000009000078
:2040fd000000000000000000000000000000000000000000000000000000000000f010148f
:09411d0000000000000050000049
:2041260000000000000000000000000000000000000000000000000000000000000f0080ea
:0a414600000000000000000000006f
:20415000000000000000000000000000000000000000000000004000000e004001008280be
:09417000000000000000800000c6
:204179000000200000000000700000000000000000000000080100004000a00800000500a0
:0a419900000000000000010000001b
:2041a300000000000000000000000000000000000000000000015a64000a0000030a138093
:0941c3000000500002de000001c2
:2041cc0040000000000000000000000000000000000000000004025840700000000a00314a
:0a41ec00c0000100103ec0000004f6
:2041f600000000000000002800000000000000000000000000005a448d9a0000030f12a6f2
:094216000400300140de700000dc
:20421f000000000000000001000000000000000000000000000c01a540500000000f0040ed
:0a423f00424002000001b0800000c0
:20424900000300000000000000000000000000000000000000815a45881b0000030f12a0cb
:094269006000000043ec000000bd
:204272000000000000000000000000000000000000000000000001a75050a000000f0040f5
:0a42920044000000000fd0000000ff
:20429c00000000000000000000000000000001400000000000035a4480000000030f17a0d7
:0942bc006000011001eed9a00020
:2042c5000000200000000000700000000000000800000000000001a740000000000f000248
:0a42e500c400000010009500000066
:2042ef00000000000000000000000000000000000000000000005a6400000000030f178048
:09430f0000000308f00001a00009
:2043180000000000000000000000000000000000000000000000425940000000000f00009b
:0a433800000000400f00000000002c
:20434200000000000000000000000000000000000000000000005a6480000000030a16c03a
:09436200600000000000000000f2
:20436b000000000000000000000000000000000000000000000041a540020000000a00649c
:0a438b00000000000000000a00001e
:20439500000000000000000000000000000000000000000000005a6580000000030f17861a
:0943b500640000000000b9b00032
:2043be000000000000000000000000000000000000000000000201a750000000004f004056
:0a43de00020000000000058a000044
:2043e800000000000000000000000000000000000000000000005a6483810000020a120ec7
:09440800040000000000000000a7
:2044110000002000000000000000000000000000000000000000c1a7d008a0000305006023
:0a443100220000000000000000005f
:20443b00000000000000000000000000000000000000000000041544800000000000000084
:09445b0000005000000000000008
:204464000000000000000000000000000000000000000000000001540000000000000000e3
:0a448400000001000000000000002d
:20448e00000000000000000000000000000000000000000000000000000000000000001cf2
:0944ae00000020000000000000e5
:2044b7000000000000000000000000000000000000000000000000000000000000000000e5
:0a44d70000000300000000000000d8
:2044e1000003000000000000000000000000000000000000000000000000000000000000b8
:09450100000000000000000000b1
:20450a00000000000000000000000000000000000000000000000000000000000000000091
:0a452a000000000000000000000087
:20453400000000000000000000000000000000000000000000000000000000000000000067
:094554000000000000000000005e
:20455d0000002000000000000000000000000000000000000000000000000000000000001e
:0a457d000000000000000000000034
:20458700000000000000000000000000000000000000000000000000000000000000000014
:0945a7000000000000000000000b
:2045b0000000000000000000000000000000000000000000000000000000000000000000eb
:0a45d00000000000000000000000e1
:2045da000000000000000000000000000000000000000000000000000000000000000000c1
:0945fa00000000000000000000b8
:20460300000000000000000000000000000000000000000000000000000000000000000097
:0a462300000000000000000000008d
:20462d000000000000000000000000000000000000000000000000000180000000000000ec
:09464d0000000000000000000064
:2046560000000000000000000000000000000000000000000000000000080000000000003c
:0a467600000000000000000000003a
:02468000000038
:02468200110322
:02468400010132
:204686000000000000000000100000000000004000000000000000000000000000000000c4
:0946a6000000000000000000000b
:2046af000000000000000000000000000000000000000000000000000000000000000000eb
:0a46cf0000000000000000000000e1
:2046d9000000000000000000200000000038008000000000000000000000000000000000e9
:0946f900000000000000000000b8
:20470200000000000000000000000000000000000000000000000000000000000000000097
:0a472200000000000000000000008d
:20472c000000000004000000100000300000004000000000000000000000000000000000e9
:09474c0000000000000000000064
:204755000000000000800000000000020000000000000000000000000000000000000000c2
:0a477500000000000000000000003a
:20477f000000000000080d000000000020000000000800000000000020000000000000803d
:09479f000000000000020000000f
:2047a8000000000000000010000000000000000000000000000000000000000000000000e1
:0a47c80000000000000000000000e7
:2047d20000000000000c00000000000030000000000c00000000000030000000000000c08f
:0947f200000000000003000000bb
:2047fb0000000000000000000000000000000000000000000000000000000000000000009e
:0a481b000000000000000000000093
:2048250000000000080000000000000000000000000000000000000000000000000000006b
:094845000000000000000000006a
:20484e00000000000000000001000000000000000000000000000000000000000000000049
:0a486e000000000000000000000040
:20487800000000000000000000000000000000000000000000000000000000000000000020
:0948980000000000000000000017
:2048a1000000000000000000020000000000000000000000000000000000000000000000f5
:0a48c10000000000000000000000ed
:2048cb000000000000080e00000000002000000000080000000000002000000000000080ef
:0948eb00000000000002000000c2
:2048f4000000000000000000010000000000000000000000000000000000000000000000a3
:0a4914000000000000000000000099
:20491e00000000000000000000000000000000000000000000000000000000000000000079
:09493e0000000000000000000070
:20494700000000000000000000000000000000000000000000000000000000000000000050
:0a4967000000000000000000000046
:20497100000000000000000000000000000000000000000000000000000000000000000026
:094991000000000000000000001d
:20499a000000000000000000000000000000000000000000000000000000000000000000fd
:0a49ba0000000000000000000000f3
:2049c4000000000000000000000000000000000000000000000000000000000000000000d3
:0949e400000000000000000000ca
:2049ed000000000000000000000000000000000000000000000000000000000000000000aa
:0a4a0d00000000000000000000009f
:204a170000020000000000000000000000000000000000000000000000000000000000007d
:094a370000000000000000000076
:204a4000000000000000000000000000000000000000000000000000000000000000000056
:0a4a6000000000000000000000004c
:204a6a0000000000000000000000000000000000000000000000000000000000000000002c
:094a8a0000000000000000000023
:204a93000000300000000000000000000000000000000000000000000000000000000000d3
:0a4ab30000000000000000000000f9
:204abd000000000000000000000000000000000000000000000000000000000000000000d9
:094add00000000000000000000d0
:204ae6000000000000000000000000000000000000000000000000000000000000000000b0
:0a4b060000000000000000000000a5
:204b1000000000000000000000000000000000000000000000000000000000000000000085
:094b30000000000000000000007c
:204b390000000000000000000000000000000000000000000000000000000000000000005c
:0a4b59000000000000000000000052
:204b6300000200000000000000000000000000000000000000000000000000000000000030
:094b830000000000000000000029
:204b8c00000000000000000000000000000000000000000000000000000000000000000009
:0a4bac0000000000000000000000ff
:204bb6000000000000000000000000000000000000000000000000000000000000000000df
:094bd600000000000000000000d6
:204bdf000000000000000000000000000000000000000000000000000000000000000000b6
:0a4bff0000000000000000000000ac
:204c090000000000000000000000000000000000000000000000000000000000000000008b
:094c290000000000000000000082
:204c3200000000000000000000000000000000000000000000000000000000000000000062
:0a4c52000000000000000000000058
:204c5c00000000000000000000000000000000000000000000000000000000000000000038
:094c7c000000000000000000002f
:204c850000000000000000000000000000000000000000000000000000000000000000000f
:0a4ca5000000000000000000000005
:204caf000002000000000000000000000000000000000000000000000000000000000000e3
:094ccf00000000000000000000dc
:204cd8000000000000000000000000000000000000000000000000000000000000000000bc
:0a4cf80000000000000000000000b2
:204d0200000000000000000000000000000000000000000000000000000000000000000091
:094d220000000000000000000088
:204d2b00000030000000000000000000000000000000000000000000000000000000000038
:0a4d4b00000000000000000000005e
:204d550000000000000000000000000000000000000000000000000000000000000000003e
:094d750000000000000000000035
:204d7e00000000000000000000000000000000000000000000000000000000000000000015
:0a4d9e00000000000000000000000b
:204da8000000000000000000000000000000000000000000000000000000000000000000eb
:094dc800000000000000000000e2
:204dd1000000000000000000000000000000000000000000000000000000000000000000c2
:0a4df10000000000000000000000b8
:204dfb00000200000000000000000000000000000000000080000000000000000000000016
:094e1b000000000000000000008e
:204e240000000000000000000000000000000000000000000000000000000000000000006e
:0a4e44000000000000000000000064
:204e4e000000000000000000000000000000008000000000000000000000000000000000c4
:094e6e000000000000000000003b
:204e770000000000000000000000000000000000000000000000000000000000000000001b
:0a4e97000000000000000000000011
:204ea1000000000000000000000000000000000000000000000000000000000000000000f1
:094ec100000000000000000014d4
:204eca000000000000000000000000000000000000000000000000000000000000000000c8
:0a4eea00000000000000000000803e
:204ef40000000000000000000000000000000000000000000000000000000000000000009e
:094f140000000000000000000094
:204f1d00000000000000000000000000000000000000000000000000000000000000000074
:0a4f3d00000000000000000000006a
:204f4700000200000000000000000000000000000000000000000000000000000000000048
:094f670000000000000000000041
:204f7000000000000000000000000000000000000000000000000000000000000000000021
:0a4f90000000000000000000000017
:204f9a000000000000000000000000000000000000000000000000000000000000000000f7
:094fba00000000000000000000ee
:204fc30000003000000000028000000000000000000000000000000000000000000000001c
:0a4fe30000000000000000000000c4
:204fed000000000000000000000000000000000000000000000000000000000000000000a4
:09500d000000000000000000009a
:2050160000000000000000000000000000000000000000000000000000000000000000007a
:0a5036000000000000000000000070
:20504000000000000000000000000000000000000000000000000000000000000000000050
:0950600000000000000000000047
:20506900000000000000000000000000000000000000000000000000000000000000000027
:0a508900000000000000000000001d
:205093000002000000000000000000000000000000000000000000000000000000000000fb
:0950b300000000000000000000f4
:2050bc000000000000000000000000000000000000000000000000000000000000000000d4
:0a50dc0000000000000000000000ca
:2050e6000000000000000000000000000000000000000000000000000000000000000000aa
:09510600000000000000000000a0
:20510f00000000000000000000000000000000000000000000000000000000000000000080
:0a512f000000000000000000000076
:20513900000000000000000000000000000000000000000000000000000000000000000056
:095159000000000000000000004d
:2051620000000000000000000000000000000000000000000000000000000000000000002d
:0a5182000000000000000000000023
:20518c000000000000000010000000000000000000000000000000000000000000000000f3
:0951ac00000000000000000000fa
:2051b50000000000000000008000000000000000000000000000000000000000000000005a
:0a51d50000000000000000000000d0
:2051df000002000000000000000000000000000000000000000000000000000000000000ae
:0951ff00000000000000000000a7
:20520800000000000000000000000000000000000000000000000000000000000000000086
:0a522800000000000000000000007c
:2052320000000000000000000000000000000000000000000000000000000000000000005c
:0952520000000000000000000053
:20525b00000030000000000000000000000000000000000000000000000000000000000003
:0a527b000000000000000000000029
:20528500000000000000000000000000000000000000000000000000000000000000000009
:0952a50000000000000000000000
:2052ae000000000000000000000000000000000000000000000000000000000000000000e0
:0a52ce0000000000000000000000d6
:2052d8000000000000000000000000000000000000000000000000000000000000000000b6
:0952f800000000000000000000ad
:2053010000000000000000000000000000000000000000000000000000000000000000008c
:0a5321000000000000000000000082
:20532b000002000000000000000000000000000000000000800000000000000000000000e0
:09534b0000000000000000000059
:20535400000000000000000000000000000000000000000000000000000000000000000039
:0a537400000000000000000000002f
:20537e0000000000000000000000000000000000000000000000000000000000000000000f
:20570f00000200000000000000000000000000000000000000000000000000000000000078
:09572f0000000000000000000071
:20573800000000000000000000000000000000000000000000000000000000000000000051
:0a5758000000000000000000000047
:20576200000000000000000000000000000000000000000000000000000000000000000027
:095782000000000000000000001e
:20578b000000300000000000000000000000000000000000000000000000000000000000ce
:0a57ab0000000000000000000000f4
:2057b5000000000000000000000000000000000000000000000000000000000000000000d4
:0957d500000000000000000000cb
:2057de000000000000000000000000000000000000000000000000000000000000000000ab
:0a57fe0000000000000000000000a1
:20580800000000000000000000000000000000000000000000000000000000000000000080
:0958280000000000000000000077
:20583100000000000000000000000000000000000000000000000000000000000000000057
:0a585100000000000000000000004d
:20585b000002000000000000000000000000000000000000800000000000000000000000ab
:09587b0000000000000000000024
:20588400000000000000000000000000000000000000000000000000000000000000000004
:0a58a40000000000000000000000fa
:2058ae000000000000000000200000000000000000000000000000000000000000000000ba
:0958ce00000000000000000000d1
:2058d7000000000000000000040000000000000000000000000000000000000000000000ad
:0a58f70000000000000000000000a7
:20590100000000000000000000000000000000000000000000000000000000000000000086
:095921000000000000000000007d
:20592a0000000000000000000000000000000000000000000000000000000000000000005d
:0a594a000000000000000000000053
:20595400000000000000000000000000000000000000000000000000000000000000000033
:095974000000000000000000002a
:20597d0000000000000000000000000000000000000000000000000000000000000000000a
:0a599d000000000000000000000000
:2059a7000002000000000000000000000000000000000000000000000000000000000000de
:0959c700000000000000000000d7
:2059d0000000000000000000000000000000000000000000000000000000000000000000b7
:0a59f00000000000000000000000ad
:2059fa0000000000000000000000000000000000000000000000000000000000000000008d
:095a1a0000000000000000000083
:205a2300000030000000000000000000000000000000000000000000000000000000000033
:0a5a43000000000000000000014018
:205a4d00000000000000000000000000000000000000000000000000000000000000000039
:095a6d0000000000000000000030
:205a7600000000000000000000000000000000000000000000000000000000000000000010
:0a5a96000000000000000000000006
:205aa0000000000000000000000000000000000000000000000000000000000000000000e6
:095ac000000000000000000000dd
:205ac9000000000000000000000000000000000000000000000000000000000000000000bd
:0a5ae90000000000000000000000b3
:205af300000200000000000000000000000000000000000000000000000000000000000091
:095b130000000000000000000089
:205b1c00000000000000000000000000000000000000000000000000000000000000000069
:0a5b3c00000000000000000000005f
:205b460000000000000000000000000000000000000000000000000000000000000000003f
:095b660000000000000000000036
:205b6f00000000000000000000000000000000000000000000000000000000000000000016
:0a5b8f00000000000000000000000c
:205b99000000000000000000000000000000000000000000000000000000000000000000ec
:095bb900000000000000000000e3
:205bc2000000000000000000000000000000000000000000000000000000000000000000c3
:0a5be20000000000000000000000b9
:205bec00000000000000000000000000000000000000000000000000000000000000000099
:095c0c000000000000000000008f
:205c150000000000000000000000000000000000000000000000000000000000000000006f
:0a5c35000000000000000000000065
:205c3f00000200000000000000000000000000000000000000000000000000000000000043
:095c5f000000000000000000003c
:205c680000000000000000000000000000000000000000000000000000000000000000001c
:0a5c88000000000000000000000012
:205c92000000000000000010000000000000000000000000000000000000000000000000e2
:095cb200000000000000000000e9
:205cbb00000030000000000080000000000000000000000000000000000000000000000019
:0a5cdb0000000000000000000000bf
:205ce50000000000000000000000000000000000000000000000000000000000000000009f
:095d050000000000000000000095
:205d0e00000000000000000000000000000000000000000000000000000000000000000075
:0a5d2e00000000000000000000006b
:205d380000000000000000000000000000000000000000000000000000000000000000004b
:095d580000000000000000000042
:205d6100000000000000000000000000000000000000000000000000000000000000000022
:0a5d81000000000000000000000018
:205d8b00000200000000000000000000000000000000000080000000000000000000000076
:095dab00000000000000000000ef
:205db4000000000000000000000000000000000000000000000000000000000000000000cf
:0a5dd40000000000000000000000c5
:025dde000000c3
:035de00062003f1f
:035de300720080cb
:025de6001100aa
:035de80082000036
:025deb000103b2
:085ded000000000000000000ae
:085df5000000000000000000a6
:085dfd0000000000000000009e
:085e0500000000000000000095
:0261ed000000b0
:0361ef00820080ab
:0261f2000103a7
:0861f4000000000000000000a3
:0861fc0000000000000000009b
:08620400000000000000000092
:08620c0000000000000000008a
:0265f4000000a5
:0265f600110191
:0365f8008200001e
:0265fb0001039a
:0865fd00000000000000000096
:0866050000000000000000008d
:08660d00000000000000000085
:0866150000000000000000007d
:0269fd00000098
:0369ff0082008093
:026a020001038e
:086a040000000000000000008a
:086a0c00000000000000000082
:086a140000000000000000007a
:086a1c00000000000000000072
:026e040000008c
:026e0600110277
:036e080082000005
:026e0b00010381
:086e0d0000000000000000007d
:086e1500000000000000000075
:086e1d0000000000000000006d
:086e2500000000000000000065
:02720d0000007f
:03720f008200807a
:02721200010376
:08721400000000000000000072
:08721c0000000000000000006a
:08722400000000000000000062
:08722c0000000000000000005a
:02761400000074
:0276160011035e
:03761800820000ed
:02761b00010369
:08761d00000000000000000065
:0876250000000000000000005d
:08762d00000000000000000055
:0876350000000000000000004d
:027a1d00000067
:037a1f0082008062
:027a220001035e
:087a240000000000000000005a
:087a2c00000000000000000052
:087a340000000000000000004a
:087a3c00000000000000000042
:027e240000005c
:017e26002239
:027e27001b68d6
:027e2900010650
:00000001FF
